:100000000C942A000C945E120C9494120C94CA1254
:100010000C946E0C0C943B0C0C94080C0C94D50BAB
:100020000C94A20B0C946F0B0C943C0B0C94090BCE
:100030000C94EF0F0C94FF070C9447000C94570896
:100040000C9447000C9447000C9447000C94470014
:100050000C94470011241FBECFE5D8E0DEBFCDBF12
:1000600015E0A0E6B0E0ECE2FAE502C005900D92E2
:10007000A43BB107D9F716E0A4EBB5E001C01D928F
:10008000AC30B107E1F70E94DF1F0C94142D0C94E3
:100090000000EF92FF920F931F937B018C0120E0F1
:1000A00030E040E05FE40E94490388238CF0C801FF
:1000B000B70120E030E040E05FE40E94C1010E940F
:1000C000A9039B01AC01205030404040504806C07D
:1000D000C801B7010E94A9039B01AC01B901CA0183
:1000E0001F910F91FF90EF900895A0E0B0E0EBE733
:1000F000F0E00C94DD2CDC012B01FA019C91923094
:1001000008F439C1EB018881823008F433C194309E
:1001100069F4843009F02FC111969C91119789815F
:10012000981709F428C1A7E6B5E025C1843009F481
:1001300021C18230A9F4923009F01DC19A01AD01AC
:1001400088E0EA010990AE01E90109929E0181501F
:10015000C1F7E201898111969C918923818308C1AD
:10016000923009F407C112962D903C901397EB0141
:100170008A819B811496AD90BD90CD90DC901797AD
:10018000EC80FD800E811F819101281B390BB90184
:1001900037FF04C066277727621B730B6032710537
:1001A0000CF061C0121613066CF537014801062EDB
:1001B00004C096948794779467940A94D2F721E0C8
:1001C00030E040E050E004C0220F331F441F551FB1
:1001D0006A95D2F721503040404050402E213F21B7
:1001E00040235123211531054105510521F021E01E
:1001F00030E040E050E079018A01E628F72808293C
:1002000019293CC0232BD1F1260E371E350146019A
:10021000062E04C096948794779467940A94D2F734
:1002200021E030E040E050E004C0220F331F441FC3
:10023000551F6A95D2F721503040404050402A2146
:100240003B214C215D21211531054105510521F04E
:1002500021E030E040E050E059016A01A628B728CB
:10026000C828D9280BC0821593052CF01C01AA249C
:10027000BB24650103C0EE24FF24870111969C91E5
:10028000D20111968C91981709F445C0992339F041
:10029000A80197012A193B094C095D0906C0A6016E
:1002A00095012E193F09400B510B57FD08C01182D3
:1002B0003382228224833583468357831DC081E0A5
:1002C00081833382228288279927DC01821B930B4A
:1002D000A40BB50B84839583A683B7830DC0220F2F
:1002E000331F441F551F24833583468357838281E0
:1002F000938101979383828324813581468157813D
:10030000DA01C9010197A109B1098F5F9F4FAF4F72
:10031000BF4328F30BC0918333822282EA0CFB1C7B
:100320000C1D1D1DE482F5820683178383E0808304
:10033000248135814681578157FF1AC0C901AA27F8
:1003400097FDA095BA2F81709070A070B0705695EF
:10035000479537952795822B932BA42BB52B848318
:100360009583A683B7838281938101969383828349
:10037000DF0101C0D201CD01CDB7DEB7E2E10C94BF
:10038000F92CA0E2B0E0E7ECF1E00C94E92C6983F1
:100390007A838B839C832D833E834F835887E9E048
:1003A000EE2EF12CEC0EFD1ECE010196B7010E943F
:1003B000D2048E010F5E1F4FCE010596B8010E9438
:1003C000D2048A8991E089278A8BC701B801AE01DE
:1003D000475E5F4F0E9475000E94FD03A096E6E015
:1003E0000C94052DA0E2B0E0E8EFF1E00C94E92CCC
:1003F00069837A838B839C832D833E834F835887C5
:10040000F9E0EF2EF12CEC0EFD1ECE010196B701A6
:100410000E94D2048E010F5E1F4FCE010596B801D7
:100420000E94D204C701B801AE01475E5F4F0E942F
:1004300075000E94FD03A096E6E00C94052DA0E255
:10044000B0E0E5E2F2E00C94DD2C69837A838B83E3
:100450009C832D833E834F835887CE010196BE0136
:10046000675F7F4F0E94D204CE010596BE016F5E8A
:100470007F4F0E94D2049985923088F0898982301A
:10048000C8F0943019F4823051F404C0843029F457
:10049000923081F487E695E0C6C0923049F420E0BE
:1004A0009A858A89981321E02A87CE010996BBC0D4
:1004B000823049F420E09A858A89981321E02A8BBA
:1004C000CE014196B0C02D843E844F8458886D88FB
:1004D0007E888F88988CEE24FF248701AA24BB2471
:1004E000650140E050E060E070E0E0E0F0E0C10174
:1004F00081709070892BE9F0E60CF71C081D191D1E
:100500009A01AB012A0D3B1D4C1D5D1D80E090E062
:10051000A0E0B0E0E614F7040805190520F481E036
:1005200090E0A0E0B0E0BA01A901480F591F6A1F8E
:100530007B1FAA0CBB1CCC1CDD1C97FE08C081E0F5
:1005400090E0A0E0B0E0A82AB92ACA2ADB2A3196B6
:10055000E032F10549F0660C771C881C991C569412
:10056000479437942794C3CFFA85EA892B893C892D
:100570008B859C85280F391F2E5F3F4F17C0CA01FE
:1005800081709070892B61F016950795F794E79428
:1005900080E090E0A0E0B0E8E82AF92A0A2B1B2BC3
:1005A00076956795579547952F5F3F4F77FDE7CF36
:1005B0000CC0440F551F661F771F17FD4160EE0CDE
:1005C000FF1C001F111F21503040403090E05907A0
:1005D00090E0690790E4790760F32B8F3C8FDB0193
:1005E000CA018F779070A070B07080349105A1051A
:1005F000B10561F447FD0AC0E114F10401051105DC
:1006000029F0405C5F4F6F4F7F4F40781A8EFE1786
:1006100011F081E08A8F4D8F5E8F6F8F78A383E01A
:10062000898FCE0149960E94FD03A096E2E10C94C9
:10063000F92CA8E1B0E0EFE1F3E00C94E92C698338
:100640007A838B839C832D833E834F83588789E0F5
:10065000E82EF12CEC0EFD1ECE010196B7010E9492
:10066000D2048E010F5E1F4FCE010596B8010E9485
:10067000D2048985823040F08989823028F0C70110
:10068000B8010E944A0501C08FEF6896E6E00C941D
:10069000052DA8E1B0E0EFE4F3E00C94E92C6983C8
:1006A0007A838B839C832D833E834F83588789E095
:1006B000E82EF12CEC0EFD1ECE010196B7010E9432
:1006C000D2048E010F5E1F4FCE010596B8010E9425
:1006D000D2048985823040F08989823028F0C701B0
:1006E000B8010E944A0501C08FEF6896E6E00C94BD
:1006F000052DA8E1B0E0EFE7F3E00C94E92C698365
:100700007A838B839C832D833E834F83588789E034
:10071000E82EF12CEC0EFD1ECE010196B7010E94D1
:10072000D2048E010F5E1F4FCE010596B8010E94C4
:10073000D2048985823040F08989823028F0C7014F
:10074000B8010E944A0501C081E06896E6E00C9479
:10075000052DACE0B0E0EFEAF3E00C94ED2C6983FA
:100760007A838B839C83CE010196BE016B5F7F4FA2
:100770000E94D2048D81823061F1823050F1843048
:1007800021F48E81882351F12EC02F81388537FDC9
:1007900020C06E812F3131051CF06623F9F023C093
:1007A0008EE190E0821B930B29853A854B855C8511
:1007B00004C056954795379527958A95D2F76623B5
:1007C000B1F050954095309521953F4F4F4F5F4F79
:1007D0000EC020E030E040E050E009C02FEF3FEFD6
:1007E0004FEF5FE704C020E030E040E050E8B9019F
:1007F000CA012C96E2E00C94092DDF92EF92FF9251
:100800000F931F93FC01E480F58006811781D1804E
:100810008081823048F480E090E0A0E1B0E0E82AF6
:10082000F92A0A2B1B2BA5C0843009F49FC0823003
:1008300021F4EE24FF24870105C0E114F104010531
:10084000110519F4E0E0F0E096C0628173819FEF3A
:10085000623879070CF05BC022E83FEF261B370BAC
:100860002A3131052CF020E030E040E050E02AC091
:10087000B801A701022E04C0769567955795479554
:100880000A94D2F781E090E0A0E0B0E004C0880FC5
:10089000991FAA1FBB1F2A95D2F70197A109B10979
:1008A0008E219F21A023B1230097A105B10521F03E
:1008B00081E090E0A0E0B0E09A01AB01282B392B59
:1008C0004A2B5B2BDA01C9018F779070A070B07052
:1008D00080349105A105B10539F427FF09C0205CDA
:1008E0003F4F4F4F5F4F04C0215C3F4F4F4F5F4F13
:1008F000E0E0F0E02030A0E03A07A0E04A07A0E402
:100900005A0710F0E1E0F0E079018A0127C0603871
:10091000710564F5FB01E158FF4FD801C7018F77DE
:100920009070A070B07080349105A105B10539F4C4
:10093000E7FE0DC080E490E0A0E0B0E004C08FE3EB
:1009400090E0A0E0B0E0E80EF91E0A1F1B1F17FFA1
:1009500005C016950795F794E794319687E01695AC
:100960000795F794E7948A95D1F705C0EE24FF2404
:100970008701EFEFF0E06E2F679566276795902F60
:100980009F77D794DD24D7948E2F8695492F462BB9
:10099000582F5D29B701CA011F910F91FF90EF9069
:1009A000DF900895FC01DB01408151812281622F9B
:1009B0006F7770E0221F2227221F9381892F880FD3
:1009C000822B282F30E0991F9927991F11969C930D
:1009D000119721153105A9F54115510561057105DD
:1009E00011F482E037C082E89FEF13969C938E93B8
:1009F00012979A01AB0167E0220F331F441F551F66
:100A00006A95D1F783E08C930DC0220F331F441FEA
:100A1000551F12968D919C911397019713969C9355
:100A20008E931297203080E0380780E0480780E4FA
:100A3000580758F314962D933D934D935C93179755
:100A400008952F3F310579F4411551056105710570
:100A500019F484E08C93089564FF03C081E08C93C3
:100A600012C01C9210C02F57304013963C932E9307
:100A7000129783E08C9387E0440F551F661F771F02
:100A80008A95D1F7706414964D935D936D937C9322
:100A9000179708951F93DC01FB019C91923008F495
:100AA00047C08081823008F443C0943051F41196DD
:100AB0001C91843099F58181682F70E0611B710968
:100AC0003FC0843021F0923031F48230B9F181811D
:100AD000882389F12DC011961C9111978230F1F075
:100AE00081811817D9F412962D913C911397828128
:100AF00093818217930794F028173907BCF0149656
:100B00008D919D910D90BC91A02D248135814681C0
:100B10005781281739074A075B0718F4112341F05A
:100B20000AC082179307A407B50740F4112319F0F0
:100B300061E070E005C06FEF7FEF02C060E070E041
:100B4000CB011F910895DF93CF9300D00F92CDB7C3
:100B5000DEB71B82ABE2B0E0EBE2F0E080818D7F9C
:100B60008C9383E390E09A838983E0E4F0E0108241
:100B7000E9E2F0E089818083ABE2B0E0EBE2F0E013
:100B800080818E7F8C938B818F7B8B838B818F7EFB
:100B90008B838B818F7D8B838B81877F8B838B81F5
:100BA00082608B838B8184608B83AAE2B0E0EAE26F
:100BB000F0E080818B7F8C938B8180688B83E0E475
:100BC000F0E08B818083AAE2B0E0EAE2F0E080818D
:100BD0008F778C93AAE2B0E0EAE2F0E080818F7B2D
:100BE0008C93AAE2B0E0EAE2F0E080818F7D8C9302
:100BF000AAE2B0E0EAE2F0E0808180618C93AAE2B0
:100C0000B0E0EAE2F0E0808188608C930F900F9072
:100C10000F90CF91DF910895DF93CF9300D000D054
:100C200000D0CDB7DEB78E831D8219821A821B8257
:100C30001C828091BA05882309F044C081E080932A
:100C4000BA050BC089819A81AB81BC810196A11D37
:100C5000B11D89839A83AB83BC83EBE2F0E0808192
:100C6000882F90E0807290709595879595958795DF
:100C7000959587959595879595958795009761F4B6
:100C800089819A81AB81BC81803127E2920720E083
:100C9000A20720E0B207B1F689819A81AB81BC81BD
:100CA000803127E2920720E0A20720E0B20719F482
:100CB00084E08D8304C0ECE2F0E08E8180831092AA
:100CC000BA0502C083E08D838D8126960FB6F89415
:100CD000DEBF0FBECDBFCF91DF910895DF93CF93DD
:100CE000CDB7DEB727970FB6F894DEBF0FBECDBFE6
:100CF0009F838E831D8219821A821B821C828E81A1
:100D00009F81009709F446C08091BA05882309F0B5
:100D10003EC081E08093BA050BC089819A81AB8186
:100D2000BC810196A11DB11D89839A83AB83BC83CD
:100D3000EBE2F0E08081881F8827881F882F90E0F1
:100D40009070009761F489819A81AB81BC81803178
:100D500027E2920720E0A20720E0B207F1F689819E
:100D60009A81AB81BC81803127E2920720E0A20703
:100D700020E0B20719F484E08D8306C0ECE2F0E0D5
:100D80008081EE81FF8180831092BA0505C083E0E7
:100D90008D8302C082E08D838D8127960FB6F894F3
:100DA000DEBF0FBECDBFCF91DF910895DF93CF930C
:100DB000CDB7DEB727970FB6F894DEBF0FBECDBF15
:100DC0009F838E831D8219821A821B821C828E81D0
:100DD0009F81009729F119C029813A818E819F81D5
:100DE000FC01E20FF31F80810E940C068D83898134
:100DF0009A81AB81BC810196A11DB11D89839A8323
:100E0000AB83BC838D81882369F429813A818E81EB
:100E10009F81FC01E20FF31F80818823E9F602C065
:100E200082E08D838D8127960FB6F894DEBF0FBECA
:100E3000CDBFCF91DF910895DF93CF9300D000D045
:100E40000F92CDB7DEB79B838A837D836C83198233
:100E50008091BA05882399F58A819B81009761F179
:100E60008C819D81009741F181E08093BA058A8150
:100E70009B819093B5058093B4058C819D8190935F
:100E8000B9058093B8051092BC05ACE2B0E02091A2
:100E9000B4053091B5058091BC05882F90E0F9012B
:100EA000E80FF91F80818C93AAE2B0E0EAE2F0E05B
:100EB000808180648C9305C082E0898302C083E0D6
:100EC000898389810F900F900F900F900F90CF9191
:100ED000DF910895DF93CF93CDB7DEB72B970FB691
:100EE000F894DEBF0FBECDBF9F838E83488759879E
:100EF0006A877B871D828E819F81009751F11982BD
:100F00001A821B821C8217C029813A818E819F819F
:100F1000820F931F0E946E068D838D818823D9F4E2
:100F200089819A81AB81BC810196A11DB11D898304
:100F30009A83AB83BC8329813A814B815C8188850C
:100F40009985AA85BB85281739074A075B07E0F210
:100F500002C082E08D838D812B960FB6F894DEBFA0
:100F60000FBECDBFCF91DF910895DF93CF93CDB763
:100F7000DEB729970FB6F894DEBF0FBECDBF9B83B7
:100F80008A834C835D836E837F83398728871982A8
:100F90008091BA05882339F58A819B81009701F1F8
:100FA000888599850097E1F081E08093BA058A8170
:100FB0009B819093B7058093B6058885998590931A
:100FC000B9058093B8058C818093BB051092BC0550
:100FD000AAE2B0E0EAE2F0E0808180688C9305C08C
:100FE00082E0898302C083E08983898129960FB6D4
:100FF000F894DEBF0FBECDBFCF91DF9108951F9251
:101000000F920FB60F9211242F933F934F935F933C
:101010006F937F938F939F93AF93BF93EF93FF93C0
:10102000DF93CF93CDB7DEB72091B6053091B705EA
:101030008091BC05882F90E0D901A80FB91FECE280
:10104000F0E080818C938091BC058F5F8093BC051C
:101050009091BC058091BB059817B1F41092BC0526
:101060001092BA058091B8059091B905009729F0C2
:10107000E091B805F091B9050995AAE2B0E0EAE27D
:10108000F0E080818F778C93CF91DF91FF91EF918A
:10109000BF91AF919F918F917F916F915F914F9190
:1010A0003F912F910F900FBE0F901F9018951F9298
:1010B0000F920FB60F9211242F933F934F935F938C
:1010C0006F937F938F939F93AF93BF93EF93FF9310
:1010D000DF93CF93CDB7DEB78091BC058F5F809350
:1010E000BC052091B4053091B5058091BC05882FD1
:1010F00090E0F901E80FF91F80818823B9F410927C
:10110000BC051092BA058091B8059091B905009779
:1011100029F0E091B805F091B9050995AAE2B0E08F
:10112000EAE2F0E080818F7B8C930FC0ACE2B0E00C
:101130002091B4053091B5058091BC05882F90E0D1
:10114000F901E80FF91F80818C93CF91DF91FF9116
:10115000EF91BF91AF919F918F917F916F915F912F
:101160004F913F912F910F900FBE0F901F901895A8
:10117000DF93CF93CDB7DEB7A3E5B0E0E3E5F0E0D2
:10118000808180648C93A3E5B0E0E3E5F0E08081AA
:1011900088608C93A3E5B0E0E3E5F0E080818F7E8A
:1011A0008C93A3E5B0E0E3E5F0E0808180628C936E
:1011B000ECE5F0E01082A3E5B0E0E3E5F0E080814B
:1011C000887F8C93A3E5B0E0E3E5F0E08081856063
:1011D0008C93CF91DF910895DF93CF93CDB7DEB796
:1011E000AFE4B0E0EFE4F0E080818E7F8C93AFE479
:1011F000B0E0EFE4F0E0808182608C93AEE4B0E098
:10120000EEE4F0E0808188608C93AEE4B0E0EEE440
:10121000F0E0808180618C93EAE4F0E0118210823A
:10122000E8E4F0E011821082E6E4F0E08FEF90E075
:1012300091838083AEE4B0E0EEE4F0E080818064EE
:101240008C93AFE4B0E0EFE4F0E080818F7B8C938F
:10125000AFE4B0E0EFE4F0E0808180688C93AFE42D
:10126000B0E0EFE4F0E080818F7E8C93AFE4B0E0FB
:10127000EFE4F0E0808180628C93A9E5B0E0E9E5DD
:10128000F0E080818B7F8C93A9E5B0E0E9E5F0E0A8
:1012900080818F7E8C93A9E5B0E0E9E5F0E0808164
:1012A000877F8C93A9E5B0E0E9E5F0E080818F7D50
:1012B0008C93AEE4B0E0EEE4F0E08081887F8C9324
:1012C000AEE4B0E0EEE4F0E0808182608C93CF91F8
:1012D000DF910895DF93CF93CDB7DEB7A5E4B0E0FB
:1012E000E5E4F0E0808180648C93A5E4B0E0E5E47F
:1012F000F0E0808188608C93A5E4B0E0E5E4F0E064
:1013000080818F7E8C93A5E4B0E0E5E4F0E08081FD
:1013100080628C93E3E4F0E01082A5E4B0E0E5E4C1
:10132000F0E08081887F8C93A5E4B0E0E5E4F0E014
:10133000808185608C93CF91DF910895DF93CF9367
:101340000F92CDB7DEB78983E2E5F0E08981808333
:101350000F90CF91DF910895DF93CF9300D0CDB759
:10136000DEB79A838983ECE4F0E089819A819183E6
:1013700080830F900F90CF91DF910895DF93CF93EB
:101380000F92CDB7DEB78983E4E4F0E089818083F2
:101390000F90CF91DF910895DF93CF930F92CDB748
:1013A000DEB78983ECE5F0E0898180830F90CF91EF
:1013B000DF910895DF93CF9300D0CDB7DEB79A8346
:1013C0008983EAE4F0E089819A81918380830F9098
:1013D0000F90CF91DF910895DF93CF9300D0CDB7D9
:1013E000DEB79A838983E8E4F0E089819A8191836A
:1013F00080830F900F90CF91DF910895DF93CF936B
:101400000F92CDB7DEB78983E3E4F0E08981808372
:101410000F90CF91DF910895DF93CF9300D0CDB798
:10142000DEB79A838983E6E4F0E089819A8191832B
:1014300080830F900F90CF91DF910895DF93CF932A
:10144000CDB7DEB7E2E5F0E08081CF91DF9108957E
:10145000DF93CF93CDB7DEB7ECE4F0E080819181EC
:10146000CF91DF910895DF93CF93CDB7DEB7E4E45A
:10147000F0E08081CF91DF910895DF93CF9300D08A
:10148000CDB7DEB79A838983EAE4F0E089819A8157
:10149000918380830F900F90CF91DF910895DF9318
:1014A000CF93CDB7DEB7AEE4B0E0EEE4F0E08081FC
:1014B00080648C93A9E5B0E0E9E5F0E0808180628A
:1014C0008C93CF91DF910895DF93CF9300D0CDB768
:1014D000DEB78A8319828A81813041F4AEE4B0E0BC
:1014E000EEE4F0E0808180648C930DC08A818823D3
:1014F00041F4AEE4B0E0EEE4F0E080818F7B8C93C9
:1015000002C081E0898389810F900F90CF91DF9194
:101510000895DF93CF93CDB7DEB7A9E5B0E0E9E555
:10152000F0E0808180628C93CF91DF910895DF930A
:10153000CF93CDB7DEB7A9E5B0E0E9E5F0E0808173
:101540008F7D8C93CF91DF910895DF93CF93CDB7AB
:10155000DEB7E6E4F0E080819181CF91DF910895DC
:10156000DF93CF93CDB7DEB7A1E4B0E0E1E4F0E0E4
:101570008081887F8C93A1E4B0E0E1E4F0E0808199
:1015800086608C93CF91DF910895DF93CF93CDB791
:10159000DEB7A1E4B0E0E1E4F0E0808188608C9304
:1015A000CF91DF910895DF93CF93CDB7DEB7A1E45C
:1015B000B0E0E1E4F0E0808188618C93E1E4F0E068
:1015C0001082CF91DF910895DF93CF9300D000D0A8
:1015D000CDB7DEB79B838A836C8319828A819B8116
:1015E000009769F08C81882F90E0880F991FFC018B
:1015F000E354FA4F8A819B819183808302C082E009
:10160000898389810F900F900F900F90CF91DF9178
:1016100008951F920F920FB60F9211242F933F93AC
:101620004F935F936F937F938F939F93AF93BF93EA
:10163000EF93FF93DF93CF93CDB7DEB78091D305C0
:101640009091D405009729F0E091D305F091D4054D
:101650000995CF91DF91FF91EF91BF91AF919F914C
:101660008F917F916F915F914F913F912F910F904B
:101670000FBE0F901F9018951F920F920FB60F92EA
:1016800011242F933F934F935F936F937F938F9387
:101690009F93AF93BF93EF93FF93DF93CF93CDB718
:1016A000DEB78091D1059091D205009729F0E091A5
:1016B000D105F091D2050995CF91DF91FF91EF917E
:1016C000BF91AF919F918F917F916F915F914F915A
:1016D0003F912F910F900FBE0F901F9018951F9262
:1016E0000F920FB60F9211242F933F934F935F9356
:1016F0006F937F938F939F93AF93BF93EF93FF93DA
:10170000DF93CF93CDB7DEB78091CF059091D00511
:10171000009729F0E091CF05F091D0050995CF9180
:10172000DF91FF91EF91BF91AF919F918F917F9149
:101730006F915F914F913F912F910F900FBE0F903E
:101740001F9018951F920F920FB60F9211242F938E
:101750003F934F935F936F937F938F939F93AF9339
:10176000BF93EF93FF93DF93CF93CDB7DEB7809115
:10177000CD059091CE05009729F0E091CD05F0912F
:10178000CE050995CF91DF91FF91EF91BF91AF9178
:101790009F918F917F916F915F914F913F912F9189
:1017A0000F900FBE0F901F9018951F920F920FB6BB
:1017B0000F9211242F933F934F935F936F937F93D7
:1017C0008F939F93AF93BF93EF93FF93DF93CF9349
:1017D000CDB7DEB78091CB059091CC05009729F06D
:1017E000E091CB05F091CC050995CF91DF91FF9168
:1017F000EF91BF91AF919F918F917F916F915F9189
:101800004F913F912F910F900FBE0F901F90189501
:101810001F920F920FB60F9211242F933F934F9365
:101820005F936F937F938F939F93AF93BF93EF9348
:10183000FF93DF93CF93CDB7DEB78091C905909129
:10184000CA05009729F0E091C905F091CA050995EC
:10185000CF91DF91FF91EF91BF91AF919F918F91C8
:101860007F916F915F914F913F912F910F900FBE9C
:101870000F901F9018951F920F920FB60F92112480
:101880002F933F934F935F936F937F938F939F9388
:10189000AF93BF93EF93FF93DF93CF93CDB7DEB7B3
:1018A0008091C7059091C805009729F0E091C70580
:1018B000F091C8050995CF91DF91FF91EF91BF910C
:1018C000AF919F918F917F916F915F914F913F91D8
:1018D0002F910F900FBE0F901F9018951F920F928F
:1018E0000FB60F9211242F933F934F935F936F93F3
:1018F0007F938F939F93AF93BF93EF93FF93DF9368
:10190000CF93CDB7DEB78091C5059091C6050097FE
:1019100029F0E091C505F091C6050995CF91DF91B9
:10192000FF91EF91BF91AF919F918F917F916F91B7
:101930005F914F913F912F910F900FBE0F901F908D
:101940001895DF93CF93CDB7DEB7ADE2B0E0EDE20F
:10195000F0E080818F7D8C93ADE2B0E0EDE2F0E0CD
:10196000808180618C9381E065E041E00E945413A6
:1019700081E067E041E00E945413ADE2B0E0EDE2A7
:10198000F0E08081877F8C93ADE2B0E0EDE2F0E0A3
:1019900080818B7F8C93ADE2B0E0EDE2F0E080815E
:1019A00081608C93ADE2B0E0EDE2F0E080818D7F6C
:1019B0008C93AEE2B0E0EEE2F0E080818E7F8C931B
:1019C000ADE2B0E0EDE2F0E080818F778C93ADE2A4
:1019D000B0E0EDE2F0E0808180648C93CF91DF9104
:1019E0000895DF93CF93CDB7DEB761970FB6F89424
:1019F000DEBF0FBECDBF9B838A8319828A819B8104
:101A0000009709F4CDC1EA81FB818581882309F41F
:101A1000C7C1EA81FB818481882309F4C1C1EA81BD
:101A2000FB818681882309F4BBC1EA81FB81828125
:101A3000882309F4B5C1EA81FB818081882309F4F8
:101A4000AFC1EA81FB818381882309F4A9C1EA81BE
:101A5000FB818181882309F4A3C1EA81FB8185810F
:101A6000282F30E0398B288B88899989009731F0AD
:101A7000288939892130310549F010C0ADE2B0E044
:101A8000EDE2F0E080818B7F8C930AC0ADE2B0E0A4
:101A9000EDE2F0E0808184608C9302C081E0898374
:101AA000EA81FB818481282F30E03F872E878E8555
:101AB0009F85009731F02E853F852130310549F013
:101AC00010C0ADE2B0E0EDE2F0E08081877F8C9362
:101AD0000AC0ADE2B0E0EDE2F0E0808188608C9376
:101AE00002C081E08983EA81FB818681282F30E072
:101AF0003D872C878C859D858330910509F46AC0CC
:101B00002C853D852430310584F48C859D8581307C
:101B10009105A1F12C853D85223031050CF044C0A2
:101B20008C859D850097A1F0ADC02C853D85253025
:101B3000310509F47BC08C859D85853091050CF4B9
:101B40005FC02C853D852630310509F485C09AC0DB
:101B5000ADE2B0E0EDE2F0E080818E7F8C93ADE20B
:101B6000B0E0EDE2F0E080818D7F8C93AEE2B0E0FA
:101B7000EEE2F0E0808181608C9386C0ADE2B0E05F
:101B8000EDE2F0E080818E7F8C93ADE2B0E0EDE29B
:101B9000F0E080818D7F8C93AEE2B0E0EEE2F0E089
:101BA00080818E7F8C9370C0ADE2B0E0EDE2F0E01A
:101BB000808181608C93ADE2B0E0EDE2F0E0808165
:101BC0008D7F8C93AEE2B0E0EEE2F0E08081816048
:101BD0008C935AC0ADE2B0E0EDE2F0E0808181602C
:101BE0008C93ADE2B0E0EDE2F0E080818D7F8C93EC
:101BF000AEE2B0E0EEE2F0E080818E7F8C9344C0F4
:101C0000ADE2B0E0EDE2F0E080818E7F8C93ADE25A
:101C1000B0E0EDE2F0E0808182608C93AEE2B0E073
:101C2000EEE2F0E0808181608C932EC0ADE2B0E006
:101C3000EDE2F0E080818E7F8C93ADE2B0E0EDE2EA
:101C4000F0E0808182608C93AEE2B0E0EEE2F0E002
:101C500080818E7F8C9318C0ADE2B0E0EDE2F0E0C1
:101C6000808181608C93ADE2B0E0EDE2F0E08081B4
:101C700082608C93AEE2B0E0EEE2F0E080818E7F95
:101C80008C9302C081E08983EA81FB818281282FC5
:101C900030E03B872A878A859B85009769F02A85F3
:101CA0003B852130310581F4ADE2B0E0EDE2F0E0BA
:101CB00080818F7D8C930AC0ADE2B0E0EDE2F0E070
:101CC000808180628C9302C081E08983EA81FB81FC
:101CD0008381282F30E03987288788859985009768
:101CE00031F0288539852130310549F010C0ADE249
:101CF000B0E0EDE2F0E0808180618C930AC0ADE25B
:101D0000B0E0EDE2F0E080818F7E8C9302C081E054
:101D10008983EA81FB818081282F30E03F832E83F5
:101D20008E819F81009731F02E813F8121303105D6
:101D300049F010C0ADE2B0E0EDE2F0E080818F77D5
:101D40008C930AC0ADE2B0E0EDE2F0E08081806803
:101D50008C9302C081E08983EA81FB818181282FF5
:101D600030E03D832C838C819D81009731F02C8164
:101D70003D812130310549F010C0ADE2B0E0EDE227
:101D8000F0E080818F7B8C930DC0ADE2B0E0EDE29E
:101D9000F0E0808180648C9305C081E0898302C07B
:101DA00082E08983898161960FB6F894DEBF0FBE09
:101DB000CDBFCF91DF910895DF93CF93CDB7DEB73D
:101DC00028970FB6F894DEBF0FBECDBF8E837887FD
:101DD0006F831D8219821A821B821C828091D30517
:101DE000882309F042C081E08093D305EFE2F0E060
:101DF0008E8180830BC089819A81AB81BC810196E1
:101E0000A11DB11D89839A83AB83BC83EEE2F0E010
:101E10008081881F8827881F882F90E09070009706
:101E200061F489819A81AB81BC81803127E292077C
:101E300020E0A20720E0B207F0F289819A81AB810D
:101E4000BC81803127E2920720E0A20720E0B207A0
:101E500019F484E08D8306C0EFE2F0E08081EF8129
:101E6000F88580831092D30502C083E08D838D8135
:101E700028960FB6F894DEBF0FBECDBFCF91DF918D
:101E80000895DF93CF93CDB7DEB727970FB6F894B9
:101E9000DEBF0FBECDBF9C838B837E836D834F835C
:101EA0001A8219828B819C81009709F18D819E8114
:101EB0000097E9F017C08981282F30E08B819C8141
:101EC000FC01E20FF31F40818981282F30E08D81D2
:101ED0009E81280F391F842FB9010E94DC0E898151
:101EE0008F5F898399818F81981728F302C082E0E0
:101EF0008A838A8127960FB6F894DEBF0FBECDBFC6
:101F0000CF91DF910895DF93CF9300D00F92CDB79B
:101F1000DEB79B838A8319828091D305882309F0D9
:101F200055C08A819B81009709F44DC0EA81FB81ED
:101F300080819181009709F446C0EA81FB8182810A
:101F40009381009709F43FC0EA81FB8185819681E6
:101F50000097C9F181E08093D305EA81FB818081FC
:101F600091819093CE058093CD05EA81FB8182819A
:101F700093819093D0058093CF05EA81FB81848182
:101F80008093D405EA81FB81858196819093D20567
:101F90008093D1051092D505AFE2B0E02091CD0538
:101FA0003091CE058091D505882F90E0F901E80F9A
:101FB000F91F80818C93ADE2B0E0EDE2F0E080812A
:101FC00080688C9305C082E0898302C083E08983A6
:101FD00089810F900F900F90CF91DF9108951F92FC
:101FE0000F920FB60F9211242F933F934F935F934D
:101FF0006F937F938F939F93AF93BF93EF93FF93D1
:10200000DF93CF93CDB7DEB72091CF053091D005C8
:102010008091D505882F90E0D901A80FB91FEFE274
:10202000F0E080818C938091D5058F5F8093D505FA
:102030009091D5058091D4059817A9F41092D305F5
:10204000ADE2B0E0EDE2F0E080818F778C9380919B
:10205000D1059091D2050097A9F0E091D105F091BA
:10206000D20509950FC0AFE2B0E02091CD053091C7
:10207000CE058091D505882F90E0F901E80FF91F72
:1020800080818C93CF91DF91FF91EF91BF91AF91C0
:102090009F918F917F916F915F914F913F912F9180
:1020A0000F900FBE0F901F901895DF93CF93CDB771
:1020B000DEB7AFE5B0E0EFE5F0E0808180688C93BB
:1020C000CF91DF910895DF93CF93CDB7DEB7AFE522
:1020D000B0E0EFE5F0E080818F778C93CF91DF91D6
:1020E0000895DF93CF93CDB7DEB7A4E5B0E0E4E584
:1020F000F0E0808180648C93CF91DF910895DF932D
:10210000CF9300D000D000D0CDB7DEB789836A83EB
:102110008A81863008F4D3C08A81883008F0CFC025
:102120008A81882F90E00697880F991F8A8389817A
:10213000282F30E03E832D838D819E818130910553
:1021400009F495C02D813E812230310534F48D8112
:102150009E81009709F461C0B2C02D813E8122307A
:10216000310531F08D819E818330910561F1A7C0E9
:10217000A5E5B0E0E5E5F0E08081482F8A81282FD1
:1021800030E081E090E002C0880F991F2A95E2F7C5
:10219000809584238C93A5E5B0E0E5E5F0E08081AF
:1021A000482F8A81882F90E09C012F5F3F4F81E06C
:1021B00090E0022E02C0880F991F0A94E2F78095E2
:1021C00084238C937CC0A5E5B0E0E5E5F0E0808158
:1021D000482F8A81282F30E081E090E002C0880FEC
:1021E000991F2A95E2F7842B8C93A5E5B0E0E5E5ED
:1021F000F0E08081482F8A81882F90E09C012F5F3A
:102200003F4F81E090E0022E02C0880F991F0A9490
:10221000E2F7809584238C9352C0A5E5B0E0E5E514
:10222000F0E08081482F8A81282F30E081E090E023
:1022300002C0880F991F2A95E2F7809584238C931A
:10224000A5E5B0E0E5E5F0E08081482F8A81882FA0
:1022500090E09C012F5F3F4F81E090E0022E02C092
:10226000880F991F0A94E2F7842B8C9328C0A5E568
:10227000B0E0E5E5F0E08081482F8A81282F30E04A
:1022800081E090E002C0880F991F2A95E2F7842B25
:102290008C93A5E5B0E0E5E5F0E08081482F8A81E8
:1022A000882F90E09C012F5F3F4F81E090E0022E4D
:1022B00002C0880F991F0A94E2F7842B8C938A81BD
:1022C0008530F1F48981282F30E03C832B838B818A
:1022D0009C81009731F02B813C812130310549F000
:1022E0000FC0A4E5B0E0E4E5F0E080818F7B8C9343
:1022F00007C0A4E5B0E0E4E5F0E0808180648C9361
:1023000026960FB6F894DEBF0FBECDBFCF91DF91FA
:102310000895DF93CF9300D0CDB7DEB78A831982BB
:102320008A81863031F08A81873019F08A81853040
:10233000A9F4ABE5B0E0EBE5F0E08081482F8A81BD
:10234000282F30E081E090E0022E02C0880F991F14
:102350000A94E2F7809584238C9302C081E08983FC
:1023600089810F900F90CF91DF910895DF93CF93E4
:1023700000D0CDB7DEB78A8319828A81863031F0EA
:102380008A81873019F08A818530A1F4ABE5B0E00D
:10239000EBE5F0E08081482F8A81282F30E081E052
:1023A00090E0022E02C0880F991F0A94E2F7842B56
:1023B0008C9302C081E0898389810F900F90CF9127
:1023C000DF910895DF93CF930F92CDB7DEB7898366
:1023D000AAE5B0E0EAE5F0E08081482F8981282F66
:1023E00030E081E090E0022E02C0880F991F0A942D
:1023F000E2F7842B8C930F90CF91DF910895DF93B8
:10240000CF930F92CDB7DEB78983EAE5F0E0808104
:10241000482F50E08981282F30E081E090E002C011
:10242000880F991F2A95E2F79A0128233923898179
:10243000882F90E0A90102C0559547958A95E2F74B
:10244000CA010F90CF91DF910895DF93CF9300D011
:1024500000D0CDB7DEB79B838A836C8319828A81D3
:102460009B81009709F18C81863039F48A819B81A8
:102470009093D7058093D60519C08C81873039F4A5
:102480008A819B819093D9058093D8050FC08C8158
:10249000853039F48A819B819093DB058093DA053E
:1024A00005C081E0898302C081E0898389810F9022
:1024B0000F900F900F90CF91DF9108951F920F9280
:1024C0000FB60F9211242F933F934F935F936F9307
:1024D0007F938F939F93AF93BF93EF93FF93DF937C
:1024E000CF93CDB7DEB78091D6059091D7050097F1
:1024F00041F0E091D605F091D705099586E00E945C
:10250000E211CF91DF91FF91EF91BF91AF919F9138
:102510008F917F916F915F914F913F912F910F908C
:102520000FBE0F901F9018951F920F920FB60F922B
:1025300011242F933F934F935F936F937F938F93C8
:102540009F93AF93BF93EF93FF93DF93CF93CDB759
:10255000DEB78091D8059091D905009741F0E091C0
:10256000D805F091D905099587E00E94E211CF9135
:10257000DF91FF91EF91BF91AF919F918F917F91EB
:102580006F915F914F913F912F910F900FBE0F90E0
:102590001F9018951F920F920FB60F9211242F9330
:1025A0003F934F935F936F937F938F939F93AF93DB
:1025B000BF93EF93FF93DF93CF93CDB7DEB78091B7
:1025C000DA059091DB05009741F0E091DA05F09192
:1025D000DB05099585E00E94E211CF91DF91FF9123
:1025E000EF91BF91AF919F918F917F916F915F918B
:1025F0004F913F912F910F900FBE0F901F90189504
:10260000DF93CF9300D00F92CDB7DEB79A83898343
:102610006B83EEE3F0E089819A8191838083EDE31F
:10262000F0E08B818083ACE3B0E0ECE3F0E080810C
:1026300084608C93ACE3B0E0ECE3F0E080818260F6
:102640008C93ECE3F0E08081882F90E082709070B2
:102650009595879581309105A1F30F900F900F907C
:10266000CF91DF910895DF93CF9300D0CDB7DEB740
:102670009A838983EEE3F0E089818083EFE3F0E0E1
:1026800089819A81892F99278083ACE3B0E0ECE3BC
:10269000F0E0808181608C93EDE3F0E080810F9029
:1026A0000F90CF91DF910895DF93CF93CDB7DEB731
:1026B00028970FB6F894DEBF0FBECDBF8A836B8319
:1026C0004C8381E089838A81843008F0F1C08B815A
:1026D000883008F0EDC08C81813009F06FC08A81AC
:1026E000282F30E038872F838F819885813091059E
:1026F00049F12F813885223031052CF48F8198855E
:10270000009761F0D6C02F8138852230310571F1F4
:102710008F81988583309105E9F1CBC0AAE3B0E0C1
:10272000EAE3F0E08081482F8B81282F30E081E0C0
:1027300090E0022E02C0880F991F0A94E2F7842BC2
:102740008C93B7C0A7E3B0E0E7E3F0E08081482FC7
:102750008B81282F30E081E090E0022E02C0880FAC
:10276000991F0A94E2F7842B8C93A3C0A4E3B0E0F2
:10277000E4E3F0E08081482F8B81282F30E081E076
:1027800090E0022E02C0880F991F0A94E2F7842B72
:102790008C938FC0A1E3B0E0E1E3F0E08081482FAB
:1027A0008B81282F30E081E090E0022E02C0880F5C
:1027B000991F0A94E2F7842B8C937BC08C81882329
:1027C00009F074C08A81282F30E03E832D838D81EB
:1027D0009E818130910559F12D813E812230310554
:1027E0002CF48D819E81009769F063C02D813E811C
:1027F0002230310589F18D819E818330910509F464
:1028000040C057C0AAE3B0E0EAE3F0E08081482F7F
:102810008B81282F30E081E090E0022E02C0880FEB
:10282000991F0A94E2F7809584238C9342C0A7E312
:10283000B0E0E7E3F0E08081482F8B81282F30E083
:1028400081E090E0022E02C0880F991F0A94E2F7FF
:10285000809584238C932DC0A4E3B0E0E4E3F0E002
:102860008081482F8B81282F30E081E090E0022E7C
:1028700002C0880F991F0A94E2F7809584238C93F5
:1028800018C0A1E3B0E0E1E3F0E08081482F8B8144
:10289000282F30E081E090E0022E02C0880F991FBF
:1028A0000A94E2F7809584238C9303C0198201C0B7
:1028B0001982898128960FB6F894DEBF0FBECDBF6E
:1028C000CF91DF910895DF93CF93CDB7DEB72897EF
:1028D0000FB6F894DEBF0FBECDBF8A836B834C83E7
:1028E00081E089838A81843008F0F1C08B8188304F
:1028F00008F0EDC08C81813009F06FC08A81282FEB
:1029000030E038872F838F8198858130910549F198
:102910002F813885223031052CF48F8198850097DE
:1029200061F0D6C02F8138852230310571F18F8159
:10293000988583309105E9F1CBC0ABE3B0E0EBE3E0
:10294000F0E08081482F8B81282F30E081E090E0FB
:10295000022E02C0880F991F0A94E2F7842B8C93F1
:10296000B7C0A8E3B0E0E8E3F0E08081482F8B81B6
:10297000282F30E081E090E0022E02C0880F991FDE
:102980000A94E2F7842B8C93A3C0A5E3B0E0E5E3BF
:10299000F0E08081482F8B81282F30E081E090E0AB
:1029A000022E02C0880F991F0A94E2F7842B8C93A1
:1029B0008FC0A2E3B0E0E2E3F0E08081482F8B819A
:1029C000282F30E081E090E0022E02C0880F991F8E
:1029D0000A94E2F7842B8C937BC08C81882309F0C6
:1029E00074C08A81282F30E03E832D838D819E81A3
:1029F0008130910559F12D813E81223031052CF431
:102A00008D819E81009769F063C02D813E812230C7
:102A1000310589F18D819E818330910509F440C093
:102A200057C0ABE3B0E0EBE3F0E08081482F8B814F
:102A3000282F30E081E090E0022E02C0880F991F1D
:102A40000A94E2F7809584238C9342C0A8E3B0E017
:102A5000E8E3F0E08081482F8B81282F30E081E08F
:102A600090E0022E02C0880F991F0A94E2F7809529
:102A700084238C932DC0A5E3B0E0E5E3F0E08081F2
:102A8000482F8B81282F30E081E090E0022E02C099
:102A9000880F991F0A94E2F7809584238C9318C0BD
:102AA000A2E3B0E0E2E3F0E08081482F8B81282FA1
:102AB00030E081E090E0022E02C0880F991F0A9456
:102AC000E2F7809584238C9303C0198201C0198298
:102AD000898128960FB6F894DEBF0FBECDBFCF9187
:102AE000DF910895DF93CF93CDB7DEB727970FB669
:102AF000F894DEBF0FBECDBF8A836B835D834C83AA
:102B000081E089838A81843008F0A6C08B81883077
:102B100008F0A2C08A81282F30E03F832E834E81A7
:102B20005F8141305105C1F18E819F8182309105D5
:102B300034F42E813F812115310571F08EC04E8114
:102B40005F814230510509F447C08E819F818330F7
:102B5000910509F461C081C0E9E3F0E08081482F6C
:102B600050E08B81282F30E081E090E002C0880F98
:102B7000991F2A95E2F79A01282339238B81882F00
:102B800090E0A90102C0559547958A95E2F7CA01E0
:102B9000EC81FD81808361C0E6E3F0E08081482F15
:102BA00050E08B81282F30E081E090E002C0880F58
:102BB000991F2A95E2F79A01282339238B81882FC0
:102BC00090E0A90102C0559547958A95E2F7CA01A0
:102BD000EC81FD81808341C0E3E3F0E08081482FF8
:102BE00050E08B81282F30E081E090E002C0880F18
:102BF000991F2A95E2F79A01282339238B81882F80
:102C000090E0A90102C0559547958A95E2F7CA015F
:102C1000EC81FD81808321C0E0E3F0E08081482FDA
:102C200050E08B81282F30E081E090E002C0880FD7
:102C3000991F2A95E2F79A01282339238B81882F3F
:102C400090E0A90102C0559547958A95E2F7CA011F
:102C5000EC81FD81808301C01982898127960FB69E
:102C6000F894DEBF0FBECDBFCF91DF910895DF9303
:102C7000CF9300D000D00F92CDB7DEB78A836B839D
:102C800081E089838A81843008F073C08B81883029
:102C900008F06FC08A81282F30E03D832C838C811F
:102CA0009D818130910549F12C813D812230310592
:102CB0002CF48C819D81009761F05CC02C813D815A
:102CC0002230310571F18C819D8183309105E9F1CC
:102CD00051C0ABE3B0E0EBE3F0E08081482F8B81A3
:102CE000282F30E081E090E0022E02C0880F991F6B
:102CF0000A94E2F784278C933DC0A8E3B0E0E8E3B0
:102D0000F0E08081482F8B81282F30E081E090E037
:102D1000022E02C0880F991F0A94E2F784278C9331
:102D200029C0A5E3B0E0E5E3F0E08081482F8B8186
:102D3000282F30E081E090E0022E02C0880F991F1A
:102D40000A94E2F784278C9315C0A2E3B0E0E2E393
:102D5000F0E08081482F8B81282F30E081E090E0E7
:102D6000022E02C0880F991F0A94E2F784278C93E1
:102D700001C0198289810F900F900F900F900F90D2
:102D8000CF91DF910895DF93CF9300D000D000D092
:102D9000CDB7DEB78A836B834C8381E089838A81D8
:102DA000843008F03EC18B81883008F03AC18A81B6
:102DB000282F30E03E832D838D819E8181309105C7
:102DC00009F45DC02D813E81223031052CF48D81C6
:102DD0009E81009771F026C12D813E812230310500
:102DE00009F493C08D819E818330910509F4D3C08D
:102DF00019C18C81813071F5A0E5B0E0E0E5F0E02B
:102E000080818B7F8C93AAE3B0E0EAE3F0E08081DD
:102E1000482F8B81282F30E081E090E002C0880F9E
:102E2000991F2A95E2F7809584238C93ABE3B0E059
:102E3000EBE3F0E08081482F8B81282F30E081E0A8
:102E400090E0022E02C0880F991F0A94E2F7842BAB
:102E50008C93E8C0ABE3B0E0EBE3F0E08081482F77
:102E60008B81282F30E081E090E0022E02C0880F95
:102E7000991F0A94E2F7809584238C93D3C08C81A8
:102E8000813071F5A0E5B0E0E0E5F0E080818B7F76
:102E90008C93A7E3B0E0E7E3F0E08081482F8B81DB
:102EA000282F30E081E090E002C0880F991F2A951A
:102EB000E2F7809584238C93A8E3B0E0E8E3F0E0A8
:102EC0008081482F8B81282F30E081E090E0022E16
:102ED00002C0880F991F0A94E2F7842B8C93A2C03A
:102EE000A8E3B0E0E8E3F0E08081482F8B81282F51
:102EF00030E081E090E0022E02C0880F991F0A9412
:102F0000E2F7809584238C938DC08C81813071F59C
:102F1000A0E5B0E0E0E5F0E080818B7F8C93A4E356
:102F2000B0E0E4E3F0E08081482F8B81282F30E08F
:102F300081E090E002C0880F991F2A95E2F7809502
:102F400084238C93A5E3B0E0E5E3F0E08081482F93
:102F50008B81282F30E081E090E0022E02C0880FA4
:102F6000991F0A94E2F7842B8C935CC0A5E3B0E030
:102F7000E5E3F0E08081482F8B81282F30E081E06D
:102F800090E0022E02C0880F991F0A94E2F7809504
:102F900084238C9347C08C81813071F5A0E5B0E02B
:102FA000E0E5F0E080818B7F8C93A1E3B0E0E1E38A
:102FB000F0E08081482F8B81282F30E081E090E085
:102FC00002C0880F991F2A95E2F7809584238C937D
:102FD000A2E3B0E0E2E3F0E08081482F8B81282F6C
:102FE00030E081E090E0022E02C0880F991F0A9421
:102FF000E2F7842B8C9316C0A2E3B0E0E2E3F0E0AA
:103000008081482F8B81282F30E081E090E0022ED4
:1030100002C0880F991F0A94E2F7809584238C934D
:1030200001C01982898126960FB6F894DEBF0FBEC3
:10303000CDBFCF91DF910895DF93CF9300D000D023
:103040000F92CDB7DEB78A836B8381E089838A8153
:103050008430A8F58A81282F30E03D832C838C8131
:103060009D8181309105D1F02C813D812230310547
:103070002CF48C819D81009761F01FC02C813D81D3
:103080002230310581F08C819D818330910581F062
:1030900014C0EAE3F0E08B81808312C0E7E3F0E044
:1030A0008B8180830DC0E4E3F0E08B81808308C0D6
:1030B000E1E3F0E08B81808303C0198201C01982B3
:1030C00089810F900F900F900F900F90CF91DF910B
:1030D0000895DF93CF9300D000D00F92CDB7DEB725
:1030E0008A836B8381E089838A818430A8F58A8111
:1030F000282F30E03D832C838C819D818130910588
:10310000D1F02C813D81223031052CF48C819D81C0
:10311000009761F01FC02C813D812230310581F084
:103120008C819D818330910581F014C0EBE3F0E048
:103130008B81808312C0E8E3F0E08B8180830DC037
:10314000E5E3F0E08B81808308C0E2E3F0E08B816F
:10315000808303C0198201C0198289810F900F906A
:103160000F900F900F90CF91DF910895DF93CF9341
:10317000CDB7DEB727970FB6F894DEBF0FBECDBF31
:103180008A837C836B8381E089838A81843008F021
:103190003FC08A81282F30E03F832E838E819F811C
:1031A00081309105E1F02E813F81223031052CF4F0
:1031B0008E819F81009761F027C02E813F81223050
:1031C0003105A1F08E819F8183309105B1F01CC043
:1031D000E9E3F0E08081EB81FC81808316C0E6E3C7
:1031E000F0E08081EB81FC8180830FC0E3E3F0E0BD
:1031F0008081EB81FC81808308C0E0E3F0E0808186
:10320000EB81FC81808301C0198299819D8303C079
:10321000198229812D838D8127960FB6F894DEBF00
:103220000FBECDBFCF91DF910895DF93CF9300D034
:1032300000D0CDB7DEB78A8381E089838A8184306C
:1032400008F03FC08A81282F30E03C832B838B819C
:103250009C8181309105E9F02B813C812230310540
:103260002CF48B819C81009761F02CC02B813C81D8
:1032700022303105B1F08B819C8183309105C9F0FA
:1032800021C0ABE3B0E0EBE3F0E0808180958C936C
:1032900019C0A8E3B0E0E8E3F0E0808180958C936A
:1032A00011C0A5E3B0E0E5E3F0E0808180958C9368
:1032B00009C0A2E3B0E0E2E3F0E0808180958C9366
:1032C00001C0198289810F900F900F900F90CF91BC
:1032D000DF910895DF93CF9300D000D00F92CDB748
:1032E000DEB78A836B8381E089838A81843008F02A
:1032F00062C08B818F708B838A81282F30E03D8361
:103300002C838C819D818130910529F12C813D8117
:10331000223031052CF48C819D81009761F04CC0E6
:103320002C813D812230310531F18C819D818330AA
:10333000910589F141C0ABE3B0E0EBE3F0E08081BF
:10334000807F8C93ABE3B0E0EBE3F0E090818B8186
:10335000892B8C9331C0A8E3B0E0E8E3F0E08081F2
:10336000807F8C93A8E3B0E0E8E3F0E090818B816C
:10337000892B8C9321C0A5E3B0E0E5E3F0E08081E8
:10338000807F8C93A5E3B0E0E5E3F0E090818B8152
:10339000892B8C9311C0A2E3B0E0E2E3F0E08081DE
:1033A000807F8C93A2E3B0E0E2E3F0E090818B8138
:1033B000892B8C9301C0198289810F900F900F90F7
:1033C0000F900F90CF91DF910895DF93CF9300D0AE
:1033D00000D00F92CDB7DEB78A836B8381E08983FB
:1033E0008A81843008F063C08B818295807F8B83D3
:1033F0008A81282F30E03D832C838C819D81813010
:10340000910529F12C813D81223031052CF48C81EC
:103410009D81009761F04CC02C813D8122303105A7
:1034200031F18C819D818330910589F141C0ABE3FD
:10343000B0E0EBE3F0E080818F708C93ABE3B0E021
:10344000EBE3F0E090818B81892B8C9331C0A8E372
:10345000B0E0E8E3F0E080818F708C93A8E3B0E007
:10346000E8E3F0E090818B81892B8C9321C0A5E368
:10347000B0E0E5E3F0E080818F708C93A5E3B0E0ED
:10348000E5E3F0E090818B81892B8C9311C0A2E35E
:10349000B0E0E2E3F0E080818F708C93A2E3B0E0D3
:1034A000E2E3F0E090818B81892B8C9301C019823B
:1034B00089810F900F900F900F900F90CF91DF9117
:1034C0000895DF93CF9300D000D00F92CDB7DEB731
:1034D0008A836B8381E089838A81843008F062C0AB
:1034E0008B818F708B838A81282F30E03D832C83E2
:1034F0008C819D818130910529F12C813D81223083
:1035000031052CF48C819D81009761F04CC02C8199
:103510003D812230310531F18C819D8183309105CF
:1035200089F141C0AAE3B0E0EAE3F0E08081807F66
:103530008C93AAE3B0E0EAE3F0E090818B81892BE1
:103540008C9331C0A7E3B0E0E7E3F0E08081807FB7
:103550008C93A7E3B0E0E7E3F0E090818B81892BC7
:103560008C9321C0A4E3B0E0E4E3F0E08081807FAD
:103570008C93A4E3B0E0E4E3F0E090818B81892BAD
:103580008C9311C0A1E3B0E0E1E3F0E08081807FA3
:103590008C93A1E3B0E0E1E3F0E090818B81892B93
:1035A0008C9301C0198289810F900F900F900F901A
:1035B0000F90CF91DF910895DF93CF9300D000D08B
:1035C0000F92CDB7DEB78A836B8381E089838A81CE
:1035D000843008F063C08B818295807F8B838A81E1
:1035E000282F30E03D832C838C819D818130910593
:1035F00029F12C813D81223031052CF48C819D8173
:10360000009761F04CC02C813D812230310531F1B1
:103610008C819D818330910589F141C0AAE3B0E09E
:10362000EAE3F0E080818F708C93AAE3B0E0EAE3F4
:10363000F0E090818B81892B8C9331C0A7E3B0E0BF
:10364000E7E3F0E080818F708C93A7E3B0E0E7E3DD
:10365000F0E090818B81892B8C9321C0A4E3B0E0B2
:10366000E4E3F0E080818F708C93A4E3B0E0E4E3C6
:10367000F0E090818B81892B8C9311C0A1E3B0E0A5
:10368000E1E3F0E080818F708C93A1E3B0E0E1E3AF
:10369000F0E090818B81892B8C9301C01982898104
:1036A0000F900F900F900F900F90CF91DF91089592
:1036B000DF93CF9300D00F92CDB7DEB769837A83C3
:1036C0008B8389819A81692F41E00E9454130F9066
:1036D0000F900F90CF91DF910895DF93CF9300D09B
:1036E0000F92CDB7DEB769837A838B838B8181306C
:1036F00039F489819A81692F41E00E94631409C0DD
:103700008B81882331F489819A81692F40E00E945E
:1037100063140F900F900F90CF91DF910895DF9376
:10372000CF9300D00F92CDB7DEB769837A838B83B6
:103730008B81813039F489819A81692F40E00E9420
:10374000631409C08B81882331F489819A81692FA0
:1037500041E00E9463140F900F900F90CF91DF9182
:103760000895DF93CF9300D00F92CDB7DEB7698372
:103770007A838B8389819A81692F0E9437160F90F3
:103780000F900F90CF91DF9108950F931F93DF93C8
:10379000CF930F92CDB7DEB783E190E00E94331351
:1037A0008093DC0584E190E00E9433138093DD0573
:1037B00082E190E00E9433138F3F31F082E190E08C
:1037C0000E94331380936F0580E190E00E943313D1
:1037D0008F3F49F480E690E00E94D6068DE00E947B
:1037E0000C060E94251C81E190E00E9433138F3F5C
:1037F00049F40E94D21C8FE690E00E94D6068DE02C
:103800000E940C0680916F05882311F40E943A1FD4
:10381000198210C08981082F10E08981882F90E0DB
:1038200081960E943313F801E950FA4F8083898111
:103830008F5F89839091DC058981891758F30F90F8
:10384000CF91DF911F910F910895DF93CF93CDB763
:10385000DEB782E890E00E94D6068DE00E940C065A
:103860008FE890E00E94D6068DE00E940C06109230
:10387000DC058091DC05882381F081EA90E00E94DC
:10388000D6068DE00E940C0683EC90E00E94D606DE
:103890008DE00E940C061092DC0586EF95E00E94F8
:1038A0006E068093720580917205882301F58091E0
:1038B000DC058823E1F48091F6058D3071F3809169
:1038C000F6058F3051F38091F605883031F3809101
:1038D000DC05882F90E081962091F605622F0E94EA
:1038E00000138091DC058F5F8093DC05D6CF80913B
:1038F0007205882331F58091DC05843110F58091C3
:10390000F6058D30D9F18091F6058F30B9F18091AF
:10391000F605883031F48091DC0581508093DC0518
:10392000BCCF8091DC05882F90E081962091F60530
:10393000622F0E9400138091DC058F5F8093DC056D
:10394000ACCF80917205882309F0A7CF8091DC0568
:10395000843108F4A2CF8091F6058D3079F0809102
:10396000F6058F3059F08091F605883009F095CF33
:103970008091DC0581508093DC058FCF8091DC0540
:10398000863008F476CF80E190E060E00E9400137A
:103990002091DC0583E190E0622F0E940013CF911B
:1039A000DF910895DF93CF93CDB7DEB785ED90E03B
:1039B0000E94D6068DE00E940C068FE890E00E94DF
:1039C000D6068DE00E940C061092DD058091DD0583
:1039D0008823B9F082EE90E00E94D6068DE00E9426
:1039E0000C0684E091E00E94D6068DE00E940C0651
:1039F0008FE890E00E94D6068DE00E940C0610929F
:103A0000DD0586EF95E00E946E0680937205809139
:103A10007205882309F58091DD058823E9F48091FA
:103A2000F6058D3071F38091F6058F3051F380915A
:103A3000F605883031F38091DD05882F90E08F5BAB
:103A40009F4F2091F605622F0E9400138091DD05A3
:103A50008F5F8093DD05D5CF80917205882339F57E
:103A60008091DD05843118F58091F6058D30E1F106
:103A70008091F6058F30C1F18091F605883031F4E0
:103A80008091DD0581508093DD05BBCF8091DD0500
:103A9000882F90E08F5B9F4F2091F605622F0E9448
:103AA00000138091DD058F5F8093DD05AACF8091A3
:103AB0007205882309F0A5CF8091DD05843108F4D3
:103AC000A0CF8091F6058D3079F08091F6058F308A
:103AD00059F08091F605883009F093CF8091DD058B
:103AE00081508093DD058DCF8091DD05863008F40F
:103AF0006DCF81E190E060E00E9400132091DD0530
:103B000084E190E0622F0E940013CF91DF9108952D
:103B10001F93DF93CF9300D0CDB7DEB784E191E060
:103B20000E94D6068DE00E940C061A8281E08093E6
:103B3000700586EF95E00E946E0680937205809175
:103B400072058823E1F48A818823C9F48091F605FF
:103B50008D3079F38091F6058F3059F38091F60519
:103B6000883039F38A81882F90E02091F605FC0196
:103B7000EF51FA4F20838A818F5F8A83DACF809159
:103B80007205882301F58A818431E8F48091F60575
:103B90008D3099F18091F6058F3079F18091F6059D
:103BA000883021F48A8181508A83C3CF8A81882F0B
:103BB00090E02091F605FC01EF51FA4F20838A81B5
:103BC0008F5F8A83B6CF80917205882309F0B1CFC9
:103BD0008A81843108F4ADCF8091F6058D3069F08B
:103BE0008091F6058F3049F08091F605883009F014
:103BF000A0CF8A8181508A839CCF9091DC058A81F5
:103C0000891729F519821DC08981882F90E0FC0150
:103C1000EF51FA4F8081882309F18981882F90E044
:103C2000FC01EF51FA4F10818981882F90E0819635
:103C30000E943313181711F01092700589818F5F5D
:103C400089839091DD0589819817F0F607C09091DE
:103C5000DC058A81891711F0109270050F900F9082
:103C6000CF91DF911F9108951F93DF93CF9300D0E1
:103C7000CDB7DEB783E291E00E94D6068DE00E94C8
:103C80000C061A8281E08093710586EF95E00E9410
:103C90006E0680937205809172058823E1F48A8113
:103CA0008823C9F48091F6058D3079F38091F6056B
:103CB0008F3059F38091F605883039F38A81882F47
:103CC00090E02091F605FC01EF51FA4F20838A81A4
:103CD0008F5F8A83DACF80917205882301F58A810C
:103CE0008431E8F48091F6058D3099F18091F605E4
:103CF0008F3079F18091F605883021F48A818150E6
:103D00008A83C3CF8A81882F90E02091F605FC0139
:103D1000EF51FA4F20838A818F5F8A83B6CF8091DB
:103D20007205882309F0B1CF8A81843108F4ADCFC0
:103D30008091F6058D3069F08091F6058F3049F05D
:103D40008091F605883009F0A0CF8A8181508A835E
:103D50009CCF9091DD058A81891731F519821EC0AB
:103D60008981882F90E0FC01EF51FA4F80818823F0
:103D700011F18981882F90E0FC01EF51FA4F1081F9
:103D80008981882F90E08F5B9F4F0E943313181713
:103D900011F01092710589818F5F89839091DD0503
:103DA00089818917E8F207C09091DD058A8189171A
:103DB00011F0109271050F900F90CF91DF911F912C
:103DC0000895DF93CF93CDB7DEB70E94881D0E9480
:103DD000341E80917005882321F08091710588231D
:103DE000B9F582E391E00E94D6068DE00E940C06B0
:103DF00080916F05815080936F0520916F0582E15E
:103E000090E0622F0E94001380916F05882369F073
:103E10008FE491E00E94D60680916F05805D0E943C
:103E20000C068DE00E940C06D0CF80916F05882390
:103E300061F68FE491E00E94D60680916F05805D67
:103E40000E940C068DE00E940C060E943A1FBDCF16
:103E50008DE591E00E94D60682E190E06FEF0E942E
:103E6000001383E080936F058DE00E940C06CF91D4
:103E7000DF910895DF93CF93CDB7DEB72F970FB6BD
:103E8000F894DEBF0FBECDBF82E791E00E94D60658
:103E900085E08F877CC080E20E940C068F85805D64
:103EA0000E940C0680E090E0AAE7B4E48B879C8730
:103EB000AD87BE876B857C858D859E8520E030E053
:103EC0004AEF54E40E941F02DC01CB018F839887E4
:103ED000A987BA876F81788589859A8520E030E047
:103EE00040E85FE30E94790388232CF481E090E0AE
:103EF0009E838D833FC06F81788589859A8520E078
:103F00003FEF4FE757E40E94190318164CF56B85F5
:103F10007C858D859E8520E030E040E251E40E9462
:103F20001F02DC01CB01BC01CD010E944900DC0174
:103F3000CB019E838D830FC088EC90E09C838B83A4
:103F40008B819C810197F1F79C838B838D819E816E
:103F500001979E838D838D819E81009769F714C0A0
:103F60006F81788589859A850E944900DC01CB01A3
:103F70009E838D838D819E819A83898389819A8195
:103F80000197F1F79A8389838F8581508F878F8579
:103F9000882309F080CF8DE00E940C0682E190E03A
:103FA0006FEF0E94001383E080936F052F960FB68A
:103FB000F894DEBF0FBECDBFCF91DF910895DF93A0
:103FC000CF9300D0CDB7DEB780E06FEF0E941C1812
:103FD00082E06FEF0E941C1883E06EEF0E941C18B5
:103FE00081E060E041E00E94541381E061E041E043
:103FF0000E9454130E94A3050E94A10C0E94C51B9D
:1040000081E063E041E00E9454130E94B80883E01D
:1040100067E041E00E9454130E946A090E94551013
:1040200085E00E94B61183E065E00E947F1084EA7B
:104030009BE265E00E94251281E062E040E00E9480
:1040400054130E94E11E8DE791E00E94D60687EF8F
:1040500095E00E94D6068DE00E940C0686E891E06D
:104060000E94D6068DE00E940C0684E991E00E9431
:10407000D6068AEA91E00E94D6068DE00E940C06E0
:1040800088EB91E00E94D6068EEC91E00E94D60665
:104090008DE00E940C068BED91E00E94D60681EF28
:1040A00091E00E94D6068DE00E940C0685E092E029
:1040B0000E94D6068BE192E00E94D6068DE00E9417
:1040C0000C0687E292E00E94D6068DE392E00E9401
:1040D000D6068DE00E940C0689E492E00E94D60686
:1040E0008FE592E00E94D6068DE00E940C061092A9
:1040F000DE051092DF0586EF95E00E946E06809344
:104100007205809172058823B9F58091DE058823B8
:1041100099F58091F6058D3021F08091F6058F306C
:1041200019F41092E005E7CF8091F605883019F474
:104130001092E005E0CF1092E0058091F6058053E3
:104140008093F6058091DF05882F90E09C01220F77
:10415000331FC901880F991F880F991F820F931F62
:10416000982F8091F605890F8093DF058091DE05F9
:104170008F5F8093DE05BFCF80917205882309F0A1
:1041800045C08091DE05833008F040C08091F6057F
:104190008D3021F08091F6058F3019F41092E005F2
:1041A0005EC08091F605883081F41092E005809120
:1041B000DF059AE0692F0E94D12C8093DF05809162
:1041C000DE0581508093DE0596CF1092E005809148
:1041D000F60580538093F6058091DF05882F90E0E7
:1041E0009C01220F331FC901880F991F880F991F47
:1041F000820F931F982F8091F605890F8093DF051A
:104200008091DE058F5F8093DE0575CF809172050A
:10421000882309F070CF8091DE05833008F46BCFDE
:104220008091F6058D3021F08091F6058F3019F4DC
:104230001092E00514C08091F605883041F4109288
:10424000E0058091DE0581508093DE0554CF109209
:10425000E0058091DE058F5F8093DE054CCF809175
:10426000DF058D3038F08BE692E00E94D6068DE0B7
:104270000E940C068091DF058D3008F038CF8091C8
:10428000DF05282F30E03A83298389819A8186309F
:10429000910509F45AC029813A81273031050CF57E
:1042A00089819A818330910509F446C029813A8138
:1042B000243031055CF489819A8181309105B1F116
:1042C00029813A8122303105A1F1C8CE89819A81B4
:1042D00084309105A1F129813A812530310591F190
:1042E000BDCE89819A8189309105C1F129813A81B8
:1042F0002A3031055CF489819A818730910541F13A
:1043000029813A812830310531F1A8CE89819A81FD
:104310008B30910549F129813A812B3031050CF11F
:1043200089819A818C30910511F198CE0E94BA2131
:1043300095CE0E94452392CE0E94C6238FCE0E9426
:1043400089258CCE0E948D2689CE0E94F82686CEA5
:104350000E94FC2783CE0E943E2880CE0E94B12876
:104360007DCE0E9408297ACE0E947A2A77CE0E94BA
:10437000CB2A74CEDF93CF93CDB7DEB76E970FB64F
:10438000F894DEBF0FBECDBF8AE792E00E94D6064A
:104390008DE00E940C068BE892E00E94D60681EA2E
:1043A00092E00E94D6068DE00E940C068FEA92E011
:1043B0000E94D60685EC92E00E94D6068DE00E940F
:1043C0000C0684ED92E00E94D6068DE00E940C0659
:1043D00086EF95E00E946E068093720580917205CB
:1043E000882309F044C18091F605282F30E03E8FE4
:1043F0002D8F8D8D9E8D8333910579F12D8D3E8D81
:10440000243331058CF48D8D9E8D81339105C9F057
:104410002D8D3E8D22333105D4F48D8D9E8D8830C7
:10442000910509F421C123C12D8D3E8D2433310521
:1044300009F492C08D8D9E8D8533910509F40BC1D1
:1044400016C18DE00E940C060E948C2910C18DE0DF
:104450000E940C060E94032A0AC12BE036E081E08C
:10446000B9010E94DC0E80E090E0A8E4B2E4898FFC
:104470009A8FAB8FBC8F698D7A8D8B8D9C8D20E050
:1044800030E04AEF54E40E941F02DC01CB018D8B27
:104490009E8BAF8BB88F6D897E898F89988D20E038
:1044A00030E040E85FE30E94790388232CF481E048
:1044B00090E09C8B8B8B3FC06D897E898F89988D16
:1044C00020E03FEF4FE757E40E94190318164CF520
:1044D000698D7A8D8B8D9C8D20E030E040E251E437
:1044E0000E941F02DC01CB01BC01CD010E944900EA
:1044F000DC01CB019C8B8B8B0FC088EC90E09A8BFE
:10450000898B89899A890197F1F79A8B898B8B8995
:104510009C8901979C8B8B8B8B899C89009769F771
:1045200014C06D897E898F89988D0E944900DC01B5
:10453000CB019C8B8B8B8B899C89988B8F878F85EC
:1045400098890197F1F7988B8F872BE036E083E00D
:10455000B9010E94DC0E8BC02BE036E082E0B9018D
:104560000E94DC0E80E090E0A8E4B2E48B879C8798
:10457000AD87BE876B857C858D859E8520E030E08C
:104580004AEF54E40E941F02DC01CB018F8398871D
:10459000A987BA876F81788589859A8520E030E080
:1045A00040E85FE30E94790388232CF481E090E0E7
:1045B0009E838D833FC06F81788589859A8520E0B1
:1045C0003FEF4FE757E40E94190318164CF56B852F
:1045D0007C858D859E8520E030E040E251E40E949C
:1045E0001F02DC01CB01BC01CD010E944900DC01AE
:1045F000CB019E838D830FC088EC90E09C838B83DE
:104600008B819C810197F1F79C838B838D819E81A7
:1046100001979E838D838D819E81009769F714C0D9
:104620006F81788589859A850E944900DC01CB01DC
:104630009E838D838D819E819A83898389819A81CE
:104640000197F1F79A8389832BE036E084E0B90182
:104650000E94DC0E0CC060918A0570918B058091E0
:104660008C050E94B11B03C08DE00E940C06809156
:10467000F6058D3009F0ACCE6E960FB6F894DEBF1D
:104680000FBECDBFCF91DF910895DF93CF9300D0C0
:10469000CDB7DEB782EE92E00E94D6068DE00E9492
:1046A0000C0687EF92E00E94D6068DE093E00E9410
:1046B000D6068DE00E940C068CE193E00E94D6069F
:1046C00082E393E00E94D6068DE00E940C0686EFFE
:1046D00095E00E946E068093720580917205882392
:1046E00009F04AC08091F605282F30E03A832983EB
:1046F00089819A818233910521F129813A8123337D
:1047000031055CF489819A818830910591F1298184
:104710003A812133310561F02FC089819A81833339
:104720009105C1F029813A8124333105E1F024C09B
:1047300060919F057091A0058091A1050E94B11B19
:104740001BC06091A2057091A3058091A4050E94F1
:10475000B11B12C06091A5057091A6058091A705B7
:104760000E94B11B09C08DE00E940C060E943124FA
:1047700003C08DE00E940C068091F6058D3009F093
:10478000A6CF0F900F90CF91DF910895DF93CF9335
:1047900000D0CDB7DEB78DE393E00E94D6068DE062
:1047A0000E940C0687EF92E00E94D6068DE093E00F
:1047B0000E94D6068DE00E940C068EE493E00E94D3
:1047C000D6068DE00E940C0686EF95E00E946E06EC
:1047D00080937205809172058823C9F58091F60552
:1047E000282F30E03A83298389819A818233910589
:1047F000F9F029813A81233331055CF489819A816A
:104800008830910509F129813A812133310539F048
:104810001EC089819A818333910599F018C06091F7
:10482000990570919A0580919B050E94B11B0FC05C
:1048300060919C0570919D0580919E050E94B11B21
:1048400006C00E94DD2403C08DE00E940C0680910A
:10485000F6058D3009F0B8CF0F900F90CF91DF9112
:104860000895DF93CF9300D0CDB7DEB789E593E00D
:104870000E94D6068DE00E940C0688E693E00E9416
:10488000D6068EE793E00E94D6068DE00E940C06C5
:1048900089E893E00E94D6068FE993E00E94D6064D
:1048A0008DE00E940C068AEA93E00E94D6068DE015
:1048B0000E940C0686EF95E00E946E0680937205BA
:1048C00080917205882309F06EC08091F605282F2B
:1048D00030E03A83298389819A818333910571F18C
:1048E00029813A812433310584F489819A81813385
:1048F0009105B1F029813A8122333105C4F48981CF
:104900009A818830910579F14EC029813A8124330A
:104910003105D9F089819A8185339105E9F043C049
:104920002BE036E085E0B9010E94DC0E3CC02BE0B4
:1049300036E086E0B9010E94DC0E35C02BE036E09F
:1049400087E0B9010E94DC0E2EC02BE036E088E043
:10495000B9010E94DC0E27C02BE036E089E0B901E6
:104960000E94DC0E20C08DE00E940C0682EE92E0D8
:104970000E94D6068DE00E940C0687EF92E00E940E
:10498000D6068DE093E00E94D6068DE00E940C06CC
:104990008CE193E00E94D60682E393E00E94D60663
:1049A0008DE00E940C068091F6058D3009F082CFD3
:1049B0000F900F90CF91DF910895DF93CF9300D0A8
:1049C000CDB7DEB789E593E00E94D6068DE00E9460
:1049D0000C0688E693E00E94D6068EE793E00E94DC
:1049E000D6068DE00E940C0689E893E00E94D60668
:1049F0008FE993E00E94D6068DE00E940C068AEAB9
:104A000093E00E94D6068DE00E940C0686EF95E0AA
:104A10000E946E068093720580917205882309F0CA
:104A20006EC08091F605282F30E03A832983898172
:104A30009A818333910571F129813A8124333105BB
:104A400084F489819A8181339105B1F029813A8179
:104A500022333105C4F489819A818830910579F136
:104A60004EC029813A8124333105D9F089819A8158
:104A700085339105E9F043C02BE036E08AE0B901C7
:104A80000E94DC0E3CC02BE036E08BE0B9010E94B6
:104A9000DC0E35C02BE036E08CE0B9010E94DC0E64
:104AA0002EC02BE036E08DE0B9010E94DC0E27C05D
:104AB0002BE036E08EE0B9010E94DC0E20C08DE0D4
:104AC0000E940C068DE393E00E94D6068DE00E94C2
:104AD0000C0687EF92E00E94D6068DE093E00E94DC
:104AE000D6068DE00E940C068CE193E00E94D6066B
:104AF00082E393E00E94D6068DE00E940C0680912E
:104B0000F6058D3009F082CF0F900F90CF91DF9195
:104B10000895DF93CF9300D0CDB7DEB785EB93E058
:104B20000E94D6068DE00E940C0687EF92E00E945C
:104B3000D6068DE093E00E94D6068DE00E940C061A
:104B400089EC93E00E94D6068DE00E940C0686EF69
:104B500095E00E946E06809372058091720588230D
:104B6000C9F58091F605282F30E03A8329838981A1
:104B70009A8182339105F9F029813A8123333105F5
:104B80005CF489819A818830910509F129813A8103
:104B90002133310539F01EC089819A818333910513
:104BA00099F018C060917B0570917C0580917D051E
:104BB0000E94B11B0FC060917E0570917F058091AE
:104BC00080050E94B11B06C00E94F42503C08DE041
:104BD0000E940C068091F6058D3009F0B8CF0F9039
:104BE0000F90CF91DF910895DF93CF9300D0CDB791
:104BF000DEB789E593E00E94D6068DE00E940C06A0
:104C000088E693E00E94D6068EE793E00E94D606DF
:104C10008DE00E940C0689E893E00E94D6068FE999
:104C200093E00E94D6068DE00E940C068AEA93E08B
:104C30000E94D6068DE00E940C0686EF95E00E9449
:104C40006E068093720580917205882309F05BC01F
:104C50008091F605282F30E03A83298389819A8153
:104C60008333910541F129813A812433310584F45C
:104C700089819A8181339105B1F029813A8122336A
:104C80003105ACF489819A818830910501F13BC0EE
:104C900029813A812433310591F089819A818533C4
:104CA000910589F030C080E00E94CC092CC08FE3D0
:104CB0000E94CC0928C08EE70E94CC0924C08DEB4D
:104CC0000E94CC0920C08FEF0E94CC091CC08DE04F
:104CD0000E940C0685EB93E00E94D6068DE00E94B0
:104CE0000C0687EF92E00E94D6068DE093E00E94CA
:104CF000D6068DE00E940C0689EC93E00E94D60651
:104D00008DE00E940C068091F6058D3009F095CF5C
:104D10000F900F90CF91DF910895DF93CF9300D044
:104D2000CDB7DEB784ED93E00E94D6068DE00E94F9
:104D30000C0687EF92E00E94D6068DE093E00E9479
:104D4000D6068DE00E940C068FEE93E00E94D606F8
:104D50008DE00E940C0686EF95E00E946E0680931F
:104D60007205809172058823C9F58091F605282F78
:104D700030E03A83298389819A8182339105F9F061
:104D800029813A81233331055CF489819A81883005
:104D9000910509F129813A812133310539F01EC08D
:104DA00089819A818333910599F018C06091A80593
:104DB0007091A9058091AA050E94B11B0FC0609156
:104DC000AB057091AC058091AD050E94B11B06C08A
:104DD0000E94632703C08DE00E940C068091F605B7
:104DE0008D3009F0B8CF0F900F90CF91DF910895DB
:104DF000DF93CF9300D0CDB7DEB78CEF93E00E9466
:104E0000D6068DE00E940C0687EF92E00E94D6063F
:104E10008DE093E00E94D6068DE00E940C068FEE96
:104E200093E00E94D6068DE00E940C0686EF95E086
:104E30000E946E0680937205809172058823C9F5E1
:104E40008091F605282F30E03A83298389819A8161
:104E500082339105F9F029813A81233331055CF4DD
:104E600089819A818830910509F129813A8121331C
:104E7000310539F01EC089819A818333910599F0FB
:104E800018C06091AE057091AF058091B0050E9489
:104E9000B11B0FC06091B1057091B2058091B3054F
:104EA0000E94B11B06C00E94632703C08DE00E94D0
:104EB0000C068091F6058D3009F0B8CF0F900F9059
:104EC000CF91DF910895DF93CF9300D0CDB7DEB7B8
:104ED00089E593E00E94D6068DE00E940C0688E6E4
:104EE00093E00E94D6068EE793E00E94D6068DE0FE
:104EF0000E940C0689E893E00E94D6068FE993E0B1
:104F00000E94D6068DE00E940C068AEA93E00E9479
:104F1000D6068DE00E940C0686EF95E00E946E0694
:104F20008093720580917205882309F05BC080919F
:104F3000F605282F30E03A83298389819A818333CB
:104F4000910541F129813A812433310584F4898125
:104F50009A8181339105B1F029813A81223331055B
:104F6000ACF489819A818830910501F13BC0298197
:104F70003A812433310591F089819A8185339105F5
:104F800089F030C080E00E94FE092CC08FE30E94AF
:104F9000FE0928C08EE70E94FE0924C08DEB0E9406
:104FA000FE0920C08FEF0E94FE091CC08DE00E9408
:104FB0000C0687E194E00E94D6068DE00E940C0664
:104FC00087EF92E00E94D6068DE093E00E94D6061D
:104FD0008DE00E940C068FEE93E00E94D6068DE0D5
:104FE0000E940C068091F6058D3009F095CF0F9048
:104FF0000F90CF91DF910895DF93CF9300D0CDB77D
:10500000DEB780E394E00E94D6068DE00E940C0695
:1050100085E494E00E94D6068DE00E940C0686EF9F
:1050200095E00E946E068093720580917205882338
:10503000E1F48091F605282F30E03A8329838981B5
:105040009A818830910571F029813A8121333105A7
:1050500061F46091810570918205809183050E94C1
:10506000B11B03C08DE00E940C068091F6058D30C7
:10507000B1F60F900F90CF91DF910895DF93CF930A
:1050800000D0CDB7DEB784E594E00E94D6068DE06F
:105090000E940C0687EF92E00E94D6068DE093E016
:1050A0000E94D6068DE00E940C0687E694E00E94DE
:1050B000D6068DE00E940C0686EF95E00E946E06F3
:1050C0008093720580917205882309F040C0809119
:1050D000F605282F30E03A83298389819A8182332B
:1050E0009105F9F029813A81233331055CF48981F6
:1050F0009A818830910541F129813A812133310526
:1051000039F025C089819A818333910599F01FC0B8
:105110006091750570917605809177050E94B11BAD
:1051200016C0609178057091790580917A050E948A
:10513000B11B0DC080910B06882F90E09C018FE081
:10514000B9010E94DC0E03C08DE00E940C06809124
:10515000F6058D3009F0B0CF0F900F90CF91DF9111
:105160000895DF93CF9300D0CDB7DEB786E794E004
:105170000E94D6068DE00E940C0687EF92E00E9406
:10518000D6068DE093E00E94D6068DE00E940C06C4
:1051900086EF95E00E946E068093720580917205FD
:1051A000882369F58091F605282F30E03A8329831A
:1051B00089819A818133910559F029813A8122337D
:1051C000310579F089819A818830910599F017C06D
:1051D0006091840570918505809186050E94B11BC0
:1051E0000EC06091870570918805809189050E94A5
:1051F000B11B05C08DE00E940C06109273058091D2
:10520000F6058D3029F60F900F90CF91DF9108951C
:10521000DF93CF9300D0CDB7DEB78AE894E00E9449
:10522000D6068DE00E940C0687EF92E00E94D6061B
:105230008DE093E00E94D6068DE00E940C068DE979
:1052400094E00E94D60683EB94E00E94D6068DE09F
:105250000E940C0686EF95E00E946E068093720510
:1052600080917205882309F04DC08091F605282FA2
:1052700030E03A83298389819A818233910521F133
:1052800029813A81233331055CF489819A81883000
:105290009105A9F129813A812133310561F032C0AC
:1052A00089819A8183339105C1F029813A81243320
:1052B0003105E1F027C060918D0570918E058091D8
:1052C0008F050E94B11B1EC06091900570919105E1
:1052D000809192050E94B11B15C060919305709159
:1052E0009405809195050E94B11B0CC060919605B4
:1052F00070919705809198050E94B11B03C08DE0C5
:105300000E940C068091F6058D3009F0A3CF0F9016
:105310000F90CF91DF910895DF93CF9300D0CDB759
:10532000DEB782EC94E00E94D6068DE00E940C0667
:1053300084ED94E00E94D6068AEE94E00E94D606A0
:105340008DE00E940C0686EF95E00E946E06809329
:10535000720580917205882309F04BC08091F60593
:10536000282F30E03A83298389819A8181339105FE
:1053700059F029813A812233310569F089819A8176
:105380008830910579F035C02BE036E081E0B90135
:105390000E94DC0E2EC02BE036E082E0B9010E94B4
:1053A000DC0E27C08DE00E940C068AE792E00E9486
:1053B000D6068DE00E940C068BE892E00E94D6068D
:1053C00081EA92E00E94D6068DE00E940C068FEAE8
:1053D00092E00E94D60685EC92E00E94D6068DE00F
:1053E0000E940C0684ED92E00E94D6068DE00E9499
:1053F0000C068091F605883009F0A5CF0F900F902C
:10540000CF91DF910895DF93CF9300D0CDB7DEB772
:1054100082EF94E00E94D6068DE00E940C0684ED97
:1054200094E00E94D6068AEE94E00E94D6068DE0B3
:105430000E940C0686EF95E00E946E06809372052E
:1054400080917205882309F04BC08091F605282FC2
:1054500030E03A83298389819A818133910559F01B
:1054600029813A812233310569F089819A81883016
:10547000910579F035C02BE036E083E0B9010E9458
:10548000DC0E2EC02BE036E084E0B9010E94DC0E79
:1054900027C08DE00E940C068AE792E00E94D606A3
:1054A0008DE00E940C068BE892E00E94D60681EA0D
:1054B00092E00E94D6068DE00E940C068FEA92E0F0
:1054C0000E94D60685EC92E00E94D6068DE00E94EE
:1054D0000C0684ED92E00E94D6068DE00E940C0638
:1054E0008091F605883009F0A5CF0F900F90CF91ED
:1054F000DF910895DF93CF9300D0CDB7DEB780E082
:1055000095E00E94D6068DE00E940C0684ED94E0A2
:105510000E94D60681E195E00E94D6068DE00E94A9
:105520000C0686EF95E00E946E06809372058091CE
:105530007205882339F58091F605282F30E03A83EB
:10554000298389819A818133910559F029813A8192
:105550002233310569F089819A818830910579F08B
:1055600011C02BE036E080E1B9010E94DC0E0AC0D8
:105570002BE036E081E1B9010E94DC0E03C08DE032
:105580000E940C068091F605883059F60F900F9016
:10559000CF91DF910895DF93CF9300D0CDB7DEB7E1
:1055A0008AE195E00E94D6068DE00E940C0683E217
:1055B00095E00E94D6068DE00E940C0686E395E0F9
:1055C0000E94D6068DE00E940C0689E495E00E94B8
:1055D000D6068DE00E940C0686EF95E00E946E06CE
:1055E0008093720580917205882309F0A3C0809191
:1055F000F605282F30E03A83298389819A81823306
:10560000910509F43FC029813A812333310564F4BF
:1056100089819A818830910509F489C029813A816C
:105620002133310541F086C089819A818333910508
:1056300009F44FC07FC08DE00E940C0680E190E02D
:105640006FEF0E9400130E94251C8AE195E00E94E2
:10565000D6068DE00E940C0683E295E00E94D606F5
:105660008DE00E940C0686E395E00E94D6068DE050
:105670000E940C0689E495E00E94D6068DE00E9407
:105680000C0658C08DE00E940C0681E190E06FEF9F
:105690000E9400130E94D21C8AE195E00E94D60667
:1056A0008DE00E940C0683E295E00E94D6068DE014
:1056B0000E940C0686E395E00E94D6068DE00E94CB
:1056C0000C0689E495E00E94D6068DE00E940C0647
:1056D00031C08DE00E940C0680E190E06FEF0E94E7
:1056E000001381E190E06FEF0E9400130E94251CDF
:1056F0000E94D21C8AE195E00E94D6068DE00E94AD
:105700000C0683E295E00E94D6068DE00E940C060E
:1057100086E395E00E94D6068DE00E940C0689E49F
:1057200095E00E94D6068DE00E940C0603C08DE035
:105730000E940C068091F605883009F04DCF0F903D
:105740000F90CF91DF910895DF93CF93CDB7DEB760
:105750002E970FB6F894DEBF0FBECDBF60917505D2
:1057600070917605809177050E94B11B6091780554
:105770007091790580917A050E94B11B60917B053B
:1057800070917C0580917D050E94B11B60917E0522
:1057900070917F05809180050E94B11B6091810509
:1057A00070918205809183050E94B11B60918405F0
:1057B00070918505809186050E94B11B60918705D7
:1057C00070918805809189050E94B11B60918A05BE
:1057D00070918B0580918C050E94B11B60918D05A5
:1057E00070918E0580918F050E94B11B609190058C
:1057F00070919105809192050E94B11B6091930573
:1058000070919405809195050E94B11B6091960559
:1058100070919705809198050E94B11B6091990540
:1058200070919A0580919B050E94B11B60919C0527
:1058300070919D0580919E050E94B11B60919F050E
:105840007091A0058091A1050E94B11B6091A205F5
:105850007091A3058091A4050E94B11B6091A505DC
:105860007091A6058091A7050E94B11B6091A805C3
:105870007091A9058091AA050E94B11B6091AB05AA
:105880007091AC058091AD050E94B11B6091AE0591
:105890007091AF058091B0050E94B11B6091B10578
:1058A0007091B2058091B3050E94B11B80E090E039
:1058B000A8ECB2E48B879C87AD87BE876B857C851F
:1058C0008D859E8520E030E04AEF54E40E941F025F
:1058D000DC01CB018F839887A987BA876F81788590
:1058E00089859A8520E030E040E85FE30E947903F3
:1058F00088232CF481E090E09E838D833FC06F81EC
:10590000788589859A8520E03FEF4FE757E40E942C
:10591000190318164CF56B857C858D859E8520E0D6
:1059200030E040E251E40E941F02DC01CB01BC01E7
:10593000CD010E944900DC01CB019E838D830FC005
:1059400088EC90E09C838B838B819C810197F1F79D
:105950009C838B838D819E8101979E838D838D8116
:105960009E81009769F714C06F81788589859A8533
:105970000E944900DC01CB019E838D838D819E8135
:105980009A83898389819A810197F1F79A83898320
:105990002E960FB6F894DEBF0FBECDBFCF91DF912C
:1059A0000895991B79E004C0991F961708F0961B7B
:1059B000881F7A95C9F7809508952F923F924F924C
:1059C0005F926F927F928F929F92AF92BF92CF928F
:1059D000DF92EF92FF920F931F93CF93DF93CDB798
:1059E000DEB7CA1BDB0B0FB6F894DEBF0FBECDBF10
:1059F00009942A88398848885F846E847D848C84E1
:105A00009B84AA84B984C884DF80EE80FD800C81E9
:105A10001B81AA81B981CE0FD11D0FB6F894DEBFCC
:0C5A20000FBECDBFED010895F894FFCF3C
:105A2C00506C65617365205369676E205570005327
:105A3C0061766564205375636365737366756C6C0E
:105A4C00790053657420557365724E616D65004D18
:105A5C006178696D756D2063686172203A2032300F
:105A6C0000557365724E616D65204D7573742062BF
:105A7C0065204D6F7265207468616E203520436817
:105A8C00617200526520456E7465722055736572A3
:105A9C004E616D65005365742050617373576F725E
:105AAC00640050617373576F7264204D757374206A
:105ABC006265204D6F7265207468616E20352043DD
:105ACC00686172005265205365742050617373577E
