:100000000C942A000C9447000C9447000C94470071
:100010000C9449100C9416100C94E30F0C94B00F30
:100020000C947D0F0C944A0F0C94170F0C94E40E53
:100030000C94C0130C94E00B0C9447000C94380CF7
:100040000C94411F0C9447000C9447000C944700FB
:100050000C94470011241FBECFE5D8E0DEBFCDBF12
:1000600011E0A0E6B0E0ECEFF9E502C005900D92DA
:10007000AE3CB107D9F712E0AEECB1E001C01D9281
:10008000A231B107E1F70E94092B0C94FC2C0C94CF
:100090000000EF92FF920F931F937B018C0120E0F1
:1000A00030E040E05FE40E94110588238CF0C80135
:1000B000B70120E030E040E05FE40E94DD020E94F2
:1000C000CF059B01AC01205030404040504806C055
:1000D000C801B7010E94CF059B01AC01B901CA015B
:1000E0001F910F91FF90EF900895EF92FF920F9361
:1000F0001F937B018C0120E030E040E050E00E9443
:10010000410588230CF05CC0C801B70190580E94DB
:10011000E9002195E1E0121608F0E0E03195F1E008
:10012000131608F0F0E0E32EEE1AE1E03E1508F0B9
:10013000E0E0FE2B4195A1E0141608F0A0E0F42EBB
:10014000FF1AE1E04F1508F0E0E0AE2B5195F1E029
:10015000151608F0F0E0052F0A1BE1E0501708F033
:10016000E0E0FE2B6195A1E0161608F0A0E0162F46
:100170001F1BE1E0611708F0E0E0AE2B7195F1E0A4
:10018000171608F0F0E0B72FBA1BE1E07B1708F074
:10019000E0E0FE2B8195A1E0181608F0A0E0382FD2
:1001A0003F1BF32FE1E0831708F0E0E0AE2B9195C1
:1001B0003E2D4F2D502F612F7B2F8F2F9A1B04C068
:1001C000C801B7010E94E9001F910F91FF90EF90C5
:1001D0000895A0E0B0E0EFEEF0E00C94C52C7B01B8
:1001E0008C0120E030E040E85FE30E944105882375
:1001F0004CF4AA24BB24CC24DD24EE24FF2400E00C
:1002000010E086C0C801B70120E030E040E85FE4BC
:100210000E944105882354F4C801B7010E94490097
:100220005B016C01EE24FF24870172C0C801B70195
:1002300020E030E040E85FE50E94410587FD0FC007
:10024000AA24AA94BB24BA94CC24CA94DD24DA94B8
:10025000EE24EA94FF24FA940FEF1FEF59C0C8016F
:10026000B70120E030E040E85FE20E943B037B0101
:100270008C0122243324210190E1A92EB12CC12C20
:10028000D12CC0E0D0E061E070E080E090E00A2C8A
:1002900004C0660F771F881F991F0A94D2F70E9427
:1002A00023063B014C01C801B701A40193010E9440
:1002B0001105882364F02A283B284C285D28C801B2
:1002C000B701A40193010E9435047B018C01D694EF
:1002D000C794B794A7942196C530D105A1F6C8015B
:1002E000B70120E030E040E85FE40E943B030E9459
:1002F00049005B016C019B01A60160E070E080E0B9
:1003000090E0022D0E949C0659016A017B018C013C
:100310009501A601B701C801CDB7DEB7E2E10C94A3
:10032000E12CA0E0B0E0E7E9F1E00C94C52CDC01A1
:100330002B01FA019C91923008F439C1EB018881BC
:10034000823008F433C1943069F4843009F02FC14D
:1003500011969C9111978981981709F428C1A5E7F6
:10036000B0E025C1843009F421C18230A9F4923073
:1003700009F01DC19A01AD0188E0EA010990AE01C2
:10038000E90109929E018150C1F7E201898111962C
:100390009C918923818308C1923009F407C1129688
:1003A0002D903C901397EB018A819B811496AD9020
:1003B000BD90CD90DC901797EC80FD800E811F8161
:1003C0009101281B390BB90137FF04C06627772735
:1003D000621B730B603271050CF061C012161306BC
:1003E0006CF537014801062E04C0969487947794E3
:1003F00067940A94D2F721E030E040E050E004C076
:10040000220F331F441F551F6A95D2F721503040E9
:10041000404050402E213F214023512321153105DA
:100420004105510521F021E030E040E050E0790144
:100430008A01E628F728082919293CC0232BD1F185
:10044000260E371E35014601062E04C09694879469
:10045000779467940A94D2F721E030E040E050E0CE
:1004600004C0220F331F441F551F6A95D2F7215035
:100470003040404050402A213B214C215D21211534
:1004800031054105510521F021E030E040E050E028
:1004900059016A01A628B728C828D9280BC0821597
:1004A00093052CF01C01AA24BB24650103C0EE2493
:1004B000FF24870111969C91D20111968C91981777
:1004C00009F445C0992339F0A80197012A193B097D
:1004D0004C095D0906C0A60195012E193F09400B84
:1004E000510B57FD08C01182338222822483358349
:1004F000468357831DC081E081833382228288270F
:100500009927DC01821B930BA40BB50B8483958385
:10051000A683B7830DC0220F331F441F551F2483AA
:1005200035834683578382819381019793838283A6
:100530002481358146815781DA01C9010197A109DA
:10054000B1098F5F9F4FAF4FBF4328F30BC091831B
:1005500033822282EA0CFB1C0C1D1D1DE482F582F5
:100560000683178383E08083248135814681578108
:1005700057FF1AC0C901AA2797FDA095BA2F81700D
:100580009070A070B0705695479537952795822B3F
:10059000932BA42BB52B84839583A683B783828169
:1005A0009381019693838283DF0101C0D201CD0143
:1005B000CDB7DEB7E2E10C94E12CA0E2B0E0E3EECF
:1005C000F2E00C94D12C69837A838B839C832D83F6
:1005D0003E834F835887E9E0EE2EF12CEC0EFD1E92
:1005E000CE010196B7010E943F088E010F5E1F4F9A
:1005F000CE010596B8010E943F088A8991E08927BB
:100600008A8BC701B801AE01475E5F4F0E9491011E
:100610000E946A07A096E6E00C94ED2CA0E2B0E000
:10062000E4E1F3E00C94D12C69837A838B839C837F
:100630002D833E834F835887F9E0EF2EF12CEC0E8B
:10064000FD1ECE010196B7010E943F088E010F5E8C
:100650001F4FCE010596B8010E943F08C701B8019F
:10066000AE01475E5F4F0E9491010E946A07A0960B
:10067000E6E00C94ED2CA0E2B0E0E1E4F3E00C94B1
:10068000C52C69837A838B839C832D833E834F8320
:100690005887CE010196BE01675F7F4F0E943F08D9
:1006A000CE010596BE016F5E7F4F0E943F0899857F
:1006B000923088F089898230C8F0943019F4823001
:1006C00051F404C0843029F4923081F485E790E03D
:1006D000C6C0923049F420E09A858A89981321E0B7
:1006E0002A87CE010996BBC0823049F420E09A8562
:1006F0008A89981321E02A8BCE014196B0C02D84BF
:100700003E844F8458886D887E888F88988CEE242C
:10071000FF248701AA24BB24650140E050E060E08B
:1007200070E0E0E0F0E0C10181709070892BE9F0A9
:10073000E60CF71C081D191D9A01AB012A0D3B1D83
:100740004C1D5D1D80E090E0A0E0B0E0E614F704F1
:100750000805190520F481E090E0A0E0B0E0BA01BE
:10076000A901480F591F6A1F7B1FAA0CBB1CCC1C78
:10077000DD1C97FE08C081E090E0A0E0B0E0A82A70
:10078000B92ACA2ADB2A3196E032F10549F0660C13
:10079000771C881C991C5694479437942794C3CF90
:1007A000FA85EA892B893C898B859C85280F391F1E
:1007B0002E5F3F4F17C0CA0181709070892B61F086
:1007C00016950795F794E79480E090E0A0E0B0E8F4
:1007D000E82AF92A0A2B1B2B76956795579547959A
:1007E0002F5F3F4F77FDE7CF0CC0440F551F661FAB
:1007F000771F17FD4160EE0CFF1C001F111F2150D9
:100800003040403090E0590790E0690790E4790764
:1008100060F32B8F3C8FDB01CA018F779070A07043
:10082000B07080349105A105B10561F447FD0AC09F
:10083000E114F1040105110529F0405C5F4F6F4F91
:100840007F4F40781A8EFE1711F081E08A8F4D8F0E
:100850005E8F6F8F78A383E0898FCE0149960E94C7
:100860006A07A096E2E10C94E12CA8E1B0E0EBE38A
:10087000F4E00C94CD2C69837A838B839C832D8345
:100880003E834F835887B9E0EB2EF12CEC0EFD1E12
:10089000CE010196B7010E943F088E010F5E1F4FE7
:1008A000CE010596B8010E943F082985223008F440
:1008B0007EC03989323010F4B8017CC08A859A89AB
:1008C00089278A87243011F0223031F4231709F068
:1008D0006EC065E770E06EC0343039F41D861E8648
:1008E0001F86188A1C861B8604C0323021F484E0DF
:1008F0008987B7015FC02B853C858B899C89281B24
:10090000390B3C872B87ED84FE840F851889AD88D1
:10091000BE88CF88D88CEA14FB040C051D0540F472
:10092000EE0CFF1C001F111F215030403C872B870D
:1009300020E030E040E050E080E090E0A0E0B0E473
:1009400060E070E0EA14FB040C051D0540F0282B64
:10095000392B4A2B5B2BEA18FB080C091D09B695AD
:10096000A79597958795EE0CFF1C001F111F6F5FD1
:100970007F4F6F31710531F7DA01C9018F779070C0
:10098000A070B07080349105A105B10561F427FD18
:100990000AC0E114F1040105110529F0205C3F4F64
:1009A0004F4F5F4F20782D873E874F87588BBE0172
:1009B000675F7F4FCB010E946A076896EAE00C945C
:1009C000E92CA8E1B0E0E7EEF4E00C94D12C6983C7
:1009D0007A838B839C832D833E834F83588789E062
:1009E000E82EF12CEC0EFD1ECE010196B7010E94FF
:1009F0003F088E010F5E1F4FCE010596B8010E9481
:100A00003F088985823040F08989823028F0C7010B
:100A1000B8010E94B70801C08FEF6896E6E00C9419
:100A2000ED2CA8E1B0E0E7E1F5E00C94D12C69836E
:100A30007A838B839C832D833E834F83588789E001
:100A4000E82EF12CEC0EFD1ECE010196B7010E949E
:100A50003F088E010F5E1F4FCE010596B8010E9420
:100A60003F088985823040F08989823028F0C701AB
:100A7000B8010E94B70801C08FEF6896E6E00C94B9
:100A8000ED2CA8E1B0E0E7E4F5E00C94D12C69830B
:100A90007A838B839C832D833E834F83588789E0A1
:100AA000E82EF12CEC0EFD1ECE010196B7010E943E
:100AB0003F088E010F5E1F4FCE010596B8010E94C0
:100AC0003F088985823040F08989823028F0C7014B
:100AD000B8010E94B70801C081E06896E6E00C9476
:100AE000ED2CA8E0B0E0E7E7F5E00C94CE2C9B01FC
:100AF000AC0183E08983DA01C9018827B7FD8395BA
:100B00009927AA27BB27B82E211531054105510584
:100B100019F482E089833AC08823A9F0203080E06C
:100B2000380780E0480780E8580729F460E070E063
:100B300080E09FEC30C0EE24FF248701E21AF30A24
:100B4000040B150B02C079018A018EE1C82ED12C4D
:100B5000DC82CB82ED82FE820F831887C801B70149
:100B60000E941B0701971816190684F4082E04C06A
:100B7000EE0CFF1C001F111F0A94D2F7ED82FE82BB
:100B80000F831887C81AD90ADC82CB82BA82CE01B9
:100B900001960E946A072896E9E00C94EA2CACE0E2
:100BA000B0E0E5EDF5E00C94D52C69837A838B8376
:100BB0009C83CE010196BE016B5F7F4F0E943F0870
:100BC0008D81823061F1823050F1843021F48E8148
:100BD000882351F12EC02F81388537FD20C06E81CA
:100BE0002F3131051CF06623F9F023C08EE190E02F
:100BF000821B930B29853A854B855C8504C05695ED
:100C00004795379527958A95D2F76623B1F0509589
:100C10004095309521953F4F4F4F5F4F0EC020E0DC
:100C200030E040E050E009C02FEF3FEF4FEF5FE7CB
:100C300004C020E030E040E050E8B901CA012C9641
:100C4000E2E00C94F12CA8E0B0E0E9E2F6E00C94CC
:100C5000CD2C7B018C01611571058105910519F47D
:100C600082E0898360C083E089838EE1C82ED12C25
:100C7000DC82CB82ED82FE820F831887C801B70128
:100C80000E941B07FC013197F7FF3BC02227332747
:100C90002E1B3F0B57016801022E04C0D694C79447
:100CA000B794A7940A94D2F740E050E060E070E077
:100CB00081E090E0A0E0B0E004C0880F991FAA1F77
:100CC000BB1F2A95D2F70197A109B1098E219F2157
:100CD000A023B1230097A105B10521F041E050E028
:100CE00060E070E04A295B296C297D294D835E8391
:100CF0006F8378878EE190E08E1B9F0B9C838B83A4
:100D000012C0309781F00E2E04C0EE0CFF1C001FA5
:100D1000111F0A94D2F7ED82FE820F831887CE1A34
:100D2000DF0ADC82CB821A82CE0101960E946A071A
:100D30002896EAE00C94E92CEF92FF920F93DF9350
:100D4000CF93CDB7DEB760970FB6F894DEBF0FBE76
:100D5000CDBFA82F002309F461C07E010894E11CD7
:100D6000F11C88E0F70111928A95E9F729833A830B
:100D70004B835C836D837E83AF83988780E2801B87
:100D8000E82FFF27E7FDF09549815A816B817C812F
:100D9000181684F019861A861B861C8688279927C0
:100DA0008E1B9F0B04C0440F551F661F771F8A952B
:100DB000D2F728C0202F332727FD3095DB01CA0149
:100DC000022E04C0880F991FAA1FBB1F0A94D2F7D6
:100DD00089879A87AB87BC8704C0769567955795B6
:100DE0004795EA95D2F78D819E81AF81B88504C081
:100DF000880F991FAA1FBB1F2A95D2F7482B592B82
:100E00006A2B7B2B4D875E876F87788B29853A8588
:100E10004B855C856D857E85AF8598898A2F609628
:100E20000FB6F894DEBF0FBECDBFCF91DF910F910B
:100E3000FF90EF900895EF92FF920F931F937B0125
:100E40008C0180E0E81680E0F80681E0080780E089
:100E5000180788F48FEFE816F1040105110531F049
:100E600028F088E090E0A0E0B0E017C080E090E0DB
:100E7000A0E0B0E012C080E0E81680E0F80680E074
:100E8000080781E0180728F088E190E0A0E0B0E0D2
:100E900004C080E190E0A0E0B0E020E230E040E07B
:100EA00050E0281B390B4A0B5B0B04C016950795C5
:100EB000F794E7948A95D2F7F701E358FF4F8081C2
:100EC000281B310941095109C9011F910F91FF9058
:100ED000EF900895DF92EF92FF920F931F93FC0122
:100EE000E480F58006811781D1808081823048F4CA
:100EF00080E090E0A0E1B0E0E82AF92A0A2B1B2B61
:100F0000A5C0843009F49FC0823021F4EE24FF2470
:100F1000870105C0E114F1040105110519F4E0E0B1
:100F2000F0E096C0628173819FEF623879070CF020
:100F30005BC022E83FEF261B370B2A3131052CF02E
:100F400020E030E040E050E02AC0B801A701022EC6
:100F500004C076956795579547950A94D2F781E036
:100F600090E0A0E0B0E004C0880F991FAA1FBB1F4B
:100F70002A95D2F70197A109B1098E219F21A023BB
:100F8000B1230097A105B10521F081E090E0A0E038
:100F9000B0E09A01AB01282B392B4A2B5B2BDA01ED
:100FA000C9018F779070A070B07080349105A10551
:100FB000B10539F427FF09C0205C3F4F4F4F5F4F09
:100FC00004C0215C3F4F4F4F5F4FE0E0F0E0203026
:100FD000A0E03A07A0E04A07A0E45A0710F0E1E0D9
:100FE000F0E079018A0127C06038710564F5FB01E2
:100FF000E158FF4FD801C7018F779070A070B07093
:1010000080349105A105B10539F4E7FE0DC080E4F7
:1010100090E0A0E0B0E004C08FE390E0A0E0B0E09A
:10102000E80EF91E0A1F1B1F17FF05C0169507952E
:10103000F794E794319687E016950795F794E7942F
:101040008A95D1F705C0EE24FF248701EFEFF0E089
:101050006E2F679566276795902F9F77D794DD242D
:10106000D7948E2F8695492F462B582F5D29B7018F
:10107000CA011F910F91FF90EF90DF900895FC013E
:10108000DB01408151812281622F6F7770E0221F46
:101090002227221F9381892F880F822B282F30E04F
:1010A000991F9927991F11969C9311972115310526
:1010B000A9F5411551056105710511F482E037C0AC
:1010C00082E89FEF13969C938E9312979A01AB013F
:1010D00067E0220F331F441F551F6A95D1F783E045
:1010E0008C930DC0220F331F441F551F12968D91F4
:1010F0009C911397019713969C938E93129720308F
:1011000080E0380780E0480780E4580758F31496D9
:101110002D933D934D935C93179708952F3F310581
:1011200079F4411551056105710519F484E08C933A
:10113000089564FF03C081E08C9312C01C9210C01C
:101140002F57304013963C932E93129783E08C9345
:1011500087E0440F551F661F771F8A95D1F770648B
:1011600014964D935D936D937C93179708951F93F9
:10117000DC01FB019C91923008F447C080818230F1
:1011800008F443C0943051F411961C91843099F5C1
:101190008181682F70E0611B71093FC0843021F0AC
:1011A000923031F48230B9F18181882389F12DC0E8
:1011B00011961C9111978230F1F081811817D9F4A2
:1011C00012962D913C9113978281938182179307F8
:1011D00094F028173907BCF014968D919D910D90CD
:1011E000BC91A02D2481358146815781281739076C
:1011F0004A075B0718F4112341F00AC082179307CE
:10120000A407B50740F4112319F061E070E005C0B0
:101210006FEF7FEF02C060E070E0CB011F91089597
:10122000DF93CF9300D00F92CDB7DEB71B82ABE236
:10123000B0E0EBE2F0E080818D7F8C9383E390E07F
:101240009A838983E0E4F0E01082E9E2F0E08981AA
:101250008083ABE2B0E0EBE2F0E080818E7F8C93A4
:101260008B818F7B8B838B818F7E8B838B818F7D1B
:101270008B838B81877F8B838B8182608B838B8138
:1012800084608B83AAE2B0E0EAE2F0E080818B7FA9
:101290008C938B8180688B83E0E4F0E08B8180838A
:1012A000AAE2B0E0EAE2F0E080818F778C93AAE2D4
:1012B000B0E0EAE2F0E080818F7B8C93AAE2B0E0BC
:1012C000EAE2F0E080818F7D8C93AAE2B0E0EAE26E
:1012D000F0E0808180618C93AAE2B0E0EAE2F0E085
:1012E000808188608C930F900F900F90CF91DF9149
:1012F0000895DF93CF9300D000D000D0CDB7DEB7F4
:101300008E831D8219821A821B821C828091D401D5
:10131000882309F044C081E08093D4010BC0898107
:101320009A81AB81BC810196A11DB11D89839A83ED
:10133000AB83BC83EBE2F0E08081882F90E0807289
:1013400090709595879595958795959587959595A1
:10135000879595958795009761F489819A81AB81EE
:10136000BC81803127E2920720E0A20720E0B2078B
:10137000B1F689819A81AB81BC81803127E29207E5
:1013800020E0A20720E0B20719F484E08D8304C0B6
:10139000ECE2F0E08E8180831092D40102C083E001
:1013A0008D838D8126960FB6F894DEBF0FBECDBF1C
:1013B000CF91DF910895DF93CF93CDB7DEB7279715
:1013C0000FB6F894DEBF0FBECDBF9F838E831D8204
:1013D00019821A821B821C828E819F81009709F4D8
:1013E00046C08091D401882309F03EC081E08093FB
:1013F000D4010BC089819A81AB81BC810196A11D6A
:10140000B11D89839A83AB83BC83EBE2F0E08081DA
:10141000881F8827881F882F90E09070009761F4BC
:1014200089819A81AB81BC81803127E2920720E0DB
:10143000A20720E0B207F1F689819A81AB81BC81D5
:10144000803127E2920720E0A20720E0B20719F4DA
:1014500084E08D8306C0ECE2F0E08081EE81FF81C4
:1014600080831092D40105C083E08D8302C082E0A6
:101470008D838D8127960FB6F894DEBF0FBECDBF4A
:10148000CF91DF910895DF93CF93CDB7DEB7659706
:101490000FB6F894DEBF0FBECDBF9D8B8C8B1B8A21
:1014A0001F86188A198A1A8A8C899D89009709F4DF
:1014B00098C08BC02F8538898C899D89FC01E20FEB
:1014C000F31F80810E9479098B8B80E090E0A8EC6B
:1014D000B2E48B879C87AD87BE876B857C858D85C5
:1014E0009E8520E030E04AEF54E40E943B03DC019B
:1014F000CB018F839887A987BA876F817885898583
:101500009A8520E030E040E85FE30E9441058823AF
:101510002CF481E090E09E838D833FC06F817885BD
:1015200089859A8520E03FEF4FE757E40E94E10468
:1015300018164CF56B857C858D859E8520E030E006
:1015400040E251E40E943B03DC01CB01BC01CD0130
:101550000E944900DC01CB019E838D830FC088EC83
:1015600090E09C838B838B819C810197F1F79C8316
:101570008B838D819E8101979E838D838D819E813A
:10158000009769F714C06F81788589859A850E94D4
:101590004900DC01CB019E838D838D819E819A83DE
:1015A000898389819A810197F1F79A8389838F854D
:1015B0009889A989BA890196A11DB11D8F87988B39
:1015C000A98BBA8B8B89882371F42F8538898C89F4
:1015D0009D89FC01E20FF31F8081882309F06ACF07
:1015E00002C082E08B8B8B8965960FB6F894DEBFC4
:1015F0000FBECDBFCF91DF910895DF93CF9300D081
:1016000000D00F92CDB7DEB79B838A837D836C8336
:1016100019828091D401882399F58A819B81009752
:1016200061F18C819D81009741F181E08093D4012B
:101630008A819B819093CF018093CE018C819D8183
:101640009093D3018093D2011092D601ACE2B0E026
:101650002091CE013091CF018091D601882F90E06A
:10166000F901E80FF91F80818C93AAE2B0E0EAE269
:10167000F0E0808180648C9305C082E0898302C0A1
:1016800083E0898389810F900F900F900F900F90C6
:10169000CF91DF910895DF93CF93CDB7DEB72B972E
:1016A0000FB6F894DEBF0FBECDBF9F838E834887F1
:1016B00059876A877B871D828E819F81009751F1B0
:1016C00019821A821B821C8217C029813A818E815D
:1016D0009F81820F931F0E94DB098D838D81882358
:1016E000D9F489819A81AB81BC810196A11DB11D7C
:1016F00089839A83AB83BC8329813A814B815C8146
:1017000088859985AA85BB85281739074A075B070D
:10171000E0F202C082E08D838D812B960FB6F894A3
:10172000DEBF0FBECDBFCF91DF910895DF93CF9382
:10173000CDB7DEB729970FB6F894DEBF0FBECDBF89
:101740009B838A834C835D836E837F83398728875D
:1017500019828091D401882339F58A819B81009771
:1017600001F1888599850097E1F081E08093D401AB
:101770008A819B819093D1018093D001888599853E
:101780009093D3018093D2018C818093D5011092E4
:10179000D601AAE2B0E0EAE2F0E0808180688C93B2
:1017A00005C082E0898302C083E08983898129960C
:1017B0000FB6F894DEBF0FBECDBFCF91DF91089575
:1017C0001F920F920FB60F9211242F933F934F93B6
:1017D0005F936F937F938F939F93AF93BF93EF9399
:1017E000FF93DF93CF93CDB7DEB72091D001309137
:1017F000D1018091D601882F90E0D901A80FB91F9F
:10180000ECE2F0E080818C938091D6018F5F809331
:10181000D6019091D6018091D5019817B1F410921C
:10182000D6011092D4018091D2019091D3010097FA
:1018300029F0E091D201F091D3010995AAE2B0E03C
:10184000EAE2F0E080818F778C93CF91DF91FF9176
:10185000EF91BF91AF919F918F917F916F915F9128
:101860004F913F912F910F900FBE0F901F901895A1
:101870001F920F920FB60F9211242F933F934F9305
:101880005F936F937F938F939F93AF93BF93EF93E8
:10189000FF93DF93CF93CDB7DEB78091D6018F5FF3
:1018A0008093D6012091CE013091CF018091D60155
:1018B000882F90E0F901E80FF91F80818823B9F49F
:1018C0001092D6011092D4018091D2019091D3014F
:1018D000009729F0E091D201F091D3010995AAE295
:1018E000B0E0EAE2F0E080818F7B8C930FC0ACE245
:1018F000B0E02091CE013091CF018091D601882FA8
:1019000090E0F901E80FF91F80818C93CF91DF916E
:10191000FF91EF91BF91AF919F918F917F916F91C7
:101920005F914F913F912F910F900FBE0F901F909D
:101930001895DF93CF93CDB7DEB7A3E5B0E0E3E52D
:10194000F0E080818F7B8C93A3E5B0E0E3E5F0E0ED
:101950008081877F8C93E2E5F0E080EC8083A9E5CD
:10196000B0E0E9E5F0E0808181608C93A3E5B0E030
:10197000E3E5F0E08081887F8C93A3E5B0E0E3E5C8
:10198000F0E0808182608C93CF91DF910895DF93A6
:10199000CF93CDB7DEB7AFE4B0E0EFE4F0E0808105
:1019A0008E7F8C93AFE4B0E0EFE4F0E08081826062
:1019B0008C93AEE4B0E0EEE4F0E0808188608C933C
:1019C000AEE4B0E0EEE4F0E0808180618C93EAE484
:1019D000F0E011821082E8E4F0E011821082E6E487
:1019E000F0E080E29EE491838083AEE4B0E0EEE438
:1019F000F0E0808180648C93AFE4B0E0EFE4F0E04D
:101A000080818F7B8C93AFE4B0E0EFE4F0E08081E5
:101A100080688C93AFE4B0E0EFE4F0E080818F7EEB
:101A20008C93AFE4B0E0EFE4F0E0808180628C93CF
:101A3000A9E5B0E0E9E5F0E080818B7F8C93A9E532
:101A4000B0E0E9E5F0E080818F7E8C93A9E5B0E01D
:101A5000E9E5F0E08081877F8C93A9E5B0E0E9E5D6
:101A6000F0E080818F7D8C93AEE4B0E0EEE4F0E0B6
:101A70008081887F8C93AEE4B0E0EEE4F0E080817A
:101A800082608C93CF91DF910895DF93CF93CDB790
:101A9000DEB7A2E4B0E0E2E4F0E0808188608C93FD
:101AA000A5E4B0E0E5E4F0E080818F7B8C93A5E4D1
:101AB000B0E0E5E4F0E08081877F8C93E4E4F0E03F
:101AC0001082A9E5B0E0E9E5F0E0808180648C93C4
:101AD000A5E4B0E0E5E4F0E08081887F8C93A5E4A4
:101AE000B0E0E5E4F0E0808181608C93CF91DF91FC
:101AF0000895DF93CF930F92CDB7DEB78983E2E5E8
:101B0000F0E0898180830F90CF91DF910895DF937A
:101B1000CF9300D0CDB7DEB79A838983ECE4F0E0B1
:101B200089819A81918380830F900F90CF91DF916B
:101B30000895DF93CF930F92CDB7DEB78983E4E4A6
:101B4000F0E0898180830F90CF91DF910895DF933A
:101B5000CF930F92CDB7DEB78983ECE5F0E08981B2
:101B600080830F90CF91DF910895DF93CF9300D0C2
:101B7000CDB7DEB79A838983EAE4F0E089819A8160
:101B8000918380830F900F90CF91DF910895DF9321
:101B9000CF9300D0CDB7DEB79A838983E8E4F0E035
:101BA00089819A81918380830F900F90CF91DF91EB
:101BB0000895DF93CF930F92CDB7DEB78983E3E427
:101BC000F0E0898180830F90CF91DF910895DF93BA
:101BD000CF9300D0CDB7DEB79A838983E6E4F0E0F7
:101BE00089819A81918380830F900F90CF91DF91AB
:101BF0000895DF93CF93CDB7DEB7E2E5F0E08081C3
:101C0000CF91DF910895DF93CF93CDB7DEB7ECE4AA
:101C1000F0E080819181CF91DF910895DF93CF93A0
:101C2000CDB7DEB7E4E4F0E08081CF91DF91089595
:101C3000DF93CF9300D0CDB7DEB79A838983EAE4F0
:101C4000F0E089819A81918380830F900F90CF91EA
:101C5000DF910895DF93CF93CDB7DEB7AEE4B0E068
:101C6000EEE4F0E0808180648C93A9E5B0E0E9E5E2
:101C7000F0E0808180628C93CF91DF910895DF93B3
:101C8000CF9300D0CDB7DEB78A8319828A818130A5
:101C900041F4AEE4B0E0EEE4F0E0808180648C9347
:101CA0000DC08A81882341F4AEE4B0E0EEE4F0E0B8
:101CB00080818F7B8C9302C081E0898389810F9022
:101CC0000F90CF91DF910895DF93CF93CDB7DEB71B
:101CD000A9E5B0E0E9E5F0E0808180628C93CF91E6
:101CE000DF910895DF93CF93CDB7DEB7A9E5B0E0DC
:101CF000E9E5F0E080818F7D8C93CF91DF910895AD
:101D0000DF93CF93CDB7DEB7E6E4F0E08081918139
:101D1000CF91DF910895DF93CF93CDB7DEB7A1E4E4
:101D2000B0E0E1E4F0E08081887F8C93A1E4B0E052
:101D3000E1E4F0E0808186608C93CF91DF9108959B
:101D4000DF93CF93CDB7DEB7A1E4B0E0E1E4F0E0FC
:101D5000808188608C93CF91DF910895DF93CF933A
:101D6000CDB7DEB7A1E4B0E0E1E4F0E080818861C6
:101D70008C93E1E4F0E01082CF91DF910895DF933E
:101D8000CF9300D000D0CDB7DEB79B838A836C831E
:101D900019828A819B81009769F08C81882F90E05D
:101DA000880F991FFC01E952FE4F8A819B81918324
:101DB000808302C082E0898389810F900F900F9009
:101DC0000F90CF91DF9108951F920F920FB60F924F
:101DD00011242F933F934F935F936F937F938F9330
:101DE0009F93AF93BF93EF93FF93DF93CF93CDB7C1
:101DF000DEB78091ED019091EE01009729F0E0911E
:101E0000ED01F091EE010995CF91DF91FF91EF91F6
:101E1000BF91AF919F918F917F916F915F914F9102
:101E20003F912F910F900FBE0F901F9018951F920A
:101E30000F920FB60F9211242F933F934F935F93FE
:101E40006F937F938F939F93AF93BF93EF93FF9382
:101E5000DF93CF93CDB7DEB78091EB019091EC018A
:101E6000009729F0E091EB01F091EC010995CF91F9
:101E7000DF91FF91EF91BF91AF919F918F917F91F2
:101E80006F915F914F913F912F910F900FBE0F90E7
:101E90001F9018951F920F920FB60F9211242F9337
:101EA0003F934F935F936F937F938F939F93AF93E2
:101EB000BF93EF93FF93DF93CF93CDB7DEB78091BE
:101EC000E9019091EA01009729F0E091E901F09190
:101ED000EA010995CF91DF91FF91EF91BF91AF9109
:101EE0009F918F917F916F915F914F913F912F9132
:101EF0000F900FBE0F901F9018951F920F920FB664
:101F00000F9211242F933F934F935F936F937F937F
:101F10008F939F93AF93BF93EF93FF93DF93CF93F1
:101F2000CDB7DEB78091E7019091E801009729F0E5
:101F3000E091E701F091E8010995CF91DF91FF91E0
:101F4000EF91BF91AF919F918F917F916F915F9131
:101F50004F913F912F910F900FBE0F901F901895AA
:101F60001F920F920FB60F9211242F933F934F930E
:101F70005F936F937F938F939F93AF93BF93EF93F1
:101F8000FF93DF93CF93CDB7DEB78091E5019091BA
:101F9000E601009729F0E091E501F091E60109954D
:101FA000CF91DF91FF91EF91BF91AF919F918F9171
:101FB0007F916F915F914F913F912F910F900FBE45
:101FC0000F901F9018951F920F920FB60F92112429
:101FD0002F933F934F935F936F937F938F939F9331
:101FE000AF93BF93EF93FF93DF93CF93CDB7DEB75C
:101FF0008091E3019091E401009729F0E091E301E1
:10200000F091E4010995CF91DF91FF91EF91BF919C
:10201000AF919F918F917F916F915F914F913F9180
:102020002F910F900FBE0F901F9018951F920F9237
:102030000FB60F9211242F933F934F935F936F939B
:102040007F938F939F93AF93BF93EF93FF93DF9310
:10205000CF93CDB7DEB78091E1019091E201009777
:1020600029F0E091E101F091E2010995CF91DF9132
:10207000FF91EF91BF91AF919F918F917F916F9160
:102080005F914F913F912F910F900FBE0F901F9036
:1020900018951F920F920FB60F9211242F933F9312
:1020A0004F935F936F937F938F939F93AF93BF9360
:1020B000EF93FF93DF93CF93CDB7DEB78091DF012E
:1020C0009091E001009729F0E091DF01F091E001AB
:1020D0000995CF91DF91FF91EF91BF91AF919F91C2
:1020E0008F917F916F915F914F913F912F910F90C1
:1020F0000FBE0F901F901895DF93CF93CDB7DEB72B
:10210000ADE2B0E0EDE2F0E080818F7D8C93ADE256
:10211000B0E0EDE2F0E0808180618C93ADE2B0E070
:10212000EDE2F0E08081877F8C93ADE2B0E0EDE2FC
:10213000F0E080818B7F8C93ADE2B0E0EDE2F0E0E7
:10214000808181608C93ADE2B0E0EDE2F0E08081CF
:102150008D7F8C93AEE2B0E0EEE2F0E080818E7F86
:102160008C93ADE2B0E0EDE2F0E080818F778C936C
:10217000ADE2B0E0EDE2F0E0808180648C93CF913D
:10218000DF910895DF93CF93CDB7DEB761970FB698
:10219000F894DEBF0FBECDBF9B838A8319828A81EC
:1021A0009B81009709F4CDC1EA81FB818581882359
:1021B00009F4C7C1EA81FB818481882309F4C1C184
:1021C000EA81FB818681882309F4BBC1EA81FB8116
:1021D0008281882309F4B5C1EA81FB81808188234B
:1021E00009F4AFC1EA81FB818381882309F4A9C185
:1021F000EA81FB818181882309F4A3C1EA81FB8103
:102200008581282F30E0398B288B88899989009720
:1022100031F0288939892130310549F010C0ADE20B
:10222000B0E0EDE2F0E080818B7F8C930AC0ADE2FC
:10223000B0E0EDE2F0E0808184608C9302C081E048
:102240008983EA81FB818481282F30E03F872E87B4
:102250008E859F85009731F02E853F852130310591
:1022600049F010C0ADE2B0E0EDE2F0E08081877FA0
:102270008C930AC0ADE2B0E0EDE2F0E080818860CE
:102280008C9302C081E08983EA81FB818681282FBB
:1022900030E03D872C878C859D858330910509F43E
:1022A0006AC02C853D852430310584F48C859D855C
:1022B00081309105A1F12C853D85223031050CF04E
:1022C00044C08C859D850097A1F0ADC02C853D85CF
:1022D0002530310509F47BC08C859D8585309105BD
:1022E0000CF45FC02C853D852630310509F485C08E
:1022F0009AC0ADE2B0E0EDE2F0E080818E7F8C9399
:10230000ADE2B0E0EDE2F0E080818D7F8C93AEE253
:10231000B0E0EEE2F0E0808181608C9386C0ADE2B7
:10232000B0E0EDE2F0E080818E7F8C93ADE2B0E032
:10233000EDE2F0E080818D7F8C93AEE2B0E0EEE2E2
:10234000F0E080818E7F8C9370C0ADE2B0E0EDE272
:10235000F0E0808181608C93ADE2B0E0EDE2F0E0EE
:1023600080818D7F8C93AEE2B0E0EEE2F0E0808180
:1023700081608C935AC0ADE2B0E0EDE2F0E0808184
:1023800081608C93ADE2B0E0EDE2F0E080818D7F82
:102390008C93AEE2B0E0EEE2F0E080818E7F8C9331
:1023A00044C0ADE2B0E0EDE2F0E080818E7F8C933E
:1023B000ADE2B0E0EDE2F0E0808182608C93AEE2CD
:1023C000B0E0EEE2F0E0808181608C932EC0ADE25F
:1023D000B0E0EDE2F0E080818E7F8C93ADE2B0E082
:1023E000EDE2F0E0808182608C93AEE2B0E0EEE25C
:1023F000F0E080818E7F8C9318C0ADE2B0E0EDE21A
:10240000F0E0808181608C93ADE2B0E0EDE2F0E03D
:10241000808182608C93AEE2B0E0EEE2F0E08081F9
:102420008E7F8C9302C081E08983EA81FB81828167
:10243000282F30E03B872A878A859B85009769F0A3
:102440002A853B852130310581F4ADE2B0E0EDE233
:10245000F0E080818F7D8C930AC0ADE2B0E0EDE2C8
:10246000F0E0808180628C9302C081E08983EA8100
:10247000FB818381282F30E03987288788859985DB
:10248000009731F0288539852130310549F010C099
:10249000ADE2B0E0EDE2F0E0808180618C930AC0B3
:1024A000ADE2B0E0EDE2F0E080818F7E8C9302C07F
:1024B00081E08983EA81FB818081282F30E03F839E
:1024C0002E838E819F81009731F02E813F812130B4
:1024D000310549F010C0ADE2B0E0EDE2F0E08081FE
:1024E0008F778C930AC0ADE2B0E0EDE2F0E080813E
:1024F00080688C9302C081E08983EA81FB818181BD
:10250000282F30E03D832C838C819D81009731F012
:102510002C813D812130310549F010C0ADE2B0E0A1
:10252000EDE2F0E080818F7B8C930DC0ADE2B0E0F6
:10253000EDE2F0E0808180648C9305C081E08983C6
:1025400002C082E08983898161960FB6F894DEBF6C
:102550000FBECDBFCF91DF910895DF93CF93CDB75D
:10256000DEB728970FB6F894DEBF0FBECDBF8E83BF
:1025700078876F831D8219821A821B821C82809148
:10258000ED01882309F042C081E08093ED01EFE284
:10259000F0E08E8180830BC089819A81AB81BC8100
:1025A0000196A11DB11D89839A83AB83BC83EEE2A2
:1025B000F0E08081881F8827881F882F90E0907026
:1025C000009761F489819A81AB81BC81803127E2D7
:1025D000920720E0A20720E0B207F0F289819A81F9
:1025E000AB81BC81803127E2920720E0A20720E086
:1025F000B20719F484E08D8306C0EFE2F0E0808139
:10260000EF81F88580831092ED0102C083E08D8315
:102610008D8128960FB6F894DEBF0FBECDBFCF9147
:10262000DF910895DF93CF93CDB7DEB727970FB62D
:10263000F894DEBF0FBECDBF9C838B837E836D83FA
:102640004F831A8219828B819C81009709F18D81B9
:102650009E810097E9F017C08981282F30E08B8197
:102660009C81FC01E20FF31F40818981282F30E01B
:102670008D819E81280F391F842FB9010E94AD12D0
:1026800089818F5F898399818F81981728F302C090
:1026900082E08A838A8127960FB6F894DEBF0FBE48
:1026A000CDBFCF91DF910895DF93CF9300D00F92EC
:1026B000CDB7DEB79B838A8319828091ED01882391
:1026C00009F055C08A819B81009709F44DC0EA81C9
:1026D000FB8180819181009709F446C0EA81FB81EA
:1026E00082819381009709F43FC0EA81FB81858153
:1026F00096810097C9F181E08093ED01EA81FB8129
:10270000808191819093E8018093E701EA81FB81C8
:10271000828193819093EA018093E901EA81FB81B0
:1027200084818093EE01EA81FB818581968190937B
:10273000EC018093EB011092EF01AFE2B0E0209149
:10274000E7013091E8018091EF01882F90E0F901D5
:10275000E80FF91F80818C93ADE2B0E0EDE2F0E08C
:10276000808180688C9305C082E0898302C083E009
:10277000898389810F900F900F90CF91DF910895F9
:102780001F920F920FB60F9211242F933F934F93E6
:102790005F936F937F938F939F93AF93BF93EF93C9
:1027A000FF93DF93CF93CDB7DEB72091E90130914E
:1027B000EA018091EF01882F90E0D901A80FB91F9D
:1027C000EFE2F0E080818C938091EF018F5F809346
:1027D000EF019091EF018091EE019817A9F410920A
:1027E000ED01ADE2B0E0EDE2F0E080818F778C9317
:1027F0008091EB019091EC010097A9F0E091EB0141
:10280000F091EC0109950FC0AFE2B0E02091E70133
:102810003091E8018091EF01882F90E0F901E80FF5
:10282000F91F80818C93CF91DF91FF91EF91BF9140
:10283000AF919F918F917F916F915F914F913F9158
:102840002F910F900FBE0F901F901895DF93CF938D
:10285000CDB7DEB7AFE5B0E0EFE5F0E080818068AE
:102860008C93CF91DF910895DF93CF93CDB7DEB7EF
:10287000AFE5B0E0EFE5F0E080818F778C93CF910A
:10288000DF910895DF93CF9300D00F92CDB7DEB7DD
:102890009A8389836B83EEE3F0E089819A81918347
:1028A0008083EDE3F0E08B818083ACE3B0E0ECE388
:1028B000F0E0808184608C93ACE3B0E0ECE3F0E086
:1028C000808182608C93ECE3F0E08081882F90E03F
:1028D000827090709595879581309105A1F30F9046
:1028E0000F900F90CF91DF910895DF93CF9300D099
:1028F000CDB7DEB79A838983EEE3F0E089818083E8
:10290000EFE3F0E089819A81892F99278083ACE3F6
:10291000B0E0ECE3F0E0808181608C93EDE3F0E0E7
:1029200080810F900F90CF91DF910895DF93CF9327
:10293000CDB7DEB728970FB6F894DEBF0FBECDBF78
:102940008A836B834C8381E089838A81843008F099
:10295000F1C08B81883008F0EDC08C81813009F0A6
:102960006FC08A81282F30E038872F838F81988528
:102970008130910549F12F813885223031052CF4C1
:102980008F819885009761F0D6C02F8138852230DD
:10299000310571F18F81988583309105E9F1CBC0C4
:1029A000AAE3B0E0EAE3F0E08081482F8B81282F92
:1029B00030E081E090E0022E02C0880F991F0A9457
:1029C000E2F7842B8C93B7C0A7E3B0E0E7E3F0E035
:1029D0008081482F8B81282F30E081E090E0022E0B
:1029E00002C0880F991F0A94E2F7842B8C93A3C02E
:1029F000A4E3B0E0E4E3F0E08081482F8B81282F4E
:102A000030E081E090E0022E02C0880F991F0A9406
:102A1000E2F7842B8C938FC0A1E3B0E0E1E3F0E018
:102A20008081482F8B81282F30E081E090E0022EBA
:102A300002C0880F991F0A94E2F7842B8C937BC005
:102A40008C81882309F074C08A81282F30E03E836E
:102A50002D838D819E818130910559F12D813E819B
:102A6000223031052CF48D819E81009769F063C07E
:102A70002D813E812230310589F18D819E81833007
:102A8000910509F440C057C0AAE3B0E0EAE3F0E0E2
:102A90008081482F8B81282F30E081E090E0022E4A
:102AA00002C0880F991F0A94E2F7809584238C93C3
:102AB00042C0A7E3B0E0E7E3F0E08081482F8B81DC
:102AC000282F30E081E090E0022E02C0880F991F8D
:102AD0000A94E2F7809584238C932DC0A4E3B0E0A0
:102AE000E4E3F0E08081482F8B81282F30E081E003
:102AF00090E0022E02C0880F991F0A94E2F7809599
:102B000084238C9318C0A1E3B0E0E1E3F0E080817E
:102B1000482F8B81282F30E081E090E0022E02C008
:102B2000880F991F0A94E2F7809584238C9303C041
:102B3000198201C01982898128960FB6F894DEBFE8
:102B40000FBECDBFCF91DF910895DF93CF93CDB767
:102B5000DEB728970FB6F894DEBF0FBECDBF8A83CD
:102B60006B834C8381E089838A81843008F0F1C0D3
:102B70008B81883008F0EDC08C81813009F06FC006
:102B80008A81282F30E038872F838F819885813084
:102B9000910549F12F813885223031052CF48F8140
:102BA0009885009761F0D6C02F8138852230310595
:102BB00071F18F81988583309105E9F1CBC0ABE34A
:102BC000B0E0EBE3F0E08081482F8B81282F30E0EC
:102BD00081E090E0022E02C0880F991F0A94E2F76C
:102BE000842B8C93B7C0A8E3B0E0E8E3F0E08081E9
:102BF000482F8B81282F30E081E090E0022E02C028
:102C0000880F991F0A94E2F7842B8C93A3C0A5E345
:102C1000B0E0E5E3F0E08081482F8B81282F30E0A1
:102C200081E090E0022E02C0880F991F0A94E2F71B
:102C3000842B8C938FC0A2E3B0E0E2E3F0E08081CC
:102C4000482F8B81282F30E081E090E0022E02C0D7
:102C5000880F991F0A94E2F7842B8C937BC08C8198
:102C6000882309F074C08A81282F30E03E832D83A9
:102C70008D819E818130910559F12D813E812230D7
:102C800031052CF48D819E81009769F063C02D8100
:102C90003E812230310589F18D819E8183309105FD
:102CA00009F440C057C0ABE3B0E0EBE3F0E0808153
:102CB000482F8B81282F30E081E090E0022E02C067
:102CC000880F991F0A94E2F7809584238C9342C061
:102CD000A8E3B0E0E8E3F0E08081482F8B81282F63
:102CE00030E081E090E0022E02C0880F991F0A9424
:102CF000E2F7809584238C932DC0A5E3B0E0E5E353
:102D0000F0E08081482F8B81282F30E081E090E037
:102D1000022E02C0880F991F0A94E2F7809584233F
:102D20008C9318C0A2E3B0E0E2E3F0E08081482F8A
:102D30008B81282F30E081E090E0022E02C0880FC6
:102D4000991F0A94E2F7809584238C9303C019821B
:102D500001C01982898128960FB6F894DEBF0FBE94
:102D6000CDBFCF91DF910895DF93CF93CDB7DEB77D
:102D700027970FB6F894DEBF0FBECDBF8A836B8353
:102D80005D834C8381E089838A81843008F0A6C00A
:102D90008B81883008F0A2C08A81282F30E03F83E1
:102DA0002E834E815F8141305105C1F18E819F811B
:102DB0008230910534F42E813F812115310571F067
:102DC0008EC04E815F814230510509F447C08E812B
:102DD0009F818330910509F461C081C0E9E3F0E08F
:102DE0008081482F50E08B81282F30E081E090E0F7
:102DF00002C0880F991F2A95E2F79A0128233923E8
:102E00008B81882F90E0A90102C0559547958A953E
:102E1000E2F7CA01EC81FD81808361C0E6E3F0E066
:102E20008081482F50E08B81282F30E081E090E0B6
:102E300002C0880F991F2A95E2F79A0128233923A7
:102E40008B81882F90E0A90102C0559547958A95FE
:102E5000E2F7CA01EC81FD81808341C0E3E3F0E049
:102E60008081482F50E08B81282F30E081E090E076
:102E700002C0880F991F2A95E2F79A012823392367
:102E80008B81882F90E0A90102C0559547958A95BE
:102E9000E2F7CA01EC81FD81808321C0E0E3F0E02C
:102EA0008081482F50E08B81282F30E081E090E036
:102EB00002C0880F991F2A95E2F79A012823392327
:102EC0008B81882F90E0A90102C0559547958A957E
:102ED000E2F7CA01EC81FD81808301C019828981FA
:102EE00027960FB6F894DEBF0FBECDBFCF91DF910E
:102EF0000895DF93CF9300D000D00F92CDB7DEB707
:102F00008A836B8381E089838A81843008F073C06F
:102F10008B81883008F06FC08A81282F30E03D8394
:102F20002C838C819D818130910549F12C813D81DB
:102F3000223031052CF48C819D81009761F05CC0BA
:102F40002C813D812230310571F18C819D8183304E
:102F50009105E9F151C0ABE3B0E0EBE3F0E0808133
:102F6000482F8B81282F30E081E090E0022E02C0B4
:102F7000880F991F0A94E2F784278C933DC0A8E339
:102F8000B0E0E8E3F0E08081482F8B81282F30E02B
:102F900081E090E0022E02C0880F991F0A94E2F7A8
:102FA00084278C9329C0A5E3B0E0E5E3F0E08081BD
:102FB000482F8B81282F30E081E090E0022E02C064
:102FC000880F991F0A94E2F784278C9315C0A2E317
:102FD000B0E0E2E3F0E08081482F8B81282F30E0E1
:102FE00081E090E0022E02C0880F991F0A94E2F758
:102FF00084278C9301C0198289810F900F900F90C4
:103000000F900F90CF91DF910895DF93CF9300D071
:1030100000D000D0CDB7DEB78A836B834C8381E0CC
:1030200089838A81843008F03EC18B81883008F022
:103030003AC18A81282F30E03E832D838D819E8185
:103040008130910509F45DC02D813E81223031052A
:103050002CF48D819E81009771F026C12D813E81D7
:103060002230310509F493C08D819E818330910512
:1030700009F4D3C019C18C81813071F5A0E5B0E0AD
:10308000E0E5F0E080818B7F8C93AAE3B0E0EAE397
:10309000F0E08081482F8B81282F30E081E090E0A4
:1030A00002C0880F991F2A95E2F7809584238C939C
:1030B000ABE3B0E0EBE3F0E08081482F8B81282F79
:1030C00030E081E090E0022E02C0880F991F0A9440
:1030D000E2F7842B8C93E8C0ABE3B0E0EBE3F0E0E5
:1030E0008081482F8B81282F30E081E090E0022EF4
:1030F00002C0880F991F0A94E2F7809584238C936D
:10310000D3C08C81813071F5A0E5B0E0E0E5F0E05E
:1031100080818B7F8C93A7E3B0E0E7E3F0E08081D0
:10312000482F8B81282F30E081E090E002C0880F8B
:10313000991F2A95E2F7809584238C93A8E3B0E049
:10314000E8E3F0E08081482F8B81282F30E081E098
:1031500090E0022E02C0880F991F0A94E2F7842B98
:103160008C93A2C0A8E3B0E0E8E3F0E08081482FB0
:103170008B81282F30E081E090E0022E02C0880F82
:10318000991F0A94E2F7809584238C938DC08C81DB
:10319000813071F5A0E5B0E0E0E5F0E080818B7F63
:1031A0008C93A4E3B0E0E4E3F0E08081482F8B81CE
:1031B000282F30E081E090E002C0880F991F2A9507
:1031C000E2F7809584238C93A5E3B0E0E5E3F0E09B
:1031D0008081482F8B81282F30E081E090E0022E03
:1031E00002C0880F991F0A94E2F7842B8C935CC06D
:1031F000A5E3B0E0E5E3F0E08081482F8B81282F44
:1032000030E081E090E0022E02C0880F991F0A94FE
:10321000E2F7809584238C9347C08C81813071F5CF
:10322000A0E5B0E0E0E5F0E080818B7F8C93A1E346
:10323000B0E0E1E3F0E08081482F8B81282F30E07F
:1032400081E090E002C0880F991F2A95E2F78095EF
:1032500084238C93A2E3B0E0E2E3F0E08081482F86
:103260008B81282F30E081E090E0022E02C0880F91
:10327000991F0A94E2F7842B8C9316C0A2E3B0E066
:10328000E2E3F0E08081482F8B81282F30E081E05D
:1032900090E0022E02C0880F991F0A94E2F78095F1
:1032A00084238C9301C01982898126960FB6F894E5
:1032B000DEBF0FBECDBFCF91DF910895DF93CF93D7
:1032C00000D000D00F92CDB7DEB78A836B8381E048
:1032D00089838A818430A8F58A81282F30E03D8354
:1032E0002C838C819D8181309105D1F02C813D8191
:1032F000223031052CF48C819D81009761F01FC034
:103300002C813D812230310581F08C819D8183307B
:10331000910581F014C0EAE3F0E08B81808312C054
:10332000E7E3F0E08B8180830DC0E4E3F0E08B8184
:10333000808308C0E1E3F0E08B81808303C01982C1
:1033400001C0198289810F900F900F900F900F90FC
:10335000CF91DF910895DF93CF9300D000D00F92EB
:10336000CDB7DEB78A836B8381E089838A8184301D
:10337000A8F58A81282F30E03D832C838C819D81A4
:1033800081309105D1F02C813D81223031052CF422
:103390008C819D81009761F01FC02C813D8122307E
:1033A000310581F08C819D818330910581F014C0BD
:1033B000EBE3F0E08B81808312C0E8E3F0E08B81E7
:1033C00080830DC0E5E3F0E08B81808308C0E2E3F9
:1033D000F0E08B81808303C0198201C0198289814A
:1033E0000F900F900F900F900F90CF91DF91089555
:1033F000DF93CF93CDB7DEB727970FB6F894DEBF34
:103400000FBECDBF8A837C836B8381E089838A81F1
:10341000843008F03FC08A81282F30E03F832E831C
:103420008E819F8181309105E1F02E813F81223094
:1034300031052CF48E819F81009761F027C02E8189
:103440003F8122303105A1F08E819F81833091052B
:10345000B1F01CC0E9E3F0E08081EB81FC81808366
:1034600016C0E6E3F0E08081EB81FC8180830FC031
:10347000E3E3F0E08081EB81FC81808308C0E0E33E
:10348000F0E08081EB81FC81808301C01982998109
:103490009D8303C0198229812D838D8127960FB6C4
:1034A000F894DEBF0FBECDBFCF91DF910895DF93BB
:1034B000CF9300D000D0CDB7DEB78A8381E0898377
:1034C0008A81843008F03FC08A81282F30E03C8315
:1034D0002B838B819C8181309105E9F02B813C818C
:1034E000223031052CF48B819C81009761F02CC037
:1034F0002B813C8122303105B1F08B819C8183305E
:103500009105C9F021C0ABE3B0E0EBE3F0E08081CE
:1035100080958C9319C0A8E3B0E0E8E3F0E08081E7
:1035200080958C9311C0A5E3B0E0E5E3F0E08081E5
:1035300080958C9309C0A2E3B0E0E2E3F0E08081E3
:1035400080958C9301C0198289810F900F900F9004
:103550000F90CF91DF910895DF93CF9300D000D0EB
:103560000F92CDB7DEB78A836B8381E089838A812E
:10357000843008F062C08B818F708B838A81282F02
:1035800030E03D832C838C819D818130910529F130
:103590002C813D81223031052CF48C819D81009756
:1035A00061F04CC02C813D812230310531F18C819C
:1035B0009D818330910589F141C0ABE3B0E0EBE33D
:1035C000F0E08081807F8C93ABE3B0E0EBE3F0E050
:1035D00090818B81892B8C9331C0A8E3B0E0E8E324
:1035E000F0E08081807F8C93A8E3B0E0E8E3F0E036
:1035F00090818B81892B8C9321C0A5E3B0E0E5E31A
:10360000F0E08081807F8C93A5E3B0E0E5E3F0E01B
:1036100090818B81892B8C9311C0A2E3B0E0E2E30F
:10362000F0E08081807F8C93A2E3B0E0E2E3F0E001
:1036300090818B81892B8C9301C0198289810F9095
:103640000F900F900F900F90CF91DF910895DF931F
:10365000CF9300D000D00F92CDB7DEB78A836B83B3
:1036600081E089838A81843008F063C08B818295F0
:10367000807F8B838A81282F30E03D832C838C814F
:103680009D818130910529F12C813D8122303105C8
:103690002CF48C819D81009761F04CC02C813D8180
:1036A0002230310531F18C819D818330910589F182
:1036B00041C0ABE3B0E0EBE3F0E080818F708C932E
:1036C000ABE3B0E0EBE3F0E090818B81892B8C934E
:1036D00031C0A8E3B0E0E8E3F0E080818F708C9324
:1036E000A8E3B0E0E8E3F0E090818B81892B8C9334
:1036F00021C0A5E3B0E0E5E3F0E080818F708C931A
:10370000A5E3B0E0E5E3F0E090818B81892B8C9319
:1037100011C0A2E3B0E0E2E3F0E080818F708C930F
:10372000A2E3B0E0E2E3F0E090818B81892B8C93FF
:1037300001C0198289810F900F900F900F900F9008
:10374000CF91DF910895DF93CF9300D000D00F92F7
:10375000CDB7DEB78A836B8381E089838A81843029
:1037600008F062C08B818F708B838A81282F30E0B4
:103770003D832C838C819D818130910529F12C81A1
:103780003D81223031052CF48C819D81009761F0C0
:103790004CC02C813D812230310531F18C819D81DD
:1037A0008330910589F141C0AAE3B0E0EAE3F0E09B
:1037B0008081807F8C93AAE3B0E0EAE3F0E090811F
:1037C0008B81892B8C9331C0A7E3B0E0E7E3F0E075
:1037D0008081807F8C93A7E3B0E0E7E3F0E0908105
:1037E0008B81892B8C9321C0A4E3B0E0E4E3F0E06B
:1037F0008081807F8C93A4E3B0E0E4E3F0E09081EB
:103800008B81892B8C9311C0A1E3B0E0E1E3F0E060
:103810008081807F8C93A1E3B0E0E1E3F0E09081D0
:103820008B81892B8C9301C0198289810F900F9015
:103830000F900F900F90CF91DF910895DF93CF936A
:1038400000D000D00F92CDB7DEB78A836B8381E0C2
:1038500089838A81843008F063C08B818295807F60
:103860008B838A81282F30E03D832C838C819D813E
:103870008130910529F12C813D81223031052CF4D4
:103880008C819D81009761F04CC02C813D8122305C
:10389000310531F18C819D818330910589F141C0E1
:1038A000AAE3B0E0EAE3F0E080818F708C93AAE3B2
:1038B000B0E0EAE3F0E090818B81892B8C9331C0FA
:1038C000A7E3B0E0E7E3F0E080818F708C93A7E39B
:1038D000B0E0E7E3F0E090818B81892B8C9321C0ED
:1038E000A4E3B0E0E4E3F0E080818F708C93A4E384
:1038F000B0E0E4E3F0E090818B81892B8C9311C0E0
:10390000A1E3B0E0E1E3F0E080818F708C93A1E36C
:10391000B0E0E1E3F0E090818B81892B8C9301C0D2
:10392000198289810F900F900F900F900F90CF9177
:10393000DF910895DF93CF93CDB7DEB7A7E2B0E074
:10394000E7E2F0E0808180648C93A7E2B0E0E7E2F8
:10395000F0E080818F778C93A7E2B0E0E7E2F0E0BF
:1039600080818F7D8C93A6E2B0E0E6E2F0E080817A
:10397000887F8C93A6E2B0E0E6E2F0E08081876089
:103980008C93A6E2B0E0E6E2F0E080818F7D8C933C
:10399000A6E2B0E0E6E2F0E0808180688C93A6E2E7
:1039A000B0E0E6E2F0E08081877F8C93CF91DF91F9
:1039B0000895DF93CF93CDB7DEB7A6E2B0E0E6E29D
:1039C000F0E0808180688C93CF91DF910895DF9340
:1039D000CF93CDB7DEB7A6E2B0E0E6E2F0E08081BB
:1039E0008F778C93CF91DF910895DF93CF93CDB7ED
:1039F000DEB7A6E2B0E0E6E2F0E0808188608C937A
:103A0000CF91DF910895DF93CF93CDB7DEB7A6E2D4
:103A1000B0E0E6E2F0E08081877F8C93CF91DF9188
:103A20000895DF93CF9300D0CDB7DEB78A8381E0CE
:103A300089838A81882331F08A81813019F08A81D3
:103A40008330E1F4A7E2B0E0E7E2F0E080818F7339
:103A50008C93A7E2B0E0E7E2F0E08081282F8A8132
:103A6000882F90E0002496958795079496958795E2
:103A70000794982F802D822B8C93198289810F9027
:103A80000F90CF91DF910895DF93CF9300D0CDB702
:103A9000DEB78A8381E089838A81883080F4A6E258
:103AA000B0E0E6E2F0E08081887F8C93A6E2B0E0AF
:103AB000E6E2F0E090818A81892B8C9319828981DA
:103AC0000F900F90CF91DF910895DF93CF9300D0A7
:103AD000CDB7DEB78A8319828A81882341F4A7E2B1
:103AE000B0E0E7E2F0E080818F7D8C930DC08A81A9
:103AF000813041F4A7E2B0E0E7E2F0E0808180624B
:103B00008C9302C081E0898389810F900F90CF91BF
:103B1000DF910895DF93CF9300D0CDB7DEB78A83CE
:103B200019828A81883041F4A6E2B0E0E6E2F0E052
:103B300080818F7D8C931AC08A818830A8F4A6E298
:103B4000B0E0E6E2F0E0808180628C93A0E5B0E036
:103B5000E0E5F0E080818F718C93A0E5B0E0E0E5D6
:103B6000F0E080818C9302C081E0898389810F908D
:103B70000F90CF91DF910895DF93CF93CDB7DEB74C
:103B800028970FB6F894DEBF0FBECDBF8E8378871F
:103B90006F831D8219821A821B821C828F819885F5
:103BA000009709F478C08091F401882309F070C06F
:103BB00081E08093F4018E81803278F4A7E2B0E056
:103BC000E7E2F0E08081807E8C93A7E2B0E0E7E25C
:103BD000F0E090818E81892B8C93A6E2B0E0E6E242
:103BE000F0E0808180648C930BC089819A81AB81E5
:103BF000BC810196A11DB11D89839A83AB83BC83CF
:103C0000E6E2F0E08081882F90E0807190709595D9
:103C1000879595958795959587959595879500971F
:103C200061F489819A81AB81BC81803523EC920754
:103C300020E0A20720E0B207C0F289819A81AB811F
:103C4000BC81803523EC920720E0A20720E0B20778
:103C500019F481E08D8319C0A6E2B0E0E6E2F0E05D
:103C6000808180618C93E4E2F0E08081282F30E055
:103C7000E5E2F0E08081882F90E0982F8827822B62
:103C8000932BEF81F885918380831092F40105C016
:103C900083E08D8302C082E08D838D8128960FB6EC
:103CA000F894DEBF0FBECDBFCF91DF910895DF93B3
:103CB000CF9300D000D000D0CDB7DEB78A837C830D
:103CC0006B835E834D8319828B819C810097E9F120
:103CD0008D819E810097C9F18091F401882391F52F
:103CE00081E08093F4011092F5018B819C81909387
:103CF000F1018093F0018D819E819093F301809377
:103D0000F2018A81803278F4A7E2B0E0E7E2F0E0E5
:103D10008081807E8C93A7E2B0E0E7E2F0E09081C2
:103D20008A81892B8C93A6E2B0E0E6E2F0E0808104
:103D300080648C93A6E2B0E0E6E2F0E080818860E7
:103D40008C9305C083E0898302C082E089838981E6
:103D500026960FB6F894DEBF0FBECDBFCF91DF9190
:103D60000895DF93CF9300D00F92CDB7DEB79B833A
:103D70008A8319828A819B81009709F479C0EA813C
:103D8000FB8180819181009709F472C0EA81FB81F7
:103D900085819681009709F46BC0EA81FB8182815D
:103DA0009381009709F464C08091F401882309F09D
:103DB0005CC081E08093F40181E08093F501EA81A9
:103DC000FB81828193819093F1018093F001EA81DC
:103DD000FB81808191819093F7018093F601EA81C4
:103DE000FB8184818093F801EA81FB818581968142
:103DF0009093F3018093F2011092F9012091F60162
:103E00003091F7018091F901882F90E0F901E80FD6
:103E1000F91F80818032D0F4A7E2B0E0E7E2F0E061
:103E20008081807E8C93A7E2B0E0E7E2F0E0408101
:103E30002091F6013091F7018091F901882F90E0EF
:103E4000F901E80FF91F8081842B8C93A6E2B0E082
:103E5000E6E2F0E0808180648C93A6E2B0E0E6E2E6
:103E6000F0E0808188608C9305C083E0898302C084
:103E700082E0898389810F900F900F90CF91DF911D
:103E800008951F920F920FB60F9211242F933F9314
:103E90004F935F936F937F938F939F93AF93BF9352
:103EA000EF93FF93DF93CF93CDB7DEB78091F5010A
:103EB000882319F5A091F001B091F101E4E2F0E05E
:103EC0008081282F30E0E5E2F0E08081882F90E0CB
:103ED000982F8827822B932B8D939C931092F4011B
:103EE000E091F201F091F3010995A6E2B0E0E6E27B
:103EF000F0E08081877F8C936CC08091F5018130E8
:103F000009F067C02091F0013091F1018091F90131
:103F1000882F90E0880F991FD901A80FB91FE4E2FC
:103F2000F0E08081282F30E0E5E2F0E08081882F0A
:103F300090E0982F8827822B932B11969C938E9339
:103F40008091F9018F5F8093F9019091F90180913F
:103F5000F801981779F41092F401E091F201F091D0
:103F6000F3010995A6E2B0E0E6E2F0E08081877F08
:103F70008C932FC02091F6013091F7018091F901C7
:103F8000882F90E0F901E80FF91F80818032D0F48A
:103F9000A7E2B0E0E7E2F0E08081807E8C93A7E2C8
:103FA000B0E0E7E2F0E040812091F6013091F701C6
:103FB0008091F901882F90E0F901E80FF91F8081C5
:103FC000842B8C93A6E2B0E0E6E2F0E0808180648E
:103FD0008C93CF91DF91FF91EF91BF91AF919F9122
:103FE0008F917F916F915F914F913F912F910F90A2
:103FF0000FBE0F901F901895DF93CF9300D00F92B4
:10400000CDB7DEB769837A838B8389819A81692FE3
:1040100040E00E9496148B81882331F489819A8133
:10402000692F41E00E94A5150F900F900F90CF913E
:10403000DF910895DF93CF9300D000D00F92CDB7DA
:10404000DEB76B837C838D831A8219828D818823EE
:1040500019F08D818130A1F48B819C819E012E5FAE
:104060003F4F692FA9010E94B4168A81882319F451
:1040700081E089831BC08A818130C1F4198216C016
:104080008D81823099F48B819C819E012E5F3F4F00
:10409000692FA9010E94B4168A81813019F481E048
:1040A000898304C08A81882309F4198289810F9049
:1040B0000F900F900F900F90CF91DF910895DF93A5
:1040C000CF93CDB7DEB783E065E041E00E94961460
:1040D000CF91DF9108950F931F93DF93CF9300D07B
:1040E00000D00F92CDB7DEB78D83ECE4F0E0118203
:1040F00010828D81992787FD9095A92FB92FBC013A
:10410000CD010E947105DC01CB01BC01CD0121E68E
:104110003BE046EB5BE30E943B03DC01CB01898380
:104120009A83AB83BC8369817A818B819C8120E0F7
:1041300030E040EC5FE30E940E03DC01CB01898399
:104140009A83AB83BC830AE410E069817A818B8116
:104150009C8120E030E04AE754E40E943B03DC010C
:10416000CB01BC01CD010E944900DC01CB01F8016B
:10417000918380830F900F900F900F900F90CF91AD
:10418000DF911F910F910895EF92FF920F931F936C
:10419000DF93CF93CDB7DEB72B970FB6F894DEBF82
:1041A0000FBECDBF998788877B876A871D82E88588
:1041B000F9858181282F30E088EE93E0AC01249FBF
:1041C000C001259F900D349F900D11249A838983FF
:1041D000E885F98580819E012A5F3F4FB9010E94E1
:1041E000BC1DE885F98582818823E1F48E819F8159
:1041F0007C0100E010E089819A819C0140E050E060
:10420000C801B7010E94552CDC01CB01072E7AE0D2
:10421000B695A795979587957A95D1F7702D9C833C
:104220008B831BC0E885F98582818130B1F48E8152
:104230009F817C0100E010E089819A819C0140E02F
:1042400050E0C801B7010E94552CDC01CB01892F39
:104250009A2FAB2FBB279C838B838B819C812AE079
:1042600030E0B9010E94742CCB01EA85FB85808384
:104270008D812B960FB6F894DEBF0FBECDBFCF91C8
:10428000DF911F910F91FF90EF900895EF92FF92B1
:104290000F931F93DF93CF93CDB7DEB729970FB658
:1042A000F894DEBF0FBECDBF9F838E83798768876A
:1042B0001B82EE81FF818181282F30E088EE93E020
:1042C000AC01249FC001259F900D349F900D1124B7
:1042D0009A838983EE81FF8180819E012C5F3F4F0D
:1042E000B9010E94BC1DEE81FF8182818823F1F417
:1042F0008C819D817C0100E010E089819A819C0184
:1043000040E050E0C801B7010E94552CDC01CB0110
:10431000072E7AE0B695A795979587957A95D1F768
:10432000702DE885F985918380831DC0EE81FF8122
:1043300082818130C1F48C819D817C0100E010E09C
:1043400089819A819C0140E050E0C801B7010E9438
:10435000552CDC01CB01892F9A2FAB2FBB27E88589
:10436000F985918380838B8129960FB6F894DEBFFF
:104370000FBECDBFCF91DF911F910F91FF90EF90B6
:104380000895DF93CF9300D00F92CDB7DEB7698346
:104390007A838B8389819A81692F41E00E949614E8
:1043A0000F900F900F90CF91DF910895DF93CF93EF
:1043B00000D00F92CDB7DEB769837A838B838B8170
:1043C000813039F489819A81692F41E00E94A515D5
:1043D00009C08B81882331F489819A81692F40E05B
:1043E0000E94A5150F900F900F90CF91DF91089527
:1043F000DF93CF9300D00F92CDB7DEB769837A8376
:104400008B838B81813039F489819A81692F40E0D7
:104410000E94A51509C08B81882331F489819A8176
:10442000692F41E00E94A5150F900F900F90CF913A
:10443000DF910895DF93CF9300D00F92CDB7DEB711
:1044400069837A838B8389819A81692F0E94791786
:104450000F900F900F90CF91DF910895DF93CF933E
:10446000CDB7DEB782E060E041E00E94051882E04F
:1044700061E041E00E94051882E062E041E00E94B4
:10448000051882E063E041E00E94051882E06FE0D9
:104490000E941E1C82E06FE00E94271BCF91DF91DB
:1044A0000895DF93CF93CDB7DEB762970FB6F89438
:1044B000DEBF0FBECDBF8FEF898B84E08F87C9C071
:1044C00082E06F8540E00E94A515188AB6C09E0163
:1044D0002E5E3F4F82E06889A9010E94B4168A8946
:1044E000882309F0A7C080E090E0A8E4B2E48B87BD
:1044F0009C87AD87BE876B857C858D859E8520E0FA
:1045000030E04AEF54E40E943B03DC01CB018F838F
:104510009887A987BA876F81788589859A8520E0F1
:1045200030E040E85FE30E94410588232CF481E0FD
:1045300090E09E838D833FC06F81788589859A85C1
:1045400020E03FEF4FE757E40E94E10418164CF5D6
:104550006B857C858D859E8520E030E040E251E4CE
:104560000E943B03DC01CB01BC01CD010E9449004C
:10457000DC01CB019E838D830FC088EC90E09C838F
:104580008B838B819C810197F1F79C838B838D8139
:104590009E8101979E838D838D819E81009769F70F
:1045A00014C06F81788589859A850E944900DC0155
:1045B000CB019E838D838D819E819A83898389819E
:1045C0009A810197F1F79A8389839E012E5E3F4F6E
:1045D00082E06889A9010E94B4168A898823A9F417
:1045E0008889482F50E08F85882F90E09C012450C7
:1045F0003040CA01880F991F880F991F820F931F9F
:10460000FC01E358FE4F8081898B9E012E5E3F4F57
:1046100082E06889A9010E94B41608C09E012E5E3E
:104620003F4F82E06889A9010E94B4168A898823D5
:10463000A9F307C088898F5F888B8889843008F444
:1046400046CF82E06F8541E00E94A5158F858F5F80
:104650008F878F85883008F433CF898962960FB6AB
:10466000F894DEBF0FBECDBFCF91DF9108950F93B9
:104670001F93DF93CF93CDB7DEB7C654D0400FB6AC
:10468000F894DEBF0FBECDBFFE01ED5BFF4F80E0B3
:1046900090E0A8E4B2E480839183A283B3838E0187
:1046A000015C1F4FFE01ED5BFF4F608171818281D4
:1046B000938120E030E04AEF54E40E943B03DC01A8
:1046C000CB01F80180839183A283B383FE01FF961F
:1046D000608171818281938120E030E040E85FE376
:1046E0000E94410588232CF481E090E09EAF8DAFBD
:1046F00046C0FE01FF96608171818281938120E036
:104700003FEF4FE757E40E94E104181664F5FE01FD
:10471000ED5BFF4F608171818281938120E030E009
:1047200040E251E40E943B03DC01CB01BC01CD011E
:104730000E944900DC01CB019EAF8DAF0FC088EC19
:1047400090E09CAF8BAF8BAD9CAD0197F1F79CAF28
:104750008BAF8DAD9EAD01979EAF8DAF8DAD9EADF4
:10476000009769F716C0FE01FF9660817181828112
:1047700093810E944900DC01CB019EAF8DAF8DADCE
:104780009EAD9AAF89AF89AD9AAD0197F1F79AAF17
:1047900089AF81E060E041E00E94961481E061E031
:1047A00041E00E94961481E062E041E00E9496148C
:1047B00081E063E041E00E94961481E066E041E020
:1047C0000E94961481E065E041E00E94961481E029
:1047D00064E041E00E94961482E00E94F22580E0AD
:1047E00090E0A0E2B1E48DAB9EABAFABB8AF6DA9EA
:1047F0007EA98FA998AD20E030E04AEF54E40E94F2
:104800003B03DC01CB0189AB9AABABABBCAB69A979
:104810007AA98BA99CA920E030E040E85FE30E94E0
:10482000410588232CF481E090E098AB8FA73FC02E
:1048300069A97AA98BA99CA920E03FEF4FE757E42B
:104840000E94E10418164CF56DA97EA98FA998ADB8
:1048500020E030E040E251E40E943B03DC01CB0168
:10486000BC01CD010E944900DC01CB0198AB8FA7B0
:104870000FC088EC90E09EA78DA78DA59EA50197FF
:10488000F1F79EA78DA78FA598A9019798AB8FA741
:104890008FA598A9009769F714C069A97AA98BA96F
:1048A0009CA90E944900DC01CB0198AB8FA78FA582
:1048B00098A99CA78BA78BA59CA50197F1F79CA70E
:1048C0008BA788E20E94F22580E090E0A0E8BFE399
:1048D0008FA398A7A9A7BAA76FA178A589A59AA51C
:1048E00020E030E04AEF54E40E943B03DC01CB01BE
:1048F0008BA39CA3ADA3BEA36BA17CA18DA19EA104
:1049000020E030E040E85FE30E94410588232CF47A
:1049100081E090E09AA389A33FC06BA17CA18DA107
:104920009EA120E03FEF4FE757E40E94E1041816F4
:104930004CF56FA178A589A59AA520E030E040E26A
:1049400051E40E943B03DC01CB01BC01CD010E947C
:104950004900DC01CB019AA389A30FC088EC90E049
:1049600098A38F8F8F8D98A10197F1F798A38F8FC0
:1049700089A19AA101979AA389A389A19AA10097D5
:1049800069F714C06BA17CA18DA19EA10E94490072
:10499000DC01CB019AA389A389A19AA19E8F8D8F57
:1049A0008D8D9E8D0197F1F79E8F8D8F8CE00E94EB
:1049B000F22580E090E0A0E8BFE3898F9A8FAB8F6B
:1049C000BC8F698D7A8D8B8D9C8D20E030E04AEF15
:1049D00054E40E943B03DC01CB018D8B9E8BAF8B9B
:1049E000B88F6D897E898F89988D20E030E040E80E
:1049F0005FE30E94410588232CF481E090E09C8BCA
:104A00008B8B3FC06D897E898F89988D20E03FEF29
:104A10004FE757E40E94E10418164CF5698D7A8D32
:104A20008B8D9C8D20E030E040E251E40E943B03FE
:104A3000DC01CB01BC01CD010E944900DC01CB01AE
:104A40009C8B8B8B0FC088EC90E09A8B898B89892B
:104A50009A890197F1F79A8B898B8B899C890197A9
:104A60009C8B8B8B8B899C89009769F714C06D890F
:104A70007E898F89988D0E944900DC01CB019C8B37
:104A80008B8B8B899C89988B8F878F8598890197D1
:104A9000F1F7988B8F870E94172786E00E94F225F6
:104AA00080E090E0A0E8BFE38B879C87AD87BE875E
:104AB0006B857C858D859E8520E030E04AEF54E44F
:104AC0000E943B03DC01CB018F839887A987BA87BB
:104AD0006F81788589859A8520E030E040E85FE342
:104AE0000E94410588232CF481E090E09E838D8311
:104AF0003FC06F81788589859A8520E03FEF4FE739
:104B000057E40E94E10418164CF56B857C858D8571
:104B10009E8520E030E040E251E40E943B03DC014E
:104B2000CB01BC01CD010E944900DC01CB019E8379
:104B30008D830FC088EC90E09C838B838B819C815C
:104B40000197F1F79C838B838D819E8101979E83D2
:104B50008D838D819E81009769F714C06F81788560
:104B600089859A850E944900DC01CB019E838D8353
:104B70008D819E819A83898389819A810197F1F73A
:104B80009A838983CA5BDF4F0FB6F894DEBF0FBEEE
:104B9000CDBFCF91DF911F910F910895DF93CF93F8
:104BA0000F92CDB7DEB7898381E066E041E00E94D5
:104BB000A51581E065E040E00E94A5158981982F48
:104BC00092959F7081E0692F0E94AC1A0E94162670
:104BD00081E069810E94AC1A0E9416260F90CF9145
:104BE000DF910895DF93CF930F92CDB7DEB789831E
:104BF00081E066E040E00E94A51581E065E040E0CC
:104C00000E94A5158981982F92959F7081E0692F48
:104C10000E94AC1A0E94162681E069810E94AC1A9B
:104C20000E9416260F90CF91DF910895DF93CF93C6
:104C3000CDB7DEB76C970FB6F894DEBF0FBECDBF11
:104C400081E064E041E00E94A51580E090E0A0E8EA
:104C5000BFE3898F9A8FAB8FBC8F698D7A8D8B8DD7
:104C60009C8D20E030E04AEF54E40E943B03DC01DD
:104C7000CB018D8B9E8BAF8BB88F6D897E898F8991
:104C8000988D20E030E040E85FE30E9441058823F2
:104C90002CF481E090E09C8B8B8B3FC06D897E89EA
:104CA0008F89988D20E03FEF4FE757E40E94E104A1
:104CB00018164CF5698D7A8D8B8D9C8D20E030E037
:104CC00040E251E40E943B03DC01CB01BC01CD0179
:104CD0000E944900DC01CB019C8B8B8B0FC088ECC0
:104CE00090E09A8B898B89899A890197F1F79A8B41
:104CF000898B8B899C8901979C8B8B8B8B899C8959
:104D0000009769F714C06D897E898F89988D0E94FC
:104D10004900DC01CB019C8B8B8B8B899C89988B08
:104D20008F878F8598890197F1F7988B8F8781E01E
:104D300064E040E00E94A51580E090E0A0E8BFE3B9
:104D40008B879C87AD87BE876B857C858D859E858F
:104D500020E030E04AEF54E40E943B03DC01CB0149
:104D60008F839887A987BA876F81788589859A8587
:104D700020E030E040E85FE30E94410588232CF406
:104D800081E090E09E838D833FC06F817885898527
:104D90009A8520E03FEF4FE757E40E94E1041816A0
:104DA0004CF56B857C858D859E8520E030E040E26A
:104DB00051E40E943B03DC01CB01BC01CD010E9408
:104DC0004900DC01CB019E838D830FC088EC90E00D
:104DD0009C838B838B819C810197F1F79C838B83D0
:104DE0008D819E8101979E838D838D819E81009709
:104DF00069F714C06F81788589859A850E9449007A
:104E0000DC01CB019E838D838D819E819A83898372
:104E100089819A810197F1F79A8389836C960FB6FD
:104E2000F894DEBF0FBECDBFCF91DF910895DF9321
:104E3000CF93CDB7DEB72E970FB6F894DEBF0FBE77
:104E4000CDBF81E00E94F22580E090E0A0E2B1E4D5
:104E50008B879C87AD87BE876B857C858D859E857E
:104E600020E030E04AEF54E40E943B03DC01CB0138
:104E70008F839887A987BA876F81788589859A8576
:104E800020E030E040E85FE30E94410588232CF4F5
:104E900081E090E09E838D833FC06F817885898516
:104EA0009A8520E03FEF4FE757E40E94E10418168F
:104EB0004CF56B857C858D859E8520E030E040E259
:104EC00051E40E943B03DC01CB01BC01CD010E94F7
:104ED0004900DC01CB019E838D830FC088EC90E0FC
:104EE0009C838B838B819C810197F1F79C838B83BF
:104EF0008D819E8101979E838D838D819E810097F8
:104F000069F714C06F81788589859A850E94490068
:104F1000DC01CB019E838D838D819E819A83898361
:104F200089819A810197F1F79A8389832E960FB62A
:104F3000F894DEBF0FBECDBFCF91DF910895DF9310
:104F4000CF9300D00F92CDB7DEB79B838A831982AF
:104F50000EC08981282F30E08A819B81FC01E20FFD
:104F6000F31F80810E94CE2589818F5F898389818B
:104F7000282F30E08A819B81FC01E20FF31F8081A2
:104F8000882339F70F900F900F90CF91DF910895FC
:104F9000EF92FF920F931F93DF93CF93CDB7DEB7BE
:104FA00028970FB6F894DEBF0FBECDBF6D837E830A
:104FB0008F83988781E090E0A0E0B0E089839A83B6
:104FC000AB83BC838D819E81AF81B8850097A1059D
:104FD000B10521F480E30E94CE2585C08D819E819C
:104FE000AF81B885BB230CF049C08DE20E94CE256D
:104FF0008D819E81AF81B885B095A0959095819562
:105000009F4FAF4FBF4F8D839E83AF83B88736C00E
:1050100089819A81AB81BC812AE030E040E050E098
:10502000BC01CD010E94552C7B018C018D819E819C
:10503000AF81B8852AE030E040E050E0BC01CD010E
:105040000E94AA2CDC01CB018E0D9F1DA01FB11F59
:1050500089839A83AB83BC838D819E81AF81B88520
:105060002AE030E040E050E0BC01CD010E94AA2CD3
:10507000DA01C9018D839E83AF83B8878D819E81BC
:10508000AF81B8850097A105B10511F623C08981CC
:105090009A81AB81BC812AE030E040E050E0BC0165
:1050A000CD010E94882CDC01CB01805D0E94CE25C1
:1050B00089819A81AB81BC812AE030E040E050E0F8
:1050C000BC01CD010E94882CDA01C90189839A8331
:1050D000AB83BC8389819A81AB81BC81813091058E
:1050E000A105B105A1F628960FB6F894DEBF0FBE54
:1050F000CDBFCF91DF911F910F91FF90EF90089559
:10510000AF92BF92CF92DF92EF92FF920F931F93D5
:10511000DF93CF9300D000D0CDB7DEB769837A8319
:105120008B839C8369817A818B819C810E94CF05CE
:10513000DC01CB01BC01CD010E94C82769817A81C5
:105140008B819C8120E030E040E050E00E944105EE
:1051500088234CF489819A81AB81BC81B0588983C2
:105160009A83AB83BC8369817A818B819C810E9405
:10517000CF05DC01CB01BC01CD010E9471059B0173
:10518000AC0169817A818B819C810E94DD02DC0106
:10519000CB0189839A83AB83BC8369817A818B81BC
:1051A0009C8120E030E44CE156E40E943B03DC01AA
:1051B000CB0189839A83AB83BC8369817A818B819C
:1051C0009C810E947500A22EB32EC42ED52EE62EF1
:1051D000F72E082F192F8A2D8B298C298D298E299E
:1051E0008F29802B812B882379F08EE20E94CE2597
:1051F00069817A818B819C810E94CF05DC01CB0182
:10520000BC01CD010E94C8270F900F900F900F9006
:10521000CF91DF911F910F91FF90EF90DF90CF9092
:10522000BF90AF900895DF93CF93CDB7DEB761976E
:105230000FB6F894DEBF0FBECDBF888B698B88890F
:10524000882349F08889853030F48989882319F0CA
:105250008989853118F080E88F871BC08889813063
:1052600021F4898981588F8714C08889823021F47C
:10527000898981548F870DC08889833021F4898979
:105280008D568F8706C08889843019F489898D529C
:105290008F878F850E94F22580E090E0A0E8BFE331
:1052A0008B879C87AD87BE876B857C858D859E852A
:1052B00020E030E04AEF54E40E943B03DC01CB01E4
:1052C0008F839887A987BA876F81788589859A8522
:1052D00020E030E040E85FE30E94410588232CF4A1
:1052E00081E090E09E838D833FC06F8178858985C2
:1052F0009A8520E03FEF4FE757E40E94E10418163B
:105300004CF56B857C858D859E8520E030E040E204
:1053100051E40E943B03DC01CB01BC01CD010E94A2
:105320004900DC01CB019E838D830FC088EC90E0A7
:105330009C838B838B819C810197F1F79C838B836A
:105340008D819E8101979E838D838D819E810097A3
:1053500069F714C06F81788589859A850E94490014
:10536000DC01CB019E838D838D819E819A8389830D
:1053700089819A810197F1F79A83898361960FB6A3
:10538000F894DEBF0FBECDBFCF91DF910895DF93BC
:10539000CF9300D00F92CDB7DEB78A836B8319828B
:1053A00080E40E94F22519820CC08981882F90E048
:1053B000FC01E357FE4F80810E94CE2589818F5FDB
:1053C00089838981803488F38A816B810E941329C3
:1053D000198206C089810E94CE2589818F5F8983C9
:1053E00089818830B8F30F900F900F90CF91DF91A3
:1053F0000895DF93CF93CDB7DEB72E970FB6F8940D
:10540000DEBF0FBECDBF8CE10E94F22580E090E0B0
:10541000A0E8BFE38B879C87AD87BE876B857C85C3
:105420008D859E8520E030E04AEF54E40E943B03E6
:10543000DC01CB018F839887A987BA876F81788534
:1054400089859A8520E030E040E85FE30E944105CD
:1054500088232CF481E090E09E838D833FC06F8190
:10546000788589859A8520E03FEF4FE757E40E94D1
:10547000E10418164CF56B857C858D859E8520E0B2
:1054800030E040E251E40E943B03DC01CB01BC016F
:10549000CD010E944900DC01CB019E838D830FC0AA
:1054A00088EC90E09C838B838B819C810197F1F742
:1054B0009C838B838D819E8101979E838D838D81BB
:1054C0009E81009769F714C06F81788589859A85D8
:1054D0000E944900DC01CB019E838D838D819E81DA
:1054E0009A83898389819A810197F1F79A838983C5
:1054F0002E960FB6F894DEBF0FBECDBFCF91DF91D1
:105500000895DF93CF93CDB7DEB72E970FB6F894FB
:10551000DEBF0FBECDBF88E10E94F22580E090E0A3
:10552000A0E8BFE38B879C87AD87BE876B857C85B2
:105530008D859E8520E030E04AEF54E40E943B03D5
:10554000DC01CB018F839887A987BA876F81788523
:1055500089859A8520E030E040E85FE30E944105BC
:1055600088232CF481E090E09E838D833FC06F817F
:10557000788589859A8520E03FEF4FE757E40E94C0
:10558000E10418164CF56B857C858D859E8520E0A1
:1055900030E040E251E40E943B03DC01CB01BC015E
:1055A000CD010E944900DC01CB019E838D830FC099
:1055B00088EC90E09C838B838B819C810197F1F731
:1055C0009C838B838D819E8101979E838D838D81AA
:1055D0009E81009769F714C06F81788589859A85C7
:1055E0000E944900DC01CB019E838D838D819E81C9
:1055F0009A83898389819A810197F1F79A838983B4
:105600002E960FB6F894DEBF0FBECDBFCF91DF91BF
:105610000895DF93CF93CDB7DEB72E970FB6F894EA
:10562000DEBF0FBECDBF0E9437230E942E220E94F4
:105630007C100E94100981E067E00E94132980E637
:1056400090E00E949F2780E090E4ACE9B5E48B876E
:105650009C87AD87BE876B857C858D859E8520E088
:1056600030E04AEF54E40E943B03DC01CB018F831E
:105670009887A987BA876F81788589859A8520E080
:1056800030E040E85FE30E94410588232CF481E08C
:1056900090E09E838D833FC06F81788589859A8550
:1056A00020E03FEF4FE757E40E94E10418164CF565
:1056B0006B857C858D859E8520E030E040E251E45D
:1056C0000E943B03DC01CB01BC01CD010E944900DB
:1056D000DC01CB019E838D830FC088EC90E09C831E
:1056E0008B838B819C810197F1F79C838B838D81C8
:1056F0009E8101979E838D838D819E81009769F79E
:1057000014C06F81788589859A850E944900DC01E3
:10571000CB019E838D838D819E819A83898389812C
:105720009A810197F1F79A8389830E94982BFFCF82
:10573000DF93CF93CDB7DEB72E970FB6F894DEBFC9
:105740000FBECDBF80E090E4ACE9B5E48B879C87C9
:10575000AD87BE876B857C858D859E8520E030E09A
:105760004AEF54E40E943B03DC01CB018F8398870E
:10577000A987BA876F81788589859A8520E030E08E
:1057800040E85FE30E94410588232CF481E090E02B
:105790009E838D833FC06F81788589859A8520E0BF
:1057A0003FEF4FE757E40E94E10418164CF56B8574
:1057B0007C858D859E8520E030E040E251E40E94AA
:1057C0003B03DC01CB01BC01CD010E944900DC019F
:1057D000CB019E838D830FC088EC90E09C838B83EC
:1057E0008B819C810197F1F79C838B838D819E81B6
:1057F00001979E838D838D819E81009769F714C0E8
:105800006F81788589859A850E944900DC01CB01EA
:105810009E838D838D819E819A83898389819A81DC
:105820000197F1F79A8389830E94172788E690E011
:105830000E949F2782E061E00E9413290E9451226A
:105840008093FD018CEF91E00E94DB098093CD01F4
:105850008091FD018F3F29F08091FD010E94CE25AE
:1058600010C08091CD01882361F48091FC018D30BE
:1058700061F08091FC018F3041F08091FC010E9429
:10588000CE258091FD018134C9F62E960FB6F8948D
:10589000DEBF0FBECDBFCF91DF910895DF93CF93D1
:1058A000CDB7DEB7CF91DF910895629FD001739F8E
:1058B000F001829FE00DF11D649FE00DF11D929FAC
:1058C000F00D839FF00D749FF00D659FF00D9927EB
:1058D000729FB00DE11DF91F639FB00DE11DF91F0F
:1058E000BD01CF0111240895AA1BBB1B51E107C0C4
:1058F000AA1FBB1FA617B70710F0A61BB70B881F60
:10590000991F5A95A9F780959095BC01CD010895EE
:10591000A1E21A2EAA1BBB1BFD010DC0AA1FBB1FB3
:10592000EE1FFF1FA217B307E407F50720F0A21B25
:10593000B30BE40BF50B661F771F881F991F1A9492
:1059400069F760957095809590959B01AC01BD01BC
:10595000CF01089597FB092E05260ED057FD04D0E0
:10596000D7DF0AD0001C38F450954095309521952A
:105970003F4F4F4F5F4F0895F6F790958095709584
:1059800061957F4F8F4F9F4F08952F923F924F9277
:105990005F926F927F928F929F92AF92BF92CF92BF
:1059A000DF92EF92FF920F931F93CF93DF93CDB7C8
:1059B000DEB7CA1BDB0B0FB6F894DEBF0FBECDBF40
:1059C00009942A88398848885F846E847D848C8411
:1059D0009B84AA84B984C884DF80EE80FD800C811A
:1059E0001B81AA81B981CE0FD11D0FB6F894DEBFFD
:0C59F0000FBECDBFED010895F894FFCF6D
:1059FC0057656C636F6D65005365742055736572E4
:105A0C004E616D6500000000000000000000010206
:105A1C00020303030304040404040404040505053D
:105A2C000505050505050505050505050506060617
:105A3C0006060606060606060606060606060606FA
:105A4C0006060606060606060606060606070707E7
:105A5C0007070707070707070707070707070707CA
:105A6C0007070707070707070707070707070707BA
:105A7C0007070707070707070707070707070707AA
:105A8C000707070707070707070707070708080897
:105A9C00080808080808080808080808080808087A
:105AAC00080808080808080808080808080808086A
:105ABC00080808080808080808080808080808085A
:105ACC00080808080808080808080808080808084A
