:100000000C942A000C94F1050C941D060C944906DE
:100010000C9488030C945F030C9436030C940D032A
:100020000C94E4020C94BB020C9492020C946902AE
:100030000C94AF040C942E010C9447000C946D01A9
:100040000C9447000C9447000C9447000C94470014
:100050000C94470011241FBECFE5D8E0DEBFCDBF12
:1000600015E0A0E6B0E0E2E9F2E302C005900D92EF
:10007000A83DB107D9F716E0A8EDB5E001C01D9283
:10008000A033B107E1F70E947D170C9447190C9437
:100090000000599810BC83E389B95898529886E8B3
:1000A00080BD579856985598549A539A0895282F7A
:1000B0008091DA05882311F083E0089580E090E0D4
:1000C000A0E0B0E003C00196A11DB11D5D9909C07B
:1000D000803137E2930730E0A30730E0B30799F7A8
:1000E00008C080519742A040B04019F02CB980E080
:1000F00001C084E01092DA050895FC01009711F424
:1001000082E008958091DA05882311F083E0089554
:1001100080E090E0A0E0B0E003C00196A11DB11D19
:100120005F9909C0803127E2920720E0A20720E012
:10013000B20799F709C080519742A040B04021F022
:100140008CB1808380E001C084E01092DA050895CC
:10015000CF93DF93009711F482E00AC0EC0105C051
:100160000E9457002196882319F488818823C1F7BB
:10017000DF91CF910895FC018091DA05882311F079
:1001800083E008953097A9F06115710591F081E041
:100190008093DA05F093D905E093D8057093DC05D8
:1001A0006093DB051092E00580818CB9569A80E05F
:1001B000089582E00895AF92BF92CF92DF92EF92BE
:1001C000FF920F931F93CF93DF93EC015A016B01C2
:1001D000009711F482E016C0EE24FF2487010CC0C2
:1001E000CE018E0D9F1D0E947D00882359F4089436
:1001F000E11CF11C011D111DEA14FB040C051D0579
:1002000078F380E0DF91CF911F910F91FF90EF90F5
:10021000DF90CF90BF90AF900895BC018091DA0538
:10022000882311F083E0089561157105A9F0211567
:10023000310591F081E08093DA057093DE056093DB
:10024000DD053093DC052093DB054093DF0510923C
:10025000E005579A80E0089582E008951F920F927A
:100260000FB60F9211242F933F934F935F936F9389
:100270007F938F939F93AF93BF93EF93FF9390914F
:10028000E0058CB1E091DD05F091DE05E90FF11D8F
:1002900080839F5F9093E0058091DF05981761F45C
:1002A0001092E0051092DA05E091DB05F091DC0593
:1002B000309709F009955798FF91EF91BF91AF9151
:1002C0009F918F917F916F915F914F913F912F916E
:1002D0000F900FBE0F901F9018951F920F920FB6A0
:1002E0000F9211242F933F934F935F936F937F93BC
:1002F0008F939F93AF93BF93EF93FF938091E0050C
:100300008F5F8093E005E091D805F091D905E80F63
:10031000F11DE081EE2369F41092E0051092DA05F8
:10032000E091DB05F091DC05309709F009955698CE
:1003300001C0ECB9FF91EF91BF91AF919F918F9167
:100340007F916F915F914F913F912F910F900FBED1
:100350000F901F90189583B7806483BF83B7886020
:1003600083BF83B78F7E83BF83B7806283BF1CBE8A
:1003700083B7887F83BF83B7846083BF08958FB5B9
:100380008E7F8FBD8FB582608FBD8EB588608EBD2C
:100390008EB580618EBD1BBC1ABC19BC18BC8FEF1A
:1003A00090E097BD86BD8EB580648EBD8FB58F7B86
:1003B0008FBD8FB580688FBD8FB58F7E8FBD8FB598
:1003C00080628FBD89B78B7F89BF89B78F7E89BFD8
:1003D00089B7877F89BF89B78F7D89BF8EB5887FB1
:1003E0008EBD8EB582608EBD089585B5806485BD55
:1003F00085B5886085BD85B58F7E85BD85B58062F4
:1004000085BD13BC85B5887F85BD85B5846085BDF8
:10041000089582BF08959DBD8CBD089584BD089543
:100420008CBF08959BBD8ABD089599BD88BD089570
:1004300083BD089597BD86BD089582B708952CB5F4
:100440003DB5C901089584B508959BBD8ABD089541
:100450008EB580648EBD89B7806289BF0895813072
:1004600029F48EB580648EBD80E00895882311F054
:1004700081E008958EB58F7B8EBD80E0089589B7A9
:10048000806289BF089589B78F7D89BF089526B599
:1004900037B5C901089581B5887F81BD81B5866072
:1004A00081BD089581B5886081BD089581B5886159
:1004B00081BD11BC0895009711F482E00895E62FE4
:1004C000F0E0EE0FFF1FEF51FA4F9183808380E041
:1004D00008951F920F920FB60F9211242F933F93FE
:1004E0004F935F936F937F938F939F93AF93BF933C
:1004F000EF93FF93E091F705F091F805309709F03D
:100500000995FF91EF91BF91AF919F918F917F914D
:100510006F915F914F913F912F910F900FBE0F9070
:100520001F9018951F920F920FB60F9211242F93C0
:100530003F934F935F936F937F938F939F93AF936B
:10054000BF93EF93FF93E091F505F091F605309797
:1005500009F00995FF91EF91BF91AF919F918F9114
:100560007F916F915F914F913F912F910F900FBEAF
:100570000F901F9018951F920F920FB60F92112493
:100580002F933F934F935F936F937F938F939F939B
:10059000AF93BF93EF93FF93E091F305F091F405D0
:1005A000309709F00995FF91EF91BF91AF919F911D
:1005B0008F917F916F915F914F913F912F910F900C
:1005C0000FBE0F901F9018951F920F920FB60F92AB
:1005D00011242F933F934F935F936F937F938F9348
:1005E0009F93AF93BF93EF93FF93E091F105F09149
:1005F000F205309709F00995FF91EF91BF91AF9106
:100600009F918F917F916F915F914F913F912F912A
:100610000F900FBE0F901F9018951F920F920FB65C
:100620000F9211242F933F934F935F936F937F9378
:100630008F939F93AF93BF93EF93FF93E091EF0559
:10064000F091F005309709F00995FF91EF91BF9176
:10065000AF919F918F917F916F915F914F913F915A
:100660002F910F900FBE0F901F9018951F920F9211
:100670000FB60F9211242F933F934F935F936F9375
:100680007F938F939F93AF93BF93EF93FF93E091EB
:10069000ED05F091EE05309709F00995FF91EF9186
:1006A000BF91AF919F918F917F916F915F914F918A
:1006B0003F912F910F900FBE0F901F9018951F9292
:1006C0000F920FB60F9211242F933F934F935F9386
:1006D0006F937F938F939F93AF93BF93EF93FF930A
:1006E000E091EB05F091EC05309709F00995FF9149
:1006F000EF91BF91AF919F918F917F916F915F919A
:100700004F913F912F910F900FBE0F901F90189512
:100710001F920F920FB60F9211242F933F934F9376
:100720005F936F937F938F939F93AF93BF93EF9359
:10073000FF93E091E905F091EA05309709F00995FA
:10074000FF91EF91BF91AF919F918F917F916F91A9
:100750005F914F913F912F910F900FBE0F901F907F
:100760001895FC01009709F474C04581442309F4ED
:1007700070C03481332309F46CC02681222309F42C
:1007800068C05281552309F464C07081772309F44D
:1007900060C06381662309F45CC09181992309F4E8
:1007A00058C0413011F081E002C06A9A80E03323E2
:1007B00021F0313021F081E003C06B9801C06B9AC9
:1007C0002330B9F0243028F4213069F0223068F465
:1007D00008C02530A1F0253078F0263091F081E076
:1007E00013C0689803C0689805C0689A6998709AA1
:1007F0000BC0689A699807C06898699AF8CF68989A
:1008000001C0689A699A7098552331F0513011F0FF
:1008100081E003C06D9801C06D9A662321F06130BC
:1008200021F081E003C06C9A01C06C98772321F01D
:10083000713021F081E003C06F9801C06F9A992355
:1008400021F0913021F081E008956E9808956E9A1C
:10085000089582E00895982FFB018091F305882385
:1008600011F083E008959FB980E090E0A0E0B0E04F
:1008700003C00196A11DB11D779B06C08051974210
:10088000A040B04051F40DC0803127E2920720E033
:10089000A20720E0B20769F704C08FB1808380E02F
:1008A00001C084E01092F3050895DF92EF92FF9269
:1008B0000F931F93CF93DF937B01D42E0097A1F06A
:1008C0006115710589F08C01C0E0D0E009C0B70165
:1008D0006C0F7D1FF80181918F010E942B042196DE
:1008E000CD15A8F380E001C082E0DF91CF911F9188
:1008F0000F91FF90EF90DF900895FC018091F30538
:10090000882311F083E00895309739F1A081B181F7
:10091000109719F14281538141155105F1F025815C
:10092000368121153105C9F081E08093F305B0933C
:10093000F705A093F6055093F2054093F1058481E5
:100940008093F8053093F5052093F4051092F9058E
:100950008C918FB96F9A80E0089582E008951F927C
:100960000F920FB60F9211242F933F934F935F93E3
:100970006F937F938F939F93AF93BF93EF93FF9367
:100980009091F9058FB1E091F105F091F205E90F31
:10099000F11D80839F5F9093F9058091F80598176A
:1009A00059F41092F3056F98E091F405F091F50574
:1009B000309751F0099508C0E091F605F091F705E0
:1009C000E90FF11D80818FB9FF91EF91BF91AF9138
:1009D0009F918F917F916F915F914F913F912F9157
:1009E0000F900FBE0F901F9018956D986C9A81E034
:1009F00065E041E00E94820681E067E041E00E94FC
:100A000082066B986A98689A699870986F986E9A3F
:100A100008958FB780688FBF08958FB78F778FBF86
:100A2000089584B7806484BF0895E82F762F862FB9
:100A30008650823008F069C0770F7C50E13009F4AD
:100A40004CC0E130D0F1E23021F0E33009F05DC07C
:100A50001BC065B7472F50E021E030E0C901072EE9
:100A600002C0880F991F0A94E2F78095862385BFFC
:100A700085B74F5F5F4F02C0220F331F4A95E2F7E1
:100A80002095282325BF41C065B7472F50E081E05E
:100A900090E09C01072E02C0220F331F0A94E2F758
:100AA000622B65BF25B74F5F5F4F02C0880F991F4C
:100AB0004A95E2F78095822327C065B7272F30E05B
:100AC00041E050E0CA01072E02C0880F991F0A9426
:100AD000E2F78095862385BF0EC065B7272F30E0EB
:100AE00041E050E0CA01072E02C0880F991F0A9406
:100AF000E2F7682B65BF85B72F5F3F4F02C0440FF9
:100B0000551F2A95E2F7842B85BF753061F4EE23DB
:100B100019F0E13041F404C084B78F7B84BF08959D
:100B200084B7806484BF0895382F8550833010F0D7
:100B300081E008952BB781E090E002C0880F991FF3
:100B40003A95E2F7809582238BBF80E00895382F95
:100B50008550833010F081E008952BB781E090E05C
:100B600002C0880F991F3A95E2F7282B2BBF80E02F
:100B700008959AB721E030E002C0220F331F8A9512
:100B8000E2F7922B9ABF08954AB721E030E0082E91
:100B900002C0220F331F0A94E2F750E024233523CA
:100BA00002C0359527958A95E2F7822F0895009720
:100BB000B1F0663029F49093FB058093FA050DC0DF
:100BC000673029F49093FD058093FC0506C06530DD
:100BD00031F49093FF058093FE0580E0089581E055
:100BE00008951F920F920FB60F9211242F933F93E7
:100BF0004F935F936F937F938F939F93AF93BF9325
:100C0000EF93FF93E091FA05F091FB05309721F007
:100C100009958AB780648ABFFF91EF91BF91AF9128
:100C20009F918F917F916F915F914F913F912F9104
:100C30000F900FBE0F901F9018951F920F920FB636
:100C40000F9211242F933F934F935F936F937F9352
:100C50008F939F93AF93BF93EF93FF93E091FC0526
:100C6000F091FD05309721F009958AB780688ABF19
:100C7000FF91EF91BF91AF919F918F917F916F9174
:100C80005F914F913F912F910F900FBE0F901F904A
:100C900018951F920F920FB60F9211242F933F9326
:100CA0004F935F936F937F938F939F93AF93BF9374
:100CB000EF93FF93E091FE05F091FF05309721F04F
:100CC00009958AB780628ABFFF91EF91BF91AF917A
:100CD0009F918F917F916F915F914F913F912F9154
:100CE0000F900FBE0F901F9018959FBB8EBB6DBBD2
:100CF000E29AE19AE199FECF08958EBB9FBBE09AFC
:100D00008DB30895843008F077C0683008F074C05F
:100D10004130B1F5813099F0813030F08230D1F03E
:100D2000833009F06BC021C02AB381E090E002C09B
:100D3000880F991F6A95E2F7282B2ABB5BC027B35F
:100D400081E090E002C0880F991F6A95E2F7282B96
:100D500027BB50C024B381E090E002C0880F991FE8
:100D60006A95E2F7282B24BB45C021B381E090E0CF
:100D700002C0880F991F6A95E2F7282B21BB3AC061
:100D80004423D1F5813099F0813028F08230D9F0B8
:100D90008330A1F524C02AB381E090E002C0880F1F
:100DA000991F6A95E2F7809582238ABB23C027B3F7
:100DB00081E090E002C0880F991F6A95E2F7809564
:100DC000822387BB17C024B381E090E002C0880F64
:100DD000991F6A95E2F78095822384BB0BC021B3EB
:100DE00081E090E002C0880F991F6A95E2F7809534
:100DF000822381BB81E0089580E0089581E0089519
:100E0000843008F077C0683008F074C04130B1F524
:100E1000813099F0813030F08230D1F0833009F0A8
:100E20006BC021C02BB381E090E002C0880F991FF6
:100E30006A95E2F7282B2BBB5BC028B381E090E0DA
:100E400002C0880F991F6A95E2F7282B28BB50C073
:100E500025B381E090E002C0880F991F6A95E2F700
:100E6000282B25BB45C022B381E090E002C0880F4B
:100E7000991F6A95E2F7282B22BB3AC04423D1F58B
:100E8000813099F0813028F08230D9F08330A1F59B
:100E900024C02BB381E090E002C0880F991F6A95AF
:100EA000E2F7809582238BBB23C028B381E090E0DA
:100EB00002C0880F991F6A95E2F78095822388BB4C
:100EC00017C025B381E090E002C0880F991F6A9592
:100ED000E2F78095822385BB0BC022B381E090E0CE
:100EE00002C0880F991F6A95E2F78095822382BB22
:100EF00081E0089580E0089581E00895FA0184304A
:100F000028F5683018F5813049F0813028F08230BA
:100F100039F08330C9F406C029B305C026B303C035
:100F200023B301C020B381E090E0062E02C0880FF9
:100F3000991F0A94E2F730E08223932302C095952B
:100F400087956A95E2F7808381E0089580E00895AF
:100F50008430C0F56830B0F5813091F0813028F0F0
:100F60008230C9F0833061F521C02BB381E090E07D
:100F700002C0880F991F6A95E2F728272BBB20C073
:100F800028B381E090E002C0880F991F6A95E2F7CC
:100F9000282728BB15C025B381E090E002C0880F48
:100FA000991F6A95E2F7282725BB0AC022B381E082
:100FB00090E002C0880F991F6A95E2F7282722BBAC
:100FC00081E0089580E00895843008F08FC0683093
:100FD00008F08CC0813049F1813038F0823009F45A
:100FE00044C0833009F080C060C0413091F480B7C4
:100FF0008B7F80BF3AB381E090E002C0880F991FD9
:101000006A95E2F7282F209523232ABB2BB3822B46
:101010000AC02BB381E090E002C0880F991F6A9547
:10102000E2F7809582238BBB5FC0413091F480B79B
:101030008B7F80BF37B381E090E002C0880F991F9B
:101040006A95E2F7282F2095232327BB28B3822B0C
:101050000AC028B381E090E002C0880F991F6A950A
:10106000E2F78095822388BB3FC0413091F480B77E
:101070008B7F80BF34B381E090E002C0880F991F5E
:101080006A95E2F7282F2095232324BB25B3822BD2
:101090000AC025B381E090E002C0880F991F6A95CD
:1010A000E2F78095822385BB1FC0413091F480B761
:1010B0008B7F80BF31B381E090E002C0880F991F21
:1010C0006A95E2F7282F2095232321BB22B3822B98
:1010D0000AC022B381E090E002C0880F991F6A9590
:1010E000E2F78095822382BB81E0089580E0089535
:1010F000843090F4813049F0813028F0823039F02A
:10110000833051F406C06ABB05C067BB03C064BB33
:1011100001C061BB81E0089580E00895843090F4BF
:10112000813049F0813028F0823039F0833051F439
:1011300006C06BBB05C068BB03C065BB01C062BB1A
:1011400081E0089580E00895FB01843098F48130B7
:1011500049F0813028F0823039F0833059F406C0EC
:1011600089B305C086B303C083B301C080B3808355
:1011700081E0089580E00895843010F080E00895C3
:10118000813059F0813028F0823059F0833061F499
:101190000DC08BB380958BBB07C088B3809588BB8F
:1011A00003C085B3809585BB81E0089582B38095A7
:1011B00082BB81E00895843010F080E008956F7064
:1011C000813071F0813028F0823089F08330A9F4C9
:1011D00016C08BB3807F8BBB8BB3682B6BBB0DC0F2
:1011E00088B3807F88BB88B3682B68BB06C085B393
:1011F000807F85BB85B3682B65BB81E0089582B392
:10120000807F82BB82B3682B62BB81E0089584300B
:1012100010F080E008956295607F813071F0813038
:1012200028F0823089F08330A9F416C08BB38F7018
:101230008BBB8BB3682B6BBB0DC088B38F7088BB27
:1012400088B3682B68BB06C085B38F7085BB85B338
:10125000682B65BB81E0089582B38F7082BB82B337
:10126000682B62BB81E00895843010F080E008951F
:101270006F70813071F0813028F0823089F08330D6
:10128000A9F416C08AB3807F8ABB8AB3682B6ABB75
:101290000DC087B3807F87BB87B3682B67BB06C051
:1012A00084B3807F84BB84B3682B64BB81E00895E2
:1012B00081B3807F81BB81B3682B61BB81E00895DE
:1012C000843010F080E008956295607F813071F085
:1012D000813028F0823089F08330A9F416C08AB3B7
:1012E0008F708ABB8AB3682B6ABB0DC087B38F70BF
:1012F00087BB87B3682B67BB06C084B38F7084BB82
:1013000084B3682B64BB81E0089581B38F7081BB87
:1013100081B3682B61BB81E00895DF93CF9300D048
:101320000F92CDB7DEB7962F6983672F7A838B83B1
:10133000892F0E94A8070F900F900F90CF91DF91F7
:101340000895DF93CF9300D00F92CDB7DEB7262F4D
:1013500069837A838B83672F813019F4822F40E071
:1013600004C0882321F4822F41E00E9400070F90DF
:101370000F900F90CF91DF910895DF93CF9300D01E
:101380000F92CDB7DEB7262F69837A838B83672FC1
:10139000813019F4822F41E004C0882321F4822F88
:1013A00040E00E9400070F900F900F90CF91DF91C7
:1013B0000895DF93CF9300D00F92CDB7DEB7962F6D
:1013C0006983672F7A838B83892F41E00E9482068D
:1013D0000F900F900F90CF91DF9108951F93CF93AF
:1013E000DF9380E690E00E94A80015E3C8ECD0E00F
:1013F00088E00E945700812F0E94570080E197E209
:10140000FE013197F1F70197D9F71150103381F7A9
:101410008DE00E94570082E190E06FEF0E94750618
:1014200083E080939405DF91CF911F9108958BE61F
:1014300090E00E94A8008DE00E94570088E790E0AD
:101440000E94A80082E30E94570080E30E94570098
:101450008DE00E94570010920106809101068823BA
:1014600021F188E890E00E94A80084E30E945700E0
:1014700084EA90E00E94A8008DE00E9457008AEA6A
:1014800090E00E94A8008DE00E94570088E790E05D
:101490000E94A80082E30E94570080E30E94570048
:1014A0008DE00E945700109201068AE196E00E94AA
:1014B0007D008093970580919705882389F480911A
:1014C0000106882369F480911A068D3071F38091AA
:1014D0001A068F3051F380911A06883031F314C008
:1014E000809197058823E9F4809101068431C8F43E
:1014F00080911A068D3091F180911A068F3071F12A
:1015000080911A06883021F18091010660911A06B7
:1015100090E08F5B9F4F0E947506809101068F5F60
:101520001AC080919705882309F0BFCF80910106EA
:10153000843108F4BACF80911A068D3079F0809109
:101540001A068F3059F080911A06883009F0ADCF15
:1015500080910106815080930106A7CF80910106FA
:10156000853008F47ACF81E190E060E00E94750652
:101570006091010684E190E00E94750608958AEB6F
:1015800090E00E94A8008DE00E94570088E790E05C
:101590000E94A80082E30E94570080E30E94570047
:1015A0008DE00E945700109200068091000688236B
:1015B000B9F087EC90E00E94A80085E30E945700F4
:1015C00084EA90E00E94A8008DE00E94570083EE1C
:1015D00090E00E94A8008DE00E9457001092000643
:1015E0008AE196E00E947D0080939705809197059F
:1015F000882389F480910006882369F480911A0673
:101600008D3071F380911A068F3051F380911A0654
:10161000883031F314C0809197058823E1F48091DC
:1016200000068431C0F480911A068D3081F18091DA
:101630001A068F3061F180911A06883011F180917D
:10164000000660911A0690E081960E9475068091CE
:1016500000068F5F19C080919705882309F6809155
:101660000006843108F4BCCF80911A068D3079F0E1
:1016700080911A068F3059F080911A06883009F04F
:10168000AFCF80910006815080930006A9CF809152
:101690000006863008F489CF80E190E060E00E9487
:1016A00075066091000683E190E00E94750608953A
:1016B0000F931F9385EF90E00E94A8008DE00E9499
:1016C000570081E08093960510E08AE196E00E9441
:1016D0007D0080939705809197058823A1F41123BD
:1016E00091F480911A068D3081F380911A068F3023
:1016F00061F380911A06883041F380911A06809335
:10170000050611E0E2CF809197058823B9F41431E2
:10171000A8F480911A068D3031F180911A068F302D
:1017200011F180911A068830E1F0E12FF0E080910C
:101730001A06EB5FF94F80831F5FC7CF8091970533
:10174000882319F6143108F280911A068D3059F069
:1017500080911A068F3039F080911A06883009F08E
:10176000B4CF1150B2CF809101061817D1F400E028
:1017700013C0202F30E0F901EB5FF94F80818823FF
:10178000B1F01081C9018F5B9F4F0E947D06181731
:1017900011F0109296050F5F80910106081748F32B
:1017A00006C080910106181711F0109296051F913E
:1017B0000F9108950F931F9384E091E00E94A80079
:1017C0008DE00E94570081E08093950510E08AE14A
:1017D00096E00E947D00809397058091970588236D
:1017E000A1F4112391F480911A068D3081F3809138
:1017F0001A068F3061F380911A06883041F3809188
:101800001A068093050611E0E2CF809197058823A0
:10181000B9F41431A8F480911A068D3031F1809119
:101820001A068F3011F180911A068830E1F0E12F0D
:10183000F0E080911A06EB5FF94F80831F5FC7CFFE
:1018400080919705882319F6143108F280911A06C1
:101850008D3059F080911A068F3039F080911A0638
:10186000883009F0B4CF1150B2CF8091000618171C
:10187000C9F400E012C0202F30E0F901EB5FF94F0E
:1018800080818823A9F01081C90181960E947D067C
:10189000181711F0109295050F5F809101068017BF
:1018A00050F706C080910006181711F010929505A8
:1018B0001F910F9108950E94DA0B0E94580B80919E
:1018C0009505882321F0809196058823B1F583E161
:1018D00091E00E94A8008DE00E945700809194053D
:1018E0008150809394056091940582E190E00E947C
:1018F000750680919405882369F080E391E00E9449
:10190000A80080919405805D0E9457008DE00E94A0
:101910005700D1CF80919405882369F680E391E048
:101920000E94A80080919405805D0E9457008DE080
:101930000E9457000E94EE09BECF8EE391E00E9404
:10194000A80082E190E06FEF0E94750683E080932B
:1019500094058DE00E9457000895FF920F931F9306
:1019600083E190E00E947D068093000684E190E090
:101970000E947D068093010682E190E00E947D0630
:101980008F3F31F082E190E00E947D0680939405C4
:1019900080E190E00E947D068F3F49F483E591E06D
:1019A0000E94A8008DE00E9457000E94BF0A81E1BA
:1019B00090E00E947D068F3F49F40E94170A82E65C
:1019C00091E00E94A8008DE00E945700809194054C
:1019D000882311F40E94EE09FF240BC00F2D10E0A4
:1019E000C80181960E947D06055E194FF80180832B
:1019F000F39480910006F81688F31F910F91FF90E1
:101A00000895609198057091990580919A050E94BA
:101A10008D0960919B0570919C0580919D050E94A8
:101A20008D0960919E0570919F058091A0050E948F
:101A30008D096091A1057091A2058091A3050E9476
:101A40008D096091A4057091A5058091A6050E945D
:101A50008D096091A7057091A8058091A9050E9444
:101A60008D096091AA057091AB058091AC050E942B
:101A70008D096091AD057091AE058091AF050E9412
:101A80008D096091B0057091B1058091B2050E94F9
:101A90008D096091B3057091B4058091B5050E94E0
:101AA0008D096091B6057091B7058091B8050E94C7
:101AB0008D096091B9057091BA058091BB050E94AE
:101AC0008D096091BC057091BD058091BE050E9495
:101AD0008D096091BF057091C0058091C1050E947C
:101AE0008D096091C2057091C3058091C4050E9463
:101AF0008D096091C5057091C6058091C7050E944A
:101B00008D096091C8057091C9058091CA050E9430
:101B10008D096091CB057091CC058091CD050E9417
:101B20008D096091CE057091CF058091D0050E94FE
:101B30008D096091D1057091D2058091D3050E94E5
:101B40008D096091D4057091D5058091D6050E94CC
:101B50008D09089585E791E00E94A8008DE00E941C
:101B6000570088E891E00E94A8008EE991E00E9469
:101B7000A8008DE00E9457008DEA91E00E94A80025
:101B800083EC91E00E94A8008DE00E9457008AE15A
:101B900096E00E947D0080939705809197058823A9
:101BA000B1F580911A068233A9F0833330F488307E
:101BB00041F1813309F051C006C0833391F0843381
:101BC00009F04BC015C06091B0057091B1058091CE
:101BD000B20514C06091B3057091B4058091B5054C
:101BE0000DC06091B6057091B7058091B80506C02B
:101BF0006091B9057091BA058091BB050E948D096D
:101C000003C08DE00E9457001092040626C0809108
:101C10009705843011F5809104068436C9F48DE06F
:101C20000E9457008091D70581FF09C082ED91E0A5
:101C30000E94A8008091D7058D7F8093D7058DE005
:101C40000E9457008091D70581608093D705089541
:101C5000809104068F5F8093040680911A06883075
:101C600009F095CF089583EE91E00E94A8008DE0E1
:101C70000E94570088E891E00E94A8008EE991E058
:101C80000E94A8008DE00E9457008AE196E00E9421
:101C90007D0080939705809197058823F9F48091C2
:101CA0001A06813329F0823351F08830E9F512C0E9
:101CB0006091A7057091A8058091A90506C0609163
:101CC000AA057091AB058091AC050E948D09109218
:101CD00004062AC08DE00E945700F9CF8091970535
:101CE000843011F5809104068436C9F48DE00E9499
:101CF00057008091D70581FF09C082ED91E00E94D5
:101D0000A8008091D7058D7F8093D7058DE00E9434
:101D100057008091D70581608093D7050895809101
:101D200004068F5F8093040680911A06883009F0BC
:101D3000ACCF089587EF91E00E94A8008DE00E944B
:101D400057008CE092E00E94A8008DE00E945700AE
:101D50008AE196E00E947D00809397058091970527
:101D60008823B9F480911A06883069F08133B9F577
:101D7000109204066091A4057091A5058091A605B6
:101D80000E948D092CC0109204068DE00E9457001D
:101D900026C080919705843011F580910406843621
:101DA000C9F48DE00E9457008091D70581FF09C0DA
:101DB00082ED91E00E94A8008091D7058D7F8093ED
:101DC000D7058DE00E9457008091D70581608093F0
:101DD000D7050895809104068F5F80930406809153
:101DE0001A06883009F0B4CF08958BE192E00E9482
:101DF000A8008DE00E94570084E292E00E94A800B3
:101E00008DE00E94570087E392E00E94A8008DE0D9
:101E10000E9457008AE492E00E94A8008DE00E9490
:101E200057008AE196E00E947D008093970580919B
:101E30009705882309F055C080911A068233C1F0B6
:101E4000833338F4883009F446C0813309F06FC019
:101E500004C0833309F06BC014C08DE00E945700AA
:101E600080E190E06FEF0E9475060E94BF0A1AC0E1
:101E70008DE00E94570081E190E06FEF0E947506AF
:101E80000FC08DE00E94570080E190E06FEF0E944C
:101E9000750681E190E06FEF0E9475060E94BF0A0F
:101EA0000E94170A8BE192E00E94A8008DE00E9438
:101EB000570084E292E00E94A8008DE00E94570043
:101EC00087E392E00E94A8008DE00E9457008AE418
:101ED00092E00E94A8008DE00E9457001092040634
:101EE00026C080919705843011F5809104068436D0
:101EF000C9F48DE00E9457008091D70581FF09C089
:101F000082ED91E00E94A8008091D7058D7F80939B
:101F1000D7058DE00E9457008091D705816080939E
:101F2000D7050895809104068F5F80930406809101
:101F30001A06883009F075CF089588E692E00E946D
:101F4000A8008DE00E94570089E792E00E94A80057
:101F50008FE892E00E94A8008DE00E9457008AE17D
:101F600096E00E947D0080939705809197058823D5
:101F7000B9F480911A06813329F0823329F0883030
:101F8000A9F50AC080E101C081E16FE276E00E941C
:101F90002B04109204062AC08DE00E945700F9CF4E
:101FA00080919705843011F5809104068436C9F438
:101FB0008DE00E9457008091D70581FF09C082ED16
:101FC00091E00E94A8008091D7058D7F8093D7056E
:101FD0008DE00E9457008091D70581608093D705DE
:101FE0000895809104068F5F8093040680911A06FD
:101FF000883009F0B4CF089588E992E00E94A800E3
:102000008DE00E94570089E792E00E94A80086EACE
:1020100092E00E94A8008DE00E9457008AE196E0BD
:102020000E947D0080939705809197058823E1F5B4
:1020300080911A06813331F0823331F0883009F013
:1020400059C00AC083E001C084E06FE276E00E94DC
:102050002B04109204064EC08DE00E9457008EEAB9
:1020600092E00E94A8008DE00E9457008FEB92E062
:102070000E94A80085ED92E00E94A8008DE00E94D9
:10208000570083EE92E00E94A80089EF92E00E9440
:10209000A8008DE00E94570088E093E00E94A8000D
:1020A0008DE00E94570026C080919705843011F57D
:1020B000809104068436C9F48DE00E945700809117
:1020C000D70581FF09C082ED91E00E94A8008091B0
:1020D000D7058D7F8093D7058DE00E9457008091B2
:1020E000D70581608093D7050895809104068F5F9E
:1020F0008093040680911A06883009F08FCF0895E6
:1021000086E193E00E94A8008DE00E94570089E7D5
:1021100092E00E94A80086EA92E00E94A8008DE06A
:102120000E9457008AE196E00E947D008093970507
:10213000809197058823E1F580911A06813331F06B
:10214000823331F0883009F059C00AC081E001C003
:1021500082E06FE276E00E942B04109204064EC0EB
:102160008DE00E9457008EEA92E00E94A8008DE068
:102170000E9457008FEB92E00E94A80085ED92E04C
:102180000E94A8008DE00E94570083EE92E00E941A
:10219000A80089EF92E00E94A8008DE00E945700FD
:1021A00088E093E00E94A8008DE00E94570026C0BE
:1021B00080919705843011F5809104068436C9F426
:1021C0008DE00E9457008091D70581FF09C082ED04
:1021D00091E00E94A8008091D7058D7F8093D7055C
:1021E0008DE00E9457008091D70581608093D705CC
:1021F0000895809104068F5F8093040680911A06EB
:10220000883009F08FCF089588E293E00E94A800FB
:102210008DE00E94570088E891E00E94A8008EE9B6
:1022200091E00E94A8008DE00E9457008BE393E0AC
:102230000E94A8008DE00E9457008AE196E00E946B
:102240007D008093970580919705882369F580919B
:102250001A06823399F0833330F48830F9F08133F1
:1022600009F048C004C0833309F044C010C0609135
:1022700098057091990580919A0506C060919B051B
:1022800070919C0580919D050E948D090AC0609106
:102290002F068FE070E00E942B0403C08DE00E94A7
:1022A00057001092040626C080919705843011F5DE
:1022B000809104068436C9F48DE00E945700809115
:1022C000D70581FF09C082ED91E00E94A8008091AE
:1022D000D7058D7F8093D7058DE00E9457008091B0
:1022E000D70581608093D7050895809104068F5F9C
:1022F0008093040680911A06883009F09ECF0895D5
:102300008AE493E00E94A8008DE00E94570089E5CE
:1023100093E00E94A8008FE693E00E94A8008DE061
:102320000E9457008AE793E00E94A80080E993E0AA
:102330000E94A8008DE00E9457008BE993E00E9464
:10234000A8008DE00E9457008AE196E00E947D007F
:102350008093970580919705882309F04FC080915D
:102360001A068333C1F0843340F4813361F0823341
:1023700070F4883009F068C01EC0843381F0853362
:1023800009F062C010C0109204068AE00FC01092DB
:1023900004068BE00BC0109204068CE007C010927C
:1023A00004068DE003C0109204068EE06FE276E032
:1023B0000E942B0449C0109204068DE00E94570031
:1023C00086EA93E00E94A8008DE00E94570088E80A
:1023D00091E00E94A8008EE991E00E94A8008DE0A3
:1023E0000E94570087EB93E00E94A8008DEC93E0D9
:1023F0000E94A8008DE00E94570026C0809197059A
:10240000843011F5809104068436C9F48DE00E9471
:1024100057008091D70581FF09C082ED91E00E94AD
:10242000A8008091D7058D7F8093D7058DE00E940D
:1024300057008091D70581608093D70508958091DA
:1024400004068F5F8093040680911A06883009F095
:102450007BCF08951F9386EA93E00E94A8008DE049
:102460000E94570088E891E00E94A8008EE991E060
:102470000E94A8008DE00E94570088ED93E00E9422
:10248000A8008DE00E9457001FEF8AE196E00E94AD
:102490007D008093970580919705882389F5809129
:1024A0001A068233A9F0833330F4883019F181336E
:1024B00009F04CC004C0833309F048C014C0109226
:1024C00004066091BC057091BD058091BE0508C0F1
:1024D000109204066091BF057091C0058091C105FE
:1024E0000E948D0933C0109204060E94801110933F
:1024F0001A062CC0109204068DE00E94570026C0D8
:1025000080919705843011F5809104068436C9F4D2
:102510008DE00E9457008091D70581FF09C082EDB0
:1025200091E00E94A8008091D7058D7F8093D70508
:102530008DE00E9457008091D70581608093D70578
:102540000AC0809104068F5F8093040680911A066A
:10255000883009F09ACF1F9108958AE493E00E9491
:10256000A8008DE00E94570089E593E00E94A80032
:102570008FE693E00E94A8008DE00E9457008AE752
:1025800093E00E94A80080E993E00E94A8008DE0FB
:102590000E9457008BE993E00E94A8008DE00E9402
:1025A00057008AE196E00E947D0080939705809114
:1025B0009705882309F04FC080911A068333C1F034
:1025C000843340F4813361F0823370F4883009F051
:1025D00068C01EC0843381F0853309F062C010C02A
:1025E0001092040685E00FC01092040686E00BC02E
:1025F0001092040687E007C01092040688E003C02A
:102600001092040689E06FE276E00E942B0449C034
:10261000109204068DE00E94570083EE93E00E9422
:10262000A8008DE00E94570088E891E00E94A80071
:102630008EE991E00E94A8008DE00E94570087EB90
:1026400093E00E94A8008DEC93E00E94A8008DE02A
:102650000E94570026C080919705843011F5809123
:1026600004068436C9F48DE00E9457008091D70596
:1026700081FF09C082ED91E00E94A8008091D705FA
:102680008D7F8093D7058DE00E9457008091D705FC
:1026900081608093D7050895809104068F5F8093B1
:1026A000040680911A06883009F07BCF08951F93A5
:1026B00083EE93E00E94A8008DE00E94570088E816
:1026C00091E00E94A8008EE991E00E94A8008DE0B0
:1026D0000E94570087EB93E00E94A8008DEC93E0E6
:1026E0000E94A8008DE00E9457001FEF8AE196E04B
:1026F0000E947D008093970580919705882309F0BB
:102700003FC080911A068233B9F0833330F48830A9
:1027100089F1813309F05AC006C08333B1F08433A4
:1027200009F054C01DC0109204066091C20570915A
:10273000C3058091C40511C0109204066091C505BF
:102740007091C6058091C70508C01092040660917B
:10275000C8057091C9058091CA050E948D0936C0CF
:10276000109204068DE00E9457000E94AD12109353
:102770001A062CC0109204068DE00E94570026C055
:1027800080919705843011F5809104068436C9F450
:102790008DE00E9457008091D70581FF09C082ED2E
:1027A00091E00E94A8008091D7058D7F8093D70586
:1027B0008DE00E9457008091D70581608093D705F6
:1027C0000AC0809104068F5F8093040680911A06E8
:1027D000883009F08BCF1F9108951F93CF93DF931B
:1027E0008EEA92E00E94A8008DE00E9457008FEBD5
:1027F00092E00E94A80085ED92E00E94A8008DE082
:102800000E94570083EE92E00E94A80089EF92E0B8
:102810000E94A8008DE00E94570088E093E00E948B
:10282000A8008DE00E945700C8ECD0E01FEF8AE1BD
:1028300096E00E947D0080939705809197058823FC
:1028400009F05BC080911A06833311F1843340F4A0
:10285000813361F0823390F4883009F074C047C04E
:10286000843331F1853309F06EC036C08DE00E94AB
:102870005700109204060E94801007C08DE00E944D
:102880005700109204060E94FC0F10931A065BC0BA
:102890001092040681E06FE276E00E942B0484EF40
:1028A00091E0FE013197F1F70197D9F783E00FC06E
:1028B0001092040682E06FE276E00E942B0484EF1F
:1028C00091E0FE013197F1F70197D9F784E06FE2CB
:1028D00076E00E942B0437C0109204066091AD058B
:1028E0007091AE058091AF050E948D092CC01092A9
:1028F00004068DE00E94570026C080919705843021
:1029000011F5809104068436C9F48DE00E945700C9
:102910008091D70581FF09C082ED91E00E94A80057
:102920008091D7058D7F8093D7058DE00E94570059
:102930008091D70581608093D7050AC080910406F5
:102940008F5F8093040680911A06883009F06FCF5C
:10295000DF91CF911F9108958AE493E00E94A8002F
:102960008DE00E94570089E593E00E94A8008FE661
:1029700093E00E94A8008DE00E9457008AE793E050
:102980000E94A80080E993E00E94A8008DE00E94C8
:1029900057008BE993E00E94A8008DE00E94570049
:1029A0008AE196E00E947D008093970580919705CB
:1029B000882309F049C080911A068333C1F084331B
:1029C00040F4813361F0823370F4883009F062C0E2
:1029D0001CC0843381F0853309F05CC010C01092B4
:1029E000040680E00FC0109204068FE30BC0109223
:1029F00004068EE707C0109204068DEB03C0109208
:102A000004068FEF0E94180245C0109204068DE064
:102A10000E94570088EF93E00E94A8008DE00E947A
:102A2000570088E891E00E94A8008EE991E00E949A
:102A3000A8008DE00E94570081E194E00E94A80068
:102A40008DE00E94570026C080919705843011F5D3
:102A5000809104068436C9F48DE00E94570080916D
:102A6000D70581FF09C082ED91E00E94A800809106
:102A7000D7058D7F8093D7058DE00E945700809108
:102A8000D70581608093D7050895809104068F5FF4
:102A90008093040680911A06883009F081CF08954A
:102AA0001F938EE194E00E94A8008DE00E945700E1
:102AB00088E891E00E94A8008EE991E00E94A800B9
:102AC0008DE00E94570081E194E00E94A8008DE013
:102AD0000E9457001FEF8AE196E00E947D008093DC
:102AE000970580919705882389F580911A0682338E
:102AF000A9F0833330F4883019F1813309F04CC0E8
:102B000004C0833309F048C014C0109204066091D9
:102B1000D1057091D2058091D30508C010920406AA
:102B20006091D4057091D5058091D6050E948D09DC
:102B300033C0109204060E94AC1410931A062CC0E5
:102B4000109204068DE00E94570026C080919705E0
:102B5000843011F5809104068436C9F48DE00E941A
:102B600057008091D70581FF09C082ED91E00E9456
:102B7000A8008091D7058D7F8093D7058DE00E94B6
:102B800057008091D70581608093D7050AC0809156
:102B900004068F5F8093040680911A068D3009F039
:102BA0009ACF1F9108951F9389E394E00E94A80093
:102BB0008DE00E94570088E891E00E94A8008EE90D
:102BC00091E00E94A8008DE00E94570081E194E00E
:102BD0000E94A8008DE00E9457001FEF8AE196E056
:102BE0000E947D008093970580919705882389F541
:102BF00080911A068233A9F0833330F4883019F1BA
:102C0000813309F04CC004C0833309F048C014C0BC
:102C1000109204066091CB057091CC058091CD0592
:102C200008C0109204066091CE057091CF05809186
:102C3000D0050E948D0933C0109204060E94AC1486
:102C400010931A062CC0109204068DE00E945700C3
:102C500026C080919705843011F580910406843652
:102C6000C9F48DE00E9457008091D70581FF09C00B
:102C700082ED91E00E94A8008091D7058D7F80931E
:102C8000D7058DE00E9457008091D7058160809321
:102C9000D7050AC0809104068F5F80930406809157
:102CA0001A06883009F09ACF1F9108958AE493E0BC
:102CB0000E94A8008DE00E94570089E593E00E94E1
:102CC000A8008FE693E00E94A8008DE00E945700C4
:102CD0008AE793E00E94A80080E993E00E94A800A0
:102CE0008DE00E9457008BE993E00E94A8008DE0E0
:102CF0000E9457008AE196E00E947D00809397052C
:102D000080919705882309F049C080911A06833382
:102D1000C1F0843340F4813361F0823370F4883041
:102D200009F062C01CC0843381F0853309F05CC0B7
:102D300010C01092040680E00FC0109204068FE3CA
:102D40000BC0109204068EE707C0109204068DEBAC
:102D500003C0109204068FEF0E94100245C010922B
:102D600004068DE00E94570084E594E00E94A800CC
:102D70008DE00E94570088E891E00E94A8008EE94B
:102D800091E00E94A8008DE00E94570088E694E040
:102D90000E94A8008DE00E94570026C080919705F0
:102DA000843011F5809104068436C9F48DE00E94C8
:102DB00057008091D70581FF09C082ED91E00E9404
:102DC000A8008091D7058D7F8093D7058DE00E9464
:102DD00057008091D70581608093D7050895809131
:102DE00004068F5F8093040680911A06883009F0EC
:102DF00081CF08951F9384E594E00E94A8008DE0A0
:102E00000E94570088E891E00E94A8008EE991E0B6
:102E10000E94A8008DE00E94570088E694E00E947E
:102E2000A8008DE00E9457001FEF8AE196E00E9403
:102E30007D008093970580919705882389F580917F
:102E40001A068233A9F0833330F4883019F18133C4
:102E500009F04CC004C0833309F048C014C010927C
:102E6000040660919E0570919F058091A00508C0A1
:102E7000109204066091A1057091A2058091A305AE
:102E80000E948D0933C0109204060E9456161093BA
:102E90001A062CC0109204068DE00E94570026C02E
:102EA00080919705843011F5809104068436C9F429
:102EB0008DE00E9457008091D70581FF09C082ED07
:102EC00091E00E94A8008091D7058D7F8093D7055F
:102ED0008DE00E9457008091D70581608093D705CF
:102EE0000AC0809104068F5F8093040680911A06C1
:102EF000883009F09ACF1F9108951F9380E06FEFFB
:102F00000E94780882E06FEF0E94780883E06EEFFD
:102F10000E94780881E060E041E00E94820681E042
:102F200061E041E00E9482060E9449000E94F5048F
:102F30000E94AD0C81E063E041E00E9482060E94A5
:102F4000AB0183E067E041E00E9482060E94F50148
:102F50000E94090585E00E94A70583E065E00E94C4
:102F6000150581E09DE065E00E94D70581E062E003
:102F700040E00E9482061AE08091D70580FF2CC0B5
:102F80001092040682608093D70583E794E00E9444
:102F9000A8008DE00E9457008AE196E00E947D0023
:102FA00080939705809197058823B1F780911A0641
:102FB0008D3091F70E945B0C8EE894E00E94A8008F
:102FC0008BE196E00E94A8008DE00E94570080915E
:102FD000D7058E7F8093D70587E994E00E94A800EB
:102FE0008DE00E94570085EA94E00E94A8008BEBD8
:102FF00094E00E94A8008DE00E94570089EC94E0C4
:103000000E94A8008FED94E00E94A8008DE00E942D
:1030100057008CEE94E00E94A80082E095E00E94A8
:10302000A8008DE00E94570086E195E00E94A8006C
:103030008CE295E00E94A8008DE00E94570088E392
:1030400095E00E94A8008EE495E00E94A8008DE023
:103050000E9457008AE595E00E94A80080E795E06D
:103060000E94A8008DE00E9457008CE795E00E9426
:10307000A8008DE00E9457001092020610920306ED
:103080008AE196E00E947D008093970580919705E4
:10309000882399F480910206882379F480911A0696
:1030A0008D3041F080911A068F3021F080911A0600
:1030B000883009F510920406E3CF809197058823A4
:1030C00061F580910206833040F580911A068D30BB
:1030D000A1F180911A068F3081F180911A06883013
:1030E00051F410920406809103066AE00E943B1995
:1030F000809303062BC01092040680911A06805319
:1031000080931A068091030620911A06819FC001C0
:103110001124280F209303061FC080919705882350
:1031200009F5809102068330E8F080911A068D300F
:1031300021F080911A068F3019F4109204063AC0DB
:1031400080911A06883031F41092040680910206AC
:10315000815005C010920406809102068F5F809313
:1031600002068ECF80919705843009F089CF809137
:1031700004068436C9F48DE00E9457008091D7057B
:1031800081FF09C082ED91E00E94A8008091D705DF
:103190008D7F8093D7058DE00E9457008091D705E1
:1031A00081608093D70506C0809104068F5F80936D
:1031B000040666CF809103068E3038F085E895E0EE
:1031C0000E94A8008DE00E945700809103068E3077
:1031D00008F052CF809103068730A9F1883078F447
:1031E000833029F1843030F48130D9F0823009F015
:1031F000C3CE1AC0853009F1863010F51BC08A3065
:1032000059F18B3030F4883009F1893009F0B4CEAF
:1032100020C08C3039F18C3010F18D3009F0ACCEFB
:1032200024C00E94ED13A8CE0E945713A5CE0E9481
:103230002A12A2CE0E94FA169FCE0E94D3159CCECF
:103240000E94501599CE0E949A0E96CE0E940411AB
:1032500093CE0E94330E90CE0E94AA0D8DCE0E9476
:103260009D0F8ACE0E94F50E87CE8091D705816092
:103270008093D70581CE991B79E004C0991F9617DA
:1032800008F0961B881F7A95C9F780950895F894E1
:02329000FFCF6E
:1032920054696D65206F7574203A0053657420502F
:1032A200617373576F7264004D6178696D756D203B
:1032B20063686172203A200050617373576F7264C1
:1032C200204D757374206265204D6F72652074689D
:1032D200616E20002043686172005265205365745C
:1032E2002050617373576F72640053657420557375
:1032F20065724E616D6500557365724E616D652034
:103302004D757374206265204D6F7265207468611B
:103312006E2000526520456E746572205573657289
:103322004E616D6500436865636B2050617373572E
:103332006F726400436865636B20557365724E61FA
:103342006D6500496E76616C696420557365726EB5
:10335200616D65206F722050617373776F726400C4
:103362005472696573204C656674203A2000537567
:10337200636365737366756C6C79205369676E203D
:10338200696E00506C65617365205369676E2055E4
:103392007000536176656420537563636573736669
:1033A200756C6C790042616C61636F6E204F707452
:1033B200696F6E73203A2000312D204C65643120F4
:1033C2004F4E2F4F46462020202020202000322D15
:1033D200204C656432204F4E2F4F464600332D203D
:1033E2004C656431204F4E2F4F464620202020202E
:1033F200202000342D204C656432204F4E2F4F4642
:10340200460053657373696F6E2054696D65204F72
:10341200757400436F727269646F72204F707469C1
:103422006F6E73203A20004261746820526F6F6D94
:10343200204F7074696F6E73203A2000312D204C3A
:10344200656431204F4E2F4F4646005365747469B0
:103452006E673A00312D204368616E6765205573AF
:1034620065724E616D6500322D204368616E67653D
:103472002050617373576F726400322D204368616C
:103482006E676520557365724E616D65202620500A
:10349200617373576F7264004175746F2046616E79
:1034A20020436F6E74726F6C00312D204F70656E09
:1034B2002020202020202020202020202020003218
:1034C2002D20436C6F73650053616C6F6E20446FE7
:1034D2006F72203A2000322D204C6F636B005374C0
:1034E200616972204F7074696F6E73203A200031E7
:1034F2002D20526563657074696F6E20446F6F7220
:103502002020202000322D2053616C6F6E20446FEA
:103512006F7200332D204F70656E20446F6F72738F
:10352200202020202020202000342D20436C6F7387
:103532006520446F6F727300352D204C6564204FF7
:103542004E2F4F464600526563657074696F6E2058
:10355200446F6F72203A20004B69746368656E2075
:103562004F7074696F6E73203A2000332D204B69BF
:10357200746368656E2046616E0046616E20436F1B
:103582006E74726F6C203A2000312D2046616E20DD
:103592004F6666202020202020202020202000327C
:1035A2002D205370656564203100332D20537065E2
:1035B200656420322020202020202020202020008E
:1035C200342D205370656564203300352D205370EF
:1035D20065656420340053616C6F6E204F707469AE
:1035E2006F6E73203A2000332D204C656433204FD8
:1035F2004E2F4F46462020202020202000342D2010
:103602005265632046616E00332D20526563204669
:10361200616E00526563657074696F6E204F7074DD
:10362200696F6E73203A20004368696C6472656E3C
:1036320020526F6F6D204F7074696F6E73203A2045
:1036420000332D204368696C642046616E00436834
:10365200696C6472656E20526F6F6D2032204F70FC
:1036620074696F6E73203A20004368696C647265F6
:103672006E20526F6F6D2031204F7074696F6E73C0
:10368200203A200042656420526F6F6D204F7074A3
:10369200696F6E73203A2000332D20426564204604
:1036A200616E00507265737320656E74657220746A
:1036B2006F206F70656E2073797374656D00576546
:1036C2006C636F6D65200053656C65637420526F87
:1036D2006F6D203A0031202D2053746169722020D1
:1036E200202020202020202020200032202D2052A7
:1036F2006563657074696F6E0033202D2053616CB1
:103702006F6E202020202020202020202020003426
:10371200202D2042656420526F6F6D0035202D20D0
:103722004368696C6472656E20526F6F6D20312040
:10373200200036202D204368696C6472656E205229
:103742006F6F6D20320037202D2042617468205245
:103752006F6F6D20202020202020200038202D2077
:103762004B69746368656E0039202D20436F727255
:1037720069646F7220202020202020202000313018
:103782002D2042616C61636F6E0031312D204175D5
:10379200746F2046616E20436F6E74726F6C2000EE
:1037A20031322D2053657474696E670031332D20D8
:1037B2004558495400496E76616C69642043686FCC
:1037C20069736500030101010000010001010002AB
:1037D20001000301000401000501000601000701C8
:1037E20003020103030103040101010103060101B4
:1037F20000010200010201010202010203010204AE
:083802000102050102060103A9
:00000001FF
