:100000000C942A000C94F1050C941D060C944906DE
:100010000C9488030C945F030C9436030C940D032A
:100020000C94E4020C94BB020C9492020C946902AE
:100030000C94AF040C942E010C9447000C946D01A9
:100040000C9447000C9447000C9447000C94470014
:100050000C94470011241FBECFE5D8E0DEBFCDBF12
:1000600015E0A0E6B0E0EAE4FAE202C005900D92E5
:10007000A234B107D9F715E0A2E4B5E001C01D92A2
:10008000AA39B107E1F70E94B9130C9423150C9417
:100090000000599810BC83E389B95898529886E8B3
:1000A00080BD579856985598549A539A0895282F7A
:1000B00080914405882311F083E0089580E090E06A
:1000C000A0E0B0E003C00196A11DB11D5D9909C07B
:1000D000803137E2930730E0A30730E0B30799F7A8
:1000E00008C080519742A040B04019F02CB980E080
:1000F00001C084E0109244050895FC01009711F4BA
:1001000082E0089580914405882311F083E00895EA
:1001100080E090E0A0E0B0E003C00196A11DB11D19
:100120005F9909C0803127E2920720E0A20720E012
:10013000B20799F709C080519742A040B04021F022
:100140008CB1808380E001C084E010924405089562
:10015000CF93DF93009711F482E00AC0EC0105C051
:100160000E9457002196882319F488818823C1F7BB
:10017000DF91CF910895FC0180914405882311F00F
:1001800083E008953097A9F06115710591F081E041
:1001900080934405F0934305E09342057093460530
:1001A0006093450510924A0580818CB9569A80E08B
:1001B000089582E00895AF92BF92CF92DF92EF92BE
:1001C000FF920F931F93CF93DF93EC015A016B01C2
:1001D000009711F482E016C0EE24FF2487010CC0C2
:1001E000CE018E0D9F1D0E947D00882359F4089436
:1001F000E11CF11C011D111DEA14FB040C051D0579
:1002000078F380E0DF91CF911F910F91FF90EF90F5
:10021000DF90CF90BF90AF900895BC0180914405CE
:10022000882311F083E0089561157105A9F0211567
:10023000310591F081E08093440570934805609307
:100240004705309346052093450540934905109294
:100250004A05579A80E0089582E008951F920F9210
:100260000FB60F9211242F933F934F935F936F9389
:100270007F938F939F93AF93BF93EF93FF9390914F
:100280004A058CB1E0914705F0914805E90FF11D51
:1002900080839F5F90934A0580914905981761F488
:1002A00010924A0510924405E0914505F0914605EB
:1002B000309709F009955798FF91EF91BF91AF9151
:1002C0009F918F917F916F915F914F913F912F916E
:1002D0000F900FBE0F901F9018951F920F920FB6A0
:1002E0000F9211242F933F934F935F936F937F93BC
:1002F0008F939F93AF93BF93EF93FF9380914A05A2
:100300008F5F80934A05E0914205F0914305E80F25
:10031000F11DE081EE2369F410924A051092440524
:10032000E0914505F0914605309709F009955698FA
:1003300001C0ECB9FF91EF91BF91AF919F918F9167
:100340007F916F915F914F913F912F910F900FBED1
:100350000F901F90189583B7806483BF83B7886020
:1003600083BF83B78F7E83BF83B7806283BF1CBE8A
:1003700083B7887F83BF83B7856083BF08958FB5B8
:100380008E7F8FBD8FB582608FBD8EB588608EBD2C
:100390008EB580618EBD1BBC1ABC19BC18BC8FEF1A
:1003A00090E097BD86BD8EB580648EBD8FB58F7B86
:1003B0008FBD8FB580688FBD8FB58F7E8FBD8FB598
:1003C00080628FBD89B78B7F89BF89B78F7E89BFD8
:1003D00089B7877F89BF89B78F7D89BF8EB5887FB1
:1003E0008EBD8EB582608EBD089585B5806485BD55
:1003F00085B5886085BD85B58F7E85BD85B58062F4
:1004000085BD13BC85B5887F85BD85B5856085BDF7
:10041000089582BF08959DBD8CBD089584BD089543
:100420008CBF08959BBD8ABD089599BD88BD089570
:1004300083BD089597BD86BD089582B708952CB5F4
:100440003DB5C901089584B508959BBD8ABD089541
:100450008EB580648EBD89B7806289BF0895813072
:1004600029F48EB580648EBD80E00895882311F054
:1004700081E008958EB58F7B8EBD80E0089589B7A9
:10048000806289BF089589B78F7D89BF089526B599
:1004900037B5C901089581B5887F81BD81B5866072
:1004A00081BD089581B5886081BD089581B5886159
:1004B00081BD11BC0895009711F482E00895E62FE4
:1004C000F0E0EE0FFF1FE55BFA4F9183808380E041
:1004D00008951F920F920FB60F9211242F933F93FE
:1004E0004F935F936F937F938F939F93AF93BF933C
:1004F000EF93FF93E0916105F0916205309709F069
:100500000995FF91EF91BF91AF919F918F917F914D
:100510006F915F914F913F912F910F900FBE0F9070
:100520001F9018951F920F920FB60F9211242F93C0
:100530003F934F935F936F937F938F939F93AF936B
:10054000BF93EF93FF93E0915F05F09160053097C3
:1005500009F00995FF91EF91BF91AF919F918F9114
:100560007F916F915F914F913F912F910F900FBEAF
:100570000F901F9018951F920F920FB60F92112493
:100580002F933F934F935F936F937F938F939F939B
:10059000AF93BF93EF93FF93E0915D05F0915E05FC
:1005A000309709F00995FF91EF91BF91AF919F911D
:1005B0008F917F916F915F914F913F912F910F900C
:1005C0000FBE0F901F9018951F920F920FB60F92AB
:1005D00011242F933F934F935F936F937F938F9348
:1005E0009F93AF93BF93EF93FF93E0915B05F091DF
:1005F0005C05309709F00995FF91EF91BF91AF919C
:100600009F918F917F916F915F914F913F912F912A
:100610000F900FBE0F901F9018951F920F920FB65C
:100620000F9211242F933F934F935F936F937F9378
:100630008F939F93AF93BF93EF93FF93E0915905EF
:10064000F0915A05309709F00995FF91EF91BF910C
:10065000AF919F918F917F916F915F914F913F915A
:100660002F910F900FBE0F901F9018951F920F9211
:100670000FB60F9211242F933F934F935F936F9375
:100680007F938F939F93AF93BF93EF93FF93E091EB
:100690005705F0915805309709F00995FF91EF91B2
:1006A000BF91AF919F918F917F916F915F914F918A
:1006B0003F912F910F900FBE0F901F9018951F9292
:1006C0000F920FB60F9211242F933F934F935F9386
:1006D0006F937F938F939F93AF93BF93EF93FF930A
:1006E000E0915505F0915605309709F00995FF9175
:1006F000EF91BF91AF919F918F917F916F915F919A
:100700004F913F912F910F900FBE0F901F90189512
:100710001F920F920FB60F9211242F933F934F9376
:100720005F936F937F938F939F93AF93BF93EF9359
:10073000FF93E0915305F0915405309709F0099526
:10074000FF91EF91BF91AF919F918F917F916F91A9
:100750005F914F913F912F910F900FBE0F901F907F
:100760001895FC01009709F474C04581442309F4ED
:1007700070C03481332309F46CC02681222309F42C
:1007800068C05281552309F464C07081772309F44D
:1007900060C06381662309F45CC09181992309F4E8
:1007A00058C0413011F081E002C06A9A80E03323E2
:1007B00021F0313021F081E003C06B9801C06B9AC9
:1007C0002330B9F0243028F4213069F0223068F465
:1007D00008C02530A1F0253078F0263091F081E076
:1007E00013C0689803C0689805C0689A6998709AA1
:1007F0000BC0689A699807C06898699AF8CF68989A
:1008000001C0689A699A7098552331F0513011F0FF
:1008100081E003C06D9801C06D9A662321F06130BC
:1008200021F081E003C06C9A01C06C98772321F01D
:10083000713021F081E003C06F9801C06F9A992355
:1008400021F0913021F081E008956E9808956E9A1C
:10085000089582E00895982FFB0180915D0588231B
:1008600011F083E008959FB980E090E0A0E0B0E04F
:1008700003C00196A11DB11D779B06C08051974210
:10088000A040B04051F40DC0803127E2920720E033
:10089000A20720E0B20769F704C08FB1808380E02F
:1008A00001C084E010925D050895DF92EF92FF92FF
:1008B0000F931F93CF93DF937B01D42E0097A1F06A
:1008C0006115710589F08C01C0E0D0E009C0B70165
:1008D0006C0F7D1FF80181918F010E942B042196DE
:1008E000CD15A8F380E001C082E0DF91CF911F9188
:1008F0000F91FF90EF90DF900895FC0180915D05CE
:10090000882311F083E00895309739F1A081B181F7
:10091000109719F14281538141155105F1F025815C
:10092000368121153105C9F081E080935D05B093D2
:100930006105A093600550935C0540935B0584813D
:100940008093620530935F0520935E0510926305E6
:100950008C918FB96F9A80E0089582E008951F927C
:100960000F920FB60F9211242F933F934F935F93E3
:100970006F937F938F939F93AF93BF93EF93FF9367
:10098000909163058FB1E0915B05F0915C05E90FF3
:10099000F11D80839F5F9093630580916205981796
:1009A00059F410925D056F98E0915E05F0915F0536
:1009B000309751F0099508C0E0916005F09161050C
:1009C000E90FF11D80818FB9FF91EF91BF91AF9138
:1009D0009F918F917F916F915F914F913F912F9157
:1009E0000F900FBE0F901F9018956D986C9A81E034
:1009F00065E041E00E94820681E067E041E00E94FC
:100A000082066B986A98689A699870986F986E9A3F
:100A100008958FB780688FBF08958FB78F778FBF86
:100A2000089584B7806484BF0895E82F762F862FB9
:100A30008650823008F069C0770F7C50E13009F4AD
:100A40004CC0E130D0F1E23021F0E33009F05DC07C
:100A50001BC065B7472F50E021E030E0C901072EE9
:100A600002C0880F991F0A94E2F78095862385BFFC
:100A700085B74F5F5F4F02C0220F331F4A95E2F7E1
:100A80002095282325BF41C065B7472F50E081E05E
:100A900090E09C01072E02C0220F331F0A94E2F758
:100AA000622B65BF25B74F5F5F4F02C0880F991F4C
:100AB0004A95E2F78095822327C065B7272F30E05B
:100AC00041E050E0CA01072E02C0880F991F0A9426
:100AD000E2F78095862385BF0EC065B7272F30E0EB
:100AE00041E050E0CA01072E02C0880F991F0A9406
:100AF000E2F7682B65BF85B72F5F3F4F02C0440FF9
:100B0000551F2A95E2F7842B85BF753061F4EE23DB
:100B100019F0E13041F404C084B78F7B84BF08959D
:100B200084B7806484BF0895382F8550833010F0D7
:100B300081E008952BB781E090E002C0880F991FF3
:100B40003A95E2F7809582238BBF80E00895382F95
:100B50008550833010F081E008952BB781E090E05C
:100B600002C0880F991F3A95E2F7282B2BBF80E02F
:100B700008959AB721E030E002C0220F331F8A9512
:100B8000E2F7922B9ABF08954AB721E030E0082E91
:100B900002C0220F331F0A94E2F750E024233523CA
:100BA00002C0359527958A95E2F7822F0895009720
:100BB000B1F0663029F490936505809364050DC00B
:100BC000673029F4909367058093660506C0653009
:100BD00031F4909369058093680580E0089581E081
:100BE00008951F920F920FB60F9211242F933F93E7
:100BF0004F935F936F937F938F939F93AF93BF9325
:100C0000EF93FF93E0916405F0916505309721F033
:100C100009958AB780648ABFFF91EF91BF91AF9128
:100C20009F918F917F916F915F914F913F912F9104
:100C30000F900FBE0F901F9018951F920F920FB636
:100C40000F9211242F933F934F935F936F937F9352
:100C50008F939F93AF93BF93EF93FF93E0916605BC
:100C6000F0916705309721F009958AB780688ABFAF
:100C7000FF91EF91BF91AF919F918F917F916F9174
:100C80005F914F913F912F910F900FBE0F901F904A
:100C900018951F920F920FB60F9211242F933F9326
:100CA0004F935F936F937F938F939F93AF93BF9374
:100CB000EF93FF93E0916805F0916905309721F07B
:100CC00009958AB780628ABFFF91EF91BF91AF917A
:100CD0009F918F917F916F915F914F913F912F9154
:100CE0000F900FBE0F901F9018959FBB8EBB6DBBD2
:100CF000E29AE19AE199FECF08958EBB9FBBE09AFC
:100D00008DB30895843008F077C0683008F074C05F
:100D10004130B1F5813099F0813030F08230D1F03E
:100D2000833009F06BC021C02AB381E090E002C09B
:100D3000880F991F6A95E2F7282B2ABB5BC027B35F
:100D400081E090E002C0880F991F6A95E2F7282B96
:100D500027BB50C024B381E090E002C0880F991FE8
:100D60006A95E2F7282B24BB45C021B381E090E0CF
:100D700002C0880F991F6A95E2F7282B21BB3AC061
:100D80004423D1F5813099F0813028F08230D9F0B8
:100D90008330A1F524C02AB381E090E002C0880F1F
:100DA000991F6A95E2F7809582238ABB23C027B3F7
:100DB00081E090E002C0880F991F6A95E2F7809564
:100DC000822387BB17C024B381E090E002C0880F64
:100DD000991F6A95E2F78095822384BB0BC021B3EB
:100DE00081E090E002C0880F991F6A95E2F7809534
:100DF000822381BB81E0089580E0089581E0089519
:100E0000843008F077C0683008F074C04130B1F524
:100E1000813099F0813030F08230D1F0833009F0A8
:100E20006BC021C02BB381E090E002C0880F991FF6
:100E30006A95E2F7282B2BBB5BC028B381E090E0DA
:100E400002C0880F991F6A95E2F7282B28BB50C073
:100E500025B381E090E002C0880F991F6A95E2F700
:100E6000282B25BB45C022B381E090E002C0880F4B
:100E7000991F6A95E2F7282B22BB3AC04423D1F58B
:100E8000813099F0813028F08230D9F08330A1F59B
:100E900024C02BB381E090E002C0880F991F6A95AF
:100EA000E2F7809582238BBB23C028B381E090E0DA
:100EB00002C0880F991F6A95E2F78095822388BB4C
:100EC00017C025B381E090E002C0880F991F6A9592
:100ED000E2F78095822385BB0BC022B381E090E0CE
:100EE00002C0880F991F6A95E2F78095822382BB22
:100EF00081E0089580E0089581E00895FA0184304A
:100F000028F5683018F5813049F0813028F08230BA
:100F100039F08330C9F406C029B305C026B303C035
:100F200023B301C020B381E090E0062E02C0880FF9
:100F3000991F0A94E2F730E08223932302C095952B
:100F400087956A95E2F7808381E0089580E00895AF
:100F50008430C0F56830B0F5813091F0813028F0F0
:100F60008230C9F0833061F521C02BB381E090E07D
:100F700002C0880F991F6A95E2F728272BBB20C073
:100F800028B381E090E002C0880F991F6A95E2F7CC
:100F9000282728BB15C025B381E090E002C0880F48
:100FA000991F6A95E2F7282725BB0AC022B381E082
:100FB00090E002C0880F991F6A95E2F7282722BBAC
:100FC00081E0089580E00895843008F08FC0683093
:100FD00008F08CC0813049F1813038F0823009F45A
:100FE00044C0833009F080C060C0413091F480B7C4
:100FF0008B7F80BF3AB381E090E002C0880F991FD9
:101000006A95E2F7282F209523232ABB2BB3822B46
:101010000AC02BB381E090E002C0880F991F6A9547
:10102000E2F7809582238BBB5FC0413091F480B79B
:101030008B7F80BF37B381E090E002C0880F991F9B
:101040006A95E2F7282F2095232327BB28B3822B0C
:101050000AC028B381E090E002C0880F991F6A950A
:10106000E2F78095822388BB3FC0413091F480B77E
:101070008B7F80BF34B381E090E002C0880F991F5E
:101080006A95E2F7282F2095232324BB25B3822BD2
:101090000AC025B381E090E002C0880F991F6A95CD
:1010A000E2F78095822385BB1FC0413091F480B761
:1010B0008B7F80BF31B381E090E002C0880F991F21
:1010C0006A95E2F7282F2095232321BB22B3822B98
:1010D0000AC022B381E090E002C0880F991F6A9590
:1010E000E2F78095822382BB81E0089580E0089535
:1010F000843090F4813049F0813028F0823039F02A
:10110000833051F406C06ABB05C067BB03C064BB33
:1011100001C061BB81E0089580E00895843090F4BF
:10112000813049F0813028F0823039F0833051F439
:1011300006C06BBB05C068BB03C065BB01C062BB1A
:1011400081E0089580E00895FB01843098F48130B7
:1011500049F0813028F0823039F0833059F406C0EC
:1011600089B305C086B303C083B301C080B3808355
:1011700081E0089580E00895843010F080E00895C3
:10118000813059F0813028F0823059F0833061F499
:101190000DC08BB380958BBB07C088B3809588BB8F
:1011A00003C085B3809585BB81E0089582B38095A7
:1011B00082BB81E00895843010F080E008956F7064
:1011C000813071F0813028F0823089F08330A9F4C9
:1011D00016C08BB3807F8BBB8BB3682B6BBB0DC0F2
:1011E00088B3807F88BB88B3682B68BB06C085B393
:1011F000807F85BB85B3682B65BB81E0089582B392
:10120000807F82BB82B3682B62BB81E0089584300B
:1012100010F080E008956295607F813071F0813038
:1012200028F0823089F08330A9F416C08BB38F7018
:101230008BBB8BB3682B6BBB0DC088B38F7088BB27
:1012400088B3682B68BB06C085B38F7085BB85B338
:10125000682B65BB81E0089582B38F7082BB82B337
:10126000682B62BB81E00895843010F080E008951F
:101270006F70813071F0813028F0823089F08330D6
:10128000A9F416C08AB3807F8ABB8AB3682B6ABB75
:101290000DC087B3807F87BB87B3682B67BB06C051
:1012A00084B3807F84BB84B3682B64BB81E00895E2
:1012B00081B3807F81BB81B3682B61BB81E00895DE
:1012C000843010F080E008956295607F813071F085
:1012D000813028F0823089F08330A9F416C08AB3B7
:1012E0008F708ABB8AB3682B6ABB0DC087B38F70BF
:1012F00087BB87B3682B67BB06C084B38F7084BB82
:1013000084B3682B64BB81E0089581B38F7081BB87
:1013100081B3682B61BB81E00895DF93CF9300D048
:101320000F92CDB7DEB7962F6983672F7A838B83B1
:10133000892F0E94A8070F900F900F90CF91DF91F7
:101340000895DF93CF9300D00F92CDB7DEB7262F4D
:1013500069837A838B83672F813019F4822F40E071
:1013600004C0882321F4822F41E00E9400070F90DF
:101370000F900F90CF91DF910895DF93CF9300D01E
:101380000F92CDB7DEB7262F69837A838B83672FC1
:10139000813019F4822F41E004C0882321F4822F88
:1013A00040E00E9400070F900F900F90CF91DF91C7
:1013B0000895DF93CF9300D00F92CDB7DEB7962F6D
:1013C0006983672F7A838B83892F41E00E9482068D
:1013D0000F900F900F90CF91DF9108951F93CF93AF
:1013E000DF9380E690E00E94A80015E3C8ECD0E00F
:1013F00080E20E945700812F0E94570080E197E20F
:10140000FE013197F1F70197D9F71150103381F7A9
:101410008DE00E94570082E190E06FEF0E94750618
:1014200083E08093FD04DF91CF911F9108958BE6B7
:1014300090E00E94A8008DE00E94570088E790E0AD
:101440000E94A8008DE00E94570010926B058091C9
:101450006B058823A1F08AE890E00E94A8008DE047
:101460000E9457008BE690E00E94A80088E790E079
:101470000E94A8008DE00E94570010926B0584E83E
:1014800095E00E947D0080930005809100058823EF
:1014900089F480916B05882369F4809184058D30EF
:1014A00071F3809184058F3051F3809184058830E9
:1014B00031F314C0809100058823E9F480916B0515
:1014C0008431C8F4809184058D3091F18091840538
:1014D0008F3071F180918405883021F180916B0506
:1014E0006091840590E08F5B9F4F0E94750680910C
:1014F0006B058F5F1AC080910005882309F0BFCF6C
:1015000080916B05843108F4BACF809184058D30C9
:1015100079F0809184058F3059F08091840588306E
:1015200009F0ADCF80916B05815080936B05A7CFFB
:1015300080916B05863008F48ACF81E190E060E00D
:101540000E94750660916B0584E190E00E9475062B
:1015500008958CEA90E00E94A8008DE00E94570058
:1015600088E790E00E94A8008DE00E94570010924A
:101570006A0580916A05882381F089EB90E00E94DA
:10158000A8008DE00E9457008BED90E00E94A8001B
:101590008DE00E94570010926A0584E895E00E9451
:1015A0007D008093000580910005882389F4809157
:1015B0006A05882369F4809184058D3071F38091E8
:1015C00084058F3051F380918405883031F314C045
:1015D000809100058823E1F480916A058431C0F48C
:1015E000809184058D3081F1809184058F3061F187
:1015F00080918405883011F180916A05609184059D
:1016000090E081960E94750680916A058F5F19C0EF
:1016100080910005882309F680916A05843108F4D9
:10162000BCCF809184058D3079F0809184058F3016
:1016300059F080918405883009F0AFCF80916A0518
:10164000815080936A05A9CF80916A05863008F49D
:1016500090CF80E190E060E00E94750660916A059D
:1016600083E190E00E94750608950F931F938DEE1D
:1016700090E00E94A8008DE00E94570081E08093D6
:10168000FF0410E084E895E00E947D00809300054F
:10169000809100058823A1F4112391F480918405A1
:1016A0008D3081F3809184058F3061F380918405C2
:1016B000883041F38091840580936F0511E0E2CF7B
:1016C000809100058823B9F41431A8F48091840531
:1016D0008D3031F1809184058F3011F18091840536
:1016E0008830E1F0E12FF0E080918405E159FA4F74
:1016F00080831F5FC7CF80910005882319F61431BE
:1017000008F2809184058D3059F0809184058F30E6
:1017100039F080918405883009F0B4CF1150B2CFF0
:1017200080916B051817B1F400E00FC0802F90E096
:10173000FC01E159FA4F10818F5B9F4F0E947D069B
:10174000181711F01092FF040F5F80916B050817B6
:1017500068F306C080916B05181711F01092FF0412
:101760001F910F9108950F931F938CEF90E00E94AB
:10177000A8008DE00E94570081E08093FE0410E0F5
:1017800084E895E00E947D0080930005809100052B
:101790008823A1F4112391F4809184058D3081F385
:1017A000809184058F3061F380918405883041F306
:1017B0008091840580936F0511E0E2CF8091000550
:1017C0008823B9F41431A8F4809184058D3031F167
:1017D000809184058F3011F1809184058830E1F08B
:1017E000E12FF0E080918405E159FA4F80831F5F7B
:1017F000C7CF80910005882319F6143108F2809133
:1018000084058D3059F0809184058F3039F08091B6
:101810008405883009F0B4CF1150B2CF80916A05A9
:101820001817A9F400E00EC0802F90E0FC01E159E8
:10183000FA4F108181960E947D06181711F01092C0
:10184000FE040F5F80916A05081770F306C080914F
:101850006A05181711F01092FE041F910F91089558
:101860000E94B30B0E94350B8091FE04882321F067
:101870008091FF048823B1F58BE091E00E94A800DD
:101880008DE00E9457008091FD0481508093FD04FB
:101890006091FD0482E190E00E9475068091FD0454
:1018A000882369F088E291E00E94A8008091FD04FD
:1018B000805D0E9457008DE00E945700D1CF80913B
:1018C000FD04882369F688E291E00E94A8008091D7
:1018D000FD04805D0E9457008DE00E9457000E9429
:1018E000EE09BECF86E391E00E94A80082E190E07D
:1018F0006FEF0E94750683E08093FD048DE00E94E7
:1019000057000895FF920F931F9383E190E00E9488
:101910007D0680936A0584E190E00E947D068093B5
:101920006B0582E190E00E947D068F3F31F082E1FD
:1019300090E00E947D068093FD0480E190E00E948B
:101940007D068F3F49F48BE491E00E94A8008DE072
:101950000E9457000E94A90A81E190E00E947D0642
:101960008F3F49F40E94170A8AE591E00E94A8007F
:101970008DE00E9457008091FD04882311F40E949D
:10198000EE09FF240BC00F2D10E0C80181960E94C4
:101990007D060B571A4FF8018083F39480916A05F6
:1019A000F81688F31F910F91FF9008956091030539
:1019B00070910405809105050E948D0960910605CE
:1019C00070910705809108050E948D0960910905B5
:1019D00070910A0580910B050E948D0960910C059C
:1019E00070910D0580910E050E948D0960910F0583
:1019F00070911005809111050E948D09609112056A
:101A000070911305809114050E948D096091150550
:101A100070911605809117050E948D096091180537
:101A20007091190580911A050E948D0960911B051E
:101A300070911C0580911D050E948D0960911E0505
:101A400070911F05809120050E948D0960912105EC
:101A500070912205809123050E948D0960912405D3
:101A600070912505809126050E948D0960912705BA
:101A700070912805809129050E948D0960912A05A1
:101A800070912B0580912C050E948D0960912D0588
:101A900070912E0580912F050E948D09609130056F
:101AA00070913105809132050E948D096091330556
:101AB00070913405809135050E948D09609136053D
:101AC00070913705809138050E948D096091390524
:101AD00070913A0580913B050E948D0960913C050B
:101AE00070913D0580913E050E948D0960913F05F2
:101AF00070914005809141050E948D0988EE93E028
:101B000028EC30E0F9013197F1F70197D9F7089502
:101B10008DE691E00E94A8008DE00E94570080E8C9
:101B200091E00E94A80086E991E00E94A8008DE063
:101B30000E94570085EA91E00E94A8008BEB91E09B
:101B40000E94A8008DE00E94570081E0809301056B
:101B50003DC084E895E00E947D008093000580915F
:101B60000005882399F580918405823399F08333A9
:101B700028F4883031F1813349F505C0833389F089
:101B8000843321F515C060911B0570911C0580916F
:101B90001D0514C060911E0570911F0580912005E0
:101BA0000DC060912105709122058091230506C02A
:101BB0006091240570912505809126050E948D096C
:101BC00005C08DE00E94570010920105809101052B
:101BD000813009F4BECF08958AEC91E00E94A800FC
:101BE0008DE00E94570080E891E00E94A80086E9FD
:101BF00091E00E94A8008DE00E94570081E0809350
:101C0000010528C084E895E00E947D0080930005CE
:101C1000809100058823F1F480918405813329F0B7
:101C2000823351F08830B1F410C060911205709188
:101C300013058091140506C0609115057091160575
:101C4000809117050E948D0905C08DE00E94570004
:101C500010920105809101058130A1F208958EED69
:101C600091E00E94A8008DE00E94570083EF91E070
:101C70000E94A8008DE00E94570081E0809301053A
:101C80001EC084E895E00E947D008093000580914D
:101C900000058823A1F480918405883059F08133B0
:101CA00071F460910F0570911005809111050E94EB
:101CB0008D0905C08DE00E945700109201058091AA
:101CC00001058130F1F2089582E092E00E94A800BF
:101CD0008DE00E94570083E192E00E94A80089E213
:101CE00092E00E94A8008DE00E94570084E895E0F1
:101CF0000E947D0080930005809100058823A1F457
:101D000080918405813329F0823329F0883061F491
:101D100008C080E101C081E169E975E00E942B04FF
:101D200003C08DE00E945700809184058830F1F651
:101D3000089582E392E00E94A8008DE00E9457007F
:101D400083E192E00E94A80080E492E00E94A80053
:101D50008DE00E94570084E895E00E947D0080930A
:101D60000005809100058823C1F5809184058133A9
:101D700029F0823329F0883081F508C083E001C062
:101D800084E069E975E00E942B0427C08DE00E9481
:101D9000570088E492E00E94A8008DE00E9457005E
:101DA00089E592E00E94A8008FE692E00E94A800D8
:101DB0008DE00E9457008DE792E00E94A80083E921
:101DC00092E00E94A8008DE00E94570082EA92E013
:101DD0000E94A8008DE00E94570080918405883001
:101DE00009F0B9CF089580EB92E00E94A8008DE041
:101DF0000E94570083E192E00E94A80080E492E0F4
:101E00000E94A8008DE00E94570084E895E00E949F
:101E10007D0080930005809100058823C1F58091A5
:101E20008405813329F0823329F0883081F508C098
:101E300081E001C082E069E975E00E942B0427C0BF
:101E40008DE00E94570088E492E00E94A8008DE097
:101E50000E94570089E592E00E94A8008FE692E078
:101E60000E94A8008DE00E9457008DE792E00E943A
:101E7000A80083E992E00E94A8008DE00E9457002C
:101E800082EA92E00E94A8008DE00E9457008091B3
:101E90008405883009F0B9CF089582EC92E00E9461
:101EA000A8008DE00E94570080E891E00E94A80001
:101EB00086E991E00E94A8008DE00E94570085ED20
:101EC00092E00E94A8008DE00E94570081E080937C
:101ED000010534C084E895E00E947D0080930005F0
:101EE00080910005882351F580918405823389F023
:101EF000833328F48830E9F0813301F503C083335C
:101F0000E9F410C060910305709104058091050506
:101F100006C06091060570910705809108050E9432
:101F20008D090CC0609199058FE070E00E942B0430
:101F300005C08DE00E9457001092010580910105B7
:101F4000813041F2089584EE92E00E94A8008DE075
:101F50000E94570083EF92E00E94A80089E093E07E
:101F60000E94A8008DE00E94570084E193E00E9447
:101F7000A8008AE293E00E94A8008DE00E9457002A
:101F800085E393E00E94A8008DE00E94570081E065
:101F9000809302054DC084E895E00E947D00809307
:101FA000000580910005882309F042C080918405D6
:101FB000833391F0843338F4813351F0823350F419
:101FC0008830B1F513C0843349F0853389F508C0F2
:101FD0008AE007C08BE005C08CE003C08DE001C043
:101FE0008EE069E975E00E942B0422C08DE00E941A
:101FF00057001092020580E493E00E94A8008DE053
:102000000E94570080E891E00E94A80086E991E0D4
:102010000E94A8008DE00E94570081E593E00E9495
:10202000A80087E693E00E94A8008DE00E94570078
:1020300080910205813009F4AECF089580E493E0E9
:102040000E94A8008DE00E94570080E891E00E9465
:10205000A80086E991E00E94A8008DE00E94570048
:1020600082E793E00E94A8008DE00E94570081E083
:102070008093010530C084E895E00E947D00809344
:10208000000580910005882331F580918405823315
:1020900089F0833328F48830C9F08133E1F403C038
:1020A0008333C9F410C06091270570912805809191
:1020B000290506C060912A0570912B0580912C0599
:1020C0000E948D0908C00E94A30F05C08DE00E94E8
:1020D00057001092010580910105813061F2089549
:1020E00084EE92E00E94A8008DE00E94570083EFEA
:1020F00092E00E94A80089E093E00E94A8008DE091
:102100000E94570084E193E00E94A8008AE293E0D5
:102110000E94A8008DE00E94570085E393E00E9492
:10212000A8008DE00E94570081E0809302054DC019
:1021300084E895E00E947D00809300058091000571
:10214000882309F042C080918405833391F0843361
:1021500038F4813351F0823350F48830B1F513C034
:10216000843349F0853389F508C085E007C086E0EF
:1021700005C087E003C088E001C089E069E975E037
:102180000E942B0422C08DE00E9457008DE793E04F
:102190000E94A8008DE00E94570080E891E00E9414
:1021A000A80086E991E00E94A8008DE00E945700F7
:1021B00081E593E00E94A80087E693E00E94A800D2
:1021C0008DE00E9457001092020580910205813037
:1021D00009F4AECF08958DE793E00E94A8008DE04A
:1021E0000E94570080E891E00E94A80086E991E0F3
:1021F0000E94A8008DE00E94570081E593E00E94B4
:10220000A80087E693E00E94A8008DE00E94570096
:1022100081E0809301053CC084E895E00E947D0048
:102220008093000580910005882391F580918405B5
:10223000823399F0833328F4883029F1813341F5D2
:1022400005C0833389F0843319F517C060912D05DB
:1022500070912E0580912F050DC060913005709111
:1022600031058091320506C06091330570913405C7
:10227000809135050E948D090BC08DE00E945700AA
:102280000E94701005C08DE00E9457001092010559
:1022900080910105813009F4BFCF0895CF93DF937A
:1022A00088E492E00E94A8008DE00E94570089E532
:1022B00092E00E94A8008FE692E00E94A8008DE0C4
:1022C0000E9457008DE792E00E94A80083E992E007
:1022D0000E94A8008DE00E94570082EA92E00E94CE
:1022E000A8008DE00E94570081E080930105C8ECB2
:1022F000D0E059C084E895E00E947D0080930005FD
:1023000080910005882309F04EC0809184058333B5
:10231000E1F0843340F4813361F0823380F488301B
:1023200009F041C03BC08433F1F0853309F03BC074
:102330002CC08DE00E9457000E94F30E34C08DE047
:102340000E9457000E94990E2EC081E069E975E055
:102350000E942B0484EF91E0FE013197F1F7019781
:10236000D9F783E00DC082E069E975E00E942B0493
:1023700084EF91E0FE013197F1F70197D9F784E0FE
:1023800069E975E00E942B040EC0609118057091F8
:10239000190580911A050E948D0905C08DE00E94E3
:1023A00057001092010580910105813009F4A2CFF8
:1023B000DF91CF91089584EE92E00E94A8008DE015
:1023C0000E94570083EF92E00E94A80089E093E00A
:1023D0000E94A8008DE00E94570084E193E00E94D3
:1023E000A8008AE293E00E94A8008DE00E945700B6
:1023F00085E393E00E94A8008DE00E94570081E0F1
:102400008093020546C084E895E00E947D00809399
:102410000005809100058823E1F5809184058333D0
:1024200091F0843338F4813351F0823350F48830A2
:1024300081F511C0843349F0853359F508C080E037
:1024400007C08FE305C08EE703C08DEB01C08FEF9F
:102450000E9418021EC08DE00E94570010920205D3
:1024600082E993E00E94A8008DE00E94570080E876
:1024700091E00E94A80086E991E00E94A8008DE00A
:102480000E9457008BEA93E00E94A8008DE00E9412
:10249000570080910205813009F4B5CF089588EB8B
:1024A00093E00E94A8008DE00E94570080E891E030
:1024B0000E94A80086E991E00E94A8008DE00E9499
:1024C00057008BEA93E00E94A8008DE00E9457001D
:1024D00081E08093010530C084E895E00E947D0092
:1024E0008093000580910005882331F58091840553
:1024F000823389F0833328F48830C9F08133E1F4E2
:1025000003C08333C9F410C060913C0570913D0550
:1025100080913E0506C060913F0570914005809115
:1025200041050E948D0908C00E94DB1105C08DE0A5
:102530000E9457001092010580910105813061F2DF
:10254000089583ED93E00E94A8008DE00E9457005B
:1025500080E891E00E94A80086E991E00E94A8002E
:102560008DE00E9457008BEA93E00E94A8008DE066
:102570000E94570081E08093010530C084E895E017
:102580000E947D008093000580910005882331F52D
:1025900080918405823389F0833328F48830C9F030
:1025A0008133E1F403C08333C9F410C06091360570
:1025B000709137058091380506C06091390570919A
:1025C0003A0580913B050E948D0908C00E94DB11ED
:1025D00005C08DE00E945700109201058091010511
:1025E000813061F2089584EE92E00E94A8008DE0AF
:1025F0000E94570083EF92E00E94A80089E093E0D8
:102600000E94A8008DE00E94570084E193E00E94A0
:10261000A8008AE293E00E94A8008DE00E94570083
:1026200085E393E00E94A8008DE00E94570081E0BE
:102630008093020546C084E895E00E947D00809367
:102640000005809100058823E1F58091840583339E
:1026500091F0843338F4813351F0823350F4883070
:1026600081F511C0843349F0853359F508C080E005
:1026700007C08FE305C08EE703C08DEB01C08FEF6D
:102680000E9410021EC08DE00E94570010920205A9
:102690008EEE93E00E94A8008DE00E94570080E833
:1026A00091E00E94A80086E991E00E94A8008DE0D8
:1026B0000E94570082E094E00E94A8008DE00E94F2
:1026C000570080910205813009F4B5CF08958EEE50
:1026D00093E00E94A8008DE00E94570080E891E0FE
:1026E0000E94A80086E991E00E94A8008DE00E9467
:1026F000570082E094E00E94A8008DE00E945700FD
:1027000081E08093010530C084E895E00E947D005F
:102710008093000580910005882331F58091840520
:10272000823389F0833328F48830C9F08133E1F4AF
:1027300003C08333C9F410C06091090570910A0584
:1027400080910B0506C060910C0570910D0580917C
:102750000E050E948D0908C00E94F31205C08DE08D
:102760000E9457001092010580910105813061F2AD
:1027700008951F9380E06FEF0E94780882E06FEF6A
:102780000E94780883E06EEF0E94780881E060E0A4
:1027900041E00E94820681E061E041E00E94820601
:1027A0000E9449000E94F5040E94820C81E063E0CF
:1027B00041E00E9482060E94AB0183E067E041E0B5
:1027C0000E9482060E94F5010E94090585E00E9490
:1027D000A70583E065E00E94150586ED9CE065E0B5
:1027E0000E94D70581E062E040E00E9482068DE011
:1027F00094E00E94A80085E895E00E94A8008DE082
:102800000E9457001AE086E194E00E94A8008DE043
:102810000E94570084E294E00E94A8008AE394E0BA
:102820000E94A8008DE00E94570088E494E00E9476
:10283000A8008EE594E00E94A8008DE00E94570059
:102840008BE694E00E94A80081E894E00E94A80032
:102850008DE00E94570085E994E00E94A8008BEA71
:1028600094E00E94A8008DE00E94570087EB94E05E
:102870000E94A8008DEC94E00E94A8008DE00E94C8
:10288000570089ED94E00E94A8008DE00E94570057
:1028900010926C0510926D0584E895E00E947D0011
:1028A0008093000580910005882399F480916C0540
:1028B000882379F4809184058D3041F080918405DE
:1028C0008F3021F080918405883009F510926E05D3
:1028D000E3CF80910005882361F580916C058330FA
:1028E00040F5809184058D30B1F1809184058F3061
:1028F00091F180918405883051F410926E05809199
:102900006D056AE00E94171580936D0531C0109225
:102910006E058091840580538093840580916D05B8
:1029200020918405819FC0011124280F20936D05FB
:1029300025C080910005882309F0AECF80916C05F9
:10294000833008F4A9CF809184058D3021F08091E7
:1029500084058F3039F410926E0580916D058C30AE
:10296000D0F012C080918405883031F410926E0549
:1029700080916C05815005C010926E0580916C05A8
:102980008F5F80936C0588CF8EEE94E00E94A80044
:102990008DE00E94570080916D058C3008F078CF53
:1029A00080916D05863089F1873080F4833021F184
:1029B000843030F48130D1F0823009F024CF19C056
:1029C0008430E9F0853009F01ECF1CC0893031F128
:1029D0008A3030F48730E1F0883009F014CF1BC022
:1029E0008A30F9F08B3009F00ECF1EC00E944E11D4
:1029F0000ACF0E94EB1007CF0E941E1004CF0E9446
:102A0000671301CF0E94A112FECE0E944F12FBCE8F
:102A10000E942F0EF8CE0E944D0FF5CE0E94EC0DB5
:102A2000F2CE0E94880DEFCE0E94640EECCE991B70
:102A300079E004C0991F961708F0961B881F7A95B5
:0A2A4000C9F780950895F894FFCFC0
:102A4A0054696D65206F7574203A0053657420507F
:102A5A00617373576F7264004D6178696D756D208B
:102A6A0063686172203A2032300050617373576F85
:102A7A007264204D757374206265204D6F726520F3
:102A8A007468616E20352043686172005365742052
:102A9A00557365724E616D6500557365724E616D51
:102AAA0065204D757374206265204D6F72652074C0
:102ABA0068616E2035204368617200526520456E58
:102ACA0074657220557365724E616D650043686561
:102ADA00636B2050617373576F7264004368656358
:102AEA006B20557365724E616D6500496E76616C37
:102AFA00696420557365726E616D65206F7220502E
:102B0A00617373776F7264005472696573204C65E0
:102B1A006674203A20005375636365737366756C37
:102B2A006C79205369676E20696E00506C65617319
:102B3A0065205369676E205570005361766564207D
:102B4A005375636365737366756C6C790042616C67
:102B5A0061636F6E204F7074696F6E73203A200044
:102B6A00312D204C656431204F4E2F4F4646202090
:102B7A00202020202000322D204C656432204F4E28
:102B8A002F4F464600332D204C656431204F4E2F7F
:102B9A004F46462020202020202000342D204C653E
:102BAA006432204F4E2F4F464600436F727269645B
:102BBA006F72204F7074696F6E73203A2000426101
:102BCA00746820526F6F6D204F7074696F6E732036
:102BDA003A2000312D204C656431204F4E2F4F464C
:102BEA0046004175746F2046616E20436F6E7472A1
:102BFA006F6C00312D204F70656E20202020202020
:102C0A00202020202020202000322D20436C6F73AA
:102C1A00650053616C6F6E20446F6F72203A20001A
:102C2A00322D204C6F636B005374616972204F70B0
:102C3A0074696F6E73203A2000312D2052656365E6
:102C4A007074696F6E20446F6F72202020200032EA
:102C5A002D2053616C6F6E20446F6F7200332D20EC
:102C6A004F70656E20446F6F7273202020202020E1
:102C7A00202000342D20436C6F736520446F6F72DF
:102C8A007300352D204C6564204F4E2F4F46460069
:102C9A00526563657074696F6E20446F6F72203A73
:102CAA0020004B69746368656E204F7074696F6E9B
:102CBA0073203A2000332D204B69746368656E20B7
:102CCA0046616E0046616E20436F6E74726F6C20AF
:102CDA003A2000312D2046616E204F666620202062
:102CEA00202020202020202000322D2053706565CE
:102CFA0064203100332D2053706565642032202012
:102D0A0020202020202020202000342D20537065F0
:102D1A006564203300352D205370656564203400C6
:102D2A0053616C6F6E204F7074696F6E73203A2016
:102D3A0000332D204C656433204F4E2F4F464620DA
:102D4A0020202020202000342D2052656320466157
:102D5A006E00332D205265632046616E0052656312
:102D6A00657074696F6E204F7074696F6E73203A64
:102D7A0020004368696C6472656E20526F6F6D2023
:102D8A004F7074696F6E73203A2000332D204368A8
:102D9A00696C642046616E004368696C6472656E92
:102DAA0020526F6F6D2032204F7074696F6E7320DE
:102DBA003A20004368696C6472656E20526F6F6DC9
:102DCA002031204F7074696F6E73203A200042657B
:102DDA006420526F6F6D204F7074696F6E73203A62
:102DEA002000332D204265642046616E0057656CD1
:102DFA00636F6D65200053656C65637420526F6F55
:102E0A006D203A0031202D205374616972202020F0
:102E1A002020202020202020200032202D20526532
:102E2A0063657074696F6E0033202D2053616C6F77
:102E3A006E20202020202020202020202000342046
:102E4A002D2042656420526F6F6D0035202D20437E
:102E5A0068696C6472656E20526F6F6D2031202034
:102E6A000036202D204368696C6472656E20526FAB
:102E7A006F6D20320037202D204261746820526F16
:102E8A006F6D20202020202020200038202D204B6C
:102E9A0069746368656E0039202D20436F72726908
:102EAA00646F722020202020202020200031302D25
:102EBA002042616C61636F6E0031312D204175745F
:102ECA006F2046616E20436F6E74726F6C00496E9C
:102EDA0076616C69642043686F6973650003010158
:102EEA0001010100000100010100020100030100CB
:102EFA0004010005010006010007010302010303A2
:102F0A00010304010101010306010100010200019C
:102F1A000201010202010203010204010205010287
:022F2A0006019E
:00000001FF
