:100000000C942A000C9447000C9447000C94470071
:100010000C942B0C0C94020C0C94D90B0C94B00B7C
:100020000C94870B0C945E0B0C94350B0C940C0BFE
:100030000C94520D0C94D3090C9447000C94120AA2
:100040000C94C0110C9447000C9447000C9447008A
:100050000C94470011241FBECFE5D8E0DEBFCDBF12
:1000600012E0A0E6B0E0E6EBF3E302C005900D92EB
:10007000A63AB107D9F713E0A6EAB2E001C01D9293
:10008000A430B107E1F70E9462180C94D9190C94BE
:100090000000EF92FF920F931F937B018C0120E0F1
:1000A00030E040E05FE40E94E10488238CF0C80166
:1000B000B70120E030E040E05FE40E94DD020E94F2
:1000C0009F059B01AC01205030404040504806C085
:1000D000C801B7010E949F059B01AC01B901CA018B
:1000E0001F910F91FF90EF900895EF92FF920F9361
:1000F0001F937B018C0120E030E040E050E00E9443
:10010000110588230CF05CC0C801B70190580E940B
:10011000E9002195E1E0121608F0E0E03195F1E008
:10012000131608F0F0E0E32EEE1AE1E03E1508F0B9
:10013000E0E0FE2B4195A1E0141608F0A0E0F42EBB
:10014000FF1AE1E04F1508F0E0E0AE2B5195F1E029
:10015000151608F0F0E0052F0A1BE1E0501708F033
:10016000E0E0FE2B6195A1E0161608F0A0E0162F46
:100170001F1BE1E0611708F0E0E0AE2B7195F1E0A4
:10018000171608F0F0E0B72FBA1BE1E07B1708F074
:10019000E0E0FE2B8195A1E0181608F0A0E0382FD2
:1001A0003F1BF32FE1E0831708F0E0E0AE2B9195C1
:1001B0003E2D4F2D502F612F7B2F8F2F9A1B04C068
:1001C000C801B7010E94E9001F910F91FF90EF90C5
:1001D0000895A0E0B0E0EFEEF0E00C94A2197B01EE
:1001E0008C0120E030E040E85FE30E9411058823A5
:1001F0004CF4AA24BB24CC24DD24EE24FF2400E00C
:1002000010E086C0C801B70120E030E040E85FE4BC
:100210000E941105882354F4C801B7010E944900C7
:100220005B016C01EE24FF24870172C0C801B70195
:1002300020E030E040E85FE50E94110587FD0FC037
:10024000AA24AA94BB24BA94CC24CA94DD24DA94B8
:10025000EE24EA94FF24FA940FEF1FEF59C0C8016F
:10026000B70120E030E040E85FE20E943B037B0101
:100270008C0122243324210190E1A92EB12CC12C20
:10028000D12CC0E0D0E061E070E080E090E00A2C8A
:1002900004C0660F771F881F991F0A94D2F70E9427
:1002A000F3053B014C01C801B701A40193010E9471
:1002B000E104882364F02A283B284C285D28C801E3
:1002C000B701A40193010E9435047B018C01D694EF
:1002D000C794B794A7942196C530D105A1F6C8015B
:1002E000B70120E030E040E85FE40E943B030E9459
:1002F00049005B016C019B01A60160E070E080E0B9
:1003000090E0022D0E946C0659016A017B018C016C
:100310009501A601B701C801CDB7DEB7E2E10C94A3
:10032000BE19A0E0B0E0E7E9F1E00C94A219DC010D
:100330002B01FA019C91923008F439C1EB018881BC
:10034000823008F433C1943069F4843009F02FC14D
:1003500011969C9111978981981709F428C1A2E9F7
:10036000B1E025C1843009F421C18230A9F4923072
:1003700009F01DC19A01AD0188E0EA010990AE01C2
:10038000E90109929E018150C1F7E201898111962C
:100390009C918923818308C1923009F407C1129688
:1003A0002D903C901397EB018A819B811496AD9020
:1003B000BD90CD90DC901797EC80FD800E811F8161
:1003C0009101281B390BB90137FF04C06627772735
:1003D000621B730B603271050CF061C012161306BC
:1003E0006CF537014801062E04C0969487947794E3
:1003F00067940A94D2F721E030E040E050E004C076
:10040000220F331F441F551F6A95D2F721503040E9
:10041000404050402E213F214023512321153105DA
:100420004105510521F021E030E040E050E0790144
:100430008A01E628F728082919293CC0232BD1F185
:10044000260E371E35014601062E04C09694879469
:10045000779467940A94D2F721E030E040E050E0CE
:1004600004C0220F331F441F551F6A95D2F7215035
:100470003040404050402A213B214C215D21211534
:1004800031054105510521F021E030E040E050E028
:1004900059016A01A628B728C828D9280BC0821597
:1004A00093052CF01C01AA24BB24650103C0EE2493
:1004B000FF24870111969C91D20111968C91981777
:1004C00009F445C0992339F0A80197012A193B097D
:1004D0004C095D0906C0A60195012E193F09400B84
:1004E000510B57FD08C01182338222822483358349
:1004F000468357831DC081E081833382228288270F
:100500009927DC01821B930BA40BB50B8483958385
:10051000A683B7830DC0220F331F441F551F2483AA
:1005200035834683578382819381019793838283A6
:100530002481358146815781DA01C9010197A109DA
:10054000B1098F5F9F4FAF4FBF4328F30BC091831B
:1005500033822282EA0CFB1C0C1D1D1DE482F582F5
:100560000683178383E08083248135814681578108
:1005700057FF1AC0C901AA2797FDA095BA2F81700D
:100580009070A070B0705695479537952795822B3F
:10059000932BA42BB52B84839583A683B783828169
:1005A0009381019693838283DF0101C0D201CD0143
:1005B000CDB7DEB7E2E10C94BE19A0E2B0E0E3EE05
:1005C000F2E00C94AE1969837A838B839C832D832C
:1005D0003E834F835887E9E0EE2EF12CEC0EFD1E92
:1005E000CE010196B7010E940F088E010F5E1F4FCA
:1005F000CE010596B8010E940F088A8991E08927EB
:100600008A8BC701B801AE01475E5F4F0E9491011E
:100610000E943A07A096E6E00C94CA19A0E2B0E066
:10062000E4E1F3E00C94AE1969837A838B839C83B5
:100630002D833E834F835887F9E0EF2EF12CEC0E8B
:10064000FD1ECE010196B7010E940F088E010F5EBC
:100650001F4FCE010596B8010E940F08C701B801CF
:10066000AE01475E5F4F0E9491010E943A07A0963B
:10067000E6E00C94CA19A0E2B0E0E1E4F3E00C94E7
:10068000A21969837A838B839C832D833E834F8356
:100690005887CE010196BE01675F7F4F0E940F0809
:1006A000CE010596BE016F5E7F4F0E940F089985AF
:1006B000923088F089898230C8F0943019F4823001
:1006C00051F404C0843029F4923081F482E991E03D
:1006D000C6C0923049F420E09A858A89981321E0B7
:1006E0002A87CE010996BBC0823049F420E09A8562
:1006F0008A89981321E02A8BCE014196B0C02D84BF
:100700003E844F8458886D887E888F88988CEE242C
:10071000FF248701AA24BB24650140E050E060E08B
:1007200070E0E0E0F0E0C10181709070892BE9F0A9
:10073000E60CF71C081D191D9A01AB012A0D3B1D83
:100740004C1D5D1D80E090E0A0E0B0E0E614F704F1
:100750000805190520F481E090E0A0E0B0E0BA01BE
:10076000A901480F591F6A1F7B1FAA0CBB1CCC1C78
:10077000DD1C97FE08C081E090E0A0E0B0E0A82A70
:10078000B92ACA2ADB2A3196E032F10549F0660C13
:10079000771C881C991C5694479437942794C3CF90
:1007A000FA85EA892B893C898B859C85280F391F1E
:1007B0002E5F3F4F17C0CA0181709070892B61F086
:1007C00016950795F794E79480E090E0A0E0B0E8F4
:1007D000E82AF92A0A2B1B2B76956795579547959A
:1007E0002F5F3F4F77FDE7CF0CC0440F551F661FAB
:1007F000771F17FD4160EE0CFF1C001F111F2150D9
:100800003040403090E0590790E0690790E4790764
:1008100060F32B8F3C8FDB01CA018F779070A07043
:10082000B07080349105A105B10561F447FD0AC09F
:10083000E114F1040105110529F0405C5F4F6F4F91
:100840007F4F40781A8EFE1711F081E08A8F4D8F0E
:100850005E8F6F8F78A383E0898FCE0149960E94C7
:100860003A07A096E2E10C94BE19A8E1B0E0EBE3F0
:10087000F4E00C94AA1969837A838B839C832D837B
:100880003E834F835887B9E0EB2EF12CEC0EFD1E12
:10089000CE010196B7010E940F088E010F5E1F4F17
:1008A000CE010596B8010E940F082985223008F470
:1008B0007EC03989323010F4B8017CC08A859A89AB
:1008C00089278A87243011F0223031F4231709F068
:1008D0006EC062E971E06EC0343039F41D861E8648
:1008E0001F86188A1C861B8604C0323021F484E0DF
:1008F0008987B7015FC02B853C858B899C89281B24
:10090000390B3C872B87ED84FE840F851889AD88D1
:10091000BE88CF88D88CEA14FB040C051D0540F472
:10092000EE0CFF1C001F111F215030403C872B870D
:1009300020E030E040E050E080E090E0A0E0B0E473
:1009400060E070E0EA14FB040C051D0540F0282B64
:10095000392B4A2B5B2BEA18FB080C091D09B695AD
:10096000A79597958795EE0CFF1C001F111F6F5FD1
:100970007F4F6F31710531F7DA01C9018F779070C0
:10098000A070B07080349105A105B10561F427FD18
:100990000AC0E114F1040105110529F0205C3F4F64
:1009A0004F4F5F4F20782D873E874F87588BBE0172
:1009B000675F7F4FCB010E943A076896EAE00C948C
:1009C000C619A8E1B0E0E7EEF4E00C94AE19698333
:1009D0007A838B839C832D833E834F83588789E062
:1009E000E82EF12CEC0EFD1ECE010196B7010E94FF
:1009F0000F088E010F5E1F4FCE010596B8010E94B1
:100A00000F088985823040F08989823028F0C7013B
:100A1000B8010E94870801C08FEF6896E6E00C9449
:100A2000CA19A8E1B0E0E7E1F5E00C94AE196983DA
:100A30007A838B839C832D833E834F83588789E001
:100A4000E82EF12CEC0EFD1ECE010196B7010E949E
:100A50000F088E010F5E1F4FCE010596B8010E9450
:100A60000F088985823040F08989823028F0C701DB
:100A7000B8010E94870801C081E06896E6E00C9406
:100A8000CA19A8E0B0E0E7E4F5E00C94AB199B01CB
:100A9000AC0183E08983DA01C9018827B7FD83951A
:100AA0009927AA27BB27B82E2115310541055105E5
:100AB00019F482E089833AC08823A9F0203080E0CD
:100AC000380780E0480780E8580729F460E070E0C4
:100AD00080E09FEC30C0EE24FF248701E21AF30A85
:100AE000040B150B02C079018A018EE1C82ED12CAE
:100AF000DC82CB82ED82FE820F831887C801B701AA
:100B00000E94EB0601971816190684F4082E04C0FB
:100B1000EE0CFF1C001F111F0A94D2F7ED82FE821B
:100B20000F831887C81AD90ADC82CB82BA82CE0119
:100B300001960E943A072896E9E00C94C719ACE0A8
:100B4000B0E0E5EAF5E00C94B21969837A838B830F
:100B50009C83CE010196BE016B5F7F4F0E940F0800
:100B60008D81823061F1823050F1843021F48E81A8
:100B7000882351F12EC02F81388537FD20C06E812A
:100B80002F3131051CF06623F9F023C08EE190E08F
:100B9000821B930B29853A854B855C8504C056954D
:100BA0004795379527958A95D2F76623B1F05095EA
:100BB0004095309521953F4F4F4F5F4F0EC020E03D
:100BC00030E040E050E009C02FEF3FEF4FEF5FE72C
:100BD00004C020E030E040E050E8B901CA012C96A2
:100BE000E2E00C94CE19A8E0B0E0E9EFF5E00C9457
:100BF000AA197B018C01611571058105910519F414
:100C000082E0898360C083E089838EE1C82ED12C85
:100C1000DC82CB82ED82FE820F831887C801B70188
:100C20000E94EB06FC013197F7FF3BC022273327D8
:100C30002E1B3F0B57016801022E04C0D694C794A7
:100C4000B794A7940A94D2F740E050E060E070E0D7
:100C500081E090E0A0E0B0E004C0880F991FAA1FD7
:100C6000BB1F2A95D2F70197A109B1098E219F21B7
:100C7000A023B1230097A105B10521F041E050E088
:100C800060E070E04A295B296C297D294D835E83F1
:100C90006F8378878EE190E08E1B9F0B9C838B8304
:100CA00012C0309781F00E2E04C0EE0CFF1C001F06
:100CB000111F0A94D2F7ED82FE820F831887CE1A95
:100CC000DF0ADC82CB821A82CE0101960E943A07AB
:100CD0002896EAE00C94C619EF92FF920F93DF93E7
:100CE000CF93CDB7DEB760970FB6F894DEBF0FBED7
:100CF000CDBFA82F002309F461C07E010894E11C38
:100D0000F11C88E0F70111928A95E9F729833A836B
:100D10004B835C836D837E83AF83988780E2801BE7
:100D2000E82FFF27E7FDF09549815A816B817C818F
:100D3000181684F019861A861B861C868827992720
:100D40008E1B9F0B04C0440F551F661F771F8A958B
:100D5000D2F728C0202F332727FD3095DB01CA01A9
:100D6000022E04C0880F991FAA1FBB1F0A94D2F736
:100D700089879A87AB87BC8704C076956795579516
:100D80004795EA95D2F78D819E81AF81B88504C0E1
:100D9000880F991FAA1FBB1F2A95D2F7482B592BE2
:100DA0006A2B7B2B4D875E876F87788B29853A85E9
:100DB0004B855C856D857E85AF8598898A2F609689
:100DC0000FB6F894DEBF0FBECDBFCF91DF910F916C
:100DD000FF90EF900895EF92FF920F931F937B0186
:100DE0008C0180E0E81680E0F80681E0080780E0EA
:100DF000180788F48FEFE816F1040105110531F0AA
:100E000028F088E090E0A0E0B0E017C080E090E03B
:100E1000A0E0B0E012C080E0E81680E0F80680E0D4
:100E2000080781E0180728F088E190E0A0E0B0E032
:100E300004C080E190E0A0E0B0E020E230E040E0DB
:100E400050E0281B390B4A0B5B0B04C01695079525
:100E5000F794E7948A95D2F7F701E656FE4F808122
:100E6000281B310941095109C9011F910F91FF90B8
:100E7000EF900895DF92EF92FF920F931F93FC0182
:100E8000E480F58006811781D1808081823048F42A
:100E900080E090E0A0E1B0E0E82AF92A0A2B1B2BC1
:100EA000A5C0843009F49FC0823021F4EE24FF24D1
:100EB000870105C0E114F1040105110519F4E0E012
:100EC000F0E096C0628173819FEF623879070CF081
:100ED0005BC022E83FEF261B370B2A3131052CF08F
:100EE00020E030E040E050E02AC0B801A701022E27
:100EF00004C076956795579547950A94D2F781E097
:100F000090E0A0E0B0E004C0880F991FAA1FBB1FAB
:100F10002A95D2F70197A109B1098E219F21A0231B
:100F2000B1230097A105B10521F081E090E0A0E098
:100F3000B0E09A01AB01282B392B4A2B5B2BDA014D
:100F4000C9018F779070A070B07080349105A105B1
:100F5000B10539F427FF09C0205C3F4F4F4F5F4F69
:100F600004C0215C3F4F4F4F5F4FE0E0F0E0203086
:100F7000A0E03A07A0E04A07A0E45A0710F0E1E039
:100F8000F0E079018A0127C06038710564F5FB0142
:100F9000E158FF4FD801C7018F779070A070B070F3
:100FA00080349105A105B10539F4E7FE0DC080E458
:100FB00090E0A0E0B0E004C08FE390E0A0E0B0E0FB
:100FC000E80EF91E0A1F1B1F17FF05C0169507958F
:100FD000F794E794319687E016950795F794E79490
:100FE0008A95D1F705C0EE24FF248701EFEFF0E0EA
:100FF0006E2F679566276795902F9F77D794DD248E
:10100000D7948E2F8695492F462B582F5D29B701EF
:10101000CA011F910F91FF90EF90DF900895FC019E
:10102000DB01408151812281622F6F7770E0221FA6
:101030002227221F9381892F880F822B282F30E0AF
:10104000991F9927991F11969C9311972115310586
:10105000A9F5411551056105710511F482E037C00C
:1010600082E89FEF13969C938E9312979A01AB019F
:1010700067E0220F331F441F551F6A95D1F783E0A5
:101080008C930DC0220F331F441F551F12968D9154
:101090009C911397019713969C938E9312972030EF
:1010A00080E0380780E0480780E4580758F314963A
:1010B0002D933D934D935C93179708952F3F3105E2
:1010C00079F4411551056105710519F484E08C939B
:1010D000089564FF03C081E08C9312C01C9210C07D
:1010E0002F57304013963C932E93129783E08C93A6
:1010F00087E0440F551F661F771F8A95D1F77064EC
:1011000014964D935D936D937C93179708951F9359
:10111000DC01FB019C91923008F447C08081823051
:1011200008F443C0943051F411961C91843099F521
:101130008181682F70E0611B71093FC0843021F00C
:10114000923031F48230B9F18181882389F12DC048
:1011500011961C9111978230F1F081811817D9F402
:1011600012962D913C911397828193818217930758
:1011700094F028173907BCF014968D919D910D902D
:10118000BC91A02D248135814681578128173907CC
:101190004A075B0718F4112341F00AC0821793072E
:1011A000A407B50740F4112319F061E070E005C011
:1011B0006FEF7FEF02C060E070E0CB011F910895F8
:1011C000599810BC83E389B95898529886E880BD35
:1011D000579856985598549A539A0895282F809165
:1011E000A802882311F083E0089580E090E0A0E059
:1011F000B0E003C00196A11DB11D5D9909C0803109
:1012000037E2930730E0A30730E0B30799F708C04F
:1012100080519742A040B04019F02CB980E001C045
:1012200084E01092A8020895FC01009711F482E076
:1012300008958091A802882311F083E0089580E04A
:1012400090E0A0E0B0E003C00196A11DB11D5F9940
:1012500009C0803127E2920720E0A20720E0B20710
:1012600099F709C080519742A040B04021F08CB15D
:10127000808380E001C084E01092A80208950F935B
:101280001F93CF93DF93009711F482E014C0EC0119
:1012900008EC10E00DC00E94EE0824EF31E0F801E8
:1012A0003197F1F721503040D1F72196882319F476
:1012B0008881882381F7DF91CF911F910F91089545
:1012C000FC018091A802882311F083E008953097F3
:1012D000A9F06115710591F081E08093A802F09367
:1012E000A702E093A6027093AA026093A90210924B
:1012F000AE0280818CB9569A80E0089582E008950C
:10130000AF92BF92CF92DF92EF92FF920F931F9313
:10131000CF93DF93EC015A016B01009711F482E047
:1013200016C0EE24FF2487010CC0CE018E0D9F1D38
:101330000E941409882359F40894E11CF11C011D32
:10134000111DEA14FB040C051D0578F380E0DF9104
:10135000CF911F910F91FF90EF90DF90CF90BF90B2
:10136000AF900895BC018091A802882311F083E01A
:10137000089561157105A9F02115310591F081E0FD
:101380008093A8027093AC026093AB023093AA02E0
:101390002093A9024093AD021092AE02579A80E0CA
:1013A000089582E008951F920F920FB60F921124B4
:1013B0002F933F934F935F936F937F938F939F935D
:1013C000AF93BF93EF93FF939091AE028CB1E091F6
:1013D000AB02F091AC02E90FF11D80839F5F909307
:1013E000AE028091AD02981761F41092AE02109295
:1013F000A802E091A902F091AA02309709F009959C
:101400005798FF91EF91BF91AF919F918F917F91ED
:101410006F915F914F913F912F910F900FBE0F9061
:101420001F9018951F920F920FB60F9211242F93B1
:101430003F934F935F936F937F938F939F93AF935C
:10144000BF93EF93FF938091AE028F5F8093AE02C4
:10145000E091A602F091A702E80FF11DE081EE23D2
:1014600069F41092AE021092A802E091A902F091E4
:10147000AA02309709F00995569801C0ECB9FF917E
:10148000EF91BF91AF919F918F917F916F915F91FC
:101490004F913F912F910F900FBE0F901F90189575
:1014A00083B78F7B83BF83B7877F83BF80EC82BF87
:1014B00089B7816089BF83B7887F83BF83B7826024
:1014C00083BF08958FB58E7F8FBD8FB582608FBD2E
:1014D0008EB588608EBD8EB580618EBD1BBC1ABC7A
:1014E00019BC18BC80E29EE497BD86BD8EB58064B1
:1014F0008EBD8FB58F7B8FBD8FB580688FBD8FB54B
:101500008F7E8FBD8FB580628FBD89B78B7F89BF7E
:1015100089B78F7E89BF89B7877F89BF89B78F7D5C
:1015200089BF8EB5887F8EBD8EB582608EBD0895D1
:1015300082B5886082BD85B58F7B85BD85B5877F87
:1015400085BD14BC89B7806489BF85B5887F85BD9A
:1015500085B5816085BD089582BF08959DBD8CBD10
:10156000089584BD08958CBF08959BBD8ABD0895DC
:1015700099BD88BD089583BD089597BD86BD089522
:1015800082B708952CB53DB5C901089584B5089575
:101590009BBD8ABD08958EB580648EBD89B780627B
:1015A00089BF0895813029F48EB580648EBD80E0B6
:1015B0000895882311F081E008958EB58F7B8EBD4C
:1015C00080E0089589B7806289BF089589B78F7DCB
:1015D00089BF089526B537B5C901089581B5887FBB
:1015E00081BD81B5866081BD089581B5886081BD6A
:1015F000089581B5886181BD11BC0895009711F4EB
:1016000082E00895E62FF0E0EE0FFF1FE155FD4F59
:101610009183808380E008951F920F920FB60F92FE
:1016200011242F933F934F935F936F937F938F93E7
:101630009F93AF93BF93EF93FF93E091C502F09117
:10164000C602309709F00995FF91EF91BF91AF91D4
:101650009F918F917F916F915F914F913F912F91CA
:101660000F900FBE0F901F9018951F920F920FB6FC
:101670000F9211242F933F934F935F936F937F9318
:101680008F939F93AF93BF93EF93FF93E091C30228
:10169000F091C402309709F00995FF91EF91BF9145
:1016A000AF919F918F917F916F915F914F913F91FA
:1016B0002F910F900FBE0F901F9018951F920F92B1
:1016C0000FB60F9211242F933F934F935F936F9315
:1016D0007F938F939F93AF93BF93EF93FF93E0918B
:1016E000C102F091C202309709F00995FF91EF9184
:1016F000BF91AF919F918F917F916F915F914F912A
:101700003F912F910F900FBE0F901F9018951F9231
:101710000F920FB60F9211242F933F934F935F9325
:101720006F937F938F939F93AF93BF93EF93FF93A9
:10173000E091BF02F091C002309709F00995FF9146
:10174000EF91BF91AF919F918F917F916F915F9139
:101750004F913F912F910F900FBE0F901F901895B2
:101760001F920F920FB60F9211242F933F934F9316
:101770005F936F937F938F939F93AF93BF93EF93F9
:10178000FF93E091BD02F091BE02309709F00995F8
:10179000FF91EF91BF91AF919F918F917F916F9149
:1017A0005F914F913F912F910F900FBE0F901F901F
:1017B00018951F920F920FB60F9211242F933F93FB
:1017C0004F935F936F937F938F939F93AF93BF9349
:1017D000EF93FF93E091BB02F091BC02309709F0C8
:1017E0000995FF91EF91BF91AF919F918F917F915B
:1017F0006F915F914F913F912F910F900FBE0F907E
:101800001F9018951F920F920FB60F9211242F93CD
:101810003F934F935F936F937F938F939F93AF9378
:10182000BF93EF93FF93E091B902F091BA02309722
:1018300009F00995FF91EF91BF91AF919F918F9121
:101840007F916F915F914F913F912F910F900FBEBC
:101850000F901F9018951F920F920FB60F921124A0
:101860002F933F934F935F936F937F938F939F93A8
:10187000AF93BF93EF93FF93E091B702F091B8025B
:10188000309709F00995FF91EF91BF91AF919F912A
:101890008F917F916F915F914F913F912F910F9019
:1018A0000FBE0F901F901895FC01009709F474C0AB
:1018B0004581442309F470C03481332309F46CC09A
:1018C0002681222309F468C05281552309F464C09B
:1018D0007081772309F460C06381662309F45CC0DA
:1018E0009181992309F458C0413011F081E002C080
:1018F0006A9A80E0332321F0313021F081E003C087
:101900006B9801C06B9A2330B9F0243028F4213051
:1019100069F0223068F408C02530A1F0253078F055
:10192000263091F081E013C0689803C0689805C024
:10193000689A6998709A0BC0689A699807C0689805
:10194000699AF8CF689801C0689A699A7098552387
:1019500031F0513011F081E003C06D9801C06D9AF3
:10196000662321F0613021F081E003C06C9A01C050
:101970006C98772321F0713021F081E003C06F98DB
:1019800001C06F9A992321F0913021F081E00895F0
:101990006E9808956E9A089582E00895982FFB013D
:1019A0008091C102882311F083E008959FB980E0FF
:1019B00090E0A0E0B0E003C00196A11DB11D779BAF
:1019C00006C080519742A040B04051F40DC0803114
:1019D00027E2920720E0A20720E0B20769F704C0DF
:1019E0008FB1808380E001C084E01092C10208952D
:1019F000DF92EF92FF920F931F93CF93DF937B01C0
:101A0000D42E0097A1F06115710589F08C01C0E01A
:101A1000D0E009C0B7016C0F7D1FF80181918F01E3
:101A20000E94CE0C2196CD15A8F380E001C082E083
:101A3000DF91CF911F910F91FF90EF90DF9008956C
:101A4000FC018091C102882311F083E00895309752
:101A500039F1A081B181109719F14281538141156B
:101A60005105F1F02581368121153105C9F081E05C
:101A70008093C102B093C502A093C4025093C002E8
:101A80004093BF0284818093C6023093C3022093A7
:101A9000C2021092C7028C918FB96F9A80E00895AC
:101AA00082E008951F920F920FB60F9211242F9388
:101AB0003F934F935F936F937F938F939F93AF93D6
:101AC000BF93EF93FF939091C7028FB1E091BF0254
:101AD000F091C002E90FF11D80839F5F9093C702D0
:101AE0008091C602981759F41092C1026F98E09144
:101AF000C202F091C302309751F0099508C0E091FD
:101B0000C402F091C502E90FF11D80818FB9FF91E8
:101B1000EF91BF91AF919F918F917F916F915F9165
:101B20004F913F912F910F900FBE0F901F901895DE
:101B30006D986C9A81E065E041E00E94C10D81E002
:101B400067E041E00E94C10D6B986A98689A6998B5
:101B500070986F986E9A08958FB780688FBF0895B8
:101B60008FB78F778FBF08959FBB8EBB6DBBE29AF7
:101B7000E19AE199FECF08958EBB9FBBE09A8DB3A9
:101B80000895843008F077C0683008F074C04130A0
:101B9000B1F5813099F0813030F08230D1F083306E
:101BA00009F06BC021C02AB381E090E002C0880F29
:101BB000991F6A95E2F7282B2ABB5BC027B381E007
:101BC00090E002C0880F991F6A95E2F7282B27BB87
:101BD00050C024B381E090E002C0880F991F6A953D
:101BE000E2F7282B24BB45C021B381E090E002C07E
:101BF000880F991F6A95E2F7282B21BB3AC044232E
:101C0000D1F5813099F0813028F08230D9F08330DD
:101C1000A1F524C02AB381E090E002C0880F991F8B
:101C20006A95E2F7809582238ABB23C027B381E0BF
:101C300090E002C0880F991F6A95E2F78095822391
:101C400087BB17C024B381E090E002C0880F991FC2
:101C50006A95E2F78095822384BB0BC021B381E0B3
:101C600090E002C0880F991F6A95E2F78095822361
:101C700081BB81E0089580E0089581E0089584307B
:101C800008F077C0683008F074C04130B1F5813099
:101C900099F0813030F08230D1F0833009F06BC0A0
:101CA00021C02BB381E090E002C0880F991F6A9594
:101CB000E2F7282B2BBB5BC028B381E090E002C089
:101CC000880F991F6A95E2F7282B28BB50C025B3CF
:101CD00081E090E002C0880F991F6A95E2F7282BF7
:101CE00025BB45C022B381E090E002C0880F991F58
:101CF0006A95E2F7282B22BB3AC04423D1F5813004
:101D000099F0813028F08230D9F08330A1F524C0D9
:101D10002BB381E090E002C0880F991F6A95E2F72B
:101D2000809582238BBB23C028B381E090E002C062
:101D3000880F991F6A95E2F78095822388BB17C0A8
:101D400025B381E090E002C0880F991F6A95E2F701
:101D50008095822385BB0BC022B381E090E002C056
:101D6000880F991F6A95E2F78095822382BB81E0F4
:101D7000089580E0089581E00895FA01843028F5FF
:101D8000683018F5813049F0813028F0823039F020
:101D90008330C9F406C029B305C026B303C023B3FA
:101DA00001C020B381E090E0062E02C0880F991F89
:101DB0000A94E2F730E08223932302C09595879539
:101DC0006A95E2F7808381E0089580E00895843089
:101DD000C0F56830B0F5813091F0813028F0823064
:101DE000C9F0833061F521C02BB381E090E002C0DF
:101DF000880F991F6A95E2F728272BBB20C028B3CC
:101E000081E090E002C0880F991F6A95E2F72827C9
:101E100028BB15C025B381E090E002C0880F991F50
:101E20006A95E2F7282725BB0AC022B381E090E03B
:101E300002C0880F991F6A95E2F7282722BB81E02C
:101E4000089580E00895843008F08FC0683008F06D
:101E50008CC0813049F1813038F0823009F444C0BF
:101E6000833009F080C060C0413091F480B78B7F2F
:101E700080BF3AB381E090E002C0880F991F6A9555
:101E8000E2F7282F209523232ABB2BB3822B0AC0ED
:101E90002BB381E090E002C0880F991F6A95E2F7AA
:101EA000809582238BBB5FC0413091F480B78B7FDC
:101EB00080BF37B381E090E002C0880F991F6A9518
:101EC000E2F7282F2095232327BB28B3822B0AC0B3
:101ED00028B381E090E002C0880F991F6A95E2F76D
:101EE0008095822388BB3FC0413091F480B78B7FBF
:101EF00080BF34B381E090E002C0880F991F6A95DB
:101F0000E2F7282F2095232324BB25B3822B0AC078
:101F100025B381E090E002C0880F991F6A95E2F72F
:101F20008095822385BB1FC0413091F480B78B7FA1
:101F300080BF31B381E090E002C0880F991F6A959D
:101F4000E2F7282F2095232321BB22B3822B0AC03E
:101F500022B381E090E002C0880F991F6A95E2F7F2
:101F60008095822382BB81E0089580E008958430CB
:101F700090F4813049F0813028F0823039F083309C
:101F800051F406C06ABB05C067BB03C064BB01C097
:101F900061BB81E0089580E00895843090F4813041
:101FA00049F0813028F0823039F0833051F406C096
:101FB0006BBB05C068BB03C065BB01C062BB81E0F1
:101FC000089580E00895FB01843098F4813049F051
:101FD000813028F0823039F0833059F406C089B35B
:101FE00005C086B303C083B301C080B3808381E0A2
:101FF000089580E00895843010F080E008958130E5
:1020000059F0813028F0823059F0833061F40DC0EE
:102010008BB380958BBB07C088B3809588BB03C00A
:1020200085B3809585BB81E0089582B3809582BB9E
:1020300081E00895843010F080E008956F70813061
:1020400071F0813028F0823089F08330A9F416C015
:102050008BB3807F8BBB8BB3682B6BBB0DC088B3FE
:10206000807F88BB88B3682B68BB06C085B3807F40
:1020700085BB85B3682B65BB81E0089582B3807F03
:1020800082BB82B3682B62BB81E00895843010F07C
:1020900080E008956295607F813071F0813028F092
:1020A000823089F08330A9F416C08BB38F708BBB5C
:1020B0008BB3682B6BBB0DC088B38F7088BB88B3A4
:1020C000682B68BB06C085B38F7085BB85B3682B52
:1020D00065BB81E0089582B38F7082BB82B3682BA9
:1020E00062BB81E00895843010F080E008956F7045
:1020F000813071F0813028F0823089F08330A9F48A
:1021000016C08AB3807F8ABB8AB3682B6ABB0DC0B6
:1021100087B3807F87BB87B3682B67BB06C084B358
:10212000807F84BB84B3682B64BB81E0089581B356
:10213000807F81BB81B3682B61BB81E008958430CF
:1021400010F080E008956295607F813071F08130F9
:1021500028F0823089F08330A9F416C08AB38F70DA
:102160008ABB8AB3682B6ABB0DC087B38F7087BBED
:1021700087B3682B67BB06C084B38F7084BB84B3FE
:10218000682B64BB81E0089581B38F7081BB81B3FC
:10219000682B61BB81E008953E9A3F983D9886B1D7
:1021A000887F86B986B1876086B93598379A339823
:1021B0000895379A089537980895339A0895339873
:1021C0000895982F823020F0833011F081E0089537
:1021D00087B18F7387B987B19295990F990F907CCA
:1021E000892B87B980E00895982F883010F081E01E
:1021F000089586B1887F86B986B1892B86B980E03B
:102200000895882311F43D980895813011F081E0FC
:1022100008953D9A80E00895883019F4359880E05B
:102220000895883010F081E00895359A80B78F7155
:1022300080BF80B780BF80E00895982FFB016115B3
:10224000710511F482E008958091CA02882311F08B
:1022500083E00895903230F487B1807E87B987B1EA
:10226000892B87B9369A80E090E0A0E0B0E003C007
:102270000196A11DB11D349B06C08055934CA04012
:10228000B04051F415C0803523EC920720E0A2073E
:1022900020E0B20769F70CC0349A84B145B1342FFD
:1022A00020E090E0282B392B3183208380E001C08F
:1022B00081E01092CA020895982F6115710511F1FD
:1022C00041155105F9F08091CA02882311F083E08D
:1022D000089581E08093CA021092CD027093C902E2
:1022E0006093C8025093CC024093CB02903230F4FA
:1022F00087B1807E87B987B1892B87B9369A339A9F
:1023000080E0089582E00895FC010097B9F1A08172
:10231000B181109799F1458156814115510571F1AF
:10232000228133812115310549F18091CA02882328
:1023300011F083E0089581E08093CA028093CD027A
:102340003093C9022093C802B093CF02A093CE026B
:1023500084818093D0025093CC024093CB021092A0
:10236000D1029C91903230F487B1807E87B987B1D9
:10237000982B97B9369A339A80E0089582E00895B1
:102380001F920F920FB60F9211242F933F934F93EA
:102390005F936F937F938F939F93AF93BF93EF93CD
:1023A000FF938091CD02882371F424B145B1E0916F
:1023B000C802F091C902942F80E030E0822B932B69
:1023C000918380831EC08130A9F55091D10224B140
:1023D00045B1852F90E0880F991FE091C802F091D8
:1023E000C902E80FF91F942F80E030E0822B932B75
:1023F000918380835F5F5093D1028091D002581700
:1024000049F41092CA02E091CB02F091CC020995F6
:10241000339810C0E091CE02F091CF02E50FF11D8C
:10242000E081E03230F487B1807E87B987B1E82B54
:10243000E7B9369AFF91EF91BF91AF919F918F913C
:102440007F916F915F914F913F912F910F900FBEB0
:102450000F901F901895DF93CF9300D000D0CDB789
:10246000DEB7262F6A837B838C83672F19828230A5
:1024700058F4822FAE014F5F5F4F0E94BD0E90E077
:102480008981882381F40EC0823011F090E00BC066
:10249000822FAE014F5F5F4F0E94BD0E90E0898199
:1024A000813009F491E0892F0F900F900F900F90D9
:1024B000CF91DF9108950F931F93DF93CF9300D0B7
:1024C0000F92CDB7DEB769837A838B83062F172FE0
:1024D000862F672F40E00E94C10D8B81882329F44D
:1024E000802F612F41E00E943F0E0F900F900F90C0
:1024F000CF91DF911F910F9108951DBC1CBC9927AE
:1025000087FD9095A92FB92FBC01CD010E944105EF
:1025100021E63BE046EB5BE30E943B0320E030E03A
:1025200040EC5FE30E940E0320E030E04AE754E411
:102530000E943B030E9449007BBD6ABD089583E071
:1025400065E041E00E94C10D0895CF92DF92EF92C5
:10255000FF920F931F93DF93CF9300D0CDB7DEB7D9
:102560008C016B01FC01818190E028EE33E0829FB9
:102570007001839FF00C929FF00C11248081BE01AA
:102580006F5F7F4F0E941D11F8018281882389F4BB
:10259000B70180E090E029813A8140E050E00E945C
:1025A00032193AE096958795779567953A95D1F7E0
:1025B0000FC0813081F4B70180E090E029813A8139
:1025C00040E050E00E943219672F782F892F992719
:1025D000F6017183608380E00F900F90CF91DF91BF
:1025E0001F910F91FF90EF90DF90CF900895CF92C1
:1025F000DF92EF92FF920F931F93DF93CF9300D060
:10260000CDB7DEB78C016B01FC01818190E028EE33
:1026100033E0829F7001839FF00C929FF00C112495
:102620008081BE016F5F7F4F0E941D11F801828182
:10263000882389F4B70180E090E029813A8140E065
:1026400050E00E9432195AE09695879577956795E4
:102650005A95D1F70FC0813071F4B70180E090E056
:1026600029813A8140E050E00E943219672F782F8B
:10267000892F9927CB016AE070E00E945119F60179
:10268000608380E00F900F90CF91DF911F910F91A9
:10269000FF90EF90DF90CF900895DF93CF9300D01D
:1026A0000F92CDB7DEB7962F6983672F7A838B831E
:1026B000892F0E94E70E0F900F900F90CF91DF911E
:1026C0000895DF93CF9300D00F92CDB7DEB7262FBA
:1026D00069837A838B83672F813019F4822F40E0DE
:1026E00004C0882321F4822F41E00E943F0E0F9006
:1026F0000F900F90CF91DF910895DF93CF9300D08B
:102700000F92CDB7DEB7262F69837A838B83672F2D
:10271000813019F4822F41E004C0882321F4822FF4
:1027200040E00E943F0E0F900F900F90CF91DF91ED
:102730000895DF93CF9300D00F92CDB7DEB7962FD9
:102740006983672F7A838B83892F41E00E94C10DB3
:102750000F900F900F90CF91DF9108950F931F93DB
:1027600080E064E041E00E943F0E00ED17E0C80108
:102770000197F1F780E064E040E00E943F0EC8015D
:102780000197F1F71F910F9108951F93182F80E083
:1027900066E040E00E943F0E80E065E040E00E947D
:1027A0003F0E612F62956F7080E00E941A100E94A8
:1027B000AE1380E0612F0E941A100E94AE131F9189
:1027C000089588E10E94C51380ED97E00197F1F725
:1027D00008958CE10E94C51380ED97E00197F1F711
:1027E0000895982F81508430C0F46623B1F065318C
:1027F000A0F4913019F4862F815810C0923019F44A
:10280000862F81540BC0933019F4862F8D5606C045
:10281000943021F4862F8D5201C080E80E94C513A8
:1028200080ED97E00197F1F7089581E00E94C513CC
:1028300080E29EE40197F1F708951F93182F80E03E
:1028400066E041E00E943F0E80E065E040E00E94CB
:102850003F0E612F62956F7080E00E941A100E94F7
:10286000AE1380E0612F0E941A100E94AE131F91D8
:1028700008950F931F93CF93DF93182F062F80E4B3
:102880000E94C513CAE9D2E089910E941D1482E01A
:10289000C23AD807C9F7812F602F0E94F11310E0C8
:1028A000812F0E941D141F5F1830D1F7DF91CF9147
:1028B0001F910F9108956F927F928F929F92AF9286
:1028C000BF92CF92DF92EF92FF920F931F935B0123
:1028D0006C01611571058105910521F480E30E9469
:1028E0001D1456C097FF0BC08DE20E941D14D0949A
:1028F000C094B094A094A11CB11CC11CD11C81E057
:10290000682E712C812C912CC401B3012AE030E097
:1029100040E050E00E9432197B018C01C601B501F4
:102920000E9487193B014C016E0C7F1C801E911E7A
:10293000C601B5012AE030E040E050E00E9487196E
:10294000C901DA015C016D01A114B104C104D10413
:10295000D9F618C0C401B3012AE030E040E050E0ED
:102960000E946519862F805D0E941D14C401B30169
:102970002AE030E040E050E00E946519C901DA0128
:102980003C014D0181E0681671048104910411F746
:102990001F910F91FF90EF90DF90CF90BF90AF907D
:1029A0009F908F907F906F900895EF92FF920F937A
:1029B0001F937B018C010E949F050E945B14C8013C
:1029C000B70120E030E040E050E00E94110588238C
:1029D00024F417FB109517F91095C801B7010E9450
:1029E0009F050E9441059B01AC01C801B7010E94EF
:1029F000DD0220E030E44CE156E40E943B037B0121
:102A00008C010E947500232B242B252B262B272B92
:102A1000282B292B49F08EE20E941D14C801B70112
:102A20000E949F050E945B141F910F91FF90EF90F1
:102A300008951F93CF93DF93EC0110E003C00E9431
:102A40001D141F5FFE01E10FF11D80818823B9F77E
:102A5000DF91CF911F9108950F931F9384EF91E021
:102A600028EC30E0F9013197F1F70197D9F780E0D0
:102A700060E041E00E94C10D80E061E041E00E9421
:102A8000C10D80E062E041E00E94C10D80E063E0A2
:102A900041E00E94C10D80E066E041E00E94C10D6E
:102AA00080E065E041E00E94C10D80E064E041E02B
:102AB0000E94C10D82E00E94C51380E29EE401974E
:102AC000F1F788E20E94C51300ED17E0C8010197F5
:102AD000F1F78CE00E94C513C8010197F1F70E943D
:102AE000151486E00E94C513C8010197F1F71F91E4
:102AF0000F9108951F93CF93DF9380E690E00E949B
:102B00003F0915E3C8ECD0E080E20E94EE08812F77
:102B10000E94EE0880E197E2FE013197F1F70197FC
:102B2000D9F71150103381F78DE00E94EE0882E151
:102B300090E06FEF0E94B40D83E08093A202DF91DA
:102B4000CF911F9108958BE690E00E943F098DE0A0
:102B50000E94EE0888E790E00E943F098DE00E9405
:102B6000EE081092D3028091D3028823A1F08AE864
:102B700090E00E943F098DE00E94EE088BE690E015
:102B80000E943F0988E790E00E943F098DE00E9483
:102B9000EE081092D3028EEE92E00E941409809308
:102BA000A5028091A502882389F48091D30288230D
:102BB00069F48091EE028D3071F38091EE028F30D6
:102BC00051F38091EE02883031F314C08091A50258
:102BD0008823E9F48091D3028431C8F48091EE0215
:102BE0008D3091F18091EE028F3071F18091EE0283
:102BF000883021F18091D3026091EE0290E08F5BEA
:102C00009F4F0E94B40D8091D3028F5F1AC08091B4
:102C1000A502882309F0BFCF8091D302843108F444
:102C2000BACF8091EE028D3079F08091EE028F3034
:102C300059F08091EE02883009F0ADCF8091D30237
:102C400081508093D302A7CF8091D302863008F4BD
:102C50008ACF81E190E060E00E94B40D6091D302E0
:102C600084E190E00E94B40D08958CEA90E00E9407
:102C70003F098DE00E94EE0888E790E00E943F093E
:102C80008DE00E94EE081092D2028091D202882339
:102C900081F089EB90E00E943F098DE00E94EE08F0
:102CA0008BED90E00E943F098DE00E94EE081092AB
:102CB000D2028EEE92E00E9414098093A5028091C8
:102CC000A502882389F48091D202882369F4809137
:102CD000EE028D3071F38091EE028F3051F38091CE
:102CE000EE02883031F314C08091A5028823E1F40C
:102CF0008091D2028431C0F48091EE028D3081F156
:102D00008091EE028F3061F18091EE02883011F1F6
:102D10008091D2026091EE0290E081960E94B40D03
:102D20008091D2028F5F19C08091A502882309F695
:102D30008091D202843108F4BCCF8091EE028D30B4
:102D400079F08091EE028F3059F08091EE02883058
:102D500009F0AFCF8091D20281508093D202A9CFE7
:102D60008091D202863008F490CF80E190E060E05C
:102D70000E94B40D6091D20283E190E00E94B40DF4
:102D800008950F931F938DEE90E00E943F098DE010
:102D90000E94EE0881E08093A40210E08EEE92E0A3
:102DA0000E9414098093A5028091A5028823A1F4B2
:102DB000112391F48091EE028D3081F38091EE0227
:102DC0008F3061F38091EE02883041F38091EE0202
:102DD0008093D90211E0E2CF8091A5028823B9F453
:102DE0001431A8F48091EE028D3031F18091EE0221
:102DF0008F3011F18091EE028830E1F0E12FF0E0A8
:102E00008091EE02E752FD4F80831F5FC7CF809114
:102E1000A502882319F6143108F28091EE028D3054
:102E200059F08091EE028F3039F08091EE028830B7
:102E300009F0B4CF1150B2CF8091D3021817B1F47A
:102E400000E00FC0802F90E0FC01E752FD4F1081A1
:102E50008F5B9F4F0E94BC0D181711F01092A402B7
:102E60000F5F8091D302081768F306C08091D302E8
:102E7000181711F01092A4021F910F9108950F934B
:102E80001F938CEF90E00E943F098DE00E94EE08B6
:102E900081E08093A30210E08EEE92E00E9414097C
:102EA0008093A5028091A5028823A1F4112391F4B7
:102EB0008091EE028D3081F38091EE028F3061F3CC
:102EC0008091EE02883041F38091EE028093D90226
:102ED00011E0E2CF8091A5028823B9F41431A8F45F
:102EE0008091EE028D3031F18091EE028F3011F140
:102EF0008091EE028830E1F0E12FF0E08091EE0267
:102F0000E752FD4F80831F5FC7CF8091A5028823C2
:102F100019F6143108F28091EE028D3059F080914B
:102F2000EE028F3039F08091EE02883009F0B4CF94
:102F30001150B2CF8091D2021817A9F400E00EC050
:102F4000802F90E0FC01E752FD4F108181960E9496
:102F5000BC0D181711F01092A3020F5F8091D202DE
:102F6000081770F306C08091D202181711F0109262
:102F7000A3021F910F9108950E943F170E94C1164E
:102F80008091A302882321F08091A4028823B1F5C7
:102F90008BE091E00E943F098DE00E94EE08809155
:102FA000A20281508093A2026091A20282E190E08D
:102FB0000E94B40D8091A202882369F088E291E01A
:102FC0000E943F098091A202805D0E94EE088DE080
:102FD0000E94EE08D1CF8091A202882369F688E290
:102FE00091E00E943F098091A202805D0E94EE085C
:102FF0008DE00E94EE080E947A15BECF86E391E034
:103000000E943F0982E190E06FEF0E94B40D83E0DF
:103010008093A2028DE00E94EE080895FF920F9324
:103020001F9383E190E00E94BC0D8093D20284E163
:1030300090E00E94BC0D8093D30282E190E00E9458
:10304000BC0D8F3F31F082E190E00E94BC0D809377
:10305000A20280E190E00E94BC0D8F3F49F48BE416
:1030600091E00E943F098DE00E94EE080E94351613
:1030700081E190E00E94BC0D8F3F49F40E94A315AE
:103080008AE591E00E943F098DE00E94EE08809160
:10309000A202882311F40E947A15FF240BC00F2D81
:1030A00010E0C80181960E94BC0D01511D4FF8012E
:1030B0008083F3948091D202F81688F31F910F91C8
:1030C000FF9008951F9380E06FEF0E94B70F82E09A
:1030D0006FEF0E94B70F83E06EEF0E94B70F0E9460
:1030E000E0080E94980D0E940E180E94BC178DE601
:1030F00091E00E943F098FEE92E00E943F098DE02F
:103100000E94EE081092D4021092D5021092D602BC
:103110001092D7021092D8028EEE92E00E9414090B
:103120008093A5028091A502882389F48091D4021E
:10313000882369F48091EE028D3071F38091EE0264
:103140008F3051F38091EE02883099F5E5CF809170
:10315000A502882309F78091D4028823E9F280919F
:10316000EE028D3009F44CC08091EE028F3009F4EC
:1031700047C08091EE028830E1F46091D5027091F1
:10318000D6028091D7029091D8022AE030E040E048
:1031900050E00E946519C901DA018093D50290932D
:1031A000D602A093D702B093D8028091D402815066
:1031B00024C08091EE0280538093EE026091D5028C
:1031C0007091D6028091D7029091D8021091EE02B0
:1031D0002AE030E040E050E00E943219610F711D9A
:1031E000811D911D6093D5027093D6028093D70202
:1031F0009093D8028091D4028F5F8093D4028CCFB9
:103200008091D5029091D602A091D702B091D802B8
:103210000B97A105B10538F086E791E00E943F09C0
:103220008DE00E94EE088091D5029091D602A09187
:10323000D702B091D8020B97A105B10508F062CF73
:103240008091D5029091D602A091D702B091D80278
:103250000A97A105B10519F485E891E04ECF8EE8F3
:1032600091E04BCF629FD001739FF001829FE00DF0
:10327000F11D649FE00DF11D929FF00D839FF00DF5
:10328000749FF00D659FF00D9927729FB00DE11DA1
:10329000F91F639FB00DE11DF91FBD01CF0111247E
:1032A0000895AA1BBB1B51E107C0AA1FBB1FA6178D
:1032B000B70710F0A61BB70B881F991F5A95A9F7DF
:1032C00080959095BC01CD010895A1E21A2EAA1B0C
:1032D000BB1BFD010DC0AA1FBB1FEE1FFF1FA217C6
:1032E000B307E407F50720F0A21BB30BE40BF50BC3
:1032F000661F771F881F991F1A9469F7609570954C
:10330000809590959B01AC01BD01CF01089597FB7D
:10331000092E05260ED057FD04D0D7DF0AD0001C99
:1033200038F450954095309521953F4F4F4F5F4F62
:103330000895F6F790958095709561957F4F8F4F22
:103340009F4F08952F923F924F925F926F927F927C
:103350008F929F92AF92BF92CF92DF92EF92FF92A5
:103360000F931F93CF93DF93CDB7DEB7CA1BDB0B51
:103370000FB6F894DEBF0FBECDBF09942A883988F6
:1033800048885F846E847D848C849B84AA84B984FD
:10339000C884DF80EE80FD800C811B81AA81B98109
:1033A000CE0FD11D0FB6F894DEBF0FBECDBFED011D
:0633B0000895F894FFCF20
:1033B60054696D65206F7574203A0053657420500A
:1033C600617373576F7264004D6178696D756D2016
:1033D60063686172203A2032300050617373576F10
:1033E6007264204D757374206265204D6F7265207E
:1033F6007468616E203520436861720053657420DD
:10340600557365724E616D6500557365724E616DDB
:1034160065204D757374206265204D6F726520744A
:1034260068616E2035204368617200526520456EE2
:1034360074657220557365724E616D6500436865EB
:10344600636B2050617373576F72640043686563E2
:103456006B20557365724E616D6500496E76616CC1
:10346600696420557365726E616D65206F722050B8
:10347600617373776F7264005472696573204C656B
:103486006674203A20005375636365737366756CC2
:103496006C79205369676E20696E00506C656173A4
:1034A60065205369676E2055700053617665642008
:1034B6005375636365737366756C6C790057656CD9
:1034C600636F6D652000496E76616C6964204368A0
:1034D6006F69736500392D205374616972006162EA
:1034E6006400000000000000000000010202030367
:1034F6000303040404040404040405050505050582
:10350600050505050505050505050606060606065F
:103516000606060606060606060606060606060645
:10352600060606060606060606060707070707072F
:103536000707070707070707070707070707070715
:103546000707070707070707070707070707070705
:1035560007070707070707070707070707070707F5
:1035660007070707070707070707080808080808DF
:1035760008080808080808080808080808080808C5
:1035860008080808080808080808080808080808B5
:1035960008080808080808080808080808080808A5
:1035A6000808080808080808080808080808080895
:1035B6000808080808080808080808080808080885
:1035C6000808080808080808080808080808080875
:1035D6000808080808080808080808080808080865
:1035E6000808080808080808080800010101091F5A
:0635F600080003010101C1
:00000001FF
