:100000000C942A000C94F1050C941D060C944906DE
:100010000C9488030C945F030C9436030C940D032A
:100020000C94E4020C94BB020C9492020C946902AE
:100030000C94AF040C942E010C9447000C946D01A9
:100040000C9447000C9447000C9447000C94470014
:100050000C94470011241FBECFE5D8E0DEBFCDBF12
:1000600015E0A0E6B0E0E2E5F2E302C005900D92F3
:10007000A03EB107D9F716E0A0EEB5E001C01D9291
:10008000A833B107E1F70E945D170C9427190C946F
:100090000000599810BC83E389B95898529886E8B3
:1000A00080BD579856985598549A539A0895282F7A
:1000B0008091E205882311F083E0089580E090E0CC
:1000C000A0E0B0E003C00196A11DB11D5D9909C07B
:1000D000803137E2930730E0A30730E0B30799F7A8
:1000E00008C080519742A040B04019F02CB980E080
:1000F00001C084E01092E2050895FC01009711F41C
:1001000082E008958091E205882311F083E008954C
:1001100080E090E0A0E0B0E003C00196A11DB11D19
:100120005F9909C0803127E2920720E0A20720E012
:10013000B20799F709C080519742A040B04021F022
:100140008CB1808380E001C084E01092E2050895C4
:10015000CF93DF93009711F482E00AC0EC0105C051
:100160000E9457002196882319F488818823C1F7BB
:10017000DF91CF910895FC018091E205882311F071
:1001800083E008953097A9F06115710591F081E041
:100190008093E205F093E105E093E0057093E405B8
:1001A0006093E3051092E80580818CB9569A80E04F
:1001B000089582E00895AF92BF92CF92DF92EF92BE
:1001C000FF920F931F93CF93DF93EC015A016B01C2
:1001D000009711F482E016C0EE24FF2487010CC0C2
:1001E000CE018E0D9F1D0E947D00882359F4089436
:1001F000E11CF11C011D111DEA14FB040C051D0579
:1002000078F380E0DF91CF911F910F91FF90EF90F5
:10021000DF90CF90BF90AF900895BC018091E20530
:10022000882311F083E0089561157105A9F0211567
:10023000310591F081E08093E2057093E6056093CB
:10024000E5053093E4052093E3054093E70510921C
:10025000E805579A80E0089582E008951F920F9272
:100260000FB60F9211242F933F934F935F936F9389
:100270007F938F939F93AF93BF93EF93FF9390914F
:10028000E8058CB1E091E505F091E605E90FF11D77
:1002900080839F5F9093E8058091E705981761F44C
:1002A0001092E8051092E205E091E305F091E40573
:1002B000309709F009955798FF91EF91BF91AF9151
:1002C0009F918F917F916F915F914F913F912F916E
:1002D0000F900FBE0F901F9018951F920F920FB6A0
:1002E0000F9211242F933F934F935F936F937F93BC
:1002F0008F939F93AF93BF93EF93FF938091E80504
:100300008F5F8093E805E091E005F091E105E80F4B
:10031000F11DE081EE2369F41092E8051092E205E8
:10032000E091E305F091E405309709F009955698BE
:1003300001C0ECB9FF91EF91BF91AF919F918F9167
:100340007F916F915F914F913F912F910F900FBED1
:100350000F901F90189583B7806483BF83B7886020
:1003600083BF83B78F7E83BF83B7806283BF1CBE8A
:1003700083B7887F83BF83B7846083BF08958FB5B9
:100380008E7F8FBD8FB582608FBD8EB588608EBD2C
:100390008EB580618EBD1BBC1ABC19BC18BC8FEF1A
:1003A00090E097BD86BD8EB580648EBD8FB58F7B86
:1003B0008FBD8FB580688FBD8FB58F7E8FBD8FB598
:1003C00080628FBD89B78B7F89BF89B78F7E89BFD8
:1003D00089B7877F89BF89B78F7D89BF8EB5887FB1
:1003E0008EBD8EB582608EBD089585B5806485BD55
:1003F00085B5886085BD85B58F7E85BD85B58062F4
:1004000085BD13BC85B5887F85BD85B5846085BDF8
:10041000089582BF08959DBD8CBD089584BD089543
:100420008CBF08959BBD8ABD089599BD88BD089570
:1004300083BD089597BD86BD089582B708952CB5F4
:100440003DB5C901089584B508959BBD8ABD089541
:100450008EB580648EBD89B7806289BF0895813072
:1004600029F48EB580648EBD80E00895882311F054
:1004700081E008958EB58F7B8EBD80E0089589B7A9
:10048000806289BF089589B78F7D89BF089526B599
:1004900037B5C901089581B5887F81BD81B5866072
:1004A00081BD089581B5886081BD089581B5886159
:1004B00081BD11BC0895009711F482E00895E62FE4
:1004C000F0E0EE0FFF1FE751FA4F9183808380E049
:1004D00008951F920F920FB60F9211242F933F93FE
:1004E0004F935F936F937F938F939F93AF93BF933C
:1004F000EF93FF93E091FF05F0910006309709F02C
:100500000995FF91EF91BF91AF919F918F917F914D
:100510006F915F914F913F912F910F900FBE0F9070
:100520001F9018951F920F920FB60F9211242F93C0
:100530003F934F935F936F937F938F939F93AF936B
:10054000BF93EF93FF93E091FD05F091FE05309787
:1005500009F00995FF91EF91BF91AF919F918F9114
:100560007F916F915F914F913F912F910F900FBEAF
:100570000F901F9018951F920F920FB60F92112493
:100580002F933F934F935F936F937F938F939F939B
:10059000AF93BF93EF93FF93E091FB05F091FC05C0
:1005A000309709F00995FF91EF91BF91AF919F911D
:1005B0008F917F916F915F914F913F912F910F900C
:1005C0000FBE0F901F9018951F920F920FB60F92AB
:1005D00011242F933F934F935F936F937F938F9348
:1005E0009F93AF93BF93EF93FF93E091F905F09141
:1005F000FA05309709F00995FF91EF91BF91AF91FE
:100600009F918F917F916F915F914F913F912F912A
:100610000F900FBE0F901F9018951F920F920FB65C
:100620000F9211242F933F934F935F936F937F9378
:100630008F939F93AF93BF93EF93FF93E091F70551
:10064000F091F805309709F00995FF91EF91BF916E
:10065000AF919F918F917F916F915F914F913F915A
:100660002F910F900FBE0F901F9018951F920F9211
:100670000FB60F9211242F933F934F935F936F9375
:100680007F938F939F93AF93BF93EF93FF93E091EB
:10069000F505F091F605309709F00995FF91EF9176
:1006A000BF91AF919F918F917F916F915F914F918A
:1006B0003F912F910F900FBE0F901F9018951F9292
:1006C0000F920FB60F9211242F933F934F935F9386
:1006D0006F937F938F939F93AF93BF93EF93FF930A
:1006E000E091F305F091F405309709F00995FF9139
:1006F000EF91BF91AF919F918F917F916F915F919A
:100700004F913F912F910F900FBE0F901F90189512
:100710001F920F920FB60F9211242F933F934F9376
:100720005F936F937F938F939F93AF93BF93EF9359
:10073000FF93E091F105F091F205309709F00995EA
:10074000FF91EF91BF91AF919F918F917F916F91A9
:100750005F914F913F912F910F900FBE0F901F907F
:100760001895FC01009709F474C04581442309F4ED
:1007700070C03481332309F46CC02681222309F42C
:1007800068C05281552309F464C07081772309F44D
:1007900060C06381662309F45CC09181992309F4E8
:1007A00058C0413011F081E002C06A9A80E03323E2
:1007B00021F0313021F081E003C06B9801C06B9AC9
:1007C0002330B9F0243028F4213069F0223068F465
:1007D00008C02530A1F0253078F0263091F081E076
:1007E00013C0689803C0689805C0689A6998709AA1
:1007F0000BC0689A699807C06898699AF8CF68989A
:1008000001C0689A699A7098552331F0513011F0FF
:1008100081E003C06D9801C06D9A662321F06130BC
:1008200021F081E003C06C9A01C06C98772321F01D
:10083000713021F081E003C06F9801C06F9A992355
:1008400021F0913021F081E008956E9808956E9A1C
:10085000089582E00895982FFB018091FB0588237D
:1008600011F083E008959FB980E090E0A0E0B0E04F
:1008700003C00196A11DB11D779B06C08051974210
:10088000A040B04051F40DC0803127E2920720E033
:10089000A20720E0B20769F704C08FB1808380E02F
:1008A00001C084E01092FB050895DF92EF92FF9261
:1008B0000F931F93CF93DF937B01D42E0097A1F06A
:1008C0006115710589F08C01C0E0D0E009C0B70165
:1008D0006C0F7D1FF80181918F010E942B042196DE
:1008E000CD15A8F380E001C082E0DF91CF911F9188
:1008F0000F91FF90EF90DF900895FC018091FB0530
:10090000882311F083E00895309739F1A081B181F7
:10091000109719F14281538141155105F1F025815C
:10092000368121153105C9F081E08093FB05B09334
:10093000FF05A093FE055093FA054093F9058481C5
:10094000809300063093FD052093FC05109201066C
:100950008C918FB96F9A80E0089582E008951F927C
:100960000F920FB60F9211242F933F934F935F93E3
:100970006F937F938F939F93AF93BF93EF93FF9367
:10098000909101068FB1E091F905F091FA05E90F18
:10099000F11D80839F5F9093010680910006981758
:1009A00059F41092FB056F98E091FC05F091FD055C
:1009B000309751F0099508C0E091FE05F091FF05D0
:1009C000E90FF11D80818FB9FF91EF91BF91AF9138
:1009D0009F918F917F916F915F914F913F912F9157
:1009E0000F900FBE0F901F9018956D986C9A81E034
:1009F00065E041E00E94820681E067E041E00E94FC
:100A000082066B986A98689A699870986F986E9A3F
:100A100008958FB780688FBF08958FB78F778FBF86
:100A2000089584B7806484BF0895E82F762F862FB9
:100A30008650823008F069C0770F7C50E13009F4AD
:100A40004CC0E130D0F1E23021F0E33009F05DC07C
:100A50001BC065B7472F50E021E030E0C901072EE9
:100A600002C0880F991F0A94E2F78095862385BFFC
:100A700085B74F5F5F4F02C0220F331F4A95E2F7E1
:100A80002095282325BF41C065B7472F50E081E05E
:100A900090E09C01072E02C0220F331F0A94E2F758
:100AA000622B65BF25B74F5F5F4F02C0880F991F4C
:100AB0004A95E2F78095822327C065B7272F30E05B
:100AC00041E050E0CA01072E02C0880F991F0A9426
:100AD000E2F78095862385BF0EC065B7272F30E0EB
:100AE00041E050E0CA01072E02C0880F991F0A9406
:100AF000E2F7682B65BF85B72F5F3F4F02C0440FF9
:100B0000551F2A95E2F7842B85BF753061F4EE23DB
:100B100019F0E13041F404C084B78F7B84BF08959D
:100B200084B7806484BF0895382F8550833010F0D7
:100B300081E008952BB781E090E002C0880F991FF3
:100B40003A95E2F7809582238BBF80E00895382F95
:100B50008550833010F081E008952BB781E090E05C
:100B600002C0880F991F3A95E2F7282B2BBF80E02F
:100B700008959AB721E030E002C0220F331F8A9512
:100B8000E2F7922B9ABF08954AB721E030E0082E91
:100B900002C0220F331F0A94E2F750E024233523CA
:100BA00002C0359527958A95E2F7822F0895009720
:100BB000B1F0663029F490930306809302060DC0CD
:100BC000673029F4909305068093040606C06530CB
:100BD00031F4909307068093060680E0089581E043
:100BE00008951F920F920FB60F9211242F933F93E7
:100BF0004F935F936F937F938F939F93AF93BF9325
:100C0000EF93FF93E0910206F0910306309721F0F5
:100C100009958AB780648ABFFF91EF91BF91AF9128
:100C20009F918F917F916F915F914F913F912F9104
:100C30000F900FBE0F901F9018951F920F920FB636
:100C40000F9211242F933F934F935F936F937F9352
:100C50008F939F93AF93BF93EF93FF93E09104061D
:100C6000F0910506309721F009958AB780688ABF10
:100C7000FF91EF91BF91AF919F918F917F916F9174
:100C80005F914F913F912F910F900FBE0F901F904A
:100C900018951F920F920FB60F9211242F933F9326
:100CA0004F935F936F937F938F939F93AF93BF9374
:100CB000EF93FF93E0910606F0910706309721F03D
:100CC00009958AB780628ABFFF91EF91BF91AF917A
:100CD0009F918F917F916F915F914F913F912F9154
:100CE0000F900FBE0F901F9018959FBB8EBB6DBBD2
:100CF000E29AE19AE199FECF08958EBB9FBBE09AFC
:100D00008DB30895843008F077C0683008F074C05F
:100D10004130B1F5813099F0813030F08230D1F03E
:100D2000833009F06BC021C02AB381E090E002C09B
:100D3000880F991F6A95E2F7282B2ABB5BC027B35F
:100D400081E090E002C0880F991F6A95E2F7282B96
:100D500027BB50C024B381E090E002C0880F991FE8
:100D60006A95E2F7282B24BB45C021B381E090E0CF
:100D700002C0880F991F6A95E2F7282B21BB3AC061
:100D80004423D1F5813099F0813028F08230D9F0B8
:100D90008330A1F524C02AB381E090E002C0880F1F
:100DA000991F6A95E2F7809582238ABB23C027B3F7
:100DB00081E090E002C0880F991F6A95E2F7809564
:100DC000822387BB17C024B381E090E002C0880F64
:100DD000991F6A95E2F78095822384BB0BC021B3EB
:100DE00081E090E002C0880F991F6A95E2F7809534
:100DF000822381BB81E0089580E0089581E0089519
:100E0000843008F077C0683008F074C04130B1F524
:100E1000813099F0813030F08230D1F0833009F0A8
:100E20006BC021C02BB381E090E002C0880F991FF6
:100E30006A95E2F7282B2BBB5BC028B381E090E0DA
:100E400002C0880F991F6A95E2F7282B28BB50C073
:100E500025B381E090E002C0880F991F6A95E2F700
:100E6000282B25BB45C022B381E090E002C0880F4B
:100E7000991F6A95E2F7282B22BB3AC04423D1F58B
:100E8000813099F0813028F08230D9F08330A1F59B
:100E900024C02BB381E090E002C0880F991F6A95AF
:100EA000E2F7809582238BBB23C028B381E090E0DA
:100EB00002C0880F991F6A95E2F78095822388BB4C
:100EC00017C025B381E090E002C0880F991F6A9592
:100ED000E2F78095822385BB0BC022B381E090E0CE
:100EE00002C0880F991F6A95E2F78095822382BB22
:100EF00081E0089580E0089581E00895FA0184304A
:100F000028F5683018F5813049F0813028F08230BA
:100F100039F08330C9F406C029B305C026B303C035
:100F200023B301C020B381E090E0062E02C0880FF9
:100F3000991F0A94E2F730E08223932302C095952B
:100F400087956A95E2F7808381E0089580E00895AF
:100F50008430C0F56830B0F5813091F0813028F0F0
:100F60008230C9F0833061F521C02BB381E090E07D
:100F700002C0880F991F6A95E2F728272BBB20C073
:100F800028B381E090E002C0880F991F6A95E2F7CC
:100F9000282728BB15C025B381E090E002C0880F48
:100FA000991F6A95E2F7282725BB0AC022B381E082
:100FB00090E002C0880F991F6A95E2F7282722BBAC
:100FC00081E0089580E00895843008F08FC0683093
:100FD00008F08CC0813049F1813038F0823009F45A
:100FE00044C0833009F080C060C0413091F480B7C4
:100FF0008B7F80BF3AB381E090E002C0880F991FD9
:101000006A95E2F7282F209523232ABB2BB3822B46
:101010000AC02BB381E090E002C0880F991F6A9547
:10102000E2F7809582238BBB5FC0413091F480B79B
:101030008B7F80BF37B381E090E002C0880F991F9B
:101040006A95E2F7282F2095232327BB28B3822B0C
:101050000AC028B381E090E002C0880F991F6A950A
:10106000E2F78095822388BB3FC0413091F480B77E
:101070008B7F80BF34B381E090E002C0880F991F5E
:101080006A95E2F7282F2095232324BB25B3822BD2
:101090000AC025B381E090E002C0880F991F6A95CD
:1010A000E2F78095822385BB1FC0413091F480B761
:1010B0008B7F80BF31B381E090E002C0880F991F21
:1010C0006A95E2F7282F2095232321BB22B3822B98
:1010D0000AC022B381E090E002C0880F991F6A9590
:1010E000E2F78095822382BB81E0089580E0089535
:1010F000843090F4813049F0813028F0823039F02A
:10110000833051F406C06ABB05C067BB03C064BB33
:1011100001C061BB81E0089580E00895843090F4BF
:10112000813049F0813028F0823039F0833051F439
:1011300006C06BBB05C068BB03C065BB01C062BB1A
:1011400081E0089580E00895FB01843098F48130B7
:1011500049F0813028F0823039F0833059F406C0EC
:1011600089B305C086B303C083B301C080B3808355
:1011700081E0089580E00895843010F080E00895C3
:10118000813059F0813028F0823059F0833061F499
:101190000DC08BB380958BBB07C088B3809588BB8F
:1011A00003C085B3809585BB81E0089582B38095A7
:1011B00082BB81E00895843010F080E008956F7064
:1011C000813071F0813028F0823089F08330A9F4C9
:1011D00016C08BB3807F8BBB8BB3682B6BBB0DC0F2
:1011E00088B3807F88BB88B3682B68BB06C085B393
:1011F000807F85BB85B3682B65BB81E0089582B392
:10120000807F82BB82B3682B62BB81E0089584300B
:1012100010F080E008956295607F813071F0813038
:1012200028F0823089F08330A9F416C08BB38F7018
:101230008BBB8BB3682B6BBB0DC088B38F7088BB27
:1012400088B3682B68BB06C085B38F7085BB85B338
:10125000682B65BB81E0089582B38F7082BB82B337
:10126000682B62BB81E00895843010F080E008951F
:101270006F70813071F0813028F0823089F08330D6
:10128000A9F416C08AB3807F8ABB8AB3682B6ABB75
:101290000DC087B3807F87BB87B3682B67BB06C051
:1012A00084B3807F84BB84B3682B64BB81E00895E2
:1012B00081B3807F81BB81B3682B61BB81E00895DE
:1012C000843010F080E008956295607F813071F085
:1012D000813028F0823089F08330A9F416C08AB3B7
:1012E0008F708ABB8AB3682B6ABB0DC087B38F70BF
:1012F00087BB87B3682B67BB06C084B38F7084BB82
:1013000084B3682B64BB81E0089581B38F7081BB87
:1013100081B3682B61BB81E00895DF93CF9300D048
:101320000F92CDB7DEB7962F6983672F7A838B83B1
:10133000892F0E94A8070F900F900F90CF91DF91F7
:101340000895DF93CF9300D00F92CDB7DEB7262F4D
:1013500069837A838B83672F813019F4822F40E071
:1013600004C0882321F4822F41E00E9400070F90DF
:101370000F900F90CF91DF910895DF93CF9300D01E
:101380000F92CDB7DEB7262F69837A838B83672FC1
:10139000813019F4822F41E004C0882321F4822F88
:1013A00040E00E9400070F900F900F90CF91DF91C7
:1013B0000895DF93CF9300D00F92CDB7DEB7962F6D
:1013C0006983672F7A838B83892F41E00E9482068D
:1013D0000F900F900F90CF91DF9108951F93CF93AF
:1013E000DF9380E690E00E94A80015E3C8ECD0E00F
:1013F00080E20E945700812F0E94570080E197E20F
:10140000FE013197F1F70197D9F71150103381F7A9
:101410008DE00E94570082E190E06FEF0E94750618
:1014200083E080939C05DF91CF911F9108958BE617
:1014300090E00E94A8008DE00E94570088E790E0AD
:101440000E94A8008DE00E9457001092090680912A
:1014500009068823B9F08AE890E00E94A8008DE090
:101460000E9457008CEA90E00E94A8008DE00E9444
:10147000570088E790E00E94A8008DE00E94570086
:101480001092090682E296E00E947D0080939F05FB
:1014900080919F05882389F480910906882369F447
:1014A000809122068D3071F3809122068F3051F3A6
:1014B00080912206883031F314C080919F058823E3
:1014C000E9F4809109068431C8F4809122068D30B8
:1014D00091F1809122068F3071F18091220688303F
:1014E00021F1809109066091220690E08F5B9F4F69
:1014F0000E947506809109068F5F1AC080919F0532
:10150000882309F0BFCF80910906843108F4BACF4F
:10151000809122068D3079F0809122068F3059F02B
:1015200080912206883009F0ADCF80910906815064
:1015300080930906A7CF80910906863008F487CFEB
:1015400081E190E060E00E9475066091090684E107
:1015500090E00E94750608958CEB90E00E94A80030
:101560008DE00E94570088E790E00E94A8008DE07F
:101570000E9457001092080680910806882381F087
:1015800089EC90E00E94A8008DE00E9457008BEE4D
:1015900090E00E94A8008DE00E945700109208067B
:1015A00082E296E00E947D0080939F0580919F05D6
:1015B000882389F480910806882369F480912206A3
:1015C0008D3071F3809122068F3051F38091220685
:1015D000883031F314C080919F058823E1F4809115
:1015E00008068431C0F4809122068D3081F180910B
:1015F00022068F3061F180912206883011F18091AE
:1016000008066091220690E081960E9475068091FE
:1016100008068F5F19C080919F05882309F6809185
:101620000806843108F4BCCF809122068D3079F011
:10163000809122068F3059F080912206883009F07F
:10164000AFCF80910806815080930806A9CF809182
:101650000806863008F490CF80E190E060E00E94B8
:1016600075066091080683E190E00E947506089572
:101670000F931F938DEF90E00E94A8008DE00E94D1
:10168000570081E080939E0510E082E296E00E9480
:101690007D0080939F0580919F058823A1F41123ED
:1016A00091F4809122068D3081F3809122068F3053
:1016B00061F380912206883041F380912206809365
:1016C0000D0611E0E2CF80919F058823B9F4143113
:1016D000A8F4809122068D3031F1809122068F305E
:1016E00011F1809122068830E1F0E12FF0E0809145
:1016F0002206E35FF94F80831F5FC7CF80919F056C
:10170000882319F6143108F2809122068D3059F0A1
:10171000809122068F3039F080912206883009F0BE
:10172000B4CF1150B2CF809109061817D1F400E060
:1017300013C0202F30E0F901E35FF94F8081882347
:10174000B1F01081C9018F5B9F4F0E947D06181771
:1017500011F010929E050F5F80910906081748F35B
:1017600006C080910906181711F010929E051F916E
:101770000F9108950F931F938CE091E00E94A800B1
:101780008DE00E94570081E080939D0510E082E289
:1017900096E00E947D0080939F0580919F0588239D
:1017A000A1F4112391F4809122068D3081F3809170
:1017B00022068F3061F380912206883041F38091B8
:1017C000220680930D0611E0E2CF80919F058823C9
:1017D000B9F41431A8F4809122068D3031F1809152
:1017E00022068F3011F1809122068830E1F0E12F3E
:1017F000F0E080912206E35FF94F80831F5FC7CF3F
:1018000080919F05882319F6143108F280912206F1
:101810008D3059F0809122068F3039F08091220668
:10182000883009F0B4CF1150B2CF80910806181754
:10183000C9F400E012C0202F30E0F901E35FF94F56
:1018400080818823A9F01081C90181960E947D06BC
:10185000181711F010929D050F5F809109068017EF
:1018600050F706C080910806181711F010929D05D8
:101870001F910F9108950E94BA0B0E94380B80911E
:101880009D05882321F080919E058823B1F58BE189
:1018900091E00E94A8008DE00E94570080919C0575
:1018A000815080939C0560919C0582E190E00E94AC
:1018B000750680919C05882369F088E391E00E9479
:1018C000A80080919C05805D0E9457008DE00E94D9
:1018D0005700D1CF80919C05882369F688E391E079
:1018E0000E94A80080919C05805D0E9457008DE0B9
:1018F0000E9457000E94EE09BECF86E491E00E944C
:10190000A80082E190E06FEF0E94750683E080936B
:101910009C058DE00E9457000895FF920F931F933E
:1019200083E190E00E947D068093080684E190E0C8
:101930000E947D068093090682E190E00E947D0668
:101940008F3F31F082E190E00E947D0680939C05FC
:1019500080E190E00E947D068F3F49F48BE591E0A5
:101960000E94A8008DE00E9457000E94AC0A81E10D
:1019700090E00E947D068F3F49F40E94170A8AE694
:1019800091E00E94A8008DE00E94570080919C0584
:10199000882311F40E94EE09FF240BC00F2D10E0E4
:1019A000C80181960E947D060D5D194FF801808364
:1019B000F39480910806F81688F31F910F91FF9019
:1019C00008956091A0057091A1058091A2050E94E3
:1019D0008D096091A3057091A4058091A5050E94D1
:1019E0008D096091A6057091A7058091A8050E94B8
:1019F0008D096091A9057091AA058091AB050E949F
:101A00008D096091AC057091AD058091AE050E9485
:101A10008D096091AF057091B0058091B1050E946C
:101A20008D096091B2057091B3058091B4050E9453
:101A30008D096091B5057091B6058091B7050E943A
:101A40008D096091B8057091B9058091BA050E9421
:101A50008D096091BB057091BC058091BD050E9408
:101A60008D096091BE057091BF058091C0050E94EF
:101A70008D096091C1057091C2058091C3050E94D6
:101A80008D096091C4057091C5058091C6050E94BD
:101A90008D096091C7057091C8058091C9050E94A4
:101AA0008D096091CA057091CB058091CC050E948B
:101AB0008D096091CD057091CE058091CF050E9472
:101AC0008D096091D0057091D1058091D2050E9459
:101AD0008D096091D3057091D4058091D5050E9440
:101AE0008D096091D6057091D7058091D8050E9427
:101AF0008D096091D9057091DA058091DB050E940E
:101B00008D096091DC057091DD058091DE050E94F4
:101B10008D0908958DE791E00E94A8008DE00E9454
:101B2000570080E991E00E94A80086EA91E00E94B7
:101B3000A8008DE00E94570085EB91E00E94A8006C
:101B40008BEC91E00E94A8008DE00E94570082E299
:101B500096E00E947D0080939F0580919F058823D9
:101B6000B1F5809122068233A9F0833330F48830B6
:101B700041F1813309F051C006C0833391F08433C1
:101B800009F04BC015C06091B8057091B9058091FE
:101B9000BA0514C06091BB057091BC058091BD056C
:101BA0000DC06091BE057091BF058091C00506C053
:101BB0006091C1057091C2058091C3050E948D0995
:101BC00003C08DE00E94570010920C0626C0809141
:101BD0009F05843011F580910C068436C9F48DE0A0
:101BE0000E9457008091DF0581FF09C08AED91E0D6
:101BF0000E94A8008091DF058D7F8093DF058DE036
:101C00000E9457008091DF0581608093DF05089571
:101C100080910C068F5F80930C068091220688309D
:101C200009F095CF08958BEE91E00E94A8008DE019
:101C30000E94570080E991E00E94A80086EA91E0A6
:101C40000E94A8008DE00E94570082E296E00E9468
:101C50007D0080939F0580919F058823F9F48091F2
:101C60002206813329F0823351F08830E9F512C021
:101C70006091AF057091B0058091B10506C060918B
:101C8000B2057091B3058091B4050E948D09109240
:101C90000C062AC08DE00E945700F9CF80919F0565
:101CA000843011F580910C068436C9F48DE00E94D1
:101CB00057008091DF0581FF09C08AED91E00E9405
:101CC000A8008091DF058D7F8093DF058DE00E9465
:101CD00057008091DF0581608093DF050895809132
:101CE0000C068F5F80930C0680912206883009F0E5
:101CF000ACCF08958FEF91E00E94A8008DE00E9484
:101D0000570084E192E00E94A8008DE00E945700F5
:101D100082E296E00E947D0080939F0580919F055E
:101D20008823B9F480912206883069F08133B9F5AF
:101D300010920C066091AC057091AD058091AE05D6
:101D40000E948D092CC010920C068DE00E94570055
:101D500026C080919F05843011F580910C06843651
:101D6000C9F48DE00E9457008091DF0581FF09C012
:101D70008AED91E00E94A8008091DF058D7F80931D
:101D8000DF058DE00E9457008091DF058160809320
:101D9000DF05089580910C068F5F80930C0680917B
:101DA0002206883009F0B4CF089583E292E00E94C1
:101DB000A8008DE00E9457008CE292E00E94A800EB
:101DC0008DE00E9457008FE392E00E94A8008DE012
:101DD0000E94570082E592E00E94A8008DE00E94D8
:101DE000570082E296E00E947D0080939F058091DB
:101DF0009F05882309F055C0809122068233C1F0E7
:101E0000833338F4883009F446C0813309F06FC059
:101E100004C0833309F06BC014C08DE00E945700EA
:101E200080E190E06FEF0E9475060E94AC0A1AC034
:101E30008DE00E94570081E190E06FEF0E947506EF
:101E40000FC08DE00E94570080E190E06FEF0E948C
:101E5000750681E190E06FEF0E9475060E94AC0A62
:101E60000E94170A83E292E00E94A8008DE00E947F
:101E700057008CE292E00E94A8008DE00E9457007B
:101E80008FE392E00E94A8008DE00E94570082E557
:101E900092E00E94A8008DE00E94570010920C066C
:101EA00026C080919F05843011F580910C06843600
:101EB000C9F48DE00E9457008091DF0581FF09C0C1
:101EC0008AED91E00E94A8008091DF058D7F8093CC
:101ED000DF058DE00E9457008091DF0581608093CF
:101EE000DF05089580910C068F5F80930C0680912A
:101EF0002206883009F075CF089580E792E00E94AD
:101F0000A8008DE00E94570081E892E00E94A8009E
:101F100087E992E00E94A8008DE00E94570082E2CB
:101F200096E00E947D0080939F0580919F05882305
:101F3000B9F480912206813329F0823329F0883068
:101F4000A9F50AC080E101C081E167E376E00E9463
:101F50002B0410920C062AC08DE00E945700F9CF86
:101F600080919F05843011F580910C068436C9F468
:101F70008DE00E9457008091DF0581FF09C08AED46
:101F800091E00E94A8008091DF058D7F8093DF059E
:101F90008DE00E9457008091DF0581608093DF050E
:101FA000089580910C068F5F80930C068091220625
:101FB000883009F0B4CF089580EA92E00E94A8002A
:101FC0008DE00E94570081E892E00E94A8008EEA0E
:101FD00092E00E94A8008DE00E94570082E296E005
:101FE0000E947D0080939F0580919F058823E1F5E5
:101FF00080912206813331F0823331F0883009F04C
:1020000059C00AC083E001C084E067E376E00E9423
:102010002B0410920C064EC08DE00E94570086EBF8
:1020200092E00E94A8008DE00E94570087EC92E0A9
:102030000E94A8008DED92E00E94A8008DE00E9411
:1020400057008BEE92E00E94A80081E093E00E948E
:10205000A8008DE00E94570080E193E00E94A80054
:102060008DE00E94570026C080919F05843011F5B5
:1020700080910C068436C9F48DE00E94570080914F
:10208000DF0581FF09C08AED91E00E94A8008091E0
:10209000DF058D7F8093DF058DE00E9457008091E2
:1020A000DF0581608093DF05089580910C068F5FC6
:1020B00080930C0680912206883009F08FCF089516
:1020C0008EE193E00E94A8008DE00E94570081E815
:1020D00092E00E94A8008EEA92E00E94A8008DE0A3
:1020E0000E94570082E296E00E947D0080939F0547
:1020F00080919F058823E1F580912206813331F09C
:10210000823331F0883009F059C00AC081E001C043
:1021100082E067E376E00E942B0410920C064EC02A
:102120008DE00E94570086EB92E00E94A8008DE0AF
:102130000E94570087EC92E00E94A8008DED92E08B
:102140000E94A8008DE00E9457008BEE92E00E9452
:10215000A80081E093E00E94A8008DE00E94570053
:1021600080E193E00E94A8008DE00E94570026C005
:1021700080919F05843011F580910C068436C9F456
:102180008DE00E9457008091DF0581FF09C08AED34
:1021900091E00E94A8008091DF058D7F8093DF058C
:1021A0008DE00E9457008091DF0581608093DF05FC
:1021B000089580910C068F5F80930C068091220613
:1021C000883009F08FCF089580E393E00E94A80043
:1021D0008DE00E94570080E991E00E94A80086EA05
:1021E00091E00E94A8008DE00E94570083E493E0F4
:1021F0000E94A8008DE00E94570082E296E00E94B3
:102200007D0080939F0580919F05882369F58091CB
:102210002206823399F0833330F48830F9F0813329
:1022200009F048C004C0833309F044C010C0609175
:10223000A0057091A1058091A20506C06091A3053B
:102240007091A4058091A5050E948D090AC0609136
:1022500037068FE070E00E942B0403C08DE00E94DF
:10226000570010920C0626C080919F05843011F50E
:1022700080910C068436C9F48DE00E94570080914D
:10228000DF0581FF09C08AED91E00E94A8008091DE
:10229000DF058D7F8093DF058DE00E9457008091E0
:1022A000DF0581608093DF05089580910C068F5FC4
:1022B00080930C0680912206883009F09ECF089505
:1022C00082E593E00E94A8008DE00E94570081E61D
:1022D00093E00E94A80087E793E00E94A8008DE0A9
:1022E0000E94570082E893E00E94A80088E993E0EA
:1022F0000E94A8008DE00E94570083EA93E00E94AC
:10230000A8008DE00E94570082E296E00E947D00C6
:1023100080939F0580919F05882309F04FC080918D
:1023200022068333C1F0843340F4813361F0823379
:1023300070F4883009F068C01EC0843381F08533A2
:1023400009F062C010C010920C068AE00FC0109213
:102350000C068BE00BC010920C068CE007C01092AC
:102360000C068DE003C010920C068EE067E376E069
:102370000E942B0449C010920C068DE00E94570069
:102380008EEA93E00E94A8008DE00E94570080E949
:1023900091E00E94A80086EA91E00E94A8008DE0EA
:1023A0000E9457008FEB93E00E94A80085ED93E018
:1023B0000E94A8008DE00E94570026C080919F05D2
:1023C000843011F580910C068436C9F48DE00E94AA
:1023D00057008091DF0581FF09C08AED91E00E94DE
:1023E000A8008091DF058D7F8093DF058DE00E943E
:1023F00057008091DF0581608093DF05089580910B
:102400000C068F5F80930C0680912206883009F0BD
:102410007BCF08951F938EEA93E00E94A8008DE081
:102420000E94570080E991E00E94A80086EA91E0AE
:102430000E94A8008DE00E94570080EE93E00E9469
:10244000A8008DE00E9457001FEF82E296E00E94F4
:102450007D0080939F0580919F05882389F5809159
:1024600022068233A9F0833330F4883019F18133A6
:1024700009F04CC004C0833309F048C014C0109266
:102480000C066091C4057091C5058091C60508C011
:1024900010920C066091C7057091C8058091C9051E
:1024A0000E948D0933C010920C060E946011109397
:1024B00022062CC010920C068DE00E94570026C008
:1024C00080919F05843011F580910C068436C9F403
:1024D0008DE00E9457008091DF0581FF09C08AEDE1
:1024E00091E00E94A8008091DF058D7F8093DF0539
:1024F0008DE00E9457008091DF0581608093DF05A9
:102500000AC080910C068F5F80930C068091220692
:10251000883009F09ACF1F91089582E593E00E94D8
:10252000A8008DE00E94570081E693E00E94A80079
:1025300087E793E00E94A8008DE00E94570082E8A0
:1025400093E00E94A80088E993E00E94A8008DE033
:102550000E94570083EA93E00E94A8008DE00E9449
:10256000570082E296E00E947D0080939F05809153
:102570009F05882309F04FC0809122068333C1F064
:10258000843340F4813361F0823370F4883009F091
:1025900068C01EC0843381F0853309F062C010C06A
:1025A00010920C0685E00FC010920C0686E00BC05E
:1025B00010920C0687E007C010920C0688E003C05A
:1025C00010920C0689E067E376E00E942B0449C074
:1025D00010920C068DE00E9457008BEE93E00E9453
:1025E000A8008DE00E94570080E991E00E94A800B9
:1025F00086EA91E00E94A8008DE00E9457008FEBD0
:1026000093E00E94A80085ED93E00E94A8008DE071
:102610000E94570026C080919F05843011F580915B
:102620000C068436C9F48DE00E9457008091DF05C6
:1026300081FF09C08AED91E00E94A8008091DF052A
:102640008D7F8093DF058DE00E9457008091DF052C
:1026500081608093DF05089580910C068F5F8093E1
:102660000C0680912206883009F07BCF08951F93D5
:102670008BEE93E00E94A8008DE00E94570080E955
:1026800091E00E94A80086EA91E00E94A8008DE0F7
:102690000E9457008FEB93E00E94A80085ED93E025
:1026A0000E94A8008DE00E9457001FEF82E296E092
:1026B0000E947D0080939F0580919F05882309F0EB
:1026C0003FC0809122068233B9F0833330F48830E2
:1026D00089F1813309F05AC006C08333B1F08433E5
:1026E00009F054C01DC010920C066091CA0570918B
:1026F000CB058091CC0511C010920C066091CD05E0
:102700007091CE058091CF0508C010920C066091A3
:10271000D0057091D1058091D2050E948D0936C0F7
:1027200010920C068DE00E9457000E948D121093AB
:1027300022062CC010920C068DE00E94570026C085
:1027400080919F05843011F580910C068436C9F480
:102750008DE00E9457008091DF0581FF09C08AED5E
:1027600091E00E94A8008091DF058D7F8093DF05B6
:102770008DE00E9457008091DF0581608093DF0526
:102780000AC080910C068F5F80930C068091220610
:10279000883009F08BCF1F9108951F93CF93DF935B
:1027A00086EB92E00E94A8008DE00E94570087EC23
:1027B00092E00E94A8008DED92E00E94A8008DE0BA
:1027C0000E9457008BEE92E00E94A80081E093E007
:1027D0000E94A8008DE00E94570080E193E00E94D3
:1027E000A8008DE00E945700C8ECD0E01FEF82E205
:1027F00096E00E947D0080939F0580919F0588232D
:1028000009F05BC080912206833311F1843340F4D8
:10281000813361F0823390F4883009F074C047C08E
:10282000843331F1853309F06EC036C08DE00E94EB
:10283000570010920C060E94601007C08DE00E94A5
:10284000570010920C060E94DC0F109322065BC00A
:1028500010920C0681E067E376E00E942B0484EF7F
:1028600091E0FE013197F1F70197D9F783E00FC0AE
:1028700010920C0682E067E376E00E942B0484EF5E
:1028800091E0FE013197F1F70197D9F784E067E312
:1028900076E00E942B0437C010920C066091B505BB
:1028A0007091B6058091B7050E948D092CC01092D9
:1028B0000C068DE00E94570026C080919F05843051
:1028C00011F580910C068436C9F48DE00E94570002
:1028D0008091DF0581FF09C08AED91E00E94A80088
:1028E0008091DF058D7F8093DF058DE00E9457008A
:1028F0008091DF0581608093DF050AC080910C061E
:102900008F5F80930C0680912206883009F06FCF8C
:10291000DF91CF911F91089582E593E00E94A80076
:102920008DE00E94570081E693E00E94A80087E7AF
:1029300093E00E94A8008DE00E94570082E893E097
:102940000E94A80088E993E00E94A8008DE00E9400
:10295000570083EA93E00E94A8008DE00E94570090
:1029600082E296E00E947D0080939F0580919F0502
:10297000882309F049C0809122068333C1F0843353
:1029800040F4813361F0823370F4883009F062C022
:102990001CC0843381F0853309F05CC010C01092F4
:1029A0000C0680E00FC010920C068FE30BC0109253
:1029B0000C068EE707C010920C068DEB03C0109238
:1029C0000C068FEF0E94180245C010920C068DE095
:1029D0000E94570080E094E00E94A8008DE00E94D1
:1029E000570080E991E00E94A80086EA91E00E94E9
:1029F000A8008DE00E94570089E194E00E94A800A1
:102A00008DE00E94570026C080919F05843011F50B
:102A100080910C068436C9F48DE00E9457008091A5
:102A2000DF0581FF09C08AED91E00E94A800809136
:102A3000DF058D7F8093DF058DE00E945700809138
:102A4000DF0581608093DF05089580910C068F5F1C
:102A500080930C0680912206883009F081CF08957A
:102A60001F9386E294E00E94A8008DE00E94570028
:102A700080E991E00E94A80086EA91E00E94A80007
:102A80008DE00E94570089E194E00E94A8008DE04B
:102A90000E9457001FEF82E296E00E947D00809323
:102AA0009F0580919F05882389F5809122068233B6
:102AB000A9F0833330F4883019F1813309F04CC028
:102AC00004C0833309F048C014C010920C06609112
:102AD000D9057091DA058091DB0508C010920C06CB
:102AE0006091DC057091DD058091DE050E948D0905
:102AF00033C010920C060E948C14109322062CC036
:102B000010920C068DE00E94570026C080919F0510
:102B1000843011F580910C068436C9F48DE00E9452
:102B200057008091DF0581FF09C08AED91E00E9486
:102B3000A8008091DF058D7F8093DF058DE00E94E6
:102B400057008091DF0581608093DF050AC0809186
:102B50000C068F5F80930C06809122068D3009F061
:102B60009ACF1F9108951F9381E494E00E94A800DA
:102B70008DE00E94570080E991E00E94A80086EA5B
:102B800091E00E94A8008DE00E94570089E194E046
:102B90000E94A8008DE00E9457001FEF82E296E09D
:102BA0000E947D0080939F0580919F05882389F571
:102BB000809122068233A9F0833330F4883019F1F2
:102BC000813309F04CC004C0833309F048C014C0FD
:102BD00010920C066091D3057091D4058091D505B3
:102BE00008C010920C066091D6057091D7058091AF
:102BF000D8050E948D0933C010920C060E948C14D7
:102C0000109322062CC010920C068DE00E945700F3
:102C100026C080919F05843011F580910C06843682
:102C2000C9F48DE00E9457008091DF0581FF09C043
:102C30008AED91E00E94A8008091DF058D7F80934E
:102C4000DF058DE00E9457008091DF058160809351
:102C5000DF050AC080910C068F5F80930C0680917F
:102C60002206883009F09ACF1F91089582E593E0FB
:102C70000E94A8008DE00E94570081E693E00E9428
:102C8000A80087E793E00E94A8008DE00E9457000B
:102C900082E893E00E94A80088E993E00E94A800DF
:102CA0008DE00E94570083EA93E00E94A8008DE027
:102CB0000E94570082E296E00E947D0080939F056B
:102CC00080919F05882309F049C0809122068333B3
:102CD000C1F0843340F4813361F0823370F4883082
:102CE00009F062C01CC0843381F0853309F05CC0F8
:102CF00010C010920C0680E00FC010920C068FE3FB
:102D00000BC010920C068EE707C010920C068DEBDC
:102D100003C010920C068FEF0E94100245C0109263
:102D20000C068DE00E9457008CE594E00E94A800FC
:102D30008DE00E94570080E991E00E94A80086EA99
:102D400091E00E94A8008DE00E94570080E794E087
:102D50000E94A8008DE00E94570026C080919F0528
:102D6000843011F580910C068436C9F48DE00E9400
:102D700057008091DF0581FF09C08AED91E00E9434
:102D8000A8008091DF058D7F8093DF058DE00E9494
:102D900057008091DF0581608093DF050895809161
:102DA0000C068F5F80930C0680912206883009F014
:102DB00081CF08951F938CE594E00E94A8008DE0D8
:102DC0000E94570080E991E00E94A80086EA91E005
:102DD0000E94A8008DE00E94570080E794E00E94C6
:102DE000A8008DE00E9457001FEF82E296E00E944B
:102DF0007D0080939F0580919F05882389F58091B0
:102E000022068233A9F0833330F4883019F18133FC
:102E100009F04CC004C0833309F048C014C01092BC
:102E20000C066091A6057091A7058091A80508C0C1
:102E300010920C066091A9057091AA058091AB05CE
:102E40000E948D0933C010920C060E943616109312
:102E500022062CC010920C068DE00E94570026C05E
:102E600080919F05843011F580910C068436C9F459
:102E70008DE00E9457008091DF0581FF09C08AED37
:102E800091E00E94A8008091DF058D7F8093DF058F
:102E90008DE00E9457008091DF0581608093DF05FF
:102EA0000AC080910C068F5F80930C0680912206E9
:102EB000883009F09ACF1F9108951F9380E06FEF3B
:102EC0000E94780882E06FEF0E94780883E06EEF3E
:102ED0000E94780881E060E041E00E94820681E083
:102EE00061E041E00E9482060E9449000E94F504D0
:102EF0000E948D0C81E063E041E00E9482060E9406
:102F0000AB0183E067E041E00E9482060E94F50188
:102F10000E94090585E00E94A70583E065E00E9404
:102F2000150581EE9CE065E00E94D70581E062E036
:102F300040E00E9482061AE08091DF0580FF2CC0ED
:102F400010920C0682608093DF058BE794E00E946C
:102F5000A8008DE00E94570082E296E00E947D006A
:102F600080939F0580919F058823B1F78091220669
:102F70008D3091F70E943B0C86E994E00E94A800F6
:102F800083E296E00E94A8008DE00E9457008091A5
:102F9000DF058E7F8093DF058FE994E00E94A80013
:102FA0008DE00E9457008DEA94E00E94A80083EC17
:102FB00094E00E94A8008DE00E94570081ED94E00B
:102FC0000E94A80087EE94E00E94A8008DE00E9475
:102FD000570084EF94E00E94A8008AE095E00E94E8
:102FE000A8008DE00E9457008EE195E00E94A800A5
:102FF00084E395E00E94A8008DE00E94570080E4E1
:1030000095E00E94A80086E595E00E94A8008DE06A
:103010000E94570082E695E00E94A80088E795E0AC
:103020000E94A8008DE00E94570084E895E00E946D
:10303000A8008DE00E94570010920A0610920B061D
:1030400082E296E00E947D0080939F0580919F051B
:10305000882399F480910A06882379F480912206C6
:103060008D3041F0809122068F3021F08091220630
:10307000883009F510920C06E3CF80919F058823D4
:1030800061F580910A06833040F5809122068D30EB
:10309000A1F1809122068F3081F180912206883043
:1030A00051F410920C0680910B066AE00E941B19E5
:1030B00080930B062BC010920C0680912206805341
:1030C0008093220680910B0620912206819FC001E9
:1030D0001124280F20930B061FC080919F05882381
:1030E00009F580910A068330E8F0809122068D3040
:1030F00021F0809122068F3019F410920C063AC00C
:1031000080912206883031F410920C0680910A06D4
:10311000815005C010920C0680910A068F5F809343
:103120000A068ECF80919F05843009F089CF809167
:103130000C068436C9F48DE00E9457008091DF05AB
:1031400081FF09C08AED91E00E94A8008091DF050F
:103150008D7F8093DF058DE00E9457008091DF0511
:1031600081608093DF0506C080910C068F5F80939D
:103170000C0666CF80910B068E3038F08DE895E016
:103180000E94A8008DE00E94570080910B068E30AF
:1031900008F052CF80910B068730A9F1883078F47F
:1031A000833029F1843030F48130D9F0823009F055
:1031B000C3CE1AC0853009F1863010F51BC08A30A5
:1031C00059F18B3030F4883009F1893009F0B4CEF0
:1031D00020C08C3039F18C3010F18D3009F0ACCE3C
:1031E00024C00E94CD13A8CE0E943713A5CE0E9402
:1031F0000A12A2CE0E94DA169FCE0E94B3159CCE70
:103200000E94301599CE0E947A0E96CE0E94E4104C
:1032100093CE0E94130E90CE0E948A0D8DCE0E94F6
:103220007D0F8ACE0E94D50E87CE8091DF0581600A
:103230008093DF0581CE991B79E004C0991F961712
:1032400008F0961B881F7A95C9F780950895F89421
:02325000FFCFAE
:1032520054696D65206F7574203A0053657420506F
:10326200617373576F7264004D6178696D756D207B
:1032720063686172203A2032300050617373576F75
:103282007264204D757374206265204D6F726520E3
:103292007468616E20352043686172005265205364
:1032A20065742050617373576F72640053657420A4
:1032B200557365724E616D6500557365724E616D31
:1032C20065204D757374206265204D6F72652074A0
:1032D20068616E2035204368617200526520456E38
:1032E20074657220557365724E616D650043686541
:1032F200636B2050617373576F7264004368656338
:103302006B20557365724E616D6500496E76616C16
:10331200696420557365726E616D65206F7220500D
:10332200617373776F7264005472696573204C65C0
:103332006674203A20005375636365737366756C17
:103342006C79205369676E20696E00506C656173F9
:1033520065205369676E205570005361766564205D
:103362005375636365737366756C6C790042616C47
:1033720061636F6E204F7074696F6E73203A200024
:10338200312D204C656431204F4E2F4F4646202070
:10339200202020202000322D204C656432204F4E08
:1033A2002F4F464600332D204C656431204F4E2F5F
:1033B2004F46462020202020202000342D204C651E
:1033C2006432204F4E2F4F46460053657373696F28
:1033D2006E2054696D65204F757400436F72726977
:1033E200646F72204F7074696F6E73203A200042CE
:1033F20061746820526F6F6D204F7074696F6E73C5
:10340200203A2000312D204C656431204F4E2F4F41
:1034120046460053657474696E673A00312D204345
:1034220068616E676520557365724E616D65003225
:103432002D204368616E67652050617373576F7208
:103442006400322D204368616E6765205573657292
:103452004E616D6520262050617373576F72640050
:103462004175746F2046616E20436F6E74726F6C8B
:1034720000312D204F70656E20202020202020203A
:1034820020202020202000322D20436C6F73650005
:1034920053616C6F6E20446F6F72203A2000322DA0
:1034A200204C6F636B005374616972204F707469B2
:1034B2006F6E73203A2000312D205265636570745F
:1034C200696F6E20446F6F722020202000322D2001
:1034D20053616C6F6E20446F6F7200332D204F70FA
:1034E200656E20446F6F72732020202020202020E0
:1034F20000342D20436C6F736520446F6F7273002C
:10350200352D204C6564204F4E2F4F4646005265A4
:1035120063657074696F6E20446F6F72203A200089
:103522004B69746368656E204F7074696F6E7320A7
:103532003A2000332D204B69746368656E20466122
:103542006E0046616E20436F6E74726F6C203A207B
:1035520000312D2046616E204F66662020202020FB
:1035620020202020202000322D2053706565642009
:103572003100332D205370656564203220202020D5
:103582002020202020202000342D205370656564E7
:10359200203300352D20537065656420340053615B
:1035A2006C6F6E204F7074696F6E73203A20003317
:1035B2002D204C656433204F4E2F4F46462020204D
:1035C2002020202000342D205265632046616E00A9
:1035D200332D205265632046616E0052656365702B
:1035E20074696F6E204F7074696F6E73203A200099
:1035F2004368696C6472656E20526F6F6D204F7004
:1036020074696F6E73203A2000332D204368696C11
:10361200642046616E004368696C6472656E205274
:103622006F6F6D2032204F7074696F6E73203A2075
:10363200004368696C6472656E20526F6F6D203151
:10364200204F7074696F6E73203A200042656420C7
:10365200526F6F6D204F7074696F6E73203A200045
:10366200332D204265642046616E0050726573738B
:1036720020656E74657220746F206F70656E2073A2
:10368200797374656D0057656C636F6D65200053C7
:10369200656C65637420526F6F6D203A0031202D86
:1036A20020537461697220202020202020202020B5
:1036B20020200032202D20526563657074696F6E80
:1036C2000033202D2053616C6F6E2020202020209B
:1036D2002020202020200034202D2042656420520A
:1036E2006F6F6D0035202D204368696C6472656EC2
:1036F20020526F6F6D203120200036202D2043682C
:10370200696C6472656E20526F6F6D2032003720D3
:103712002D204261746820526F6F6D20202020207E
:103722002020200038202D204B69746368656E00CC
:1037320039202D20436F727269646F72202020201D
:1037420020202020200031302D2042616C61636FE7
:103752006E0031312D204175746F2046616E204319
:103762006F6E74726F6C200031322D205365747449
:10377200696E670031332D204558495400496E76F1
:10378200616C69642043686F69736500030101011C
:103792000000010001010002010003010004010018
:1037A20005010006010007010302010303010304EE
:1037B20001010101030601010001020001020101F0
:1037C20002020102030102040102050102060103D1
:00000001FF
