:100000000C942A000C94F1050C941D060C944906DE
:100010000C9488030C945F030C9436030C940D032A
:100020000C94E4020C94BB020C9492020C946902AE
:100030000C94AF040C942E010C9447000C946D01A9
:100040000C9447000C9447000C9447000C94470014
:100050000C94470011241FBECFE5D8E0DEBFCDBF12
:1000600015E0A0E6B0E0E6E9F0E302C005900D92ED
:10007000A43EB107D9F716E0A4EEB5E001C01D9289
:10008000AC33B107E1F70E948A160C9449180C941E
:100090000000599810BC83E389B95898529886E8B3
:1000A00080BD579856985598549A539A0895282F7A
:1000B0008091E605882311F083E0089580E090E0C8
:1000C000A0E0B0E003C00196A11DB11D5D9909C07B
:1000D000803137E2930730E0A30730E0B30799F7A8
:1000E00008C080519742A040B04019F02CB980E080
:1000F00001C084E01092E6050895FC01009711F418
:1001000082E008958091E605882311F083E0089548
:1001100080E090E0A0E0B0E003C00196A11DB11D19
:100120005F9909C0803127E2920720E0A20720E012
:10013000B20799F709C080519742A040B04021F022
:100140008CB1808380E001C084E01092E6050895C0
:10015000CF93DF93009711F482E00AC0EC0105C051
:100160000E9457002196882319F488818823C1F7BB
:10017000DF91CF910895FC018091E605882311F06D
:1001800083E008953097A9F06115710591F081E041
:100190008093E605F093E505E093E4057093E805A8
:1001A0006093E7051092EC0580818CB9569A80E047
:1001B000089582E00895AF92BF92CF92DF92EF92BE
:1001C000FF920F931F93CF93DF93EC015A016B01C2
:1001D000009711F482E016C0EE24FF2487010CC0C2
:1001E000CE018E0D9F1D0E947D00882359F4089436
:1001F000E11CF11C011D111DEA14FB040C051D0579
:1002000078F380E0DF91CF911F910F91FF90EF90F5
:10021000DF90CF90BF90AF900895BC018091E6052C
:10022000882311F083E0089561157105A9F0211567
:10023000310591F081E08093E6057093EA056093C3
:10024000E9053093E8052093E7054093EB0510920C
:10025000EC05579A80E0089582E008951F920F926E
:100260000FB60F9211242F933F934F935F936F9389
:100270007F938F939F93AF93BF93EF93FF9390914F
:10028000EC058CB1E091E905F091EA05E90FF11D6B
:1002900080839F5F9093EC058091EB05981761F444
:1002A0001092EC051092E605E091E705F091E80563
:1002B000309709F009955798FF91EF91BF91AF9151
:1002C0009F918F917F916F915F914F913F912F916E
:1002D0000F900FBE0F901F9018951F920F920FB6A0
:1002E0000F9211242F933F934F935F936F937F93BC
:1002F0008F939F93AF93BF93EF93FF938091EC0500
:100300008F5F8093EC05E091E405F091E505E80F3F
:10031000F11DE081EE2369F41092EC051092E605E0
:10032000E091E705F091E805309709F009955698B6
:1003300001C0ECB9FF91EF91BF91AF919F918F9167
:100340007F916F915F914F913F912F910F900FBED1
:100350000F901F90189583B7806483BF83B7886020
:1003600083BF83B78F7E83BF83B7806283BF1CBE8A
:1003700083B7887F83BF83B7856083BF08958FB5B8
:100380008E7F8FBD8FB582608FBD8EB588608EBD2C
:100390008EB580618EBD1BBC1ABC19BC18BC8FEF1A
:1003A00090E097BD86BD8EB580648EBD8FB58F7B86
:1003B0008FBD8FB580688FBD8FB58F7E8FBD8FB598
:1003C00080628FBD89B78B7F89BF89B78F7E89BFD8
:1003D00089B7877F89BF89B78F7D89BF8EB5887FB1
:1003E0008EBD8EB582608EBD089585B5806485BD55
:1003F00085B5886085BD85B58F7E85BD85B58062F4
:1004000085BD13BC85B5887F85BD85B5856085BDF7
:10041000089582BF08959DBD8CBD089584BD089543
:100420008CBF08959BBD8ABD089599BD88BD089570
:1004300083BD089597BD86BD089582B708952CB5F4
:100440003DB5C901089584B508959BBD8ABD089541
:100450008EB580648EBD89B7806289BF0895813072
:1004600029F48EB580648EBD80E00895882311F054
:1004700081E008958EB58F7B8EBD80E0089589B7A9
:10048000806289BF089589B78F7D89BF089526B599
:1004900037B5C901089581B5887F81BD81B5866072
:1004A00081BD089581B5886081BD089581B5886159
:1004B00081BD11BC0895009711F482E00895E62FE4
:1004C000F0E0EE0FFF1FE351FA4F9183808380E04D
:1004D00008951F920F920FB60F9211242F933F93FE
:1004E0004F935F936F937F938F939F93AF93BF933C
:1004F000EF93FF93E0910306F0910406309709F023
:100500000995FF91EF91BF91AF919F918F917F914D
:100510006F915F914F913F912F910F900FBE0F9070
:100520001F9018951F920F920FB60F9211242F93C0
:100530003F934F935F936F937F938F939F93AF936B
:10054000BF93EF93FF93E0910106F091020630977D
:1005500009F00995FF91EF91BF91AF919F918F9114
:100560007F916F915F914F913F912F910F900FBEAF
:100570000F901F9018951F920F920FB60F92112493
:100580002F933F934F935F936F937F938F939F939B
:10059000AF93BF93EF93FF93E091FF05F0910006B7
:1005A000309709F00995FF91EF91BF91AF919F911D
:1005B0008F917F916F915F914F913F912F910F900C
:1005C0000FBE0F901F9018951F920F920FB60F92AB
:1005D00011242F933F934F935F936F937F938F9348
:1005E0009F93AF93BF93EF93FF93E091FD05F0913D
:1005F000FE05309709F00995FF91EF91BF91AF91FA
:100600009F918F917F916F915F914F913F912F912A
:100610000F900FBE0F901F9018951F920F920FB65C
:100620000F9211242F933F934F935F936F937F9378
:100630008F939F93AF93BF93EF93FF93E091FB054D
:10064000F091FC05309709F00995FF91EF91BF916A
:10065000AF919F918F917F916F915F914F913F915A
:100660002F910F900FBE0F901F9018951F920F9211
:100670000FB60F9211242F933F934F935F936F9375
:100680007F938F939F93AF93BF93EF93FF93E091EB
:10069000F905F091FA05309709F00995FF91EF916E
:1006A000BF91AF919F918F917F916F915F914F918A
:1006B0003F912F910F900FBE0F901F9018951F9292
:1006C0000F920FB60F9211242F933F934F935F9386
:1006D0006F937F938F939F93AF93BF93EF93FF930A
:1006E000E091F705F091F805309709F00995FF9131
:1006F000EF91BF91AF919F918F917F916F915F919A
:100700004F913F912F910F900FBE0F901F90189512
:100710001F920F920FB60F9211242F933F934F9376
:100720005F936F937F938F939F93AF93BF93EF9359
:10073000FF93E091F505F091F605309709F00995E2
:10074000FF91EF91BF91AF919F918F917F916F91A9
:100750005F914F913F912F910F900FBE0F901F907F
:100760001895FC01009709F474C04581442309F4ED
:1007700070C03481332309F46CC02681222309F42C
:1007800068C05281552309F464C07081772309F44D
:1007900060C06381662309F45CC09181992309F4E8
:1007A00058C0413011F081E002C06A9A80E03323E2
:1007B00021F0313021F081E003C06B9801C06B9AC9
:1007C0002330B9F0243028F4213069F0223068F465
:1007D00008C02530A1F0253078F0263091F081E076
:1007E00013C0689803C0689805C0689A6998709AA1
:1007F0000BC0689A699807C06898699AF8CF68989A
:1008000001C0689A699A7098552331F0513011F0FF
:1008100081E003C06D9801C06D9A662321F06130BC
:1008200021F081E003C06C9A01C06C98772321F01D
:10083000713021F081E003C06F9801C06F9A992355
:1008400021F0913021F081E008956E9808956E9A1C
:10085000089582E00895982FFB018091FF05882379
:1008600011F083E008959FB980E090E0A0E0B0E04F
:1008700003C00196A11DB11D779B06C08051974210
:10088000A040B04051F40DC0803127E2920720E033
:10089000A20720E0B20769F704C08FB1808380E02F
:1008A00001C084E01092FF050895DF92EF92FF925D
:1008B0000F931F93CF93DF937B01D42E0097A1F06A
:1008C0006115710589F08C01C0E0D0E009C0B70165
:1008D0006C0F7D1FF80181918F010E942B042196DE
:1008E000CD15A8F380E001C082E0DF91CF911F9188
:1008F0000F91FF90EF90DF900895FC018091FF052C
:10090000882311F083E00895309739F1A081B181F7
:10091000109719F14281538141155105F1F025815C
:10092000368121153105C9F081E08093FF05B09330
:100930000306A09302065093FE054093FD058481B3
:10094000809304063093010620930006109205065A
:100950008C918FB96F9A80E0089582E008951F927C
:100960000F920FB60F9211242F933F934F935F93E3
:100970006F937F938F939F93AF93BF93EF93FF9367
:10098000909105068FB1E091FD05F091FE05E90F0C
:10099000F11D80839F5F9093050680910406981750
:1009A00059F41092FF056F98E0910006F09101064E
:1009B000309751F0099508C0E0910206F0910306C6
:1009C000E90FF11D80818FB9FF91EF91BF91AF9138
:1009D0009F918F917F916F915F914F913F912F9157
:1009E0000F900FBE0F901F9018956D986C9A81E034
:1009F00065E041E00E94820681E067E041E00E94FC
:100A000082066B986A98689A699870986F986E9A3F
:100A100008958FB780688FBF08958FB78F778FBF86
:100A2000089584B7806484BF0895E82F762F862FB9
:100A30008650823008F069C0770F7C50E13009F4AD
:100A40004CC0E130D0F1E23021F0E33009F05DC07C
:100A50001BC065B7472F50E021E030E0C901072EE9
:100A600002C0880F991F0A94E2F78095862385BFFC
:100A700085B74F5F5F4F02C0220F331F4A95E2F7E1
:100A80002095282325BF41C065B7472F50E081E05E
:100A900090E09C01072E02C0220F331F0A94E2F758
:100AA000622B65BF25B74F5F5F4F02C0880F991F4C
:100AB0004A95E2F78095822327C065B7272F30E05B
:100AC00041E050E0CA01072E02C0880F991F0A9426
:100AD000E2F78095862385BF0EC065B7272F30E0EB
:100AE00041E050E0CA01072E02C0880F991F0A9406
:100AF000E2F7682B65BF85B72F5F3F4F02C0440FF9
:100B0000551F2A95E2F7842B85BF753061F4EE23DB
:100B100019F0E13041F404C084B78F7B84BF08959D
:100B200084B7806484BF0895382F8550833010F0D7
:100B300081E008952BB781E090E002C0880F991FF3
:100B40003A95E2F7809582238BBF80E00895382F95
:100B50008550833010F081E008952BB781E090E05C
:100B600002C0880F991F3A95E2F7282B2BBF80E02F
:100B700008959AB721E030E002C0220F331F8A9512
:100B8000E2F7922B9ABF08954AB721E030E0082E91
:100B900002C0220F331F0A94E2F750E024233523CA
:100BA00002C0359527958A95E2F7822F0895009720
:100BB000B1F0663029F490930706809306060DC0C5
:100BC000673029F4909309068093080606C06530C3
:100BD00031F490930B0680930A0680E0089581E03B
:100BE00008951F920F920FB60F9211242F933F93E7
:100BF0004F935F936F937F938F939F93AF93BF9325
:100C0000EF93FF93E0910606F0910706309721F0ED
:100C100009958AB780648ABFFF91EF91BF91AF9128
:100C20009F918F917F916F915F914F913F912F9104
:100C30000F900FBE0F901F9018951F920F920FB636
:100C40000F9211242F933F934F935F936F937F9352
:100C50008F939F93AF93BF93EF93FF93E091080619
:100C6000F0910906309721F009958AB780688ABF0C
:100C7000FF91EF91BF91AF919F918F917F916F9174
:100C80005F914F913F912F910F900FBE0F901F904A
:100C900018951F920F920FB60F9211242F933F9326
:100CA0004F935F936F937F938F939F93AF93BF9374
:100CB000EF93FF93E0910A06F0910B06309721F035
:100CC00009958AB780628ABFFF91EF91BF91AF917A
:100CD0009F918F917F916F915F914F913F912F9154
:100CE0000F900FBE0F901F9018959FBB8EBB6DBBD2
:100CF000E29AE19AE199FECF08958EBB9FBBE09AFC
:100D00008DB30895843008F077C0683008F074C05F
:100D10004130B1F5813099F0813030F08230D1F03E
:100D2000833009F06BC021C02AB381E090E002C09B
:100D3000880F991F6A95E2F7282B2ABB5BC027B35F
:100D400081E090E002C0880F991F6A95E2F7282B96
:100D500027BB50C024B381E090E002C0880F991FE8
:100D60006A95E2F7282B24BB45C021B381E090E0CF
:100D700002C0880F991F6A95E2F7282B21BB3AC061
:100D80004423D1F5813099F0813028F08230D9F0B8
:100D90008330A1F524C02AB381E090E002C0880F1F
:100DA000991F6A95E2F7809582238ABB23C027B3F7
:100DB00081E090E002C0880F991F6A95E2F7809564
:100DC000822387BB17C024B381E090E002C0880F64
:100DD000991F6A95E2F78095822384BB0BC021B3EB
:100DE00081E090E002C0880F991F6A95E2F7809534
:100DF000822381BB81E0089580E0089581E0089519
:100E0000843008F077C0683008F074C04130B1F524
:100E1000813099F0813030F08230D1F0833009F0A8
:100E20006BC021C02BB381E090E002C0880F991FF6
:100E30006A95E2F7282B2BBB5BC028B381E090E0DA
:100E400002C0880F991F6A95E2F7282B28BB50C073
:100E500025B381E090E002C0880F991F6A95E2F700
:100E6000282B25BB45C022B381E090E002C0880F4B
:100E7000991F6A95E2F7282B22BB3AC04423D1F58B
:100E8000813099F0813028F08230D9F08330A1F59B
:100E900024C02BB381E090E002C0880F991F6A95AF
:100EA000E2F7809582238BBB23C028B381E090E0DA
:100EB00002C0880F991F6A95E2F78095822388BB4C
:100EC00017C025B381E090E002C0880F991F6A9592
:100ED000E2F78095822385BB0BC022B381E090E0CE
:100EE00002C0880F991F6A95E2F78095822382BB22
:100EF00081E0089580E0089581E00895FA0184304A
:100F000028F5683018F5813049F0813028F08230BA
:100F100039F08330C9F406C029B305C026B303C035
:100F200023B301C020B381E090E0062E02C0880FF9
:100F3000991F0A94E2F730E08223932302C095952B
:100F400087956A95E2F7808381E0089580E00895AF
:100F50008430C0F56830B0F5813091F0813028F0F0
:100F60008230C9F0833061F521C02BB381E090E07D
:100F700002C0880F991F6A95E2F728272BBB20C073
:100F800028B381E090E002C0880F991F6A95E2F7CC
:100F9000282728BB15C025B381E090E002C0880F48
:100FA000991F6A95E2F7282725BB0AC022B381E082
:100FB00090E002C0880F991F6A95E2F7282722BBAC
:100FC00081E0089580E00895843008F08FC0683093
:100FD00008F08CC0813049F1813038F0823009F45A
:100FE00044C0833009F080C060C0413091F480B7C4
:100FF0008B7F80BF3AB381E090E002C0880F991FD9
:101000006A95E2F7282F209523232ABB2BB3822B46
:101010000AC02BB381E090E002C0880F991F6A9547
:10102000E2F7809582238BBB5FC0413091F480B79B
:101030008B7F80BF37B381E090E002C0880F991F9B
:101040006A95E2F7282F2095232327BB28B3822B0C
:101050000AC028B381E090E002C0880F991F6A950A
:10106000E2F78095822388BB3FC0413091F480B77E
:101070008B7F80BF34B381E090E002C0880F991F5E
:101080006A95E2F7282F2095232324BB25B3822BD2
:101090000AC025B381E090E002C0880F991F6A95CD
:1010A000E2F78095822385BB1FC0413091F480B761
:1010B0008B7F80BF31B381E090E002C0880F991F21
:1010C0006A95E2F7282F2095232321BB22B3822B98
:1010D0000AC022B381E090E002C0880F991F6A9590
:1010E000E2F78095822382BB81E0089580E0089535
:1010F000843090F4813049F0813028F0823039F02A
:10110000833051F406C06ABB05C067BB03C064BB33
:1011100001C061BB81E0089580E00895843090F4BF
:10112000813049F0813028F0823039F0833051F439
:1011300006C06BBB05C068BB03C065BB01C062BB1A
:1011400081E0089580E00895FB01843098F48130B7
:1011500049F0813028F0823039F0833059F406C0EC
:1011600089B305C086B303C083B301C080B3808355
:1011700081E0089580E00895843010F080E00895C3
:10118000813059F0813028F0823059F0833061F499
:101190000DC08BB380958BBB07C088B3809588BB8F
:1011A00003C085B3809585BB81E0089582B38095A7
:1011B00082BB81E00895843010F080E008956F7064
:1011C000813071F0813028F0823089F08330A9F4C9
:1011D00016C08BB3807F8BBB8BB3682B6BBB0DC0F2
:1011E00088B3807F88BB88B3682B68BB06C085B393
:1011F000807F85BB85B3682B65BB81E0089582B392
:10120000807F82BB82B3682B62BB81E0089584300B
:1012100010F080E008956295607F813071F0813038
:1012200028F0823089F08330A9F416C08BB38F7018
:101230008BBB8BB3682B6BBB0DC088B38F7088BB27
:1012400088B3682B68BB06C085B38F7085BB85B338
:10125000682B65BB81E0089582B38F7082BB82B337
:10126000682B62BB81E00895843010F080E008951F
:101270006F70813071F0813028F0823089F08330D6
:10128000A9F416C08AB3807F8ABB8AB3682B6ABB75
:101290000DC087B3807F87BB87B3682B67BB06C051
:1012A00084B3807F84BB84B3682B64BB81E00895E2
:1012B00081B3807F81BB81B3682B61BB81E00895DE
:1012C000843010F080E008956295607F813071F085
:1012D000813028F0823089F08330A9F416C08AB3B7
:1012E0008F708ABB8AB3682B6ABB0DC087B38F70BF
:1012F00087BB87B3682B67BB06C084B38F7084BB82
:1013000084B3682B64BB81E0089581B38F7081BB87
:1013100081B3682B61BB81E00895DF93CF9300D048
:101320000F92CDB7DEB7962F6983672F7A838B83B1
:10133000892F0E94A8070F900F900F90CF91DF91F7
:101340000895DF93CF9300D00F92CDB7DEB7262F4D
:1013500069837A838B83672F813019F4822F40E071
:1013600004C0882321F4822F41E00E9400070F90DF
:101370000F900F90CF91DF910895DF93CF9300D01E
:101380000F92CDB7DEB7262F69837A838B83672FC1
:10139000813019F4822F41E004C0882321F4822F88
:1013A00040E00E9400070F900F900F90CF91DF91C7
:1013B0000895DF93CF9300D00F92CDB7DEB7962F6D
:1013C0006983672F7A838B83892F41E00E9482068D
:1013D0000F900F900F90CF91DF9108951F93CF93AF
:1013E000DF9380E690E00E94A80015E3C8ECD0E00F
:1013F00080E20E945700812F0E94570080E197E20F
:10140000FE013197F1F70197D9F71150103381F7A9
:101410008DE00E94570082E190E06FEF0E94750618
:1014200083E080939C05DF91CF911F9108958BE617
:1014300090E00E94A8008DE00E94570088E790E0AD
:101440000E94A8008DE00E94570010920D06809126
:101450000D068823B9F08AE890E00E94A8008DE08C
:101460000E9457008CEA90E00E94A8008DE00E9444
:10147000570088E790E00E94A8008DE00E94570086
:1014800010920D0686E296E00E947D0080939F05F3
:1014900080919F05882389F480910D06882369F443
:1014A000809126068D3071F3809126068F3051F39E
:1014B00080912606883031F314C080919F058823DF
:1014C000E9F480910D068431C8F4809126068D30B0
:1014D00091F1809126068F3071F180912606883037
:1014E00021F180910D066091260690E08F5B9F4F61
:1014F0000E94750680910D068F5F1AC080919F052E
:10150000882309F0BFCF80910D06843108F4BACF4B
:10151000809126068D3079F0809126068F3059F023
:1015200080912606883009F0ADCF80910D0681505C
:1015300080930D06A7CF80910D06863008F487CFE3
:1015400081E190E060E00E94750660910D0684E103
:1015500090E00E94750608958CEB90E00E94A80030
:101560008DE00E94570088E790E00E94A8008DE07F
:101570000E94570010920C0680910C06882381F07F
:1015800089EC90E00E94A8008DE00E9457008BEE4D
:1015900090E00E94A8008DE00E94570010920C0677
:1015A00086E296E00E947D0080939F0580919F05D2
:1015B000882389F480910C06882369F4809126069B
:1015C0008D3071F3809126068F3051F3809126067D
:1015D000883031F314C080919F058823E1F4809115
:1015E0000C068431C0F4809126068D3081F1809103
:1015F00026068F3061F180912606883011F18091A6
:101600000C066091260690E081960E9475068091F6
:101610000C068F5F19C080919F05882309F6809181
:101620000C06843108F4BCCF809126068D3079F009
:10163000809126068F3059F080912606883009F077
:10164000AFCF80910C06815080930C06A9CF80917A
:101650000C06863008F490CF80E190E060E00E94B4
:10166000750660910C0683E190E00E94750608956E
:101670000F931F938DEF90E00E94A8008DE00E94D1
:10168000570081E080939E0510E086E296E00E947C
:101690007D0080939F0580919F058823A1F41123ED
:1016A00091F4809126068D3081F3809126068F304B
:1016B00061F380912606883041F38091260680935D
:1016C000110611E0E2CF80919F058823B9F414310F
:1016D000A8F4809126068D3031F1809126068F3056
:1016E00011F1809126068830E1F0E12FF0E0809141
:1016F0002606EF5EF94F80831F5FC7CF80919F055D
:10170000882319F6143108F2809126068D3059F09D
:10171000809126068F3039F080912606883009F0B6
:10172000B4CF1150B2CF80910D061817D1F400E05C
:1017300013C0202F30E0F901EF5EF94F808188233C
:10174000B1F01081C9018F5B9F4F0E947D06181771
:1017500011F010929E050F5F80910D06081748F357
:1017600006C080910D06181711F010929E051F916A
:101770000F9108950F931F938CE091E00E94A800B1
:101780008DE00E94570081E080939D0510E086E285
:1017900096E00E947D0080939F0580919F0588239D
:1017A000A1F4112391F4809126068D3081F380916C
:1017B00026068F3061F380912606883041F38091B0
:1017C00026068093110611E0E2CF80919F058823C1
:1017D000B9F41431A8F4809126068D3031F180914E
:1017E00026068F3011F1809126068830E1F0E12F36
:1017F000F0E080912606EF5EF94F80831F5FC7CF30
:1018000080919F05882319F6143108F280912606ED
:101810008D3059F0809126068F3039F08091260660
:10182000883009F0B4CF1150B2CF80910C06181750
:10183000C9F400E012C0202F30E0F901EF5EF94F4B
:1018400080818823A9F01081C90181960E947D06BC
:10185000181711F010929D050F5F80910D068017EB
:1018600050F706C080910C06181711F010929D05D4
:101870001F910F9108950E94BA0B0E94380B80911E
:101880009D05882321F080919E058823B1F58BE189
:1018900091E00E94A8008DE00E94570080919C0575
:1018A000815080939C0560919C0582E190E00E94AC
:1018B000750680919C05882369F088E391E00E9479
:1018C000A80080919C05805D0E9457008DE00E94D9
:1018D0005700D1CF80919C05882369F688E391E079
:1018E0000E94A80080919C05805D0E9457008DE0B9
:1018F0000E9457000E94EE09BECF86E491E00E944C
:10190000A80082E190E06FEF0E94750683E080936B
:101910009C058DE00E9457000895FF920F931F933E
:1019200083E190E00E947D0680930C0684E190E0C4
:101930000E947D0680930D0682E190E00E947D0664
:101940008F3F31F082E190E00E947D0680939C05FC
:1019500080E190E00E947D068F3F49F48BE591E0A5
:101960000E94A8008DE00E9457000E94AC0A81E10D
:1019700090E00E947D068F3F49F40E94170A8AE694
:1019800091E00E94A8008DE00E94570080919C0584
:10199000882311F40E94EE09FF240BC00F2D10E0E4
:1019A000C80181960E947D06095D194FF801808368
:1019B000F39480910C06F81688F31F910F91FF9015
:1019C00008956091A4057091A5058091A6050E94D7
:1019D0008D096091A7057091A8058091A9050E94C5
:1019E0008D096091AA057091AB058091AC050E94AC
:1019F0008D096091AD057091AE058091AF050E9493
:101A00008D096091B0057091B1058091B2050E9479
:101A10008D096091B3057091B4058091B5050E9460
:101A20008D096091B6057091B7058091B8050E9447
:101A30008D096091B9057091BA058091BB050E942E
:101A40008D096091BC057091BD058091BE050E9415
:101A50008D096091BF057091C0058091C1050E94FC
:101A60008D096091C2057091C3058091C4050E94E3
:101A70008D096091C5057091C6058091C7050E94CA
:101A80008D096091C8057091C9058091CA050E94B1
:101A90008D096091CB057091CC058091CD050E9498
:101AA0008D096091CE057091CF058091D0050E947F
:101AB0008D096091D1057091D2058091D3050E9466
:101AC0008D096091D4057091D5058091D6050E944D
:101AD0008D096091D7057091D8058091D9050E9434
:101AE0008D096091DA057091DB058091DC050E941B
:101AF0008D096091DD057091DE058091DF050E9402
:101B00008D096091E0057091E1058091E2050E94E8
:101B10008D0988EE93E028EC30E0F9013197F1F778
:101B20000197D9F708958DE791E00E94A8008DE014
:101B30000E94570080E991E00E94A80086EA91E0A7
:101B40000E94A8008DE00E94570085EB91E00E9462
:101B5000A8008BEC91E00E94A8008DE00E94570045
:101B600086E296E00E947D0080939F0580919F050C
:101B70008823A1F5809126068233A9F0833330F4BF
:101B8000883041F1813309F04AC006C0833391F0B7
:101B9000843309F044C015C06091BC057091BD0547
:101BA0008091BE0514C06091BF057091C005809101
:101BB000C1050DC06091C2057091C3058091C40537
:101BC00006C06091C5057091C6058091C7050E9449
:101BD0008D0925C08DE00E94570021C080919F058E
:101BE0008430E9F4809110068436A1F48DE00E94DF
:101BF00057008091A305813031F48AED91E00E9475
:101C0000A8001092A3058DE00E94570081E0809308
:101C1000A2050895809110068F5F80931006809131
:101C20002606883009F09CCF08958BEE91E00E9443
:101C3000A8008DE00E94570080E991E00E94A80072
:101C400086EA91E00E94A8008DE00E94570086E29B
:101C500096E00E947D0080939F0580919F058823D8
:101C6000F9F480912606813329F0823351F08830CF
:101C7000C1F510C06091B3057091B4058091B505B0
:101C800006C06091B6057091B7058091B8050E94B5
:101C90008D0927C08DE00E9457001092A00521C039
:101CA00080919F058430E9F4809110068436A1F478
:101CB0008DE00E9457008091A305813031F48AEDB8
:101CC00091E00E94A8001092A3058DE00E945700A9
:101CD00081E08093A2050895809110068F5F809324
:101CE000100680912606883009F0B1CF08958FEF55
:101CF00091E00E94A8008DE00E94570084E192E0EC
:101D00000E94A8008DE00E94570086E296E00E94A3
:101D10007D0080939F0580919F05882399F4809191
:101D20002606883059F0813371F56091B0057091C5
:101D3000B1058091B2050E948D0925C08DE00E94F9
:101D4000570021C080919F058430E9F480911006EE
:101D50008436A1F48DE00E9457008091A305813064
:101D600031F48AED91E00E94A8001092A3058DE065
:101D70000E94570081E08093A2050895809110068B
:101D80008F5F8093100680912606883009F0BDCFC2
:101D9000089583E292E00E94A8008DE00E9457001F
:101DA0008CE292E00E94A8008DE00E9457008FE331
:101DB00092E00E94A8008DE00E94570082E592E028
:101DC0000E94A8008DE00E94570086E296E00E94E3
:101DD0007D0080939F0580919F05882309F053C063
:101DE000809126068233C1F0833338F4883009F4B9
:101DF00046C0813309F068C004C0833309F064C071
:101E000014C08DE00E94570080E190E06FEF0E94C7
:101E100075060E94AC0A1AC08DE00E94570081E14D
:101E200090E06FEF0E9475060FC08DE00E94570092
:101E300080E190E06FEF0E94750681E190E06FEF26
:101E40000E9475060E94AC0A0E94170A83E292E083
:101E50000E94A8008DE00E9457008CE292E00E9450
:101E6000A8008DE00E9457008FE392E00E94A80036
:101E70008DE00E94570082E592E00E94A8008DE06C
:101E80000E94570021C080919F058430E9F4809121
:101E900010068436A1F48DE00E9457008091A305BE
:101EA000813031F48AED91E00E94A8001092A305E0
:101EB0008DE00E94570081E08093A20508958091F3
:101EC00010068F5F8093100680912606883009F0F7
:101ED0007CCF089580E792E00E94A8008DE00E94E8
:101EE000570081E892E00E94A80087E992E00E94F2
:101EF000A8008DE00E94570086E296E00E947D00D7
:101F000080939F0580919F058823A9F480912606E0
:101F1000813329F0823329F0883071F508C080E1DF
:101F200001C081E16BE376E00E942B0425C08DE0C7
:101F30000E94570021C080919F058430E9F4809170
:101F400010068436A1F48DE00E9457008091A3050D
:101F5000813031F48AED91E00E94A8001092A3052F
:101F60008DE00E94570081E08093A2050895809142
:101F700010068F5F8093100680912606883009F046
:101F8000BBCF089580EA92E00E94A8008DE00E94F5
:101F9000570081E892E00E94A8008EEA92E00E9439
:101FA000A8008DE00E94570086E296E00E947D0026
:101FB00080939F0580919F058823D1F58091260607
:101FC000813331F0823331F0883009F052C008C0DB
:101FD00083E001C084E06BE376E00E942B0449C0FB
:101FE0008DE00E94570086EB92E00E94A8008DE0F1
:101FF0000E94570087EC92E00E94A8008DED92E0CD
:102000000E94A8008DE00E9457008BEE92E00E9493
:10201000A80081E093E00E94A8008DE00E94570094
:1020200080E193E00E94A8008DE00E94570021C04B
:1020300080919F058430E9F4809110068436A1F4E4
:102040008DE00E9457008091A305813031F48AED24
:1020500091E00E94A8001092A3058DE00E94570015
:1020600081E08093A2050895809110068F5F809390
:10207000100680912606883009F096CF08958EE1EB
:1020800093E00E94A8008DE00E94570081E892E052
:102090000E94A8008EEA92E00E94A8008DE00E94B3
:1020A000570086E296E00E947D0080939F05809114
:1020B0009F058823D1F580912606813331F0823344
:1020C00031F0883009F052C008C081E001C082E0E0
:1020D0006BE376E00E942B0449C08DE00E9457001C
:1020E00086EB92E00E94A8008DE00E94570087ECEA
:1020F00092E00E94A8008DED92E00E94A8008DE081
:102100000E9457008BEE92E00E94A80081E093E0CD
:102110000E94A8008DE00E94570080E193E00E9499
:10212000A8008DE00E94570021C080919F05843057
:10213000E9F4809110068436A1F48DE00E945700E6
:102140008091A305813031F48AED91E00E94A800CE
:102150001092A3058DE00E94570081E08093A205B4
:102160000895809110068F5F809310068091260657
:10217000883009F096CF089580E393E00E94A8008C
:102180008DE00E94570080E991E00E94A80086EA55
:1021900091E00E94A8008DE00E94570083E493E044
:1021A0000E94A8008DE00E94570086E296E00E94FF
:1021B0007D0080939F0580919F05882351F5809134
:1021C0002606823391F0833330F48830F1F0813386
:1021D00009F040C003C08333E9F510C06091A40545
:1021E0007091A5058091A60506C06091A705709124
:1021F000A8058091A9050E948D092CC060913B061D
:102200008FE070E00E942B0425C08DE00E945700F3
:1022100021C080919F058430E9F4809110068436B6
:10222000A1F48DE00E9457008091A305813031F424
:102230008AED91E00E94A8001092A3058DE00E9413
:10224000570081E08093A2050895809110068F5F6A
:102250008093100680912606883009F0A6CF089555
:1022600082E593E00E94A8008DE00E94570081E67D
:1022700093E00E94A80087E793E00E94A8008DE009
:102280000E94570082E893E00E94A80088E993E04A
:102290000E94A8008DE00E94570083EA93E00E940C
:1022A000A8008DE00E94570086E296E00E947D0023
:1022B00080939F0580919F05882309F043C08091FA
:1022C00026068333A1F0843340F4813361F08233F6
:1022D00060F4883009F057C014C0843351F085335E
:1022E00009F051C008C08AE007C08BE005C08CE04F
:1022F00003C08DE001C08EE06BE376E00E942B040A
:1023000042C08DE00E9457008EEA93E00E94A80030
:102310008DE00E94570080E991E00E94A80086EAC3
:1023200091E00E94A8008DE00E9457008FEB93E09F
:102330000E94A80085ED93E00E94A8008DE00E9415
:10234000570021C080919F058430E9F480911006E8
:102350008436A1F48DE00E9457008091A30581305E
:1023600031F48AED91E00E94A8001092A3058DE05F
:102370000E94570081E08093A20508958091100685
:102380008F5F8093100680912606883009F08CCFED
:1023900008951F938EEA93E00E94A8008DE00E94AA
:1023A000570080E991E00E94A80086EA91E00E942F
:1023B000A8008DE00E94570080EE93E00E94A800E4
:1023C0008DE00E9457001FEF86E296E00E947D009C
:1023D00080939F0580919F05882339F5809126067B
:1023E000823389F0833328F48830D9F08133F1F5D2
:1023F00003C08333D9F510C06091C8057091C90539
:102400008091CA0506C06091CB057091CC05809182
:10241000CD050E948D092AC00E9430111093260616
:1024200025C08DE00E94570021C080919F05843017
:10243000E9F4809110068436A1F48DE00E945700E3
:102440008091A305813031F48AED91E00E94A800CB
:102450001092A3058DE00E94570081E08093A205B1
:102460000AC0809110068F5F809310068091260627
:10247000883009F0A9CF1F91089582E593E00E946A
:10248000A8008DE00E94570081E693E00E94A8001A
:1024900087E793E00E94A8008DE00E94570082E841
:1024A00093E00E94A80088E993E00E94A8008DE0D4
:1024B0000E94570083EA93E00E94A8008DE00E94EA
:1024C000570086E296E00E947D0080939F058091F0
:1024D0009F05882309F043C0809126068333A1F02D
:1024E000843340F4813361F0823360F4883009F042
:1024F00057C014C0843351F0853309F051C008C06F
:1025000085E007C086E005C087E003C088E001C021
:1025100089E06BE376E00E942B0442C08DE00E94CC
:1025200057008BEE93E00E94A8008DE00E945700B8
:1025300080E991E00E94A80086EA91E00E94A8004C
:102540008DE00E9457008FEB93E00E94A80085ED7C
:1025500093E00E94A8008DE00E94570021C0809166
:102560009F058430E9F4809110068436A1F48DE053
:102570000E9457008091A305813031F48AED91E0EB
:102580000E94A8001092A3058DE00E94570081E0F0
:102590008093A2050895809110068F5F80931006A6
:1025A00080912606883009F08CCF08951F938BEE1A
:1025B00093E00E94A8008DE00E94570080E991E01E
:1025C0000E94A80086EA91E00E94A8008DE00E9487
:1025D00057008FEB93E00E94A80085ED93E00E94E6
:1025E000A8008DE00E9457001FEF86E296E00E944F
:1025F0007D0080939F0580919F058823A9F5809198
:1026000026068233A9F0833330F4883049F18133D0
:1026100009F04BC006C0833391F0843309F045C004
:1026200017C06091CE057091CF058091D0050DC087
:102630006091D1057091D2058091D30506C060915B
:10264000D4057091D5058091D6050E948D092DC0C5
:102650008DE00E9457000E943D121093260625C06F
:102660008DE00E94570021C080919F058430E9F4DD
:10267000809110068436A1F48DE00E94570080916D
:10268000A305813031F48AED91E00E94A8001092F8
:10269000A3058DE00E94570081E08093A2050AC047
:1026A000809110068F5F80931006809126068830F7
:1026B00009F09BCF1F9108951F93CF93DF9386EB73
:1026C00092E00E94A8008DE00E94570087EC92E003
:1026D0000E94A8008DED92E00E94A8008DE00E946B
:1026E00057008BEE92E00E94A80081E093E00E94E8
:1026F000A8008DE00E94570080E193E00E94A800AE
:102700008DE00E945700C8ECD0E01FEF86E296E013
:102710000E947D0080939F0580919F05882309F08A
:102720004FC0809126068333F1F0843340F4813327
:1027300061F0823380F4883009F063C03DC0843397
:1027400001F1853309F05DC02EC08DE00E94570075
:102750000E943F1005C08DE00E9457000E94C20FEA
:10276000109326064EC081E06BE376E00E942B04B6
:1027700084EF91E0FE013197F1F70197D9F783E0FB
:102780000DC082E06BE376E00E942B0484EF91E0C1
:10279000FE013197F1F70197D9F784E06BE376E01A
:1027A0000E942B042EC06091B9057091BA058091EA
:1027B000BB050E948D0925C08DE00E94570021C0F5
:1027C00080919F058430E9F4809110068436A1F44D
:1027D0008DE00E9457008091A305813031F48AED8D
:1027E00091E00E94A8001092A3058DE00E9457007E
:1027F00081E08093A2050AC0809110068F5F8093CC
:10280000100680912606883009F080CFDF91CF91A5
:102810001F91089582E593E00E94A8008DE00E9438
:10282000570081E693E00E94A80087E793E00E94AA
:10283000A8008DE00E94570082E893E00E94A80063
:1028400088E993E00E94A8008DE00E94570083EA87
:1028500093E00E94A8008DE00E94570086E296E077
:102860000E947D0080939F0580919F058823E9F554
:10287000809126068333A1F0843340F4813361F0E4
:10288000823360F4883009F051C012C0843351F0B3
:10289000853309F04BC008C080E007C08FE305C056
:1028A0008EE703C08DEB01C08FEF0E9418023EC07F
:1028B0008DE00E94570080E094E00E94A8008DE027
:1028C0000E94570080E991E00E94A80086EA91E00A
:1028D0000E94A8008DE00E94570089E194E00E94C8
:1028E000A8008DE00E94570021C080919F05843090
:1028F000E9F4809110068436A1F48DE00E9457001F
:102900008091A305813031F48AED91E00E94A80006
:102910001092A3058DE00E94570081E08093A205EC
:102920000895809110068F5F80931006809126068F
:10293000883009F093CF08951F9386E294E00E94B7
:10294000A8008DE00E94570080E991E00E94A80055
:1029500086EA91E00E94A8008DE00E94570089E17C
:1029600094E00E94A8008DE00E9457001FEF86E2CD
:1029700096E00E947D0080939F0580919F058823AB
:1029800039F580912606823389F0833328F4883024
:10299000D9F08133F1F503C08333D9F510C06091CC
:1029A000DD057091DE058091DF0506C06091E005D0
:1029B0007091E1058091E2050E948D092AC00E9474
:1029C0000A141093260625C08DE00E94570021C0EE
:1029D00080919F058430E9F4809110068436A1F43B
:1029E0008DE00E9457008091A305813031F48AED7B
:1029F00091E00E94A8001092A3058DE00E9457006C
:102A000081E08093A2050AC0809110068F5F8093B9
:102A10001006809126068D3009F0A9CF1F910895E8
:102A20001F9381E494E00E94A8008DE00E9457006B
:102A300080E991E00E94A80086EA91E00E94A80047
:102A40008DE00E94570089E194E00E94A8008DE08B
:102A50000E9457001FEF86E296E00E947D0080935F
:102A60009F0580919F05882339F580912606823342
:102A700089F0833328F48830D9F08133F1F503C02D
:102A80008333D9F510C06091D7057091D805809136
:102A9000D90506C06091DA057091DB058091DC05EF
:102AA0000E948D092AC00E940A141093260625C090
:102AB0008DE00E94570021C080919F058430E9F489
:102AC000809110068436A1F48DE00E945700809119
:102AD000A305813031F48AED91E00E94A8001092A4
:102AE000A3058DE00E94570081E08093A2050AC0F3
:102AF000809110068F5F80931006809126068830A3
:102B000009F0A9CF1F91089582E593E00E94A800E3
:102B10008DE00E94570081E693E00E94A80087E7BD
:102B200093E00E94A8008DE00E94570082E893E0A5
:102B30000E94A80088E993E00E94A8008DE00E940E
:102B4000570083EA93E00E94A8008DE00E9457009E
:102B500086E296E00E947D0080939F0580919F050C
:102B60008823E9F5809126068333A1F0843340F46D
:102B7000813361F0823360F4883009F051C012C0B3
:102B8000843351F0853309F04BC008C080E007C0A2
:102B90008FE305C08EE703C08DEB01C08FEF0E946D
:102BA00010023EC08DE00E9457008CE594E00E9428
:102BB000A8008DE00E94570080E991E00E94A800E3
:102BC00086EA91E00E94A8008DE00E94570080E70D
:102BD00094E00E94A8008DE00E94570021C08091DF
:102BE0009F058430E9F4809110068436A1F48DE0CD
:102BF0000E9457008091A305813031F48AED91E065
:102C00000E94A8001092A3058DE00E94570081E069
:102C10008093A2050895809110068F5F809310061F
:102C200080912606883009F093CF08951F938CE594
:102C300094E00E94A8008DE00E94570080E991E096
:102C40000E94A80086EA91E00E94A8008DE00E9400
:102C5000570080E794E00E94A8008DE00E94570092
:102C60001FEF86E296E00E947D0080939F05809191
:102C70009F05882339F580912606823389F08333B6
:102C800028F48830D9F08133F1F503C08333D9F5C6
:102C900010C06091AA057091AB058091AC0506C08B
:102CA0006091AD057091AE058091AF050E948D09D0
:102CB0002AC00E9484151093260625C08DE00E942C
:102CC000570021C080919F058430E9F4809110065F
:102CD0008436A1F48DE00E9457008091A3058130D5
:102CE00031F48AED91E00E94A8001092A3058DE0D6
:102CF0000E94570081E08093A2050AC080911006CF
:102D00008F5F8093100680912606883009F0A9CF46
:102D10001F9108950F931F9380E06FEF0E94780832
:102D200082E06FEF0E94780883E06EEF0E947808DF
:102D300081E060E041E00E94820681E061E041E0E4
:102D40000E9482060E9449000E94F5040E948D0C98
:102D500081E063E041E00E9482060E94AB0183E0D3
:102D600067E041E00E9482060E94F5010E94090589
:102D700085E00E94A70583E065E00E94150581EECD
:102D80009CE065E00E94D70581E062E040E00E949F
:102D900082061AE001E08091A205813041F510928F
:102DA00010068093A3058BE794E00E94A8008DE0B5
:102DB0000E94570086E296E00E947D0080939F0566
:102DC00080919F058823B1F7809126068D3091F779
:102DD0000E943B0C86E994E00E94A80087E296E0FE
:102DE0000E94A8008DE00E9457001092A2058FE972
:102DF00094E00E94A8008DE00E9457008DEA94E0C4
:102E00000E94A80083EC94E00E94A8008DE00E943C
:102E1000570081ED94E00E94A80087EE94E00E94A4
:102E2000A8008DE00E94570084EF94E00E94A80063
:102E30008AE095E00E94A8008DE00E9457008EE194
:102E400095E00E94A80084E395E00E94A8008DE030
:102E50000E94570080E495E00E94A80086E595E076
:102E60000E94A8008DE00E94570082E695E00E9433
:102E7000A80088E795E00E94A8008DE00E94570016
:102E800084E895E00E94A8008DE00E94570010920F
:102E90000E0610920F0686E296E00E947D00809357
:102EA0009F0580919F05882399F480910E068823C1
:102EB00079F4809126068D3041F0809126068F307E
:102EC00021F080912606883009F510921006E3CF94
:102ED00080919F05882361F580910E06833040F52F
:102EE000809126068D30A1F1809126068F3081F1E8
:102EF00080912606883051F41092100680910F06BA
:102F00006AE00E943D1880930F062BC010921006B5
:102F10008091260680538093260680910F0620918B
:102F20002606819FC0011124280F20930F061FC081
:102F300080919F05882309F580910E068330E8F083
:102F4000809126068D3021F0809126068F3019F46D
:102F50001092100634C080912606883031F4109209
:102F6000100680910E06815005C0109210068091C7
:102F70000E068F5F80930E068ECF80919F05843062
:102F800009F089CF80911006843699F48DE00E9473
:102F900057008091A305813031F48AED91E00E94C1
:102FA000A8001092A3058DE00E9457000093A2058F
:102FB00006C0809110068F5F809310066CCF8091C1
:102FC0000F068E3038F08DE895E00E94A8008DE065
:102FD0000E94570080910F068E3008F058CF8091E4
:102FE0000F068730A9F1883078F4833029F18430D6
:102FF00030F48130D9F0823009F0CDCE1AC085305E
:1030000009F1863010F51BC08A3059F18B3030F44D
:10301000883009F1893009F0BECE20C08C3039F1FA
:103020008C3010F18D3009F0B6CE24C00E945C13B4
:10303000B2CE0E94D612AFCE0E94C911ACCE0E9471
:103040001616A9CE0E941015A6CE0E949C14A3CEDF
:103050000E94770EA0CE0E94BC109DCE0E94150E3D
:103060009ACE0E94930D97CE0E946A0F94CE0E9432
:10307000C90E91CE0093A2058ECE991B79E004C0B3
:10308000991F961708F0961B881F7A95C9F78095A7
:063090000895F894FFCF43
:1030960054696D65206F7574203A0053657420502D
:1030A600617373576F7264004D6178696D756D2039
:1030B60063686172203A2032300050617373576F33
:1030C6007264204D757374206265204D6F726520A1
:1030D6007468616E20352043686172005265205322
:1030E60065742050617373576F7264005365742062
:1030F600557365724E616D6500557365724E616DEF
:1031060065204D757374206265204D6F726520745D
:1031160068616E2035204368617200526520456EF5
:1031260074657220557365724E616D6500436865FE
:10313600636B2050617373576F72640043686563F5
:103146006B20557365724E616D6500496E76616CD4
:10315600696420557365726E616D65206F722050CB
:10316600617373776F7264005472696573204C657E
:103176006674203A20005375636365737366756CD5
:103186006C79205369676E20696E00506C656173B7
:1031960065205369676E205570005361766564201B
:1031A6005375636365737366756C6C790042616C05
:1031B60061636F6E204F7074696F6E73203A2000E2
:1031C600312D204C656431204F4E2F4F464620202E
:1031D600202020202000322D204C656432204F4EC6
:1031E6002F4F464600332D204C656431204F4E2F1D
:1031F6004F46462020202020202000342D204C65DC
:103206006432204F4E2F4F46460053657373696FE5
:103216006E2054696D65204F757400436F72726934
:10322600646F72204F7074696F6E73203A2000428B
:1032360061746820526F6F6D204F7074696F6E7382
:10324600203A2000312D204C656431204F4E2F4FFF
:1032560046460053657474696E673A00312D204303
:1032660068616E676520557365724E616D650032E3
:103276002D204368616E67652050617373576F72C6
:103286006400322D204368616E6765205573657250
:103296004E616D6520262050617373576F7264000E
:1032A6004175746F2046616E20436F6E74726F6C49
:1032B60000312D204F70656E2020202020202020F8
:1032C60020202020202000322D20436C6F736500C3
:1032D60053616C6F6E20446F6F72203A2000322D5E
:1032E600204C6F636B005374616972204F70746970
:1032F6006F6E73203A2000312D205265636570741D
:10330600696F6E20446F6F722020202000322D20BE
:1033160053616C6F6E20446F6F7200332D204F70B7
:10332600656E20446F6F727320202020202020209D
:1033360000342D20436C6F736520446F6F727300E9
:10334600352D204C6564204F4E2F4F464600526562
:1033560063657074696F6E20446F6F72203A200047
:103366004B69746368656E204F7074696F6E732065
:103376003A2000332D204B69746368656E204661E0
:103386006E0046616E20436F6E74726F6C203A2039
:1033960000312D2046616E204F66662020202020B9
:1033A60020202020202000322D20537065656420C7
:1033B6003100332D20537065656420322020202093
:1033C6002020202020202000342D205370656564A5
:1033D600203300352D205370656564203400536119
:1033E6006C6F6E204F7074696F6E73203A200033D5
:1033F6002D204C656433204F4E2F4F46462020200B
:103406002020202000342D205265632046616E0066
:10341600332D205265632046616E005265636570E8
:1034260074696F6E204F7074696F6E73203A200056
:103436004368696C6472656E20526F6F6D204F70C1
:1034460074696F6E73203A2000332D204368696CCF
:10345600642046616E004368696C6472656E205232
:103466006F6F6D2032204F7074696F6E73203A2033
:10347600004368696C6472656E20526F6F6D20310F
:10348600204F7074696F6E73203A20004265642085
:10349600526F6F6D204F7074696F6E73203A200003
:1034A600332D204265642046616E00507265737349
:1034B60020656E74657220746F206F70656E207360
:1034C600797374656D0057656C636F6D6520005385
:1034D600656C65637420526F6F6D203A0031202D44
:1034E6002053746169722020202020202020202073
:1034F60020200032202D20526563657074696F6E3E
:103506000033202D2053616C6F6E20202020202058
:103516002020202020200034202D204265642052C7
:103526006F6F6D0035202D204368696C6472656E7F
:1035360020526F6F6D203120200036202D204368E9
:10354600696C6472656E20526F6F6D203200372091
:103556002D204261746820526F6F6D20202020203C
:103566002020200038202D204B69746368656E008A
:1035760039202D20436F727269646F7220202020DB
:1035860020202020200031302D2042616C61636FA5
:103596006E0031312D204175746F2046616E2043D7
:1035A6006F6E74726F6C200031322D205365747407
:1035B600696E670031332D204558495400496E76AF
:1035C600616C69642043686F6973650003010101DA
:1035D60001010101000001000101000201000301D7
:1035E60000040100050100060100070103020103B2
:1035F60003010304010101010306010100010200A8
:103606000102010102020102030102040102050195
:0436160002060100A7
:00000001FF
