:100000000C942A000C94F1050C941D060C944906DE
:100010000C9488030C945F030C9436030C940D032A
:100020000C94E4020C94BB020C9492020C946902AE
:100030000C94AF040C942E010C9447000C946D01A9
:100040000C9447000C9447000C9447000C94470014
:100050000C94470011241FBECFE5D8E0DEBFCDBF12
:1000600015E0A0E6B0E0ECEBFAE202C005900D92DC
:10007000AC3AB107D9F716E0ACEAB5E001C01D9281
:10008000A430B107E1F70E94E7130C945C150C94BF
:100090000000599810BC83E389B95898529886E8B3
:1000A00080BD579856985598549A539A0895282F7A
:1000B0008091AE05882311F083E0089580E090E000
:1000C000A0E0B0E003C00196A11DB11D5D9909C07B
:1000D000803137E2930730E0A30730E0B30799F7A8
:1000E00008C080519742A040B04019F02CB980E080
:1000F00001C084E01092AE050895FC01009711F450
:1001000082E008958091AE05882311F083E0089580
:1001100080E090E0A0E0B0E003C00196A11DB11D19
:100120005F9909C0803127E2920720E0A20720E012
:10013000B20799F709C080519742A040B04021F022
:100140008CB1808380E001C084E01092AE050895F8
:10015000CF93DF93009711F482E00AC0EC0105C051
:100160000E9457002196882319F488818823C1F7BB
:10017000DF91CF910895FC018091AE05882311F0A5
:1001800083E008953097A9F06115710591F081E041
:100190008093AE05F093AD05E093AC057093B00588
:1001A0006093AF051092B40580818CB9569A80E0B7
:1001B000089582E00895AF92BF92CF92DF92EF92BE
:1001C000FF920F931F93CF93DF93EC015A016B01C2
:1001D000009711F482E016C0EE24FF2487010CC0C2
:1001E000CE018E0D9F1D0E947D00882359F4089436
:1001F000E11CF11C011D111DEA14FB040C051D0579
:1002000078F380E0DF91CF911F910F91FF90EF90F5
:10021000DF90CF90BF90AF900895BC018091AE0564
:10022000882311F083E0089561157105A9F0211567
:10023000310591F081E08093AE057093B205609333
:10024000B1053093B0052093AF054093B3051092EC
:10025000B405579A80E0089582E008951F920F92A6
:100260000FB60F9211242F933F934F935F936F9389
:100270007F938F939F93AF93BF93EF93FF9390914F
:10028000B4058CB1E091B105F091B205E90FF11D13
:1002900080839F5F9093B4058091B305981761F4B4
:1002A0001092B4051092AE05E091AF05F091B00543
:1002B000309709F009955798FF91EF91BF91AF9151
:1002C0009F918F917F916F915F914F913F912F916E
:1002D0000F900FBE0F901F9018951F920F920FB6A0
:1002E0000F9211242F933F934F935F936F937F93BC
:1002F0008F939F93AF93BF93EF93FF938091B40538
:100300008F5F8093B405E091AC05F091AD05E80FE7
:10031000F11DE081EE2369F41092B4051092AE0550
:10032000E091AF05F091B005309709F00995569826
:1003300001C0ECB9FF91EF91BF91AF919F918F9167
:100340007F916F915F914F913F912F910F900FBED1
:100350000F901F90189583B7806483BF83B7886020
:1003600083BF83B78F7E83BF83B7806283BF1CBE8A
:1003700083B7887F83BF83B7856083BF08958FB5B8
:100380008E7F8FBD8FB582608FBD8EB588608EBD2C
:100390008EB580618EBD1BBC1ABC19BC18BC8FEF1A
:1003A00090E097BD86BD8EB580648EBD8FB58F7B86
:1003B0008FBD8FB580688FBD8FB58F7E8FBD8FB598
:1003C00080628FBD89B78B7F89BF89B78F7E89BFD8
:1003D00089B7877F89BF89B78F7D89BF8EB5887FB1
:1003E0008EBD8EB582608EBD089585B5806485BD55
:1003F00085B5886085BD85B58F7E85BD85B58062F4
:1004000085BD13BC85B5887F85BD85B5856085BDF7
:10041000089582BF08959DBD8CBD089584BD089543
:100420008CBF08959BBD8ABD089599BD88BD089570
:1004300083BD089597BD86BD089582B708952CB5F4
:100440003DB5C901089584B508959BBD8ABD089541
:100450008EB580648EBD89B7806289BF0895813072
:1004600029F48EB580648EBD80E00895882311F054
:1004700081E008958EB58F7B8EBD80E0089589B7A9
:10048000806289BF089589B78F7D89BF089526B599
:1004900037B5C901089581B5887F81BD81B5866072
:1004A00081BD089581B5886081BD089581B5886159
:1004B00081BD11BC0895009711F482E00895E62FE4
:1004C000F0E0EE0FFF1FEB54FA4F9183808380E042
:1004D00008951F920F920FB60F9211242F933F93FE
:1004E0004F935F936F937F938F939F93AF93BF933C
:1004F000EF93FF93E091CB05F091CC05309709F095
:100500000995FF91EF91BF91AF919F918F917F914D
:100510006F915F914F913F912F910F900FBE0F9070
:100520001F9018951F920F920FB60F9211242F93C0
:100530003F934F935F936F937F938F939F93AF936B
:10054000BF93EF93FF93E091C905F091CA053097EF
:1005500009F00995FF91EF91BF91AF919F918F9114
:100560007F916F915F914F913F912F910F900FBEAF
:100570000F901F9018951F920F920FB60F92112493
:100580002F933F934F935F936F937F938F939F939B
:10059000AF93BF93EF93FF93E091C705F091C80528
:1005A000309709F00995FF91EF91BF91AF919F911D
:1005B0008F917F916F915F914F913F912F910F900C
:1005C0000FBE0F901F9018951F920F920FB60F92AB
:1005D00011242F933F934F935F936F937F938F9348
:1005E0009F93AF93BF93EF93FF93E091C505F09175
:1005F000C605309709F00995FF91EF91BF91AF9132
:100600009F918F917F916F915F914F913F912F912A
:100610000F900FBE0F901F9018951F920F920FB65C
:100620000F9211242F933F934F935F936F937F9378
:100630008F939F93AF93BF93EF93FF93E091C30585
:10064000F091C405309709F00995FF91EF91BF91A2
:10065000AF919F918F917F916F915F914F913F915A
:100660002F910F900FBE0F901F9018951F920F9211
:100670000FB60F9211242F933F934F935F936F9375
:100680007F938F939F93AF93BF93EF93FF93E091EB
:10069000C105F091C205309709F00995FF91EF91DE
:1006A000BF91AF919F918F917F916F915F914F918A
:1006B0003F912F910F900FBE0F901F9018951F9292
:1006C0000F920FB60F9211242F933F934F935F9386
:1006D0006F937F938F939F93AF93BF93EF93FF930A
:1006E000E091BF05F091C005309709F00995FF91A1
:1006F000EF91BF91AF919F918F917F916F915F919A
:100700004F913F912F910F900FBE0F901F90189512
:100710001F920F920FB60F9211242F933F934F9376
:100720005F936F937F938F939F93AF93BF93EF9359
:10073000FF93E091BD05F091BE05309709F0099552
:10074000FF91EF91BF91AF919F918F917F916F91A9
:100750005F914F913F912F910F900FBE0F901F907F
:100760001895FC01009709F474C04581442309F4ED
:1007700070C03481332309F46CC02681222309F42C
:1007800068C05281552309F464C07081772309F44D
:1007900060C06381662309F45CC09181992309F4E8
:1007A00058C0413011F081E002C06A9A80E03323E2
:1007B00021F0313021F081E003C06B9801C06B9AC9
:1007C0002330B9F0243028F4213069F0223068F465
:1007D00008C02530A1F0253078F0263091F081E076
:1007E00013C0689803C0689805C0689A6998709AA1
:1007F0000BC0689A699807C06898699AF8CF68989A
:1008000001C0689A699A7098552331F0513011F0FF
:1008100081E003C06D9801C06D9A662321F06130BC
:1008200021F081E003C06C9A01C06C98772321F01D
:10083000713021F081E003C06F9801C06F9A992355
:1008400021F0913021F081E008956E9808956E9A1C
:10085000089582E00895982FFB018091C7058823B1
:1008600011F083E008959FB980E090E0A0E0B0E04F
:1008700003C00196A11DB11D779B06C08051974210
:10088000A040B04051F40DC0803127E2920720E033
:10089000A20720E0B20769F704C08FB1808380E02F
:1008A00001C084E01092C7050895DF92EF92FF9295
:1008B0000F931F93CF93DF937B01D42E0097A1F06A
:1008C0006115710589F08C01C0E0D0E009C0B70165
:1008D0006C0F7D1FF80181918F010E942B042196DE
:1008E000CD15A8F380E001C082E0DF91CF911F9188
:1008F0000F91FF90EF90DF900895FC018091C70564
:10090000882311F083E00895309739F1A081B181F7
:10091000109719F14281538141155105F1F025815C
:10092000368121153105C9F081E08093C705B09368
:10093000CB05A093CA055093C6054093C505848195
:100940008093CC053093C9052093C8051092CD053E
:100950008C918FB96F9A80E0089582E008951F927C
:100960000F920FB60F9211242F933F934F935F93E3
:100970006F937F938F939F93AF93BF93EF93FF9367
:100980009091CD058FB1E091C505F091C605E90FB5
:10099000F11D80839F5F9093CD058091CC059817C2
:1009A00059F41092C7056F98E091C805F091C905F8
:1009B000309751F0099508C0E091CA05F091CB0538
:1009C000E90FF11D80818FB9FF91EF91BF91AF9138
:1009D0009F918F917F916F915F914F913F912F9157
:1009E0000F900FBE0F901F9018956D986C9A81E034
:1009F00065E041E00E94820681E067E041E00E94FC
:100A000082066B986A98689A699870986F986E9A3F
:100A100008958FB780688FBF08958FB78F778FBF86
:100A2000089584B7806484BF0895E82F762F862FB9
:100A30008650823008F069C0770F7C50E13009F4AD
:100A40004CC0E130D0F1E23021F0E33009F05DC07C
:100A50001BC065B7472F50E021E030E0C901072EE9
:100A600002C0880F991F0A94E2F78095862385BFFC
:100A700085B74F5F5F4F02C0220F331F4A95E2F7E1
:100A80002095282325BF41C065B7472F50E081E05E
:100A900090E09C01072E02C0220F331F0A94E2F758
:100AA000622B65BF25B74F5F5F4F02C0880F991F4C
:100AB0004A95E2F78095822327C065B7272F30E05B
:100AC00041E050E0CA01072E02C0880F991F0A9426
:100AD000E2F78095862385BF0EC065B7272F30E0EB
:100AE00041E050E0CA01072E02C0880F991F0A9406
:100AF000E2F7682B65BF85B72F5F3F4F02C0440FF9
:100B0000551F2A95E2F7842B85BF753061F4EE23DB
:100B100019F0E13041F404C084B78F7B84BF08959D
:100B200084B7806484BF0895382F8550833010F0D7
:100B300081E008952BB781E090E002C0880F991FF3
:100B40003A95E2F7809582238BBF80E00895382F95
:100B50008550833010F081E008952BB781E090E05C
:100B600002C0880F991F3A95E2F7282B2BBF80E02F
:100B700008959AB721E030E002C0220F331F8A9512
:100B8000E2F7922B9ABF08954AB721E030E0082E91
:100B900002C0220F331F0A94E2F750E024233523CA
:100BA00002C0359527958A95E2F7822F0895009720
:100BB000B1F0663029F49093CF058093CE050DC037
:100BC000673029F49093D1058093D00506C0653035
:100BD00031F49093D3058093D20580E0089581E0AD
:100BE00008951F920F920FB60F9211242F933F93E7
:100BF0004F935F936F937F938F939F93AF93BF9325
:100C0000EF93FF93E091CE05F091CF05309721F05F
:100C100009958AB780648ABFFF91EF91BF91AF9128
:100C20009F918F917F916F915F914F913F912F9104
:100C30000F900FBE0F901F9018951F920F920FB636
:100C40000F9211242F933F934F935F936F937F9352
:100C50008F939F93AF93BF93EF93FF93E091D00552
:100C6000F091D105309721F009958AB780688ABF45
:100C7000FF91EF91BF91AF919F918F917F916F9174
:100C80005F914F913F912F910F900FBE0F901F904A
:100C900018951F920F920FB60F9211242F933F9326
:100CA0004F935F936F937F938F939F93AF93BF9374
:100CB000EF93FF93E091D205F091D305309721F0A7
:100CC00009958AB780628ABFFF91EF91BF91AF917A
:100CD0009F918F917F916F915F914F913F912F9154
:100CE0000F900FBE0F901F9018959FBB8EBB6DBBD2
:100CF000E29AE19AE199FECF08958EBB9FBBE09AFC
:100D00008DB30895843008F077C0683008F074C05F
:100D10004130B1F5813099F0813030F08230D1F03E
:100D2000833009F06BC021C02AB381E090E002C09B
:100D3000880F991F6A95E2F7282B2ABB5BC027B35F
:100D400081E090E002C0880F991F6A95E2F7282B96
:100D500027BB50C024B381E090E002C0880F991FE8
:100D60006A95E2F7282B24BB45C021B381E090E0CF
:100D700002C0880F991F6A95E2F7282B21BB3AC061
:100D80004423D1F5813099F0813028F08230D9F0B8
:100D90008330A1F524C02AB381E090E002C0880F1F
:100DA000991F6A95E2F7809582238ABB23C027B3F7
:100DB00081E090E002C0880F991F6A95E2F7809564
:100DC000822387BB17C024B381E090E002C0880F64
:100DD000991F6A95E2F78095822384BB0BC021B3EB
:100DE00081E090E002C0880F991F6A95E2F7809534
:100DF000822381BB81E0089580E0089581E0089519
:100E0000843008F077C0683008F074C04130B1F524
:100E1000813099F0813030F08230D1F0833009F0A8
:100E20006BC021C02BB381E090E002C0880F991FF6
:100E30006A95E2F7282B2BBB5BC028B381E090E0DA
:100E400002C0880F991F6A95E2F7282B28BB50C073
:100E500025B381E090E002C0880F991F6A95E2F700
:100E6000282B25BB45C022B381E090E002C0880F4B
:100E7000991F6A95E2F7282B22BB3AC04423D1F58B
:100E8000813099F0813028F08230D9F08330A1F59B
:100E900024C02BB381E090E002C0880F991F6A95AF
:100EA000E2F7809582238BBB23C028B381E090E0DA
:100EB00002C0880F991F6A95E2F78095822388BB4C
:100EC00017C025B381E090E002C0880F991F6A9592
:100ED000E2F78095822385BB0BC022B381E090E0CE
:100EE00002C0880F991F6A95E2F78095822382BB22
:100EF00081E0089580E0089581E00895FA0184304A
:100F000028F5683018F5813049F0813028F08230BA
:100F100039F08330C9F406C029B305C026B303C035
:100F200023B301C020B381E090E0062E02C0880FF9
:100F3000991F0A94E2F730E08223932302C095952B
:100F400087956A95E2F7808381E0089580E00895AF
:100F50008430C0F56830B0F5813091F0813028F0F0
:100F60008230C9F0833061F521C02BB381E090E07D
:100F700002C0880F991F6A95E2F728272BBB20C073
:100F800028B381E090E002C0880F991F6A95E2F7CC
:100F9000282728BB15C025B381E090E002C0880F48
:100FA000991F6A95E2F7282725BB0AC022B381E082
:100FB00090E002C0880F991F6A95E2F7282722BBAC
:100FC00081E0089580E00895843008F08FC0683093
:100FD00008F08CC0813049F1813038F0823009F45A
:100FE00044C0833009F080C060C0413091F480B7C4
:100FF0008B7F80BF3AB381E090E002C0880F991FD9
:101000006A95E2F7282F209523232ABB2BB3822B46
:101010000AC02BB381E090E002C0880F991F6A9547
:10102000E2F7809582238BBB5FC0413091F480B79B
:101030008B7F80BF37B381E090E002C0880F991F9B
:101040006A95E2F7282F2095232327BB28B3822B0C
:101050000AC028B381E090E002C0880F991F6A950A
:10106000E2F78095822388BB3FC0413091F480B77E
:101070008B7F80BF34B381E090E002C0880F991F5E
:101080006A95E2F7282F2095232324BB25B3822BD2
:101090000AC025B381E090E002C0880F991F6A95CD
:1010A000E2F78095822385BB1FC0413091F480B761
:1010B0008B7F80BF31B381E090E002C0880F991F21
:1010C0006A95E2F7282F2095232321BB22B3822B98
:1010D0000AC022B381E090E002C0880F991F6A9590
:1010E000E2F78095822382BB81E0089580E0089535
:1010F000843090F4813049F0813028F0823039F02A
:10110000833051F406C06ABB05C067BB03C064BB33
:1011100001C061BB81E0089580E00895843090F4BF
:10112000813049F0813028F0823039F0833051F439
:1011300006C06BBB05C068BB03C065BB01C062BB1A
:1011400081E0089580E00895FB01843098F48130B7
:1011500049F0813028F0823039F0833059F406C0EC
:1011600089B305C086B303C083B301C080B3808355
:1011700081E0089580E00895843010F080E00895C3
:10118000813059F0813028F0823059F0833061F499
:101190000DC08BB380958BBB07C088B3809588BB8F
:1011A00003C085B3809585BB81E0089582B38095A7
:1011B00082BB81E00895843010F080E008956F7064
:1011C000813071F0813028F0823089F08330A9F4C9
:1011D00016C08BB3807F8BBB8BB3682B6BBB0DC0F2
:1011E00088B3807F88BB88B3682B68BB06C085B393
:1011F000807F85BB85B3682B65BB81E0089582B392
:10120000807F82BB82B3682B62BB81E0089584300B
:1012100010F080E008956295607F813071F0813038
:1012200028F0823089F08330A9F416C08BB38F7018
:101230008BBB8BB3682B6BBB0DC088B38F7088BB27
:1012400088B3682B68BB06C085B38F7085BB85B338
:10125000682B65BB81E0089582B38F7082BB82B337
:10126000682B62BB81E00895843010F080E008951F
:101270006F70813071F0813028F0823089F08330D6
:10128000A9F416C08AB3807F8ABB8AB3682B6ABB75
:101290000DC087B3807F87BB87B3682B67BB06C051
:1012A00084B3807F84BB84B3682B64BB81E00895E2
:1012B00081B3807F81BB81B3682B61BB81E00895DE
:1012C000843010F080E008956295607F813071F085
:1012D000813028F0823089F08330A9F416C08AB3B7
:1012E0008F708ABB8AB3682B6ABB0DC087B38F70BF
:1012F00087BB87B3682B67BB06C084B38F7084BB82
:1013000084B3682B64BB81E0089581B38F7081BB87
:1013100081B3682B61BB81E00895DF93CF9300D048
:101320000F92CDB7DEB7962F6983672F7A838B83B1
:10133000892F0E94A8070F900F900F90CF91DF91F7
:101340000895DF93CF9300D00F92CDB7DEB7262F4D
:1013500069837A838B83672F813019F4822F40E071
:1013600004C0882321F4822F41E00E9400070F90DF
:101370000F900F90CF91DF910895DF93CF9300D01E
:101380000F92CDB7DEB7262F69837A838B83672FC1
:10139000813019F4822F41E004C0882321F4822F88
:1013A00040E00E9400070F900F900F90CF91DF91C7
:1013B0000895DF93CF9300D00F92CDB7DEB7962F6D
:1013C0006983672F7A838B83892F41E00E9482068D
:1013D0000F900F900F90CF91DF9108951F93CF93AF
:1013E000DF9380E690E00E94A80015E3C8ECD0E00F
:1013F00080E20E945700812F0E94570080E197E20F
:10140000FE013197F1F70197D9F71150103381F7A9
:101410008DE00E94570082E190E06FEF0E94750618
:1014200083E080936705DF91CF911F9108958BE64C
:1014300090E00E94A8008DE00E94570088E790E0AD
:101440000E94A8008DE00E9457001092D50580915F
:10145000D5058823B9F08AE890E00E94A8008DE0C5
:101460000E9457008CEA90E00E94A8008DE00E9444
:10147000570088E790E00E94A8008DE00E94570086
:101480001092D5058EEE95E00E947D0080936A054E
:1014900080916A05882389F48091D505882369F4B1
:1014A0008091EE058D3071F38091EE058F3051F310
:1014B0008091EE05883031F314C080916A0588234D
:1014C000E9F48091D5058431C8F48091EE058D3022
:1014D00091F18091EE058F3071F18091EE058830A9
:1014E00021F18091D5056091EE0590E08F5B9F4FD3
:1014F0000E9475068091D5058F5F1AC080916A059C
:10150000882309F0BFCF8091D505843108F4BACF84
:101510008091EE058D3079F08091EE058F3059F095
:101520008091EE05883009F0ADCF8091D5058150CE
:101530008093D505A7CF8091D505863008F487CF55
:1015400081E190E060E00E9475066091D50584E13C
:1015500090E00E94750608958CEB90E00E94A80030
:101560008DE00E94570088E790E00E94A8008DE07F
:101570000E9457001092D4058091D405882381F0F1
:1015800089EC90E00E94A8008DE00E9457008BEE4D
:1015900090E00E94A8008DE00E9457001092D405B0
:1015A0008EEE95E00E947D0080936A0580916A0529
:1015B000882389F48091D405882369F48091EE050D
:1015C0008D3071F38091EE058F3051F38091EE05EF
:1015D000883031F314C080916A058823E1F480914A
:1015E000D4058431C0F48091EE058D3081F1809175
:1015F000EE058F3061F18091EE05883011F1809118
:10160000D4056091EE0590E081960E947506809168
:10161000D4058F5F19C080916A05882309F68091EF
:10162000D405843108F4BCCF8091EE058D3079F07B
:101630008091EE058F3059F08091EE05883009F0E9
:10164000AFCF8091D40581508093D405A9CF8091EC
:10165000D405863008F490CF80E190E060E00E94ED
:1016600075066091D40583E190E00E9475060895A7
:101670000F931F938DEF90E00E94A8008DE00E94D1
:10168000570081E08093690510E08EEE95E00E949E
:101690007D0080936A0580916A058823A1F4112357
:1016A00091F48091EE058D3081F38091EE058F30BD
:1016B00061F38091EE05883041F38091EE058093CF
:1016C000D90511E0E2CF80916A058823B9F414317D
:1016D000A8F48091EE058D3031F18091EE058F30C8
:1016E00011F18091EE058830E1F0E12FF0E080917A
:1016F000EE05E752FA4F80831F5FC7CF80916A05DE
:10170000882319F6143108F28091EE058D3059F0D6
:101710008091EE058F3039F08091EE05883009F028
:10172000B4CF1150B2CF8091D5051817B1F400E0B5
:101730000FC0802F90E0FC01E752FA4F10818F5BC1
:101740009F4F0E947D06181711F0109269050F5FD8
:101750008091D505081768F306C08091D505181744
:1017600011F0109269051F910F9108950F931F9327
:101770008CE091E00E94A8008DE00E94570081E07B
:101780008093680510E08EEE95E00E947D008093C6
:101790006A0580916A058823A1F4112391F4809150
:1017A000EE058D3081F38091EE058F3061F38091ED
:1017B000EE05883041F38091EE058093D90511E064
:1017C000E2CF80916A058823B9F41431A8F480919E
:1017D000EE058D3031F18091EE058F3011F1809161
:1017E000EE058830E1F0E12FF0E08091EE05E75260
:1017F000FA4F80831F5FC7CF80916A05882319F64F
:10180000143108F28091EE058D3059F08091EE058B
:101810008F3039F08091EE05883009F0B4CF115047
:10182000B2CF8091D4051817A9F400E00EC0802F24
:1018300090E0FC01E752FA4F108181960E947D06EC
:10184000181711F0109268050F5F8091D4050817E2
:1018500070F306C08091D405181711F01092680536
:101860001F910F9108950E94B60B0E94380B809132
:101870006805882321F0809169058823B1F58BE103
:1018800091E00E94A8008DE00E94570080916705BA
:101890008150809367056091670582E190E00E9426
:1018A000750680916705882369F088E391E00E94BE
:1018B000A80080916705805D0E9457008DE00E941E
:1018C0005700D1CF80916705882369F688E391E0BE
:1018D0000E94A80080916705805D0E9457008DE0FE
:1018E0000E9457000E94EE09BECF86E491E00E945C
:1018F000A80082E190E06FEF0E94750683E080937C
:1019000067058DE00E9457000895FF920F931F9383
:1019100083E190E00E947D068093D40584E190E00D
:101920000E947D068093D50582E190E00E947D06AD
:101930008F3F31F082E190E00E947D068093670541
:1019400080E190E00E947D068F3F49F48BE591E0B5
:101950000E94A8008DE00E9457000E94AC0A81E11D
:1019600090E00E947D068F3F49F40E94170A8AE6A4
:1019700091E00E94A8008DE00E94570080916705C9
:10198000882311F40E94EE09FF240BC00F2D10E0F4
:10199000C80181960E947D0601511A4FF80180838B
:1019A000F3948091D405F81688F31F910F91FF905E
:1019B000089560916D0570916E0580916F050E948C
:1019C0008D096091700570917105809172050E947A
:1019D0008D096091730570917405809175050E9461
:1019E0008D096091760570917705809178050E9448
:1019F0008D096091790570917A0580917B050E942F
:101A00008D0960917C0570917D0580917E050E9415
:101A10008D0960917F0570918005809181050E94FC
:101A20008D096091820570918305809184050E94E3
:101A30008D096091850570918605809187050E94CA
:101A40008D09609188057091890580918A050E94B1
:101A50008D0960918B0570918C0580918D050E9498
:101A60008D0960918E0570918F05809190050E947F
:101A70008D096091910570919205809193050E9466
:101A80008D096091940570919505809196050E944D
:101A90008D096091970570919805809199050E9434
:101AA0008D0960919A0570919B0580919C050E941B
:101AB0008D0960919D0570919E0580919F050E9402
:101AC0008D096091A0057091A1058091A2050E94E9
:101AD0008D096091A3057091A4058091A5050E94D0
:101AE0008D096091A6057091A7058091A8050E94B7
:101AF0008D096091A9057091AA058091AB050E949E
:101B00008D0988EE93E028EC30E0F9013197F1F788
:101B10000197D9F708958DE791E00E94A8008DE024
:101B20000E94570080E991E00E94A80086EA91E0B7
:101B30000E94A8008DE00E94570085EB91E00E9472
:101B4000A8008BEC91E00E94A8008DE00E94570055
:101B50008EEE95E00E947D0080936A0580916A0573
:101B6000882389F58091EE05823399F0833328F438
:101B7000883031F1813339F505C0833399F08433EE
:101B800011F517C0609185057091860580918705D4
:101B900006C0609188057091890580918A050E9430
:101BA0008D0911C060918B0570918C0580918D0518
:101BB000F6CF60918E0570918F0580919005EFCFE3
:101BC0008DE00E9457008091EE058D3009F6089552
:101BD0008AED91E00E94A8008DE00E94570080E904
:101BE00091E00E94A80086EA91E00E94A8008DE0A2
:101BF0000E9457008EEE95E00E947D0080936A055A
:101C000080916A058823F1F48091EE05813329F0F3
:101C1000823351F08830B1F410C060917C0570912E
:101C20007D0580917E0506C060917F0570918005DD
:101C3000809181050E948D0905C08DE00E945700AA
:101C400010926B058091EE058D30A1F608958EEE11
:101C500091E00E94A8008DE00E94570083E092E08E
:101C60000E94A8008DE00E9457008EEE95E00E9431
:101C70007D0080936A0580916A05882391F48091A4
:101C8000EE05883059F0813361F4609179057091E7
:101C90007A0580917B050E948D0903C08DE00E942A
:101CA00057008091EE058D3001F7089582E192E0B2
:101CB0000E94A8008DE00E9457008BE192E00E94F4
:101CC000A8008DE00E9457008EE292E00E94A800DA
:101CD0008DE00E94570081E492E00E94A8008DE010
:101CE0000E9457008EEE95E00E947D0080936A0569
:101CF00080916A05882309F052C08091EE058233F5
:101D0000C1F0833338F4883009F446C0813309F0D8
:101D100046C004C0833309F042C014C08DE00E9465
:101D2000570080E190E06FEF0E9475060E94AC0AB8
:101D30001AC08DE00E94570081E190E06FEF0E9491
:101D400075060FC08DE00E94570080E190E06FEFB4
:101D50000E94750681E190E06FEF0E9475060E9477
:101D6000AC0A0E94170A82E192E00E94A8008DE06E
:101D70000E9457008BE192E00E94A8008DE00E9433
:101D800057008EE292E00E94A8008DE00E9457006A
:101D900081E492E00E94A8008DE00E9457008091AB
:101DA000EE05883009F09ECF08958FE592E00E94FD
:101DB000A8008DE00E94570080E792E00E94A800F2
:101DC00086E892E00E94A8008DE00E9457008EEE07
:101DD00095E00E947D0080936A0580916A058823C2
:101DE000A1F48091EE05813329F0823329F0883007
:101DF00061F408C080E101C081E163E076E00E9407
:101E00002B0403C08DE00E9457008091EE058830BE
:101E1000F1F608958FE892E00E94A8008DE00E94FC
:101E2000570080E792E00E94A8008DE992E00E94AE
:101E3000A8008DE00E9457008EEE95E00E947D0084
:101E400080936A0580916A058823C1F58091EE052B
:101E5000813329F0823329F0883081F508C083E08E
:101E600001C084E063E076E00E942B0427C08DE08F
:101E70000E94570085EA92E00E94A8008DE00E942F
:101E8000570086EB92E00E94A8008CEC92E00E9442
:101E9000A8008DE00E9457008AED92E00E94A80001
:101EA00080EF92E00E94A8008DE00E9457008FEF23
:101EB00092E00E94A8008DE00E9457008091EE05FC
:101EC000883009F0B9CF08958DE093E00E94A80012
:101ED0008DE00E94570080E792E00E94A8008DE903
:101EE00092E00E94A8008DE00E9457008EEE95E0DF
:101EF0000E947D0080936A0580916A058823C1F560
:101F00008091EE05813329F0823329F0883081F504
:101F100008C081E001C082E063E076E00E942B040B
:101F200027C08DE00E94570085EA92E00E94A80039
:101F30008DE00E94570086EB92E00E94A8008CEC96
:101F400092E00E94A8008DE00E9457008AED92E086
:101F50000E94A80080EF92E00E94A8008DE00E94FD
:101F600057008FEF92E00E94A8008DE00E9457007A
:101F70008091EE05883009F0B9CF08958FE193E0A4
:101F80000E94A8008DE00E94570080E991E00E9425
:101F9000A80086EA91E00E94A8008DE00E94570008
:101FA00082E393E00E94A8008DE00E9457008EEE2D
:101FB00095E00E947D0080936A0580916A058823E0
:101FC00041F58091EE05823389F0833328F488301F
:101FD000E9F08133F1F403C08333D9F410C0609188
:101FE0006D0570916E0580916F0506C0609170055A
:101FF00070917105809172050E948D090AC06091EF
:1020000003068FE070E00E942B0403C08DE00E9465
:1020100057008091EE058D3051F6089581E493E0EC
:102020000E94A8008DE00E94570080E593E00E9486
:10203000A80086E693E00E94A8008DE00E94570069
:1020400081E793E00E94A80087E893E00E94A8003F
:102050008DE00E94570082E993E00E94A8008DE085
:102060000E9457008EEE95E00E947D0080936A05E5
:1020700080916A05882309F040C08091EE05833382
:10208000B1F0843338F4813351F0823350F4883026
:10209000A1F513C0843369F0853379F50CC08AE06B
:1020A00001C08BE063E076E00E942B0426C08CE048
:1020B000F9CF8DE0F7CF8EE0F5CF8DE00E9457008D
:1020C0008DE993E00E94A8008DE00E94570080E90E
:1020D00091E00E94A80086EA91E00E94A8008DE0AD
:1020E0000E9457008EEA93E00E94A80084EC93E0DF
:1020F0000E94A8008DE00E9457008091EE058D306F
:1021000009F0B0CF08958DE993E00E94A8008DE01A
:102110000E94570080E991E00E94A80086EA91E0C1
:102120000E94A8008DE00E9457008FEC93E00E946F
:10213000A8008DE00E9457008EEE95E00E947D0081
:1021400080936A0580916A05882321F58091EE05C8
:10215000823389F0833328F48830C9F08133D1F495
:1021600003C08333B9F410C060919105709192055A
:102170008091930506C060919405709195058091BA
:1021800096050E948D0906C00E940E1003C08DE0C6
:102190000E9457008091EE058D3071F6089581E41C
:1021A00093E00E94A8008DE00E94570080E593E034
:1021B0000E94A80086E693E00E94A8008DE00E949D
:1021C000570081E793E00E94A80087E893E00E940F
:1021D000A8008DE00E94570082E993E00E94A800C9
:1021E0008DE00E9457008EEE95E00E947D00809366
:1021F0006A0580916A05882309F040C08091EE0548
:102200008333B1F0843338F4813351F0823350F4A6
:102210008830A1F513C0843369F0853379F50CC09B
:1022200085E001C086E063E076E00E942B0426C0D2
:1022300087E0F9CF88E0F7CF89E0F5CF8DE00E9405
:1022400057008AED93E00E94A8008DE00E9457009D
:1022500080E991E00E94A80086EA91E00E94A8002F
:102260008DE00E9457008EEA93E00E94A80084EC63
:1022700093E00E94A8008DE00E9457008091EE0537
:102280008D3009F0B0CF08958AED93E00E94A80048
:102290008DE00E94570080E991E00E94A80086EA44
:1022A00091E00E94A8008DE00E9457008EEA93E022
:1022B0000E94A80084EC93E00E94A8008DE00E9498
:1022C00057008EEE95E00E947D0080936A05809114
:1022D0006A05882381F58091EE05823399F0833376
:1022E00028F4883029F1813331F505C0833399F022
:1022F000843309F517C06091970570919805809116
:10230000990506C060919A0570919B0580919C0586
:102310000E948D0910C060919D0570919E0580916D
:102320009F05F6CF8DE00E9457000E94CF1003C09A
:102330008DE00E9457008091EE058D3011F60895D2
:10234000CF93DF9385EA92E00E94A8008DE00E947F
:10235000570086EB92E00E94A8008CEC92E00E946D
:10236000A8008DE00E9457008AED92E00E94A8002C
:1023700080EF92E00E94A8008DE00E9457008FEF4E
:1023800092E00E94A8008DE00E945700C8ECD0E0C7
:102390008EEE95E00E947D0080936A0580916A052B
:1023A000882309F04CC08091EE058333E1F084333B
:1023B00040F4813361F0823380F4883009F03FC00B
:1023C0003BC08433F1F0853309F039C02CC08DE077
:1023D0000E9457000E94640F32C08DE00E94570097
:1023E0000E940A0F2CC081E063E076E00E942B047B
:1023F00084EF91E0FE013197F1F70197D9F783E07F
:102400000DC082E063E076E00E942B0484EF91E04F
:10241000FE013197F1F70197D9F784E063E076E0A8
:102420000E942B040CC060918205709183058091FD
:1024300084050E948D0903C08DE00E9457008091A1
:10244000EE058D3009F0A4CFDF91CF91089581E49E
:1024500093E00E94A8008DE00E94570080E593E081
:102460000E94A80086E693E00E94A8008DE00E94EA
:10247000570081E793E00E94A80087E893E00E945C
:10248000A8008DE00E94570082E993E00E94A80016
:102490008DE00E9457008EEE95E00E947D008093B3
:1024A0006A0580916A058823D1F58091EE05833312
:1024B000A1F0843338F4813351F0823350F4883002
:1024C00071F511C0843359F0853349F50AC080E0B5
:1024D00001C08FE30E94180222C08EE7FBCF8DEB74
:1024E000F9CF8FEFF7CF8DE00E9457008FEE93E08A
:1024F0000E94A8008DE00E94570080E991E00E94B0
:10250000A80086EA91E00E94A8008DE00E94570092
:1025100088E094E00E94A8008DE00E94570080911E
:10252000EE058D3009F0B7CF089585E194E00E9463
:10253000A8008DE00E94570080E991E00E94A80069
:1025400086EA91E00E94A8008DE00E94570088E092
:1025500094E00E94A8008DE00E9457008EEE95E066
:102560000E947D0080936A0580916A05882321F589
:102570008091EE05823389F0833328F48830C9F0E6
:102580008133D1F403C08333B9F410C06091A60540
:102590007091A7058091A80506C06091A90570916A
:1025A000AA058091AB050E948D0906C00E942712E2
:1025B00003C08DE00E9457008091EE058D3071F6CA
:1025C000089580E394E00E94A8008DE00E945700E7
:1025D00080E991E00E94A80086EA91E00E94A800AC
:1025E0008DE00E94570088E094E00E94A8008DE0F2
:1025F0000E9457008EEE95E00E947D0080936A0550
:1026000080916A05882321F58091EE05823389F057
:10261000833328F48830C9F08133D1F403C0833385
:10262000B9F410C06091A0057091A1058091A20538
:1026300006C06091A3057091A4058091A5050E9434
:102640008D0906C00E94271203C08DE00E9457002A
:102650008091EE058D3071F6089581E493E00E943B
:10266000A8008DE00E94570080E593E00E94A8003A
:1026700086E693E00E94A8008DE00E94570081E763
:1026800093E00E94A80087E893E00E94A8008DE0F4
:102690000E94570082E993E00E94A8008DE00E940A
:1026A00057008EEE95E00E947D0080936A05809130
:1026B0006A058823D1F58091EE058333A1F0843338
:1026C00038F4813351F0823350F4883071F511C001
:1026D000843359F0853349F50AC080E001C08FE3A7
:1026E0000E94100222C08EE7FBCF8DEBF9CF8FEF57
:1026F000F7CF8DE00E9457008BE494E00E94A80081
:102700008DE00E94570080E991E00E94A80086EACF
:1027100091E00E94A8008DE00E9457008FE594E0B0
:102720000E94A8008DE00E9457008091EE058D3038
:1027300009F0B7CF08958BE494E00E94A8008DE0E3
:102740000E94570080E991E00E94A80086EA91E08B
:102750000E94A8008DE00E9457008FE594E00E943F
:10276000A8008DE00E9457008EEE95E00E947D004B
:1027700080936A0580916A05882321F58091EE0592
:10278000823389F0833328F48830C9F08133D1F45F
:1027900003C08333B9F410C0609173057091740560
:1027A0008091750506C060917605709177058091DE
:1027B00078050E948D0906C00E942D1303C08DE08C
:1027C0000E9457008091EE058D3071F608951F9399
:1027D00080E06FEF0E94780882E06FEF0E94780837
:1027E00083E06EEF0E94780881E060E041E00E94A3
:1027F000820681E061E041E00E9482060E94490079
:102800000E94F5040E94850C81E063E041E00E9493
:1028100082060E94AB0183E067E041E00E948206ED
:102820000E94F5010E94090585E00E94A70583E04A
:1028300065E00E94150589ED9CE065E00E94D705E2
:1028400081E062E040E00E9482060E94330C8AE64A
:1028500094E00E94A8008FEE95E00E94A8008DE011
:102860000E9457001AE083E794E00E94A8008DE0E0
:102870000E94570081E894E00E94A80087E994E054
:102880000E94A8008DE00E94570085EA94E00E9413
:10289000A8008BEB94E00E94A8008DE00E945700F6
:1028A00088EC94E00E94A8008EED94E00E94A800BD
:1028B0008DE00E94570082EF94E00E94A80088E01B
:1028C00095E00E94A8008DE00E94570084E195E009
:1028D0000E94A8008AE295E00E94A8008DE00E9474
:1028E000570086E395E00E94A8008CE495E00E94E2
:1028F000A8008DE00E9457001092D6051092D705CF
:102900008EEE95E00E947D0080936A0580916A05B5
:10291000882399F48091D605882379F48091EE0577
:102920008D3041F08091EE058F3021F08091EE05E1
:10293000883009F51092D805E3CF80916A05882385
:1029400061F58091D605833040F58091EE058D309C
:10295000B1F18091EE058F3091F18091EE058830D4
:1029600051F41092D8058091D7056AE00E94501565
:102970008093D70531C01092D8058091EE05805321
:102980008093EE058091D7052091EE05819FC001CF
:102990001124280F2093D70525C080916A0588232C
:1029A00009F0AECF8091D605833008F4A9CF80918D
:1029B000EE058D3021F08091EE058F3039F41092C4
:1029C000D8058091D7058D30D0F012C08091EE05EA
:1029D000883031F41092D8058091D605815005C019
:1029E0001092D8058091D6058F5F8093D60588CF49
:1029F00088E595E00E94A8008DE00E945700809134
:102A0000D7058D3008F078CF8091D705863099F1C1
:102A1000873080F4833031F1843030F48130E1F05C
:102A2000823009F020CF1BC08430F9F0853009F0E6
:102A30001ACF1EC0893041F18A3030F48730F1F06E
:102A4000883009F010CF1DC08B3021F18B30F8F0A9
:102A50008C3009F008CF21C00E94A01104CF0E9441
:102A6000441101CF0E948310FECE0E949B13FBCE27
:102A70000E94E112F8CE0E949512F5CE0E94270E18
:102A8000F2CE0E94BE0FEFCE0E94E80DECCE0E9467
:102A90008B0DE9CE0E94D50EE6CE0E94560EE3CEF7
:102AA000991B79E004C0991F961708F0961B881FA0
:0C2AB0007A95C9F780950895F894FFCF3F
:102ABC0054696D65206F7574203A0053657420500D
:102ACC00617373576F7264004D6178696D756D2019
:102ADC0063686172203A2032300050617373576F13
:102AEC007264204D757374206265204D6F72652081
:102AFC007468616E20352043686172005265205302
:102B0C0065742050617373576F7264005365742041
:102B1C00557365724E616D6500557365724E616DCE
:102B2C0065204D757374206265204D6F726520743D
:102B3C0068616E2035204368617200526520456ED5
:102B4C0074657220557365724E616D6500436865DE
:102B5C00636B2050617373576F72640043686563D5
:102B6C006B20557365724E616D6500496E76616CB4
:102B7C00696420557365726E616D65206F722050AB
:102B8C00617373776F7264005472696573204C655E
:102B9C006674203A20005375636365737366756CB5
:102BAC006C79205369676E20696E00506C65617397
:102BBC0065205369676E20557000536176656420FB
:102BCC005375636365737366756C6C790042616CE5
:102BDC0061636F6E204F7074696F6E73203A2000C2
:102BEC00312D204C656431204F4E2F4F464620200E
:102BFC00202020202000322D204C656432204F4EA6
:102C0C002F4F464600332D204C656431204F4E2FFC
:102C1C004F46462020202020202000342D204C65BB
:102C2C006432204F4E2F4F464600436F72726964D8
:102C3C006F72204F7074696F6E73203A200042617E
:102C4C00746820526F6F6D204F7074696F6E7320B3
:102C5C003A2000312D204C656431204F4E2F4F46C9
:102C6C00460053657474696E673A00312D204368D1
:102C7C00616E676520557365724E616D6500322D0E
:102C8C00204368616E67652050617373576F72647F
:102C9C0000322D204368616E676520557365724E56
:102CAC00616D6520262050617373576F726400410B
:102CBC0075746F2046616E20436F6E74726F6C007A
:102CCC00312D204F70656E202020202020202020C8
:102CDC00202020202000322D20436C6F7365005380
:102CEC00616C6F6E20446F6F72203A2000322D2081
:102CFC004C6F636B005374616972204F7074696F11
:102D0C006E73203A2000312D205265636570746912
:102D1C006F6E20446F6F722020202000322D2053C4
:102D2C00616C6F6E20446F6F7200332D204F706595
:102D3C006E20446F6F7273202020202020202000F2
:102D4C00342D20436C6F736520446F6F72730035A4
:102D5C002D204C6564204F4E2F4F46460052656324
:102D6C00657074696F6E20446F6F72203A20004B4F
:102D7C0069746368656E204F7074696F6E73203A66
:102D8C002000332D204B69746368656E2046616E9C
:102D9C000046616E20436F6E74726F6C203A200097
:102DAC00312D2046616E204F666620202020202089
:102DBC00202020202000322D2053706565642031A6
:102DCC0000332D2053706565642032202020202094
:102DDC0020202020202000342D2053706565642095
:102DEC003300352D20537065656420340053616CBD
:102DFC006F6E204F7074696F6E73203A2000332D04
:102E0C00204C656433204F4E2F4F46462020202007
:102E1C0020202000342D205265632046616E003343
:102E2C002D205265632046616E0052656365707497
:102E3C00696F6E204F7074696F6E73203A20004377
:102E4C0068696C6472656E20526F6F6D204F707480
:102E5C00696F6E73203A2000332D204368696C64CF
:102E6C002046616E004368696C6472656E20526F17
:102E7C006F6D2032204F7074696F6E73203A200092
:102E8C004368696C6472656E20526F6F6D203120DF
:102E9C004F7074696F6E73203A2000426564205243
:102EAC006F6F6D204F7074696F6E73203A20003312
:102EBC002D204265642046616E0057656C636F6D12
:102ECC0065200053656C65637420526F6F6D203AFA
:102EDC000031202D20537461697220202020202085
:102EEC002020202020200032202D20526563657088
:102EFC0074696F6E0033202D2053616C6F6E20202F
:102F0C00202020202020202020200034202D204292
:102F1C00656420526F6F6D0035202D204368696CFD
:102F2C006472656E20526F6F6D2031202000362048
:102F3C002D204368696C6472656E20526F6F6D2032
:102F4C00320037202D204261746820526F6F6D2043
:102F5C00202020202020200038202D204B69746355
:102F6C0068656E0039202D20436F727269646F7230
:102F7C002020202020202020200031302D204261D4
:102F8C006C61636F6E0031312D204175746F20467A
:102F9C00616E20436F6E74726F6C200031322D2085
:102FAC0053657474696E6700496E76616C69642050
:102FBC0043686F69736500030101010101000001A1
:102FCC0000010100020100030100040100050100E1
:102FDC0006010007010302010303010304010101BF
:102FEC0001030601010001020001020101020201BC
:0C2FFC00020301020401020501020601AB
:00000001FF
