:100000000C942A000C9447000C9447000C94470071
:100010000C942B0C0C94020C0C94D90B0C94B00B7C
:100020000C94870B0C945E0B0C94350B0C940C0BFE
:100030000C945C0D0C94D3090C9447000C94120A98
:100040000C94B6110C9447000C9447000C94470094
:100050000C94470011241FBECFE5D8E0DEBFCDBF12
:1000600012E0A0E6B0E0EAEEF1E302C005900D92E6
:10007000A231B107D9F712E0A2E1B2E001C01D92AE
:10008000AE37B107E1F70E941C180C94F3180C94DA
:100090000000EF92FF920F931F937B018C0120E0F1
:1000A00030E040E05FE40E94E10488238CF0C80166
:1000B000B70120E030E040E05FE40E94DD020E94F2
:1000C0009F059B01AC01205030404040504806C085
:1000D000C801B7010E949F059B01AC01B901CA018B
:1000E0001F910F91FF90EF900895EF92FF920F9361
:1000F0001F937B018C0120E030E040E050E00E9443
:10010000110588230CF05CC0C801B70190580E940B
:10011000E9002195E1E0121608F0E0E03195F1E008
:10012000131608F0F0E0E32EEE1AE1E03E1508F0B9
:10013000E0E0FE2B4195A1E0141608F0A0E0F42EBB
:10014000FF1AE1E04F1508F0E0E0AE2B5195F1E029
:10015000151608F0F0E0052F0A1BE1E0501708F033
:10016000E0E0FE2B6195A1E0161608F0A0E0162F46
:100170001F1BE1E0611708F0E0E0AE2B7195F1E0A4
:10018000171608F0F0E0B72FBA1BE1E07B1708F074
:10019000E0E0FE2B8195A1E0181608F0A0E0382FD2
:1001A0003F1BF32FE1E0831708F0E0E0AE2B9195C1
:1001B0003E2D4F2D502F612F7B2F8F2F9A1B04C068
:1001C000C801B7010E94E9001F910F91FF90EF90C5
:1001D0000895A0E0B0E0EFEEF0E00C94BC187B01D5
:1001E0008C0120E030E040E85FE30E9411058823A5
:1001F0004CF4AA24BB24CC24DD24EE24FF2400E00C
:1002000010E086C0C801B70120E030E040E85FE4BC
:100210000E941105882354F4C801B7010E944900C7
:100220005B016C01EE24FF24870172C0C801B70195
:1002300020E030E040E85FE50E94110587FD0FC037
:10024000AA24AA94BB24BA94CC24CA94DD24DA94B8
:10025000EE24EA94FF24FA940FEF1FEF59C0C8016F
:10026000B70120E030E040E85FE20E943B037B0101
:100270008C0122243324210190E1A92EB12CC12C20
:10028000D12CC0E0D0E061E070E080E090E00A2C8A
:1002900004C0660F771F881F991F0A94D2F70E9427
:1002A000F3053B014C01C801B701A40193010E9471
:1002B000E104882364F02A283B284C285D28C801E3
:1002C000B701A40193010E9435047B018C01D694EF
:1002D000C794B794A7942196C530D105A1F6C8015B
:1002E000B70120E030E040E85FE40E943B030E9459
:1002F00049005B016C019B01A60160E070E080E0B9
:1003000090E0022D0E946C0659016A017B018C016C
:100310009501A601B701C801CDB7DEB7E2E10C94A3
:10032000D818A0E0B0E0E7E9F1E00C94BC18DC01DB
:100330002B01FA019C91923008F439C1EB018881BC
:10034000823008F433C1943069F4843009F02FC14D
:1003500011969C9111978981981709F428C1A1E001
:10036000B1E025C1843009F421C18230A9F4923072
:1003700009F01DC19A01AD0188E0EA010990AE01C2
:10038000E90109929E018150C1F7E201898111962C
:100390009C918923818308C1923009F407C1129688
:1003A0002D903C901397EB018A819B811496AD9020
:1003B000BD90CD90DC901797EC80FD800E811F8161
:1003C0009101281B390BB90137FF04C06627772735
:1003D000621B730B603271050CF061C012161306BC
:1003E0006CF537014801062E04C0969487947794E3
:1003F00067940A94D2F721E030E040E050E004C076
:10040000220F331F441F551F6A95D2F721503040E9
:10041000404050402E213F214023512321153105DA
:100420004105510521F021E030E040E050E0790144
:100430008A01E628F728082919293CC0232BD1F185
:10044000260E371E35014601062E04C09694879469
:10045000779467940A94D2F721E030E040E050E0CE
:1004600004C0220F331F441F551F6A95D2F7215035
:100470003040404050402A213B214C215D21211534
:1004800031054105510521F021E030E040E050E028
:1004900059016A01A628B728C828D9280BC0821597
:1004A00093052CF01C01AA24BB24650103C0EE2493
:1004B000FF24870111969C91D20111968C91981777
:1004C00009F445C0992339F0A80197012A193B097D
:1004D0004C095D0906C0A60195012E193F09400B84
:1004E000510B57FD08C01182338222822483358349
:1004F000468357831DC081E081833382228288270F
:100500009927DC01821B930BA40BB50B8483958385
:10051000A683B7830DC0220F331F441F551F2483AA
:1005200035834683578382819381019793838283A6
:100530002481358146815781DA01C9010197A109DA
:10054000B1098F5F9F4FAF4FBF4328F30BC091831B
:1005500033822282EA0CFB1C0C1D1D1DE482F582F5
:100560000683178383E08083248135814681578108
:1005700057FF1AC0C901AA2797FDA095BA2F81700D
:100580009070A070B0705695479537952795822B3F
:10059000932BA42BB52B84839583A683B783828169
:1005A0009381019693838283DF0101C0D201CD0143
:1005B000CDB7DEB7E2E10C94D818A0E2B0E0E3EEEC
:1005C000F2E00C94C81869837A838B839C832D8313
:1005D0003E834F835887E9E0EE2EF12CEC0EFD1E92
:1005E000CE010196B7010E940F088E010F5E1F4FCA
:1005F000CE010596B8010E940F088A8991E08927EB
:100600008A8BC701B801AE01475E5F4F0E9491011E
:100610000E943A07A096E6E00C94E418A0E2B0E04D
:10062000E4E1F3E00C94C81869837A838B839C839C
:100630002D833E834F835887F9E0EF2EF12CEC0E8B
:10064000FD1ECE010196B7010E940F088E010F5EBC
:100650001F4FCE010596B8010E940F08C701B801CF
:10066000AE01475E5F4F0E9491010E943A07A0963B
:10067000E6E00C94E418A0E2B0E0E1E4F3E00C94CE
:10068000BC1869837A838B839C832D833E834F833D
:100690005887CE010196BE01675F7F4F0E940F0809
:1006A000CE010596BE016F5E7F4F0E940F089985AF
:1006B000923088F089898230C8F0943019F4823001
:1006C00051F404C0843029F4923081F481E091E047
:1006D000C6C0923049F420E09A858A89981321E0B7
:1006E0002A87CE010996BBC0823049F420E09A8562
:1006F0008A89981321E02A8BCE014196B0C02D84BF
:100700003E844F8458886D887E888F88988CEE242C
:10071000FF248701AA24BB24650140E050E060E08B
:1007200070E0E0E0F0E0C10181709070892BE9F0A9
:10073000E60CF71C081D191D9A01AB012A0D3B1D83
:100740004C1D5D1D80E090E0A0E0B0E0E614F704F1
:100750000805190520F481E090E0A0E0B0E0BA01BE
:10076000A901480F591F6A1F7B1FAA0CBB1CCC1C78
:10077000DD1C97FE08C081E090E0A0E0B0E0A82A70
:10078000B92ACA2ADB2A3196E032F10549F0660C13
:10079000771C881C991C5694479437942794C3CF90
:1007A000FA85EA892B893C898B859C85280F391F1E
:1007B0002E5F3F4F17C0CA0181709070892B61F086
:1007C00016950795F794E79480E090E0A0E0B0E8F4
:1007D000E82AF92A0A2B1B2B76956795579547959A
:1007E0002F5F3F4F77FDE7CF0CC0440F551F661FAB
:1007F000771F17FD4160EE0CFF1C001F111F2150D9
:100800003040403090E0590790E0690790E4790764
:1008100060F32B8F3C8FDB01CA018F779070A07043
:10082000B07080349105A105B10561F447FD0AC09F
:10083000E114F1040105110529F0405C5F4F6F4F91
:100840007F4F40781A8EFE1711F081E08A8F4D8F0E
:100850005E8F6F8F78A383E0898FCE0149960E94C7
:100860003A07A096E2E10C94D818A8E1B0E0EBE3D7
:10087000F4E00C94C41869837A838B839C832D8362
:100880003E834F835887B9E0EB2EF12CEC0EFD1E12
:10089000CE010196B7010E940F088E010F5E1F4F17
:1008A000CE010596B8010E940F082985223008F470
:1008B0007EC03989323010F4B8017CC08A859A89AB
:1008C00089278A87243011F0223031F4231709F068
:1008D0006EC061E071E06EC0343039F41D861E8652
:1008E0001F86188A1C861B8604C0323021F484E0DF
:1008F0008987B7015FC02B853C858B899C89281B24
:10090000390B3C872B87ED84FE840F851889AD88D1
:10091000BE88CF88D88CEA14FB040C051D0540F472
:10092000EE0CFF1C001F111F215030403C872B870D
:1009300020E030E040E050E080E090E0A0E0B0E473
:1009400060E070E0EA14FB040C051D0540F0282B64
:10095000392B4A2B5B2BEA18FB080C091D09B695AD
:10096000A79597958795EE0CFF1C001F111F6F5FD1
:100970007F4F6F31710531F7DA01C9018F779070C0
:10098000A070B07080349105A105B10561F427FD18
:100990000AC0E114F1040105110529F0205C3F4F64
:1009A0004F4F5F4F20782D873E874F87588BBE0172
:1009B000675F7F4FCB010E943A076896EAE00C948C
:1009C000E018A8E1B0E0E7EEF4E00C94C818698301
:1009D0007A838B839C832D833E834F83588789E062
:1009E000E82EF12CEC0EFD1ECE010196B7010E94FF
:1009F0000F088E010F5E1F4FCE010596B8010E94B1
:100A00000F088985823040F08989823028F0C7013B
:100A1000B8010E94870801C08FEF6896E6E00C9449
:100A2000E418A8E1B0E0E7E1F5E00C94C8186983A8
:100A30007A838B839C832D833E834F83588789E001
:100A4000E82EF12CEC0EFD1ECE010196B7010E949E
:100A50000F088E010F5E1F4FCE010596B8010E9450
:100A60000F088985823040F08989823028F0C701DB
:100A7000B8010E94870801C081E06896E6E00C9406
:100A8000E418A8E0B0E0E7E4F5E00C94C5189B0199
:100A9000AC0183E08983DA01C9018827B7FD83951A
:100AA0009927AA27BB27B82E2115310541055105E5
:100AB00019F482E089833AC08823A9F0203080E0CD
:100AC000380780E0480780E8580729F460E070E0C4
:100AD00080E09FEC30C0EE24FF248701E21AF30A85
:100AE000040B150B02C079018A018EE1C82ED12CAE
:100AF000DC82CB82ED82FE820F831887C801B701AA
:100B00000E94EB0601971816190684F4082E04C0FB
:100B1000EE0CFF1C001F111F0A94D2F7ED82FE821B
:100B20000F831887C81AD90ADC82CB82BA82CE0119
:100B300001960E943A072896E9E00C94E118ACE08F
:100B4000B0E0E5EAF5E00C94CC1869837A838B83F6
:100B50009C83CE010196BE016B5F7F4F0E940F0800
:100B60008D81823061F1823050F1843021F48E81A8
:100B7000882351F12EC02F81388537FD20C06E812A
:100B80002F3131051CF06623F9F023C08EE190E08F
:100B9000821B930B29853A854B855C8504C056954D
:100BA0004795379527958A95D2F76623B1F05095EA
:100BB0004095309521953F4F4F4F5F4F0EC020E03D
:100BC00030E040E050E009C02FEF3FEF4FEF5FE72C
:100BD00004C020E030E040E050E8B901CA012C96A2
:100BE000E2E00C94E818A8E0B0E0E9EFF5E00C943E
:100BF000C4187B018C01611571058105910519F4FB
:100C000082E0898360C083E089838EE1C82ED12C85
:100C1000DC82CB82ED82FE820F831887C801B70188
:100C20000E94EB06FC013197F7FF3BC022273327D8
:100C30002E1B3F0B57016801022E04C0D694C794A7
:100C4000B794A7940A94D2F740E050E060E070E0D7
:100C500081E090E0A0E0B0E004C0880F991FAA1FD7
:100C6000BB1F2A95D2F70197A109B1098E219F21B7
:100C7000A023B1230097A105B10521F041E050E088
:100C800060E070E04A295B296C297D294D835E83F1
:100C90006F8378878EE190E08E1B9F0B9C838B8304
:100CA00012C0309781F00E2E04C0EE0CFF1C001F06
:100CB000111F0A94D2F7ED82FE820F831887CE1A95
:100CC000DF0ADC82CB821A82CE0101960E943A07AB
:100CD0002896EAE00C94E018EF92FF920F93DF93CE
:100CE000CF93CDB7DEB760970FB6F894DEBF0FBED7
:100CF000CDBFA82F002309F461C07E010894E11C38
:100D0000F11C88E0F70111928A95E9F729833A836B
:100D10004B835C836D837E83AF83988780E2801BE7
:100D2000E82FFF27E7FDF09549815A816B817C818F
:100D3000181684F019861A861B861C868827992720
:100D40008E1B9F0B04C0440F551F661F771F8A958B
:100D5000D2F728C0202F332727FD3095DB01CA01A9
:100D6000022E04C0880F991FAA1FBB1F0A94D2F736
:100D700089879A87AB87BC8704C076956795579516
:100D80004795EA95D2F78D819E81AF81B88504C0E1
:100D9000880F991FAA1FBB1F2A95D2F7482B592BE2
:100DA0006A2B7B2B4D875E876F87788B29853A85E9
:100DB0004B855C856D857E85AF8598898A2F609689
:100DC0000FB6F894DEBF0FBECDBFCF91DF910F916C
:100DD000FF90EF900895EF92FF920F931F937B0186
:100DE0008C0180E0E81680E0F80681E0080780E0EA
:100DF000180788F48FEFE816F1040105110531F0AA
:100E000028F088E090E0A0E0B0E017C080E090E03B
:100E1000A0E0B0E012C080E0E81680E0F80680E0D4
:100E2000080781E0180728F088E190E0A0E0B0E032
:100E300004C080E190E0A0E0B0E020E230E040E0DB
:100E400050E0281B390B4A0B5B0B04C01695079525
:100E5000F794E7948A95D2F7F701E75FFE4F808118
:100E6000281B310941095109C9011F910F91FF90B8
:100E7000EF900895DF92EF92FF920F931F93FC0182
:100E8000E480F58006811781D1808081823048F42A
:100E900080E090E0A0E1B0E0E82AF92A0A2B1B2BC1
:100EA000A5C0843009F49FC0823021F4EE24FF24D1
:100EB000870105C0E114F1040105110519F4E0E012
:100EC000F0E096C0628173819FEF623879070CF081
:100ED0005BC022E83FEF261B370B2A3131052CF08F
:100EE00020E030E040E050E02AC0B801A701022E27
:100EF00004C076956795579547950A94D2F781E097
:100F000090E0A0E0B0E004C0880F991FAA1FBB1FAB
:100F10002A95D2F70197A109B1098E219F21A0231B
:100F2000B1230097A105B10521F081E090E0A0E098
:100F3000B0E09A01AB01282B392B4A2B5B2BDA014D
:100F4000C9018F779070A070B07080349105A105B1
:100F5000B10539F427FF09C0205C3F4F4F4F5F4F69
:100F600004C0215C3F4F4F4F5F4FE0E0F0E0203086
:100F7000A0E03A07A0E04A07A0E45A0710F0E1E039
:100F8000F0E079018A0127C06038710564F5FB0142
:100F9000E158FF4FD801C7018F779070A070B070F3
:100FA00080349105A105B10539F4E7FE0DC080E458
:100FB00090E0A0E0B0E004C08FE390E0A0E0B0E0FB
:100FC000E80EF91E0A1F1B1F17FF05C0169507958F
:100FD000F794E794319687E016950795F794E79490
:100FE0008A95D1F705C0EE24FF248701EFEFF0E0EA
:100FF0006E2F679566276795902F9F77D794DD248E
:10100000D7948E2F8695492F462B582F5D29B701EF
:10101000CA011F910F91FF90EF90DF900895FC019E
:10102000DB01408151812281622F6F7770E0221FA6
:101030002227221F9381892F880F822B282F30E0AF
:10104000991F9927991F11969C9311972115310586
:10105000A9F5411551056105710511F482E037C00C
:1010600082E89FEF13969C938E9312979A01AB019F
:1010700067E0220F331F441F551F6A95D1F783E0A5
:101080008C930DC0220F331F441F551F12968D9154
:101090009C911397019713969C938E9312972030EF
:1010A00080E0380780E0480780E4580758F314963A
:1010B0002D933D934D935C93179708952F3F3105E2
:1010C00079F4411551056105710519F484E08C939B
:1010D000089564FF03C081E08C9312C01C9210C07D
:1010E0002F57304013963C932E93129783E08C93A6
:1010F00087E0440F551F661F771F8A95D1F77064EC
:1011000014964D935D936D937C93179708951F9359
:10111000DC01FB019C91923008F447C08081823051
:1011200008F443C0943051F411961C91843099F521
:101130008181682F70E0611B71093FC0843021F00C
:10114000923031F48230B9F18181882389F12DC048
:1011500011961C9111978230F1F081811817D9F402
:1011600012962D913C911397828193818217930758
:1011700094F028173907BCF014968D919D910D902D
:10118000BC91A02D248135814681578128173907CC
:101190004A075B0718F4112341F00AC0821793072E
:1011A000A407B50740F4112319F061E070E005C011
:1011B0006FEF7FEF02C060E070E0CB011F910895F8
:1011C000599810BC83E389B95898529886E880BD35
:1011D000579856985598549A539A0895282F809165
:1011E0001402882311F083E0089580E090E0A0E0ED
:1011F000B0E003C00196A11DB11D5D9909C0803109
:1012000037E2930730E0A30730E0B30799F708C04F
:1012100080519742A040B04019F02CB980E001C045
:1012200084E0109214020895FC01009711F482E00A
:10123000089580911402882311F083E0089580E0DE
:1012400090E0A0E0B0E003C00196A11DB11D5F9940
:1012500009C0803127E2920720E0A20720E0B20710
:1012600099F709C080519742A040B04021F08CB15D
:10127000808380E001C084E01092140208950F93EF
:101280001F93CF93DF93009711F482E014C0EC0119
:1012900008EC10E00DC00E94EE0828EE33E0F801E3
:1012A0003197F1F721503040D1F72196882319F476
:1012B0008881882381F7DF91CF911F910F91089545
:1012C000FC0180911402882311F083E00895309787
:1012D000A9F06115710591F081E080931402F093FB
:1012E0001302E0931202709316026093150210929B
:1012F0001A0280818CB9569A80E0089582E00895A0
:10130000AF92BF92CF92DF92EF92FF920F931F9313
:10131000CF93DF93EC015A016B01009711F482E047
:1013200016C0EE24FF2487010CC0CE018E0D9F1D38
:101330000E941409882359F40894E11CF11C011D32
:10134000111DEA14FB040C051D0578F380E0DF9104
:10135000CF911F910F91FF90EF90DF90CF90BF90B2
:10136000AF900895BC0180911402882311F083E0AE
:10137000089561157105A9F02115310591F081E0FD
:101380008093140270931802609317023093160230
:10139000209315024093190210921A02579A80E086
:1013A000089582E008951F920F920FB60F921124B4
:1013B0002F933F934F935F936F937F938F939F935D
:1013C000AF93BF93EF93FF9390911A028CB1E0918A
:1013D0001702F0911802E90FF11D80839F5F90932F
:1013E0001A0280911902981761F410921A02109251
:1013F0001402E0911502F0911602309709F0099558
:101400005798FF91EF91BF91AF919F918F917F91ED
:101410006F915F914F913F912F910F900FBE0F9061
:101420001F9018951F920F920FB60F9211242F93B1
:101430003F934F935F936F937F938F939F93AF935C
:10144000BF93EF93FF9380911A028F5F80931A02EC
:10145000E0911202F0911302E80FF11DE081EE23FA
:1014600069F410921A0210921402E0911502F091A0
:101470001602309709F00995569801C0ECB9FF9112
:10148000EF91BF91AF919F918F917F916F915F91FC
:101490004F913F912F910F900FBE0F901F90189575
:1014A00083B78F7B83BF83B7877F83BF80EC82BF87
:1014B00089B7816089BF83B7887F83BF83B7826024
:1014C00083BF08958FB58E7F8FBD8FB582608FBD2E
:1014D0008EB588608EBD8EB580618EBD1BBC1ABC7A
:1014E00019BC18BC80E29EE497BD86BD8EB58064B1
:1014F0008EBD8FB58F7B8FBD8FB580688FBD8FB54B
:101500008F7E8FBD8FB580628FBD89B78B7F89BF7E
:1015100089B78F7E89BF89B7877F89BF89B78F7D5C
:1015200089BF8EB5887F8EBD8EB582608EBD0895D1
:1015300082B5886082BD85B58F7B85BD85B5877F87
:1015400085BD14BC89B7806489BF85B5887F85BD9A
:1015500085B5816085BD089582BF08959DBD8CBD10
:10156000089584BD08958CBF08959BBD8ABD0895DC
:1015700099BD88BD089583BD089597BD86BD089522
:1015800082B708952CB53DB5C901089584B5089575
:101590009BBD8ABD08958EB580648EBD89B780627B
:1015A00089BF0895813029F48EB580648EBD80E0B6
:1015B0000895882311F081E008958EB58F7B8EBD4C
:1015C00080E0089589B7806289BF089589B78F7DCB
:1015D00089BF089526B537B5C901089581B5887FBB
:1015E00081BD81B5866081BD089581B5886081BD6A
:1015F000089581B5886181BD11BC0895009711F4EB
:1016000082E00895E62FF0E0EE0FFF1FE55EFD4F4C
:101610009183808380E008951F920F920FB60F92FE
:1016200011242F933F934F935F936F937F938F93E7
:101630009F93AF93BF93EF93FF93E0913102F091AB
:101640003202309709F00995FF91EF91BF91AF9168
:101650009F918F917F916F915F914F913F912F91CA
:101660000F900FBE0F901F9018951F920F920FB6FC
:101670000F9211242F933F934F935F936F937F9318
:101680008F939F93AF93BF93EF93FF93E0912F02BC
:10169000F0913002309709F00995FF91EF91BF91D9
:1016A000AF919F918F917F916F915F914F913F91FA
:1016B0002F910F900FBE0F901F9018951F920F92B1
:1016C0000FB60F9211242F933F934F935F936F9315
:1016D0007F938F939F93AF93BF93EF93FF93E0918B
:1016E0002D02F0912E02309709F00995FF91EF91AC
:1016F000BF91AF919F918F917F916F915F914F912A
:101700003F912F910F900FBE0F901F9018951F9231
:101710000F920FB60F9211242F933F934F935F9325
:101720006F937F938F939F93AF93BF93EF93FF93A9
:10173000E0912B02F0912C02309709F00995FF916E
:10174000EF91BF91AF919F918F917F916F915F9139
:101750004F913F912F910F900FBE0F901F901895B2
:101760001F920F920FB60F9211242F933F934F9316
:101770005F936F937F938F939F93AF93BF93EF93F9
:10178000FF93E0912902F0912A02309709F0099520
:10179000FF91EF91BF91AF919F918F917F916F9149
:1017A0005F914F913F912F910F900FBE0F901F901F
:1017B00018951F920F920FB60F9211242F933F93FB
:1017C0004F935F936F937F938F939F93AF93BF9349
:1017D000EF93FF93E0912702F0912802309709F0F0
:1017E0000995FF91EF91BF91AF919F918F917F915B
:1017F0006F915F914F913F912F910F900FBE0F907E
:101800001F9018951F920F920FB60F9211242F93CD
:101810003F934F935F936F937F938F939F93AF9378
:10182000BF93EF93FF93E0912502F091260230974A
:1018300009F00995FF91EF91BF91AF919F918F9121
:101840007F916F915F914F913F912F910F900FBEBC
:101850000F901F9018951F920F920FB60F921124A0
:101860002F933F934F935F936F937F938F939F93A8
:10187000AF93BF93EF93FF93E0912302F091240283
:10188000309709F00995FF91EF91BF91AF919F912A
:101890008F917F916F915F914F913F912F910F9019
:1018A0000FBE0F901F9018956D986C9A6B986A9860
:1018B000689A699870986F986E9A0895FC010097DD
:1018C00009F474C04581442309F470C03481332382
:1018D00009F46CC02681222309F468C05281552383
:1018E00009F464C07081772309F460C063816623C2
:1018F00009F45CC09181992309F458C0413011F07A
:1019000081E002C06A9A80E0332321F0313021F077
:1019100081E003C06B9801C06B9A2330B9F024308A
:1019200028F4213069F0223068F408C02530A1F095
:10193000253078F0263091F081E013C0689803C01C
:10194000689805C0689A6998709A0BC0689A6998F7
:1019500007C06898699AF8CF689801C0689A699A30
:101960007098552331F0513011F081E003C06D982B
:1019700001C06D9A662321F0613021F081E003C03F
:101980006C9A01C06C98772321F0713021F081E0CE
:1019900003C06F9801C06F9A992321F0913021F014
:1019A00081E008956E9808956E9A089582E00895F2
:1019B000982FFB0180912D02882311F083E0089578
:1019C0009FB980E090E0A0E0B0E003C00196A11DC7
:1019D000B11D779B06C080519742A040B04051F4A2
:1019E0000DC0803127E2920720E0A20720E0B20775
:1019F00069F704C08FB1808380E001C084E0109259
:101A00002D020895DF92EF92FF920F931F93CF93D1
:101A1000DF937B01D42E0097A1F06115710589F049
:101A20008C01C0E0D0E009C0B7016C0F7D1FF80148
:101A300081918F010E94D80C2196CD15A8F380E0EA
:101A400001C082E0DF91CF911F910F91FF90EF9045
:101A5000DF900895FC0180912D02882311F083E02E
:101A60000895309739F1A081B181109719F1428121
:101A7000538141155105F1F025813681211531053C
:101A8000C9F081E080932D02B0933102A09330021F
:101A900050932C0240932B02848180933202309326
:101AA0002F0220932E02109233028C918FB96F9ADD
:101AB00080E0089582E008951F920F920FB60F9272
:101AC00011242F933F934F935F936F937F938F9343
:101AD0009F93AF93BF93EF93FF93909133028FB196
:101AE000E0912B02F0912C02E90FF11D80839F5FA2
:101AF0009093330280913202981759F410922D027C
:101B00006F98E0912E02F0912F02309751F00995D5
:101B100008C0E0913002F0913102E90FF11D80819F
:101B20008FB9FF91EF91BF91AF919F918F917F916D
:101B30006F915F914F913F912F910F900FBE0F903A
:101B40001F9018958FB780688FBF08958FB78F77D4
:101B50008FBF08959FBB8EBB6DBBE29AE19AE1995E
:101B6000FECF08958EBB9FBBE09A8DB3089584305D
:101B700008F077C0683008F074C04130B1F58130AA
:101B800099F0813030F08230D1F0833009F06BC0B1
:101B900021C02AB381E090E002C0880F991F6A95A6
:101BA000E2F7282B2ABB5BC027B381E090E002C09C
:101BB000880F991F6A95E2F7282B27BB50C024B3E2
:101BC00081E090E002C0880F991F6A95E2F7282B08
:101BD00024BB45C021B381E090E002C0880F991F6B
:101BE0006A95E2F7282B21BB3AC04423D1F5813016
:101BF00099F0813028F08230D9F08330A1F524C0EB
:101C00002AB381E090E002C0880F991F6A95E2F73D
:101C1000809582238ABB23C027B381E090E002C075
:101C2000880F991F6A95E2F78095822387BB17C0BA
:101C300024B381E090E002C0880F991F6A95E2F713
:101C40008095822384BB0BC021B381E090E002C069
:101C5000880F991F6A95E2F78095822381BB81E006
:101C6000089580E0089581E00895843008F077C0F9
:101C7000683008F074C04130B1F5813099F081309E
:101C800030F08230D1F0833009F06BC021C02BB32B
:101C900081E090E002C0880F991F6A95E2F7282B37
:101CA0002BBB5BC028B381E090E002C0880F991F76
:101CB0006A95E2F7282B28BB50C025B381E090E05D
:101CC00002C0880F991F6A95E2F7282B25BB45C0F3
:101CD00022B381E090E002C0880F991F6A95E2F775
:101CE000282B22BB3AC04423D1F5813099F08130B2
:101CF00028F08230D9F08330A1F524C02BB381E0E5
:101D000090E002C0880F991F6A95E2F780958223C0
:101D10008BBB23C028B381E090E002C0880F991FDD
:101D20006A95E2F78095822388BB17C025B381E0CE
:101D300090E002C0880F991F6A95E2F78095822390
:101D400085BB0BC022B381E090E002C0880F991FD1
:101D50006A95E2F78095822382BB81E0089580E056
:101D6000089581E00895FA01843028F5683018F567
:101D7000813049F0813028F0823039F08330C9F465
:101D800006C029B305C026B303C023B301C020B3E6
:101D900081E090E0062E02C0880F991F0A94E2F7B6
:101DA00030E08223932302C0959587956A95E2F7E8
:101DB000808381E0089580E008958430C0F5683024
:101DC000B0F5813091F0813028F08230C9F0833055
:101DD00061F521C02BB381E090E002C0880F991F0C
:101DE0006A95E2F728272BBB20C028B381E090E05A
:101DF00002C0880F991F6A95E2F7282728BB15C0F3
:101E000025B381E090E002C0880F991F6A95E2F740
:101E1000282725BB0AC022B381E090E002C0880FCA
:101E2000991F6A95E2F7282722BB81E0089580E098
:101E30000895843008F08FC0683008F08CC081307D
:101E400049F1813038F0823009F444C0833009F020
:101E500080C060C0413091F480B78B7F80BF3AB3BF
:101E600081E090E002C0880F991F6A95E2F7282F61
:101E7000209523232ABB2BB3822B0AC02BB381E0EE
:101E800090E002C0880F991F6A95E2F7809582233F
:101E90008BBB5FC0413091F480B78B7F80BF37B37D
:101EA00081E090E002C0880F991F6A95E2F7282F21
:101EB0002095232327BB28B3822B0AC028B381E0B7
:101EC00090E002C0880F991F6A95E2F780958223FF
:101ED00088BB3FC0413091F480B78B7F80BF34B363
:101EE00081E090E002C0880F991F6A95E2F7282FE1
:101EF0002095232324BB25B3822B0AC025B381E080
:101F000090E002C0880F991F6A95E2F780958223BE
:101F100085BB1FC0413091F480B78B7F80BF31B348
:101F200081E090E002C0880F991F6A95E2F7282FA0
:101F30002095232321BB22B3822B0AC022B381E048
:101F400090E002C0880F991F6A95E2F7809582237E
:101F500082BB81E0089580E00895843090F4813060
:101F600049F0813028F0823039F0833051F406C0D6
:101F70006ABB05C067BB03C064BB01C061BB81E035
:101F8000089580E00895843090F4813049F08130E4
:101F900028F0823039F0833051F406C06BBB05C0A5
:101FA00068BB03C065BB01C062BB81E0089580E0EF
:101FB0000895FB01843098F4813049F0813028F095
:101FC000823039F0833059F406C089B305C086B336
:101FD00003C083B301C080B3808381E0089580E0B3
:101FE0000895843010F080E00895813059F08130F8
:101FF00028F0823059F0833061F40DC08BB38095A6
:102000008BBB07C088B3809588BB03C085B3809520
:1020100085BB81E0089582B3809582BB81E00895FD
:10202000843010F080E008956F70813071F081305D
:1020300028F0823089F08330A9F416C08BB3807FFA
:102040008BBB8BB3682B6BBB0DC088B3807F88BB09
:1020500088B3682B68BB06C085B3807F85BB85B31A
:10206000682B65BB81E0089582B3807F82BB82B319
:10207000682B62BB81E00895843010F080E0089501
:102080006295607F813071F0813028F0823089F074
:102090008330A9F416C08BB38F708BBB8BB3682BC6
:1020A0006BBB0DC088B38F7088BB88B3682B68BBCF
:1020B00006C085B38F7085BB85B3682B65BB81E097
:1020C000089582B38F7082BB82B3682B62BB81E0BC
:1020D0000895843010F080E008956F70813071F0C1
:1020E000813028F0823089F08330A9F416C08AB399
:1020F000807F8ABB8AB3682B6ABB0DC087B3807FA1
:1021000087BB87B3682B67BB06C084B3807F84BB63
:1021100084B3682B64BB81E0089581B3807F81BB69
:1021200081B3682B61BB81E00895843010F080E0BA
:1021300008956295607F813071F0813028F082309F
:1021400089F08330A9F416C08AB38F708ABB8AB332
:10215000682B6ABB0DC087B38F7087BB87B3682BB2
:1021600067BB06C084B38F7084BB84B3682B64BB29
:1021700081E0089581B38F7081BB81B3682B61BB0F
:1021800081E008953E9A3F983D9886B1887F86B950
:1021900086B1876086B93598379A33980895379A0B
:1021A000089537980895339A089533980895982F8D
:1021B000823020F0833011F081E0089587B18F7371
:1021C00087B987B19295990F990F907C892B87B920
:1021D00080E00895982F883010F081E0089586B14E
:1021E000887F86B986B1892B86B980E008958823D7
:1021F00011F43D980895813011F081E008953D9AE1
:1022000080E00895883019F4359880E0089588308A
:1022100010F081E00895359A80B78F7180BF80B744
:1022200080BF80E00895982FFB016115710511F4BE
:1022300082E0089580913602882311F083E00895AA
:10224000903230F487B1807E87B987B1892B87B906
:10225000369A80E090E0A0E0B0E003C00196A11DB6
:10226000B11D349B06C08055934CA040B04051F442
:1022700015C0803523EC920720E0A20720E0B207CA
:1022800069F70CC0349A84B145B1342F20E090E056
:10229000282B392B3183208380E001C081E010920C
:1022A00036020895982F6115710511F141155105F8
:1022B000F9F080913602882311F083E0089581E0DF
:1022C0008093360210923902709335026093340283
:1022D0005093380240933702903230F487B1807EB9
:1022E00087B987B1892B87B9369A339A80E00895E8
:1022F00082E00895FC010097B9F1A081B1811097A7
:1023000099F1458156814115510571F12281338141
:102310002115310549F180913602882311F083E0BF
:10232000089581E08093360280933902309335021C
:1023300020933402B0933B02A0933A0284818093AD
:102340003C02509338024093370210923D029C9118
:10235000903230F487B1807E87B987B1982B97B9D6
:10236000369A339A80E0089582E008951F920F9282
:102370000FB60F9211242F933F934F935F936F9358
:102380007F938F939F93AF93BF93EF93FF9380912E
:102390003902882371F424B145B1E0913402F091FF
:1023A0003502942F80E030E0822B932B9183808341
:1023B0001EC08130A9F550913D0224B145B1852F51
:1023C00090E0880F991FE0913402F0913502E80FF8
:1023D000F91F942F80E030E0822B932B9183808330
:1023E0005F5F50933D0280913C02581749F4109270
:1023F0003602E0913702F09138020995339810C007
:10240000E0913A02F0913B02E50FF11DE081E032EC
:1024100030F487B1807E87B987B1E82BE7B9369A67
:10242000FF91EF91BF91AF919F918F917F916F91AC
:102430005F914F913F912F910F900FBE0F901F9082
:102440001895DF93CF9300D000D0CDB7DEB7262FFD
:102450006A837B838C83672F1982823058F4822FA2
:10246000AE014F5F5F4F0E94B30E90E089818823D9
:1024700081F40EC0823011F090E00BC0822FAE01CB
:102480004F5F5F4F0E94B30E90E08981813009F465
:1024900091E0892F0F900F900F900F90CF91DF91C7
:1024A00008950F931F93DF93CF9300D00F92CDB772
:1024B000DEB769837A838B83062F172F862F672FCA
:1024C00040E00E94B70D8B81882329F4802F612F73
:1024D00041E00E94350E0F900F900F90CF91DF9149
:1024E0001F910F9108951DBC1CBC992787FD9095E5
:1024F000A92FB92FBC01CD010E94410521E63BE087
:1025000046EB5BE30E943B0320E030E040EC5FE3FE
:102510000E940E0320E030E04AE754E40E943B03AF
:102520000E9449007BBD6ABD089583E065E041E0FB
:102530000E94B70D0895CF92DF92EF92FF920F9312
:102540001F93DF93CF9300D0CDB7DEB78C016B0123
:10255000FC01818190E028EE33E0829F7001839F2F
:10256000F00C929FF00C11248081BE016F5F7F4FB1
:102570000E941311F8018281882389F4B70180E059
:1025800090E029813A8140E050E00E944C183AE006
:1025900096958795779567953A95D1F70FC08130D5
:1025A00081F4B70180E090E029813A8140E050E079
:1025B0000E944C18672F782F892F9927F601718375
:1025C000608380E00F900F90CF91DF911F910F916A
:1025D000FF90EF90DF90CF900895CF92DF92EF922F
:1025E000FF920F931F93DF93CF9300D0CDB7DEB749
:1025F0008C016B01FC01818190E028EE33E0829F29
:102600007001839FF00C929FF00C11248081BE0119
:102610006F5F7F4F0E941311F8018281882389F434
:10262000B70180E090E029813A8140E050E00E94CB
:102630004C185AE096958795779567955A95D1F7F6
:102640000FC0813071F4B70180E090E029813A81B8
:1026500040E050E00E944C18672F782F892F99276F
:10266000CB016AE070E00E946B18F601608380E0A5
:102670000F900F90CF91DF911F910F91FF90EF90EE
:10268000DF90CF900895DF93CF9300D00F92CDB716
:10269000DEB7962F6983672F7A838B83892F0E94F9
:1026A000DD0E0F900F900F90CF91DF910895DF9383
:1026B000CF9300D00F92CDB7DEB7262F69837A83F0
:1026C0008B83672F813019F4822F40E004C0882368
:1026D00021F4822F41E00E94350E0F900F900F9051
:1026E000CF91DF910895DF93CF9300D00F92CDB7B4
:1026F000DEB7262F69837A838B83672F813019F4A5
:10270000822F41E004C0882321F4822F40E00E9400
:10271000350E0F900F900F90CF91DF910895DF93BA
:10272000CF9300D00F92CDB7DEB7962F6983672F76
:102730007A838B83892F41E00E94B70D0F900F9011
:102740000F90CF91DF9108950F931F9380E064E085
:1027500041E00E94350E00ED17E0C8010197F1F746
:1027600080E064E040E00E94350EC8010197F1F777
:102770001F910F9108951F93182F80E066E040E0AD
:102780000E94350E80E065E040E00E94350E612F2A
:1027900062956F7080E00E9410100E94A41380E088
:1027A000612F0E9410100E94A4131F91089588E1C8
:1027B0000E94BB1380ED97E00197F1F708958CE13B
:1027C0000E94BB1380ED97E00197F1F70895982FD1
:1027D00081508430C0F46623B1F06531A0F49130AB
:1027E00019F4862F815810C0923019F4862F815425
:1027F0000BC0933019F4862F8D5606C0943021F407
:10280000862F8D5201C080E80E94BB1380ED97E0B7
:102810000197F1F7089581E00E94BB1380E29EE4E6
:102820000197F1F708951F93182F80E066E041E0CB
:102830000E94350E80E065E040E00E94350E612F79
:1028400062956F7080E00E9410100E94A41380E0D7
:10285000612F0E9410100E94A4131F9108950F93DE
:102860001F93CF93DF93182F062F80E40E94BB1392
:10287000C9E0D2E089910E94131482E0C131D807E7
:10288000C9F7812F602F0E94E71310E0812F0E946B
:1028900013141F5F1830D1F7DF91CF911F910F9163
:1028A00008956F927F928F929F92AF92BF92CF9234
:1028B000DF92EF92FF920F931F935B016C01611502
:1028C00071058105910521F480E30E94131456C01F
:1028D00097FF0BC08DE20E941314D094C094B09463
:1028E000A094A11CB11CC11CD11C81E0682E712CCC
:1028F000812C912CC401B3012AE030E040E050E08B
:102900000E944C187B018C01C601B5010E94A118E0
:102910003B014C016E0C7F1C801E911EC601B5014F
:102920002AE030E040E050E00E94A118C901DA013D
:102930005C016D01A114B104C104D104D9F618C021
:10294000C401B3012AE030E040E050E00E947F186B
:10295000862F805D0E941314C401B3012AE030E089
:1029600040E050E00E947F18C901DA013C014D01AE
:1029700081E0681671048104910411F71F910F9191
:10298000FF90EF90DF90CF90BF90AF909F908F908F
:102990007F906F900895EF92FF920F931F937B01AA
:1029A0008C010E949F050E945114C801B70120E0CC
:1029B00030E040E050E00E941105882324F417FB2A
:1029C000109517F91095C801B7010E949F050E9444
:1029D00041059B01AC01C801B7010E94DD0220E066
:1029E00030E44CE156E40E943B037B018C010E94E1
:1029F0007500232B242B252B262B272B282B292B2B
:102A000049F08EE20E941314C801B7010E949F058D
:102A10000E9451141F910F91FF90EF9008951F9302
:102A2000CF93DF93EC0110E003C00E9413141F5FEB
:102A3000FE01E10FF11D80818823B9F7DF91CF916D
:102A40001F9108950F931F9384EF91E028EC30E0DD
:102A5000F9013197F1F70197D9F780E060E041E0A3
:102A60000E94B70D80E061E041E00E94B70D80E078
:102A700062E041E00E94B70D80E063E041E00E9427
:102A8000B70D80E066E041E00E94B70D80E065E0B0
:102A900041E00E94B70D80E064E041E00E94B70D84
:102AA00082E00E94BB1380E29EE40197F1F788E286
:102AB0000E94BB1300ED17E0C8010197F1F78CE00D
:102AC0000E94BB13C8010197F1F70E940B1486E026
:102AD0000E94BB13C8010197F1F71F910F91089550
:102AE00080E10E94BB1380E20E94131480E10E94E7
:102AF000BB130895EF92FF920F931F93DF93CF9331
:102B00000F92CDB7DEB798ECE92EF12C0E940B1492
:102B100080E690E00E940F1582E061E00E94E713DA
:102B20008EE00E94BB1310E085E592E00E9414093C
:102B300080931102809111028823D9F41431C8F4D2
:102B4000809155028D3019F1809155028F30F9F046
:102B500080915502883039F1809155020E941314FA
:102B6000E12FF0E080915502E05CFD4F80831F5F14
:102B7000DBCF809111028823B9F61431A8F280913D
:102B800055028D3021F0809155028F3041F48CE058
:102B90000E94BB1380913E021817D1F508C08091A6
:102BA0005502883009F60E9470151150BDCF81E0A2
:102BB000898300E088ECE82EF12C1CC0802F90E087
:102BC000FC01E05CFD4F108181960E94B20D181748
:102BD00081F00E940B148FE690E00E940F1588E8A8
:102BE00093E1F7013197F1F70197D9F70E947A1530
:102BF00019820F5F80913E02081700F3E981E130EE
:102C0000C9F40E940B148EE790E00E940F1512C0C9
:102C100080913E02181771F00E940B148FE690E02D
:102C20000E940F1588E893E1F7013197F1F70197BA
:102C3000D9F76CCF0F90CF91DF911F910F91FF903B
:102C4000EF900895EF92FF921F93CF93DF930E942E
:102C50000B1481E065E00E94E7138CE890E00E948D
:102C60000F1582E061E00E94E71389E990E00E947D
:102C70000F1584E06FE00E942F1484E060E10E9451
:102C8000E7138BEA90E00E940F1583E061E00E9459
:102C9000E71310923F0280913F02882309F450C04D
:102CA0000E940B1481EB90E00E940F1582E061E01E
:102CB0000E94E71382EC90E00E940F1584E061E02F
:102CC0000E942F1484E062E00E94E71383ED90E0FD
:102CD0000E940F1585E592E00E941409809311026D
:102CE000809111028823B1F7809155028D3021F037
:102CF000809155028F3071F70E940B1481E065E0DE
:102D00000E94E7138CE890E00E940F1582E061E0DA
:102D10000E94E71389E990E00E940F1584E06FE0BC
:102D20000E942F1484E060E10E94E7138BEA90E098
:102D30000E940F1583E061E00E94E71310923F02AA
:102D40008EE00E94BB1385E592E00E9414098093F7
:102D5000110280911102882309F580913F0284318C
:102D6000E8F4809155028D3049F1809155028F3001
:102D700029F180915502883079F1809155020E94A5
:102D8000131480913F026091550290E08F5B9F4F3A
:102D90000E94AA0D80913F028F5F23C08091110293
:102DA000882389F680913F02843168F28091550230
:102DB0008D3021F0809155028F3049F48CE00E94D3
:102DC000BB1380913F02863008F465CF0DC080911F
:102DD0005502883009F0B7CF0E94701580913F02EC
:102DE000815080933F02AFCF10E025E1E22EF12C1D
:102DF000C0E6D0E007C0CE01821B930B6FEF0E94AC
:102E0000AA0D1F5F212F30E080913F02A701481BD0
:102E10005109241735077CF381E190E060E00E94BE
:102E2000AA0DDF91CF911F91FF90EF900895EF923F
:102E3000FF921F93CF93DF9383E190E060E00E94C5
:102E4000AA0D83E190E00E94B20D80933E020E94A1
:102E50000B1481E065E00E94E7138BED90E00E9487
:102E60000F1582E061E00E94E71389E990E00E947B
:102E70000F1584E06FE00E942F1484E060E10E944F
:102E8000E7138BEA90E00E940F1583E061E00E9457
:102E9000E71310923E0280913E02882309F450C04D
:102EA0000E940B1488EE90E00E940F1582E061E012
:102EB0000E94E71382EC90E00E940F1584E061E02D
:102EC0000E942F1484E062E00E94E71383ED90E0FB
:102ED0000E940F1585E592E00E941409809311026B
:102EE000809111028823B1F7809155028D3021F035
:102EF000809155028F3071F70E940B1481E065E0DC
:102F00000E94E7138BED90E00E940F1582E061E0D4
:102F10000E94E71389E990E00E940F1584E06FE0BA
:102F20000E942F1484E060E10E94E7138BEA90E096
:102F30000E940F1583E061E00E94E71310923E02A9
:102F40008EE00E94BB1385E592E00E9414098093F5
:102F5000110280911102882301F580913E02843193
:102F6000E0F4809155028D3041F1809155028F300F
:102F700021F180915502883071F1809155020E94B3
:102F8000131480913E026091550290E081960E9458
:102F9000AA0D80913E028F5F23C080911102882389
:102FA00091F680913E02843170F2809155028D300D
:102FB00021F0809155028F3049F48CE00E94BB13C0
:102FC00080913E02863008F466CF0DC08091550294
:102FD000883009F0B8CF0E94701580913E02815070
:102FE00080933E02B0CF10E035E1E32EF12CC0E437
:102FF000D0E007C0CE01821B930B6FEF0E94AA0D99
:103000001F5F212F30E080913E02A701481B51092C
:10301000241735077CF380E190E060E00E94AA0D60
:1030200060913E0283E190E00E94AA0DDF91CF9172
:103030001F91FF90EF90089583E190E00E94B20D00
:1030400080933E020E9422150E94540C0E94E008C8
:1030500081E067E00E94E71389EF90E00E940F157E
:1030600088E893E128EC30E0F9013197F1F7019716
:10307000D9F780E190E00E94B20D8F3F11F40E94D9
:10308000171781E190E00E94B20D8F3F11F40E946A
:1030900022160E947A15FFCF629FD001739FF00124
:1030A000829FE00DF11D649FE00DF11D929FF00DD8
:1030B000839FF00D749FF00D659FF00D9927729F0F
:1030C000B00DE11DF91F639FB00DE11DF91FBD019A
:1030D000CF0111240895AA1BBB1B51E107C0AA1FF1
:1030E000BB1FA617B70710F0A61BB70B881F991FA9
:1030F0005A95A9F780959095BC01CD010895A1E25C
:103100001A2EAA1BBB1BFD010DC0AA1FBB1FEE1F61
:10311000FF1FA217B307E407F50720F0A21BB30BAC
:10312000E40BF50B661F771F881F991F1A9469F728
:1031300060957095809590959B01AC01BD01CF0184
:10314000089597FB092E05260ED057FD04D0D7DF32
:103150000AD0001C38F450954095309521953F4F8A
:103160004F4F5F4F0895F6F7909580957095619554
:103170007F4F8F4F9F4F08952F923F924F925F92B4
:103180006F927F928F929F92AF92BF92CF92DF9277
:10319000EF92FF920F931F93CF93DF93CDB7DEB7DC
:1031A000CA1BDB0B0FB6F894DEBF0FBECDBF099470
:1031B0002A88398848885F846E847D848C849B84C7
:1031C000AA84B984C884DF80EE80FD800C811B81D5
:1031D000AA81B981CE0FD11D0FB6F894DEBF0FBE04
:0A31E000CDBFED010895F894FFCF74
:1031EA00436865636B20557365724E616D65005760
:1031FA00726F6E6720557365724E616D6500547209
:10320A00756520557365724E616D6500536574204E
:10321A0050617373576F7264004D6178696D756D93
:10322A002063686172203A20323000203A204F4BE6
:10323A000050617373576F7264204D757374206206
:10324A0065004D6F7265207468616E203520436891
:10325A00617200203A2045786974005365742055DC
:10326A007365724E616D6500557365724E616D6569
:10327A00204D7573742062650057656C636F6D65C8
:10328A000000000000000000000001020203030326
:10329A0003040404040404040405050505050505DE
:1032AA0005050505050505050506060606060606BD
:1032BA0006060606060606060606060606060606A4
:1032CA00060606060606060606070707070707078D
:1032DA000707070707070707070707070707070774
:1032EA000707070707070707070707070707070764
:1032FA000707070707070707070707070707070754
:10330A00070707070707070707080808080808083C
:10331A000808080808080808080808080808080823
:10332A000808080808080808080808080808080813
:10333A000808080808080808080808080808080803
:10334A0008080808080808080808080808080808F3
:10335A0008080808080808080808080808080808E3
:10336A0008080808080808080808080808080808D3
:10337A0008080808080808080808080808080808C3
:10338A0008080808080808080800010101091F08B8
:02339A00000130
:00000001FF
